{
  "contractName": "BurnableMintableERC20",
  "abi": [
    {
      "inputs": [
        {
          "internalType": "string",
          "name": "_name",
          "type": "string"
        },
        {
          "internalType": "string",
          "name": "_symbol",
          "type": "string"
        },
        {
          "internalType": "uint8",
          "name": "_decimals",
          "type": "uint8"
        }
      ],
      "payable": false,
      "stateMutability": "nonpayable",
      "type": "constructor"
    },
    {
      "anonymous": false,
      "inputs": [
        {
          "indexed": true,
          "internalType": "address",
          "name": "owner",
          "type": "address"
        },
        {
          "indexed": true,
          "internalType": "address",
          "name": "spender",
          "type": "address"
        },
        {
          "indexed": false,
          "internalType": "uint256",
          "name": "value",
          "type": "uint256"
        }
      ],
      "name": "Approval",
      "type": "event"
    },
    {
      "anonymous": false,
      "inputs": [
        {
          "indexed": true,
          "internalType": "address",
          "name": "previousOwner",
          "type": "address"
        },
        {
          "indexed": true,
          "internalType": "address",
          "name": "newOwner",
          "type": "address"
        }
      ],
      "name": "OwnershipTransferred",
      "type": "event"
    },
    {
      "anonymous": false,
      "inputs": [
        {
          "indexed": true,
          "internalType": "address",
          "name": "from",
          "type": "address"
        },
        {
          "indexed": true,
          "internalType": "address",
          "name": "to",
          "type": "address"
        },
        {
          "indexed": false,
          "internalType": "uint256",
          "name": "value",
          "type": "uint256"
        }
      ],
      "name": "Transfer",
      "type": "event"
    },
    {
      "constant": true,
      "inputs": [
        {
          "internalType": "address",
          "name": "owner",
          "type": "address"
        },
        {
          "internalType": "address",
          "name": "spender",
          "type": "address"
        }
      ],
      "name": "allowance",
      "outputs": [
        {
          "internalType": "uint256",
          "name": "",
          "type": "uint256"
        }
      ],
      "payable": false,
      "stateMutability": "view",
      "type": "function"
    },
    {
      "constant": false,
      "inputs": [
        {
          "internalType": "address",
          "name": "spender",
          "type": "address"
        },
        {
          "internalType": "uint256",
          "name": "amount",
          "type": "uint256"
        }
      ],
      "name": "approve",
      "outputs": [
        {
          "internalType": "bool",
          "name": "",
          "type": "bool"
        }
      ],
      "payable": false,
      "stateMutability": "nonpayable",
      "type": "function"
    },
    {
      "constant": true,
      "inputs": [
        {
          "internalType": "address",
          "name": "account",
          "type": "address"
        }
      ],
      "name": "balanceOf",
      "outputs": [
        {
          "internalType": "uint256",
          "name": "",
          "type": "uint256"
        }
      ],
      "payable": false,
      "stateMutability": "view",
      "type": "function"
    },
    {
      "constant": true,
      "inputs": [],
      "name": "decimals",
      "outputs": [
        {
          "internalType": "uint8",
          "name": "",
          "type": "uint8"
        }
      ],
      "payable": false,
      "stateMutability": "view",
      "type": "function"
    },
    {
      "constant": false,
      "inputs": [
        {
          "internalType": "address",
          "name": "spender",
          "type": "address"
        },
        {
          "internalType": "uint256",
          "name": "subtractedValue",
          "type": "uint256"
        }
      ],
      "name": "decreaseAllowance",
      "outputs": [
        {
          "internalType": "bool",
          "name": "",
          "type": "bool"
        }
      ],
      "payable": false,
      "stateMutability": "nonpayable",
      "type": "function"
    },
    {
      "constant": false,
      "inputs": [
        {
          "internalType": "address",
          "name": "spender",
          "type": "address"
        },
        {
          "internalType": "uint256",
          "name": "addedValue",
          "type": "uint256"
        }
      ],
      "name": "increaseAllowance",
      "outputs": [
        {
          "internalType": "bool",
          "name": "",
          "type": "bool"
        }
      ],
      "payable": false,
      "stateMutability": "nonpayable",
      "type": "function"
    },
    {
      "constant": true,
      "inputs": [],
      "name": "isOwner",
      "outputs": [
        {
          "internalType": "bool",
          "name": "",
          "type": "bool"
        }
      ],
      "payable": false,
      "stateMutability": "view",
      "type": "function"
    },
    {
      "constant": true,
      "inputs": [],
      "name": "name",
      "outputs": [
        {
          "internalType": "string",
          "name": "",
          "type": "string"
        }
      ],
      "payable": false,
      "stateMutability": "view",
      "type": "function"
    },
    {
      "constant": true,
      "inputs": [],
      "name": "owner",
      "outputs": [
        {
          "internalType": "address",
          "name": "",
          "type": "address"
        }
      ],
      "payable": false,
      "stateMutability": "view",
      "type": "function"
    },
    {
      "constant": false,
      "inputs": [],
      "name": "renounceOwnership",
      "outputs": [],
      "payable": false,
      "stateMutability": "nonpayable",
      "type": "function"
    },
    {
      "constant": true,
      "inputs": [],
      "name": "symbol",
      "outputs": [
        {
          "internalType": "string",
          "name": "",
          "type": "string"
        }
      ],
      "payable": false,
      "stateMutability": "view",
      "type": "function"
    },
    {
      "constant": true,
      "inputs": [],
      "name": "totalSupply",
      "outputs": [
        {
          "internalType": "uint256",
          "name": "",
          "type": "uint256"
        }
      ],
      "payable": false,
      "stateMutability": "view",
      "type": "function"
    },
    {
      "constant": false,
      "inputs": [
        {
          "internalType": "address",
          "name": "recipient",
          "type": "address"
        },
        {
          "internalType": "uint256",
          "name": "amount",
          "type": "uint256"
        }
      ],
      "name": "transfer",
      "outputs": [
        {
          "internalType": "bool",
          "name": "",
          "type": "bool"
        }
      ],
      "payable": false,
      "stateMutability": "nonpayable",
      "type": "function"
    },
    {
      "constant": false,
      "inputs": [
        {
          "internalType": "address",
          "name": "sender",
          "type": "address"
        },
        {
          "internalType": "address",
          "name": "recipient",
          "type": "address"
        },
        {
          "internalType": "uint256",
          "name": "amount",
          "type": "uint256"
        }
      ],
      "name": "transferFrom",
      "outputs": [
        {
          "internalType": "bool",
          "name": "",
          "type": "bool"
        }
      ],
      "payable": false,
      "stateMutability": "nonpayable",
      "type": "function"
    },
    {
      "constant": false,
      "inputs": [
        {
          "internalType": "address",
          "name": "newOwner",
          "type": "address"
        }
      ],
      "name": "transferOwnership",
      "outputs": [],
      "payable": false,
      "stateMutability": "nonpayable",
      "type": "function"
    },
    {
      "constant": false,
      "inputs": [
        {
          "internalType": "uint256",
          "name": "amount",
          "type": "uint256"
        }
      ],
      "name": "burn",
      "outputs": [],
      "payable": false,
      "stateMutability": "nonpayable",
      "type": "function"
    },
    {
      "constant": false,
      "inputs": [
        {
          "internalType": "address",
          "name": "account",
          "type": "address"
        },
        {
          "internalType": "uint256",
          "name": "amount",
          "type": "uint256"
        }
      ],
      "name": "burnFrom",
      "outputs": [],
      "payable": false,
      "stateMutability": "nonpayable",
      "type": "function"
    },
    {
      "constant": false,
      "inputs": [
        {
          "internalType": "address",
          "name": "account",
          "type": "address"
        },
        {
          "internalType": "uint256",
          "name": "amount",
          "type": "uint256"
        }
      ],
      "name": "mint",
      "outputs": [
        {
          "internalType": "bool",
          "name": "",
          "type": "bool"
        }
      ],
      "payable": false,
      "stateMutability": "nonpayable",
      "type": "function"
    }
  ],
  "bytecode": "0x60806040523480156200001157600080fd5b506040516200178638038062001786833981810160405260608110156200003757600080fd5b81019080805160405193929190846401000000008211156200005857600080fd5b9083019060208201858111156200006e57600080fd5b82516401000000008111828201881017156200008957600080fd5b82525081516020918201929091019080838360005b83811015620000b85781810151838201526020016200009e565b50505050905090810190601f168015620000e65780820380516001836020036101000a031916815260200191505b50604052602001805160405193929190846401000000008211156200010a57600080fd5b9083019060208201858111156200012057600080fd5b82516401000000008111828201881017156200013b57600080fd5b82525081516020918201929091019080838360005b838110156200016a57818101518382015260200162000150565b50505050905090810190601f168015620001985780820380516001836020036101000a031916815260200191505b50604052602090810151855190935085925084918491620001c091600391908601906200025e565b508151620001d69060049060208501906200025e565b506005805460ff191660ff9290921691909117905550620001f8905062000259565b60058054610100600160a81b0319166101006001600160a01b03938416810291909117918290556040519104909116906000907f8be0079c531659141344cd1fd0a4f28419497f9722a3daafe3b4186f6b6457e0908290a350505062000300565b335b90565b828054600181600116156101000203166002900490600052602060002090601f016020900481019282601f10620002a157805160ff1916838001178555620002d1565b82800160010185558215620002d1579182015b82811115620002d1578251825591602001919060010190620002b4565b50620002df929150620002e3565b5090565b6200025b91905b80821115620002df5760008155600101620002ea565b61147680620003106000396000f3fe608060405234801561001057600080fd5b50600436106101365760003560e01c8063715018a6116100b257806395d89b4111610081578063a9059cbb11610066578063a9059cbb146103ff578063dd62ed3e14610438578063f2fde38b1461047357610136565b806395d89b41146103be578063a457c2d7146103c657610136565b8063715018a61461034457806379cc67901461034c5780638da5cb5b146103855780638f32d59b146103b657610136565b8063313ce5671161010957806340c10f19116100ee57806340c10f19146102b957806342966c68146102f257806370a082311461031157610136565b8063313ce56714610262578063395093511461028057610136565b806306fdde031461013b578063095ea7b3146101b857806318160ddd1461020557806323b872dd1461021f575b600080fd5b6101436104a6565b6040805160208082528351818301528351919283929083019185019080838360005b8381101561017d578181015183820152602001610165565b50505050905090810190601f1680156101aa5780820380516001836020036101000a031916815260200191505b509250505060405180910390f35b6101f1600480360360408110156101ce57600080fd5b5073ffffffffffffffffffffffffffffffffffffffff8135169060200135610552565b604080519115158252519081900360200190f35b61020d61056f565b60408051918252519081900360200190f35b6101f16004803603606081101561023557600080fd5b5073ffffffffffffffffffffffffffffffffffffffff813581169160208101359091169060400135610575565b61026a61061c565b6040805160ff9092168252519081900360200190f35b6101f16004803603604081101561029657600080fd5b5073ffffffffffffffffffffffffffffffffffffffff8135169060200135610625565b6101f1600480360360408110156102cf57600080fd5b5073ffffffffffffffffffffffffffffffffffffffff8135169060200135610686565b61030f6004803603602081101561030857600080fd5b5035610705565b005b61020d6004803603602081101561032757600080fd5b503573ffffffffffffffffffffffffffffffffffffffff16610719565b61030f610741565b61030f6004803603604081101561036257600080fd5b5073ffffffffffffffffffffffffffffffffffffffff8135169060200135610828565b61038d610888565b6040805173ffffffffffffffffffffffffffffffffffffffff9092168252519081900360200190f35b6101f16108a9565b6101436108ee565b6101f1600480360360408110156103dc57600080fd5b5073ffffffffffffffffffffffffffffffffffffffff8135169060200135610967565b6101f16004803603604081101561041557600080fd5b5073ffffffffffffffffffffffffffffffffffffffff81351690602001356109e2565b61020d6004803603604081101561044e57600080fd5b5073ffffffffffffffffffffffffffffffffffffffff813581169160200135166109f6565b61030f6004803603602081101561048957600080fd5b503573ffffffffffffffffffffffffffffffffffffffff16610a2e565b6003805460408051602060026001851615610100027fffffffffffffffffffffffffffffffffffffffffffffffffffffffffffffffff0190941693909304601f8101849004840282018401909252818152929183018282801561054a5780601f1061051f5761010080835404028352916020019161054a565b820191906000526020600020905b81548152906001019060200180831161052d57829003601f168201915b505050505081565b600061056661055f610aaa565b8484610aae565b50600192915050565b60025490565b6000610582848484610bf5565b6106128461058e610aaa565b61060d856040518060600160405280602881526020016113676028913973ffffffffffffffffffffffffffffffffffffffff8a166000908152600160205260408120906105d9610aaa565b73ffffffffffffffffffffffffffffffffffffffff168152602081019190915260400160002054919063ffffffff610dc616565b610aae565b5060019392505050565b60055460ff1681565b6000610566610632610aaa565b8461060d8560016000610643610aaa565b73ffffffffffffffffffffffffffffffffffffffff908116825260208083019390935260409182016000908120918c16815292529020549063ffffffff610e7716565b60006106906108a9565b6106fb57604080517f08c379a000000000000000000000000000000000000000000000000000000000815260206004820181905260248201527f4f776e61626c653a2063616c6c6572206973206e6f7420746865206f776e6572604482015290519081900360640190fd5b6105668383610ef2565b610716610710610aaa565b82611023565b50565b73ffffffffffffffffffffffffffffffffffffffff1660009081526020819052604090205490565b6107496108a9565b6107b457604080517f08c379a000000000000000000000000000000000000000000000000000000000815260206004820181905260248201527f4f776e61626c653a2063616c6c6572206973206e6f7420746865206f776e6572604482015290519081900360640190fd5b600554604051600091610100900473ffffffffffffffffffffffffffffffffffffffff16907f8be0079c531659141344cd1fd0a4f28419497f9722a3daafe3b4186f6b6457e0908390a3600580547fffffffffffffffffffffff0000000000000000000000000000000000000000ff169055565b60006108658260405180606001604052806024815260200161138f6024913961085886610853610aaa565b6109f6565b919063ffffffff610dc616565b905061087983610873610aaa565b83610aae565b6108838383611023565b505050565b600554610100900473ffffffffffffffffffffffffffffffffffffffff1690565b600554600090610100900473ffffffffffffffffffffffffffffffffffffffff166108d2610aaa565b73ffffffffffffffffffffffffffffffffffffffff1614905090565b6004805460408051602060026001851615610100027fffffffffffffffffffffffffffffffffffffffffffffffffffffffffffffffff0190941693909304601f8101849004840282018401909252818152929183018282801561054a5780601f1061051f5761010080835404028352916020019161054a565b6000610566610974610aaa565b8461060d8560405180606001604052806025815260200161141d602591396001600061099e610aaa565b73ffffffffffffffffffffffffffffffffffffffff908116825260208083019390935260409182016000908120918d1681529252902054919063ffffffff610dc616565b60006105666109ef610aaa565b8484610bf5565b73ffffffffffffffffffffffffffffffffffffffff918216600090815260016020908152604080832093909416825291909152205490565b610a366108a9565b610aa157604080517f08c379a000000000000000000000000000000000000000000000000000000000815260206004820181905260248201527f4f776e61626c653a2063616c6c6572206973206e6f7420746865206f776e6572604482015290519081900360640190fd5b6107168161116d565b3390565b73ffffffffffffffffffffffffffffffffffffffff8316610b1a576040517f08c379a00000000000000000000000000000000000000000000000000000000081526004018080602001828103825260248152602001806113f96024913960400191505060405180910390fd5b73ffffffffffffffffffffffffffffffffffffffff8216610b86576040517f08c379a000000000000000000000000000000000000000000000000000000000815260040180806020018281038252602281526020018061131f6022913960400191505060405180910390fd5b73ffffffffffffffffffffffffffffffffffffffff808416600081815260016020908152604080832094871680845294825291829020859055815185815291517f8c5be1e5ebec7d5bd14f71427d1e84f3dd0314c0f7b2291e5b200ac8c7c3b9259281900390910190a3505050565b73ffffffffffffffffffffffffffffffffffffffff8316610c61576040517f08c379a00000000000000000000000000000000000000000000000000000000081526004018080602001828103825260258152602001806113d46025913960400191505060405180910390fd5b73ffffffffffffffffffffffffffffffffffffffff8216610ccd576040517f08c379a00000000000000000000000000000000000000000000000000000000081526004018080602001828103825260238152602001806112b46023913960400191505060405180910390fd5b610d1d816040518060600160405280602681526020016113416026913973ffffffffffffffffffffffffffffffffffffffff8616600090815260208190526040902054919063ffffffff610dc616565b73ffffffffffffffffffffffffffffffffffffffff8085166000908152602081905260408082209390935590841681522054610d5f908263ffffffff610e7716565b73ffffffffffffffffffffffffffffffffffffffff8084166000818152602081815260409182902094909455805185815290519193928716927fddf252ad1be2c89b69c2b068fc378daa952ba7f163c4a11628f55a4df523b3ef92918290030190a3505050565b60008184841115610e6f576040517f08c379a00000000000000000000000000000000000000000000000000000000081526004018080602001828103825283818151815260200191508051906020019080838360005b83811015610e34578181015183820152602001610e1c565b50505050905090810190601f168015610e615780820380516001836020036101000a031916815260200191505b509250505060405180910390fd5b505050900390565b600082820183811015610eeb57604080517f08c379a000000000000000000000000000000000000000000000000000000000815260206004820152601b60248201527f536166654d6174683a206164646974696f6e206f766572666c6f770000000000604482015290519081900360640190fd5b9392505050565b73ffffffffffffffffffffffffffffffffffffffff8216610f7457604080517f08c379a000000000000000000000000000000000000000000000000000000000815260206004820152601f60248201527f45524332303a206d696e7420746f20746865207a65726f206164647265737300604482015290519081900360640190fd5b600254610f87908263ffffffff610e7716565b60025573ffffffffffffffffffffffffffffffffffffffff8216600090815260208190526040902054610fc0908263ffffffff610e7716565b73ffffffffffffffffffffffffffffffffffffffff83166000818152602081815260408083209490945583518581529351929391927fddf252ad1be2c89b69c2b068fc378daa952ba7f163c4a11628f55a4df523b3ef9281900390910190a35050565b73ffffffffffffffffffffffffffffffffffffffff821661108f576040517f08c379a00000000000000000000000000000000000000000000000000000000081526004018080602001828103825260218152602001806113b36021913960400191505060405180910390fd5b6110df816040518060600160405280602281526020016112d76022913973ffffffffffffffffffffffffffffffffffffffff8516600090815260208190526040902054919063ffffffff610dc616565b73ffffffffffffffffffffffffffffffffffffffff8316600090815260208190526040902055600254611118908263ffffffff61127116565b60025560408051828152905160009173ffffffffffffffffffffffffffffffffffffffff8516917fddf252ad1be2c89b69c2b068fc378daa952ba7f163c4a11628f55a4df523b3ef9181900360200190a35050565b73ffffffffffffffffffffffffffffffffffffffff81166111d9576040517f08c379a00000000000000000000000000000000000000000000000000000000081526004018080602001828103825260268152602001806112f96026913960400191505060405180910390fd5b60055460405173ffffffffffffffffffffffffffffffffffffffff80841692610100900416907f8be0079c531659141344cd1fd0a4f28419497f9722a3daafe3b4186f6b6457e090600090a36005805473ffffffffffffffffffffffffffffffffffffffff909216610100027fffffffffffffffffffffff0000000000000000000000000000000000000000ff909216919091179055565b6000610eeb83836040518060400160405280601e81526020017f536166654d6174683a207375627472616374696f6e206f766572666c6f770000815250610dc656fe45524332303a207472616e7366657220746f20746865207a65726f206164647265737345524332303a206275726e20616d6f756e7420657863656564732062616c616e63654f776e61626c653a206e6577206f776e657220697320746865207a65726f206164647265737345524332303a20617070726f766520746f20746865207a65726f206164647265737345524332303a207472616e7366657220616d6f756e7420657863656564732062616c616e636545524332303a207472616e7366657220616d6f756e74206578636565647320616c6c6f77616e636545524332303a206275726e20616d6f756e74206578636565647320616c6c6f77616e636545524332303a206275726e2066726f6d20746865207a65726f206164647265737345524332303a207472616e736665722066726f6d20746865207a65726f206164647265737345524332303a20617070726f76652066726f6d20746865207a65726f206164647265737345524332303a2064656372656173656420616c6c6f77616e63652062656c6f77207a65726fa265627a7a7231582011e72235a15a619529589f6c665823c3201887103b39058fb8688934df78e22664736f6c63430005100032",
  "source": "pragma solidity 0.5.16;\n\nimport \"../externals/Ownable.sol\";\nimport \"../externals/ERC20.sol\";\nimport \"../externals/ERC20Detailed.sol\";\n\n/**\n * @title Bretton Protocol Token\n * @dev Burnable and Mintable ERC20 Token\n */\ncontract BurnableMintableERC20 is ERC20, ERC20Detailed, Ownable {\n\n    constructor (\n        string memory _name,\n        string memory _symbol,\n        uint8 _decimals\n    )\n        ERC20Detailed(_name, _symbol, _decimals)\n        public\n    {\n    }\n\n    /**\n     * @dev Destroys `amount` tokens from the caller.\n     *\n     * See {ERC20-_burn}.\n     */\n    function burn(uint256 amount) public {\n        _burn(_msgSender(), amount);\n    }\n\n    /**\n     * @dev Destroys `amount` tokens from `account`, deducting from the caller's\n     * allowance.\n     *\n     * See {ERC20-_burn} and {ERC20-allowance}.\n     *\n     * Requirements:\n     *\n     * - the caller must have allowance for ``accounts``'s tokens of at least\n     * `amount`.\n     */\n    function burnFrom(address account, uint256 amount) public {\n        uint256 decreasedAllowance = allowance(account, _msgSender()).sub(amount, \"ERC20: burn amount exceeds allowance\");\n\n        _approve(account, _msgSender(), decreasedAllowance);\n        _burn(account, amount);\n    }\n\n    /**\n     * @dev See {ERC20-_mint}.\n     *\n     * Requirements:\n     *\n     * - the caller must have the {MinterRole}.\n     */\n    function mint(address account, uint256 amount) public onlyOwner returns (bool) {\n        _mint(account, amount);\n        return true;\n    }\n}\n",
  "sourcePath": "/Users/mhe70/my-workspace/bretton-protocol/contracts/tokens/BurnableMintableERC20.sol",
  "compiler": {
    "name": "solc",
    "version": "0.5.16+commit.9c3226ce.Emscripten.clang"
  },
  "schemaVersion": "3.2.3",
  "updatedAt": "2020-08-22T23:35:22.702Z",
  "devdoc": {
    "details": "Burnable and Mintable ERC20 Token",
    "methods": {
      "burn(uint256)": {
        "details": "Destroys `amount` tokens from the caller.     * See {ERC20-_burn}."
      },
      "burnFrom(address,uint256)": {
        "details": "Destroys `amount` tokens from `account`, deducting from the caller's allowance.     * See {ERC20-_burn} and {ERC20-allowance}.     * Requirements:     * - the caller must have allowance for ``accounts``'s tokens of at least `amount`."
      },
      "mint(address,uint256)": {
        "details": "See {ERC20-_mint}.     * Requirements:     * - the caller must have the {MinterRole}."
      }
    },
    "title": "Bretton Protocol Token"
  },
  "userdoc": {
    "methods": {}
  }
}