{
  "contractName": "CompoundFake",
  "abi": [
    {
      "inputs": [
        {
          "internalType": "string",
          "name": "_name",
          "type": "string"
        },
        {
          "internalType": "string",
          "name": "_symbol",
          "type": "string"
        },
        {
          "internalType": "uint8",
          "name": "_decimals",
          "type": "uint8"
        },
        {
          "internalType": "address",
          "name": "_underlying",
          "type": "address"
        },
        {
          "internalType": "uint256",
          "name": "_exchangeRateMantissa",
          "type": "uint256"
        }
      ],
      "payable": false,
      "stateMutability": "nonpayable",
      "type": "constructor"
    },
    {
      "anonymous": false,
      "inputs": [
        {
          "indexed": true,
          "internalType": "address",
          "name": "owner",
          "type": "address"
        },
        {
          "indexed": true,
          "internalType": "address",
          "name": "spender",
          "type": "address"
        },
        {
          "indexed": false,
          "internalType": "uint256",
          "name": "value",
          "type": "uint256"
        }
      ],
      "name": "Approval",
      "type": "event"
    },
    {
      "anonymous": false,
      "inputs": [
        {
          "indexed": true,
          "internalType": "address",
          "name": "from",
          "type": "address"
        },
        {
          "indexed": true,
          "internalType": "address",
          "name": "to",
          "type": "address"
        },
        {
          "indexed": false,
          "internalType": "uint256",
          "name": "value",
          "type": "uint256"
        }
      ],
      "name": "Transfer",
      "type": "event"
    },
    {
      "constant": true,
      "inputs": [
        {
          "internalType": "address",
          "name": "owner",
          "type": "address"
        },
        {
          "internalType": "address",
          "name": "spender",
          "type": "address"
        }
      ],
      "name": "allowance",
      "outputs": [
        {
          "internalType": "uint256",
          "name": "",
          "type": "uint256"
        }
      ],
      "payable": false,
      "stateMutability": "view",
      "type": "function"
    },
    {
      "constant": false,
      "inputs": [
        {
          "internalType": "address",
          "name": "spender",
          "type": "address"
        },
        {
          "internalType": "uint256",
          "name": "amount",
          "type": "uint256"
        }
      ],
      "name": "approve",
      "outputs": [
        {
          "internalType": "bool",
          "name": "",
          "type": "bool"
        }
      ],
      "payable": false,
      "stateMutability": "nonpayable",
      "type": "function"
    },
    {
      "constant": true,
      "inputs": [
        {
          "internalType": "address",
          "name": "account",
          "type": "address"
        }
      ],
      "name": "balanceOf",
      "outputs": [
        {
          "internalType": "uint256",
          "name": "",
          "type": "uint256"
        }
      ],
      "payable": false,
      "stateMutability": "view",
      "type": "function"
    },
    {
      "constant": true,
      "inputs": [],
      "name": "decimals",
      "outputs": [
        {
          "internalType": "uint8",
          "name": "",
          "type": "uint8"
        }
      ],
      "payable": false,
      "stateMutability": "view",
      "type": "function"
    },
    {
      "constant": false,
      "inputs": [
        {
          "internalType": "address",
          "name": "spender",
          "type": "address"
        },
        {
          "internalType": "uint256",
          "name": "subtractedValue",
          "type": "uint256"
        }
      ],
      "name": "decreaseAllowance",
      "outputs": [
        {
          "internalType": "bool",
          "name": "",
          "type": "bool"
        }
      ],
      "payable": false,
      "stateMutability": "nonpayable",
      "type": "function"
    },
    {
      "constant": true,
      "inputs": [],
      "name": "exchangeRateMantissa",
      "outputs": [
        {
          "internalType": "uint256",
          "name": "",
          "type": "uint256"
        }
      ],
      "payable": false,
      "stateMutability": "view",
      "type": "function"
    },
    {
      "constant": false,
      "inputs": [
        {
          "internalType": "address",
          "name": "spender",
          "type": "address"
        },
        {
          "internalType": "uint256",
          "name": "addedValue",
          "type": "uint256"
        }
      ],
      "name": "increaseAllowance",
      "outputs": [
        {
          "internalType": "bool",
          "name": "",
          "type": "bool"
        }
      ],
      "payable": false,
      "stateMutability": "nonpayable",
      "type": "function"
    },
    {
      "constant": true,
      "inputs": [],
      "name": "name",
      "outputs": [
        {
          "internalType": "string",
          "name": "",
          "type": "string"
        }
      ],
      "payable": false,
      "stateMutability": "view",
      "type": "function"
    },
    {
      "constant": true,
      "inputs": [],
      "name": "symbol",
      "outputs": [
        {
          "internalType": "string",
          "name": "",
          "type": "string"
        }
      ],
      "payable": false,
      "stateMutability": "view",
      "type": "function"
    },
    {
      "constant": true,
      "inputs": [],
      "name": "totalSupply",
      "outputs": [
        {
          "internalType": "uint256",
          "name": "",
          "type": "uint256"
        }
      ],
      "payable": false,
      "stateMutability": "view",
      "type": "function"
    },
    {
      "constant": false,
      "inputs": [
        {
          "internalType": "address",
          "name": "recipient",
          "type": "address"
        },
        {
          "internalType": "uint256",
          "name": "amount",
          "type": "uint256"
        }
      ],
      "name": "transfer",
      "outputs": [
        {
          "internalType": "bool",
          "name": "",
          "type": "bool"
        }
      ],
      "payable": false,
      "stateMutability": "nonpayable",
      "type": "function"
    },
    {
      "constant": false,
      "inputs": [
        {
          "internalType": "address",
          "name": "sender",
          "type": "address"
        },
        {
          "internalType": "address",
          "name": "recipient",
          "type": "address"
        },
        {
          "internalType": "uint256",
          "name": "amount",
          "type": "uint256"
        }
      ],
      "name": "transferFrom",
      "outputs": [
        {
          "internalType": "bool",
          "name": "",
          "type": "bool"
        }
      ],
      "payable": false,
      "stateMutability": "nonpayable",
      "type": "function"
    },
    {
      "constant": true,
      "inputs": [],
      "name": "underlying",
      "outputs": [
        {
          "internalType": "address",
          "name": "",
          "type": "address"
        }
      ],
      "payable": false,
      "stateMutability": "view",
      "type": "function"
    },
    {
      "constant": false,
      "inputs": [
        {
          "internalType": "uint256",
          "name": "_amount",
          "type": "uint256"
        }
      ],
      "name": "mint",
      "outputs": [
        {
          "internalType": "uint256",
          "name": "",
          "type": "uint256"
        }
      ],
      "payable": false,
      "stateMutability": "nonpayable",
      "type": "function"
    },
    {
      "constant": false,
      "inputs": [
        {
          "internalType": "uint256",
          "name": "_amount",
          "type": "uint256"
        }
      ],
      "name": "redeemUnderlying",
      "outputs": [
        {
          "internalType": "uint256",
          "name": "",
          "type": "uint256"
        }
      ],
      "payable": false,
      "stateMutability": "nonpayable",
      "type": "function"
    },
    {
      "constant": true,
      "inputs": [],
      "name": "exchangeRateStored",
      "outputs": [
        {
          "internalType": "uint256",
          "name": "",
          "type": "uint256"
        }
      ],
      "payable": false,
      "stateMutability": "view",
      "type": "function"
    },
    {
      "constant": false,
      "inputs": [
        {
          "internalType": "uint256",
          "name": "_interest",
          "type": "uint256"
        }
      ],
      "name": "accrueInterest",
      "outputs": [],
      "payable": false,
      "stateMutability": "nonpayable",
      "type": "function"
    }
  ],
  "bytecode": "0x60806040523480156200001157600080fd5b5060405162001ba538038062001ba5833981810160405260a08110156200003757600080fd5b81019080805160405193929190846401000000008211156200005857600080fd5b9083019060208201858111156200006e57600080fd5b82516401000000008111828201881017156200008957600080fd5b82525081516020918201929091019080838360005b83811015620000b85781810151838201526020016200009e565b50505050905090810190601f168015620000e65780820380516001836020036101000a031916815260200191505b50604052602001805160405193929190846401000000008211156200010a57600080fd5b9083019060208201858111156200012057600080fd5b82516401000000008111828201881017156200013b57600080fd5b82525081516020918201929091019080838360005b838110156200016a57818101518382015260200162000150565b50505050905090810190601f168015620001985780820380516001836020036101000a031916815260200191505b506040908152602082810151918301516060909301518751929550929350869186918691620001ce91600391908601906200022b565b508151620001e49060049060208501906200022b565b50600580546001600160a01b0390961661010002610100600160a81b031960ff90931660ff199097169690961791909116949094179093555060065550620002d092505050565b828054600181600116156101000203166002900490600052602060002090601f016020900481019282601f106200026e57805160ff19168380011785556200029e565b828001600101855582156200029e579182015b828111156200029e57825182559160200191906001019062000281565b50620002ac929150620002b0565b5090565b620002cd91905b80821115620002ac5760008155600101620002b7565b90565b6118c580620002e06000396000f3fe608060405234801561001057600080fd5b506004361061011b5760003560e01c806370a08231116100b2578063a457c2d711610081578063dd62ed3e11610066578063dd62ed3e146103be578063e0dc1750146103f9578063e318613e146104185761011b565b8063a457c2d71461034c578063a9059cbb146103855761011b565b806370a08231146102d7578063852a12e31461030a57806395d89b4114610327578063a0712d681461032f5761011b565b806323b872dd116100ee57806323b872dd1461020c578063313ce5671461024f578063395093511461026d5780636f307dc3146102a65761011b565b806306fdde0314610120578063095ea7b31461019d57806318160ddd146101ea578063182df0f514610204575b600080fd5b610128610420565b6040805160208082528351818301528351919283929083019185019080838360005b8381101561016257818101518382015260200161014a565b50505050905090810190601f16801561018f5780820380516001836020036101000a031916815260200191505b509250505060405180910390f35b6101d6600480360360408110156101b357600080fd5b5073ffffffffffffffffffffffffffffffffffffffff81351690602001356104cc565b604080519115158252519081900360200190f35b6101f26104ea565b60408051918252519081900360200190f35b6101f26104f0565b6101d66004803603606081101561022257600080fd5b5073ffffffffffffffffffffffffffffffffffffffff8135811691602081013590911690604001356104f6565b61025761059d565b6040805160ff9092168252519081900360200190f35b6101d66004803603604081101561028357600080fd5b5073ffffffffffffffffffffffffffffffffffffffff81351690602001356105a6565b6102ae610607565b6040805173ffffffffffffffffffffffffffffffffffffffff9092168252519081900360200190f35b6101f2600480360360208110156102ed57600080fd5b503573ffffffffffffffffffffffffffffffffffffffff16610628565b6101f26004803603602081101561032057600080fd5b5035610650565b6101286107bb565b6101f26004803603602081101561034557600080fd5b5035610834565b6101d66004803603604081101561036257600080fd5b5073ffffffffffffffffffffffffffffffffffffffff81351690602001356108a9565b6101d66004803603604081101561039b57600080fd5b5073ffffffffffffffffffffffffffffffffffffffff8135169060200135610924565b6101f2600480360360408110156103d457600080fd5b5073ffffffffffffffffffffffffffffffffffffffff81358116916020013516610938565b6104166004803603602081101561040f57600080fd5b5035610970565b005b6101f2610aee565b6003805460408051602060026001851615610100027fffffffffffffffffffffffffffffffffffffffffffffffffffffffffffffffff0190941693909304601f810184900484028201840190925281815292918301828280156104c45780601f10610499576101008083540402835291602001916104c4565b820191906000526020600020905b8154815290600101906020018083116104a757829003601f168201915b505050505081565b60006104e06104d9610af4565b8484610af8565b5060015b92915050565b60025490565b60065490565b6000610503848484610c3f565b6105938461050f610af4565b61058e856040518060600160405280602881526020016117836028913973ffffffffffffffffffffffffffffffffffffffff8a1660009081526001602052604081209061055a610af4565b73ffffffffffffffffffffffffffffffffffffffff168152602081019190915260400160002054919063ffffffff610e1016565b610af8565b5060019392505050565b60055460ff1681565b60006104e06105b3610af4565b8461058e85600160006105c4610af4565b73ffffffffffffffffffffffffffffffffffffffff908116825260208083019390935260409182016000908120918c16815292529020549063ffffffff610ec116565b600554610100900473ffffffffffffffffffffffffffffffffffffffff1681565b73ffffffffffffffffffffffffffffffffffffffff1660009081526020819052604090205490565b600554604080517f70a082310000000000000000000000000000000000000000000000000000000081523060048201529051600092849261010090910473ffffffffffffffffffffffffffffffffffffffff16916370a0823191602480820192602092909190829003018186803b1580156106ca57600080fd5b505afa1580156106de573d6000803e3d6000fd5b505050506040513d60208110156106f457600080fd5b5051101561074d576040517f08c379a000000000000000000000000000000000000000000000000000000000815260040180806020018281038252602d81526020018061183f602d913960400191505060405180910390fd5b60055461077690610100900473ffffffffffffffffffffffffffffffffffffffff163384610f3c565b60065460009061079490670de0b6b3a764000063ffffffff610fce16565b905060006107a8848363ffffffff610fce16565b90506107b43382611010565b5050919050565b6004805460408051602060026001851615610100027fffffffffffffffffffffffffffffffffffffffffffffffffffffffffffffffff0190941693909304601f810184900484028201840190925281815292918301828280156104c45780601f10610499576101008083540402835291602001916104c4565b60055460009061086190610100900473ffffffffffffffffffffffffffffffffffffffff1633308561115a565b60065460009061087f90670de0b6b3a764000063ffffffff610fce16565b90506000610893848363ffffffff610fce16565b905061089f33826111f5565b5060009392505050565b60006104e06108b6610af4565b8461058e8560405180606001604052806025815260200161186c60259139600160006108e0610af4565b73ffffffffffffffffffffffffffffffffffffffff908116825260208083019390935260409182016000908120918d1681529252902054919063ffffffff610e1016565b60006104e0610931610af4565b8484610c3f565b73ffffffffffffffffffffffffffffffffffffffff918216600090815260016020908152604080832093909416825291909152205490565b600654610983908263ffffffff61132616565b600655600554604080517f70a082310000000000000000000000000000000000000000000000000000000081523060048201529051600092610100900473ffffffffffffffffffffffffffffffffffffffff16916370a08231916024808301926020929190829003018186803b1580156109fc57600080fd5b505afa158015610a10573d6000803e3d6000fd5b505050506040513d6020811015610a2657600080fd5b5051600554909150610100900473ffffffffffffffffffffffffffffffffffffffff166340c10f1930610a6984610a5d8188611326565b9063ffffffff61139916565b6040518363ffffffff1660e01b8152600401808373ffffffffffffffffffffffffffffffffffffffff1673ffffffffffffffffffffffffffffffffffffffff16815260200182815260200192505050600060405180830381600087803b158015610ad257600080fd5b505af1158015610ae6573d6000803e3d6000fd5b505050505050565b60065481565b3390565b73ffffffffffffffffffffffffffffffffffffffff8316610b64576040517f08c379a00000000000000000000000000000000000000000000000000000000081526004018080602001828103825260248152602001806117f16024913960400191505060405180910390fd5b73ffffffffffffffffffffffffffffffffffffffff8216610bd0576040517f08c379a000000000000000000000000000000000000000000000000000000000815260040180806020018281038252602281526020018061171a6022913960400191505060405180910390fd5b73ffffffffffffffffffffffffffffffffffffffff808416600081815260016020908152604080832094871680845294825291829020859055815185815291517f8c5be1e5ebec7d5bd14f71427d1e84f3dd0314c0f7b2291e5b200ac8c7c3b9259281900390910190a3505050565b73ffffffffffffffffffffffffffffffffffffffff8316610cab576040517f08c379a00000000000000000000000000000000000000000000000000000000081526004018080602001828103825260258152602001806117cc6025913960400191505060405180910390fd5b73ffffffffffffffffffffffffffffffffffffffff8216610d17576040517f08c379a00000000000000000000000000000000000000000000000000000000081526004018080602001828103825260238152602001806116d56023913960400191505060405180910390fd5b610d678160405180606001604052806026815260200161173c6026913973ffffffffffffffffffffffffffffffffffffffff8616600090815260208190526040902054919063ffffffff610e1016565b73ffffffffffffffffffffffffffffffffffffffff8085166000908152602081905260408082209390935590841681522054610da9908263ffffffff610ec116565b73ffffffffffffffffffffffffffffffffffffffff8084166000818152602081815260409182902094909455805185815290519193928716927fddf252ad1be2c89b69c2b068fc378daa952ba7f163c4a11628f55a4df523b3ef92918290030190a3505050565b60008184841115610eb9576040517f08c379a00000000000000000000000000000000000000000000000000000000081526004018080602001828103825283818151815260200191508051906020019080838360005b83811015610e7e578181015183820152602001610e66565b50505050905090810190601f168015610eab5780820380516001836020036101000a031916815260200191505b509250505060405180910390fd5b505050900390565b600082820183811015610f3557604080517f08c379a000000000000000000000000000000000000000000000000000000000815260206004820152601b60248201527f536166654d6174683a206164646974696f6e206f766572666c6f770000000000604482015290519081900360640190fd5b9392505050565b6040805173ffffffffffffffffffffffffffffffffffffffff8416602482015260448082018490528251808303909101815260649091019091526020810180517bffffffffffffffffffffffffffffffffffffffffffffffffffffffff167fa9059cbb00000000000000000000000000000000000000000000000000000000179052610fc99084906113db565b505050565b6000610f3583836040518060400160405280601a81526020017f536166654d6174683a206469766973696f6e206279207a65726f000000000000815250611619565b73ffffffffffffffffffffffffffffffffffffffff821661107c576040517f08c379a00000000000000000000000000000000000000000000000000000000081526004018080602001828103825260218152602001806117ab6021913960400191505060405180910390fd5b6110cc816040518060600160405280602281526020016116f86022913973ffffffffffffffffffffffffffffffffffffffff8516600090815260208190526040902054919063ffffffff610e1016565b73ffffffffffffffffffffffffffffffffffffffff8316600090815260208190526040902055600254611105908263ffffffff61139916565b60025560408051828152905160009173ffffffffffffffffffffffffffffffffffffffff8516917fddf252ad1be2c89b69c2b068fc378daa952ba7f163c4a11628f55a4df523b3ef9181900360200190a35050565b6040805173ffffffffffffffffffffffffffffffffffffffff85811660248301528416604482015260648082018490528251808303909101815260849091019091526020810180517bffffffffffffffffffffffffffffffffffffffffffffffffffffffff167f23b872dd000000000000000000000000000000000000000000000000000000001790526111ef9085906113db565b50505050565b73ffffffffffffffffffffffffffffffffffffffff821661127757604080517f08c379a000000000000000000000000000000000000000000000000000000000815260206004820152601f60248201527f45524332303a206d696e7420746f20746865207a65726f206164647265737300604482015290519081900360640190fd5b60025461128a908263ffffffff610ec116565b60025573ffffffffffffffffffffffffffffffffffffffff82166000908152602081905260409020546112c3908263ffffffff610ec116565b73ffffffffffffffffffffffffffffffffffffffff83166000818152602081815260408083209490945583518581529351929391927fddf252ad1be2c89b69c2b068fc378daa952ba7f163c4a11628f55a4df523b3ef9281900390910190a35050565b600082611335575060006104e4565b8282028284828161134257fe5b0414610f35576040517f08c379a00000000000000000000000000000000000000000000000000000000081526004018080602001828103825260218152602001806117626021913960400191505060405180910390fd5b6000610f3583836040518060400160405280601e81526020017f536166654d6174683a207375627472616374696f6e206f766572666c6f770000815250610e10565b6113fa8273ffffffffffffffffffffffffffffffffffffffff16611698565b61146557604080517f08c379a000000000000000000000000000000000000000000000000000000000815260206004820152601f60248201527f5361666545524332303a2063616c6c20746f206e6f6e2d636f6e747261637400604482015290519081900360640190fd5b600060608373ffffffffffffffffffffffffffffffffffffffff16836040518082805190602001908083835b602083106114ce57805182527fffffffffffffffffffffffffffffffffffffffffffffffffffffffffffffffe09092019160209182019101611491565b6001836020036101000a0380198251168184511680821785525050505050509050019150506000604051808303816000865af19150503d8060008114611530576040519150601f19603f3d011682016040523d82523d6000602084013e611535565b606091505b5091509150816115a657604080517f08c379a000000000000000000000000000000000000000000000000000000000815260206004820181905260248201527f5361666545524332303a206c6f772d6c6576656c2063616c6c206661696c6564604482015290519081900360640190fd5b8051156111ef578080602001905160208110156115c257600080fd5b50516111ef576040517f08c379a000000000000000000000000000000000000000000000000000000000815260040180806020018281038252602a815260200180611815602a913960400191505060405180910390fd5b60008183611682576040517f08c379a0000000000000000000000000000000000000000000000000000000008152602060048201818152835160248401528351909283926044909101919085019080838360008315610e7e578181015183820152602001610e66565b50600083858161168e57fe5b0495945050505050565b6000813f7fc5d2460186f7233c927e7db2dcc703c0e500b653ca82273b7bfad8045d85a47081158015906116cc5750808214155b94935050505056fe45524332303a207472616e7366657220746f20746865207a65726f206164647265737345524332303a206275726e20616d6f756e7420657863656564732062616c616e636545524332303a20617070726f766520746f20746865207a65726f206164647265737345524332303a207472616e7366657220616d6f756e7420657863656564732062616c616e6365536166654d6174683a206d756c7469706c69636174696f6e206f766572666c6f7745524332303a207472616e7366657220616d6f756e74206578636565647320616c6c6f77616e636545524332303a206275726e2066726f6d20746865207a65726f206164647265737345524332303a207472616e736665722066726f6d20746865207a65726f206164647265737345524332303a20617070726f76652066726f6d20746865207a65726f20616464726573735361666545524332303a204552433230206f7065726174696f6e20646964206e6f742073756363656564434f4d504f554e445f46414b453a20696e73756666696369656e742062616c616e636520746f2072656465656d45524332303a2064656372656173656420616c6c6f77616e63652062656c6f77207a65726fa265627a7a723158208225a53634b49c9748c411739bf1ee284108a7d4702b3c1395b50cfd5c7fe7f364736f6c63430005100032",
  "source": "pragma solidity 0.5.16;\n\nimport \"../externals/SafeMath.sol\";\nimport \"../externals/Address.sol\";\nimport \"../externals/SafeERC20.sol\";\nimport \"../externals/ReentrancyGuard.sol\";\nimport \"../externals/IERC20.sol\";\nimport \"../externals/ERC20.sol\";\nimport \"../externals/ERC20Detailed.sol\";\n\nimport \"../providers/CompoundInterface.sol\";\n\nimport \"./ERC20Fake.sol\";\n\n// Fake implementation of compound's cToken for testing\ncontract CompoundFake is ERC20, ERC20Detailed, CompoundInterface {\n    using SafeERC20 for IERC20;\n    using Address for address;\n    using SafeMath for uint256;\n\n    address public underlying;\n    uint public exchangeRateMantissa; // exchange rate is stored as mantissa (1e18)\n\n    constructor (\n        string memory _name,\n        string memory _symbol,\n        uint8 _decimals,\n        address _underlying,\n        uint _exchangeRateMantissa\n    )\n        ERC20Detailed(_name, _symbol, _decimals)\n        public\n    {\n        underlying = _underlying;\n        exchangeRateMantissa = _exchangeRateMantissa;\n    }\n\n    // _amount = underlying amount deposited\n    function mint(uint256 _amount) external returns ( uint256 ) {\n        // Transfer underlying amount into cTokenFake\n        IERC20(underlying).safeTransferFrom(msg.sender, address(this), _amount);\n\n        // Mint cToken\n        uint exchangeRateScaled = exchangeRateMantissa.div(1e18); // scale down exchangeRateMantissa\n        uint amountToMint = _amount.div(exchangeRateScaled);\n        _mint(msg.sender, amountToMint);\n\n        return 0;\n    }\n\n    // _amount = underlying amount to redeem\n    function redeemUnderlying(uint256 _amount) external returns (uint256) {\n        // Transfer underlying to withdrawer, decrease totalPoolBalance\n        require(IERC20(underlying).balanceOf(address(this)) >= _amount, \"COMPOUND_FAKE: insufficient balance to redeem\");\n        IERC20(underlying).safeTransfer(msg.sender, _amount);\n\n        // Burn cToken for withdrawer\n        uint exchangeRateScaled = exchangeRateMantissa.div(1e18); // scale down exchangeRateMantissa\n        uint amountToBurn = _amount.div(exchangeRateScaled);\n        _burn(msg.sender, amountToBurn);\n    }\n\n    function exchangeRateStored() external view returns (uint) {\n        return exchangeRateMantissa;\n    }\n\n    function accrueInterest(uint _interest) external {\n        exchangeRateMantissa = exchangeRateMantissa.mul(_interest);\n        // also mint underlying so there are enough to redeem\n        uint256 currentBalance = IERC20(underlying).balanceOf(address(this));\n        ERC20Fake(underlying).mint(address(this), currentBalance.mul(_interest).sub(currentBalance));\n    }\n}\n",
  "sourcePath": "/Users/mhe70/my-workspace/bretton-protocol/contracts/test/CompoundFake.sol",
  "compiler": {
    "name": "solc",
    "version": "0.5.16+commit.9c3226ce.Emscripten.clang"
  },
  "schemaVersion": "3.2.3",
  "updatedAt": "2020-08-22T23:35:22.689Z",
  "devdoc": {
    "methods": {}
  },
  "userdoc": {
    "methods": {}
  }
}