{
  "contractName": "DAIPool",
  "abi": [
    {
      "inputs": [],
      "payable": false,
      "stateMutability": "nonpayable",
      "type": "constructor"
    },
    {
      "anonymous": false,
      "inputs": [
        {
          "indexed": true,
          "internalType": "address",
          "name": "beneficiary",
          "type": "address"
        },
        {
          "indexed": false,
          "internalType": "uint256",
          "name": "amount",
          "type": "uint256"
        },
        {
          "indexed": false,
          "internalType": "address",
          "name": "payer",
          "type": "address"
        }
      ],
      "name": "Deposited",
      "type": "event"
    },
    {
      "anonymous": false,
      "inputs": [
        {
          "indexed": true,
          "internalType": "address",
          "name": "token",
          "type": "address"
        },
        {
          "indexed": false,
          "internalType": "uint256",
          "name": "amount",
          "type": "uint256"
        }
      ],
      "name": "Dispensed",
      "type": "event"
    },
    {
      "anonymous": false,
      "inputs": [
        {
          "indexed": true,
          "internalType": "address",
          "name": "previousOwner",
          "type": "address"
        },
        {
          "indexed": true,
          "internalType": "address",
          "name": "newOwner",
          "type": "address"
        }
      ],
      "name": "OwnershipTransferred",
      "type": "event"
    },
    {
      "anonymous": false,
      "inputs": [
        {
          "indexed": true,
          "internalType": "address",
          "name": "beneficiary",
          "type": "address"
        },
        {
          "indexed": false,
          "internalType": "uint256",
          "name": "amount",
          "type": "uint256"
        },
        {
          "indexed": false,
          "internalType": "address",
          "name": "payer",
          "type": "address"
        }
      ],
      "name": "Withdrawn",
      "type": "event"
    },
    {
      "constant": true,
      "inputs": [],
      "name": "balanceCompound",
      "outputs": [
        {
          "internalType": "uint256",
          "name": "",
          "type": "uint256"
        }
      ],
      "payable": false,
      "stateMutability": "view",
      "type": "function"
    },
    {
      "constant": true,
      "inputs": [],
      "name": "balanceCompoundInUnderlying",
      "outputs": [
        {
          "internalType": "uint256",
          "name": "",
          "type": "uint256"
        }
      ],
      "payable": false,
      "stateMutability": "view",
      "type": "function"
    },
    {
      "constant": true,
      "inputs": [],
      "name": "balanceInUnderlying",
      "outputs": [
        {
          "internalType": "uint256",
          "name": "",
          "type": "uint256"
        }
      ],
      "payable": false,
      "stateMutability": "view",
      "type": "function"
    },
    {
      "constant": true,
      "inputs": [],
      "name": "calcPoolValueInUnderlying",
      "outputs": [
        {
          "internalType": "uint256",
          "name": "",
          "type": "uint256"
        }
      ],
      "payable": false,
      "stateMutability": "view",
      "type": "function"
    },
    {
      "constant": true,
      "inputs": [],
      "name": "calcUndispensedEarningInUnderlying",
      "outputs": [
        {
          "internalType": "uint256",
          "name": "",
          "type": "uint256"
        }
      ],
      "payable": false,
      "stateMutability": "view",
      "type": "function"
    },
    {
      "constant": true,
      "inputs": [],
      "name": "calcUndispensedProviderReward",
      "outputs": [
        {
          "internalType": "uint256",
          "name": "",
          "type": "uint256"
        }
      ],
      "payable": false,
      "stateMutability": "view",
      "type": "function"
    },
    {
      "constant": true,
      "inputs": [],
      "name": "compound",
      "outputs": [
        {
          "internalType": "address",
          "name": "",
          "type": "address"
        }
      ],
      "payable": false,
      "stateMutability": "view",
      "type": "function"
    },
    {
      "constant": false,
      "inputs": [
        {
          "internalType": "address",
          "name": "_beneficiary",
          "type": "address"
        },
        {
          "internalType": "uint256",
          "name": "_amount",
          "type": "uint256"
        }
      ],
      "name": "deposit",
      "outputs": [],
      "payable": false,
      "stateMutability": "nonpayable",
      "type": "function"
    },
    {
      "constant": false,
      "inputs": [],
      "name": "dispenseEarning",
      "outputs": [
        {
          "internalType": "uint256",
          "name": "",
          "type": "uint256"
        }
      ],
      "payable": false,
      "stateMutability": "nonpayable",
      "type": "function"
    },
    {
      "constant": false,
      "inputs": [],
      "name": "dispenseReward",
      "outputs": [
        {
          "internalType": "uint256",
          "name": "",
          "type": "uint256"
        }
      ],
      "payable": false,
      "stateMutability": "nonpayable",
      "type": "function"
    },
    {
      "constant": true,
      "inputs": [],
      "name": "earningDispenseThreshold",
      "outputs": [
        {
          "internalType": "uint256",
          "name": "",
          "type": "uint256"
        }
      ],
      "payable": false,
      "stateMutability": "view",
      "type": "function"
    },
    {
      "constant": true,
      "inputs": [],
      "name": "earningRecipient",
      "outputs": [
        {
          "internalType": "address",
          "name": "",
          "type": "address"
        }
      ],
      "payable": false,
      "stateMutability": "view",
      "type": "function"
    },
    {
      "constant": true,
      "inputs": [],
      "name": "isOwner",
      "outputs": [
        {
          "internalType": "bool",
          "name": "",
          "type": "bool"
        }
      ],
      "payable": false,
      "stateMutability": "view",
      "type": "function"
    },
    {
      "constant": true,
      "inputs": [],
      "name": "owner",
      "outputs": [
        {
          "internalType": "address",
          "name": "",
          "type": "address"
        }
      ],
      "payable": false,
      "stateMutability": "view",
      "type": "function"
    },
    {
      "constant": false,
      "inputs": [],
      "name": "renounceOwnership",
      "outputs": [],
      "payable": false,
      "stateMutability": "nonpayable",
      "type": "function"
    },
    {
      "constant": true,
      "inputs": [],
      "name": "rewardDispenseThreshold",
      "outputs": [
        {
          "internalType": "uint256",
          "name": "",
          "type": "uint256"
        }
      ],
      "payable": false,
      "stateMutability": "view",
      "type": "function"
    },
    {
      "constant": true,
      "inputs": [],
      "name": "rewardRecipient",
      "outputs": [
        {
          "internalType": "address",
          "name": "",
          "type": "address"
        }
      ],
      "payable": false,
      "stateMutability": "view",
      "type": "function"
    },
    {
      "constant": true,
      "inputs": [],
      "name": "rewardToken",
      "outputs": [
        {
          "internalType": "address",
          "name": "",
          "type": "address"
        }
      ],
      "payable": false,
      "stateMutability": "view",
      "type": "function"
    },
    {
      "constant": false,
      "inputs": [
        {
          "internalType": "uint256",
          "name": "_threshold",
          "type": "uint256"
        }
      ],
      "name": "setEarningDispenseThreshold",
      "outputs": [],
      "payable": false,
      "stateMutability": "nonpayable",
      "type": "function"
    },
    {
      "constant": false,
      "inputs": [
        {
          "internalType": "address",
          "name": "_recipient",
          "type": "address"
        }
      ],
      "name": "setEarningRecipient",
      "outputs": [],
      "payable": false,
      "stateMutability": "nonpayable",
      "type": "function"
    },
    {
      "constant": false,
      "inputs": [
        {
          "internalType": "uint256",
          "name": "_threshold",
          "type": "uint256"
        }
      ],
      "name": "setRewardDispenseThreshold",
      "outputs": [],
      "payable": false,
      "stateMutability": "nonpayable",
      "type": "function"
    },
    {
      "constant": false,
      "inputs": [
        {
          "internalType": "address",
          "name": "_recipient",
          "type": "address"
        }
      ],
      "name": "setRewardRecipient",
      "outputs": [],
      "payable": false,
      "stateMutability": "nonpayable",
      "type": "function"
    },
    {
      "constant": false,
      "inputs": [
        {
          "internalType": "uint256",
          "name": "_withdrawFeeFactorManitssa",
          "type": "uint256"
        }
      ],
      "name": "setWithdrawFeeFactor",
      "outputs": [],
      "payable": false,
      "stateMutability": "nonpayable",
      "type": "function"
    },
    {
      "constant": true,
      "inputs": [
        {
          "internalType": "address",
          "name": "_account",
          "type": "address"
        }
      ],
      "name": "sharesOf",
      "outputs": [
        {
          "internalType": "uint256",
          "name": "",
          "type": "uint256"
        }
      ],
      "payable": false,
      "stateMutability": "view",
      "type": "function"
    },
    {
      "constant": true,
      "inputs": [],
      "name": "totalShares",
      "outputs": [
        {
          "internalType": "uint256",
          "name": "",
          "type": "uint256"
        }
      ],
      "payable": false,
      "stateMutability": "view",
      "type": "function"
    },
    {
      "constant": false,
      "inputs": [
        {
          "internalType": "address",
          "name": "newOwner",
          "type": "address"
        }
      ],
      "name": "transferOwnership",
      "outputs": [],
      "payable": false,
      "stateMutability": "nonpayable",
      "type": "function"
    },
    {
      "constant": true,
      "inputs": [],
      "name": "underlyingToken",
      "outputs": [
        {
          "internalType": "address",
          "name": "",
          "type": "address"
        }
      ],
      "payable": false,
      "stateMutability": "view",
      "type": "function"
    },
    {
      "constant": false,
      "inputs": [
        {
          "internalType": "address",
          "name": "_beneficiary",
          "type": "address"
        },
        {
          "internalType": "uint256",
          "name": "_amount",
          "type": "uint256"
        }
      ],
      "name": "withdraw",
      "outputs": [
        {
          "internalType": "uint256",
          "name": "",
          "type": "uint256"
        }
      ],
      "payable": false,
      "stateMutability": "nonpayable",
      "type": "function"
    },
    {
      "constant": true,
      "inputs": [],
      "name": "withdrawFeeFactorMantissa",
      "outputs": [
        {
          "internalType": "uint256",
          "name": "",
          "type": "uint256"
        }
      ],
      "payable": false,
      "stateMutability": "view",
      "type": "function"
    }
  ],
  "bytecode": "0x60806040523480156200001157600080fd5b506001600055734f96fe3b7a6cf9725f59d353f723c1bdb64ca6aa7361460874a7196d6a22d1ee4922473664b3e9527073f0d0eb522cfa50b716b3b1604c4f0fa6f04376ad620000696001600160e01b036200010e16565b600180546001600160a01b0319166001600160a01b0392831617908190556040519116906000907f8be0079c531659141344cd1fd0a4f28419497f9722a3daafe3b4186f6b6457e0908290a3600480546001600160a01b038086166001600160a01b031992831617909255600680548584169083161790556005805492841692909116919091179055620001056001600160e01b036200011216565b50505062000477565b3390565b6005546004546200013f916001600160a01b03918216911660001962000141602090811b62001c1617901c565b565b801580620001cb575060408051636eb1769f60e11b81523060048201526001600160a01b03848116602483015291519185169163dd62ed3e91604480820192602092909190829003018186803b1580156200019b57600080fd5b505afa158015620001b0573d6000803e3d6000fd5b505050506040513d6020811015620001c757600080fd5b5051155b620002085760405162461bcd60e51b8152600401808060200182810382526036815260200180620023fa6036913960400191505060405180910390fd5b604080516001600160a01b038416602482015260448082018490528251808303909101815260649091019091526020810180516001600160e01b0390811663095ea7b360e01b17909152620002609185916200026516565b505050565b62000284826001600160a01b03166200043a60201b62001bda1760201c565b620002d6576040805162461bcd60e51b815260206004820152601f60248201527f5361666545524332303a2063616c6c20746f206e6f6e2d636f6e747261637400604482015290519081900360640190fd5b60006060836001600160a01b0316836040518082805190602001908083835b60208310620003165780518252601f199092019160209182019101620002f5565b6001836020036101000a0380198251168184511680821785525050505050509050019150506000604051808303816000865af19150503d80600081146200037a576040519150601f19603f3d011682016040523d82523d6000602084013e6200037f565b606091505b509150915081620003d7576040805162461bcd60e51b815260206004820181905260248201527f5361666545524332303a206c6f772d6c6576656c2063616c6c206661696c6564604482015290519081900360640190fd5b8051156200043457808060200190516020811015620003f557600080fd5b5051620004345760405162461bcd60e51b815260040180806020018281038252602a815260200180620023d0602a913960400191505060405180910390fd5b50505050565b6000813f7fc5d2460186f7233c927e7db2dcc703c0e500b653ca82273b7bfad8045d85a47081158015906200046f5750808214155b949350505050565b611f4980620004876000396000f3fe608060405234801561001057600080fd5b50600436106101cf5760003560e01c8063786edace11610104578063dc00a7f2116100a2578063f3fef3a311610071578063f3fef3a3146103de578063f5eb42dc14610417578063f69e20461461044a578063f7c618c114610452576101cf565b8063dc00a7f214610368578063e336371d14610370578063e521136f14610378578063f2fde38b146103ab576101cf565b806396470b73116100de57806396470b7314610333578063add3046f14610350578063b25898d914610358578063cd822f5014610360576101cf565b8063786edace146102f25780638da5cb5b1461030f5780638f32d59b14610317576101cf565b806347e7ef241161017157806356b994591161014b57806356b99459146102bd57806361c1ec55146102da57806369e7a5e8146102e2578063715018a6146102ea576101cf565b806347e7ef241461024757806351342b041461028257806354517d87146102b5576101cf565b80632495a599116101ad5780632495a59914610227578063357ce5111461022f5780633a98ef391461023757806347ab3c5e1461023f576101cf565b806308f7844e146101d457806317f33340146101ee57806318a18cc81461021f575b600080fd5b6101dc61045a565b60408051918252519081900360200190f35b6101f6610481565b6040805173ffffffffffffffffffffffffffffffffffffffff9092168252519081900360200190f35b6101dc61049d565b6101f66104a3565b6101dc6104bf565b6101dc610565565b6101dc61056b565b6102806004803603604081101561025d57600080fd5b5073ffffffffffffffffffffffffffffffffffffffff813516906020013561058c565b005b6102806004803603602081101561029857600080fd5b503573ffffffffffffffffffffffffffffffffffffffff16610616565b6101dc6106d0565b610280600480360360208110156102d357600080fd5b50356107a5565b6101dc61081d565b6101dc61088e565b6102806108ff565b6102806004803603602081101561030857600080fd5b50356109e1565b6101f6610a59565b61031f610a75565b604080519115158252519081900360200190f35b6102806004803603602081101561034957600080fd5b5035610ab5565b6101dc610b2d565b6101dc610c20565b6101dc610c26565b6101dc610c2c565b6101f6610cf8565b6102806004803603602081101561038e57600080fd5b503573ffffffffffffffffffffffffffffffffffffffff16610d14565b610280600480360360208110156103c157600080fd5b503573ffffffffffffffffffffffffffffffffffffffff16610dce565b6101dc600480360360408110156103f457600080fd5b5073ffffffffffffffffffffffffffffffffffffffff8135169060200135610e4d565b6101dc6004803603602081101561042d57600080fd5b503573ffffffffffffffffffffffffffffffffffffffff16610eda565b6101f6610f02565b6101f6610f1e565b600061047b6104676104bf565b61046f6106d0565b9063ffffffff610f3a16565b90505b90565b60085473ffffffffffffffffffffffffffffffffffffffff1681565b60095481565b60045473ffffffffffffffffffffffffffffffffffffffff1681565b60048054604080517f70a0823100000000000000000000000000000000000000000000000000000000815230938101939093525160009273ffffffffffffffffffffffffffffffffffffffff909216916370a08231916024808301926020929190829003018186803b15801561053457600080fd5b505afa158015610548573d6000803e3d6000fd5b505050506040513d602081101561055e57600080fd5b5051905090565b60025490565b600061047b610578610565565b6105806106d0565b9063ffffffff610fb516565b60008054600101908190556105a18383610ff7565b600054811461061157604080517f08c379a000000000000000000000000000000000000000000000000000000000815260206004820152601f60248201527f5265656e7472616e637947756172643a207265656e7472616e742063616c6c00604482015290519081900360640190fd5b505050565b61061e610a75565b61068957604080517f08c379a000000000000000000000000000000000000000000000000000000000815260206004820181905260248201527f4f776e61626c653a2063616c6c6572206973206e6f7420746865206f776e6572604482015290519081900360640190fd5b600780547fffffffffffffffffffffffff00000000000000000000000000000000000000001673ffffffffffffffffffffffffffffffffffffffff92909216919091179055565b6000806106db61081d565b9050801561047b5761079f670de0b6b3a7640000610793600560009054906101000a900473ffffffffffffffffffffffffffffffffffffffff1673ffffffffffffffffffffffffffffffffffffffff1663182df0f56040518163ffffffff1660e01b815260040160206040518083038186803b15801561075a57600080fd5b505afa15801561076e573d6000803e3d6000fd5b505050506040513d602081101561078457600080fd5b5051849063ffffffff6110e116565b9063ffffffff61115416565b92915050565b6107ad610a75565b61081857604080517f08c379a000000000000000000000000000000000000000000000000000000000815260206004820181905260248201527f4f776e61626c653a2063616c6c6572206973206e6f7420746865206f776e6572604482015290519081900360640190fd5b600b55565b600554604080517f70a08231000000000000000000000000000000000000000000000000000000008152306004820152905160009273ffffffffffffffffffffffffffffffffffffffff16916370a08231916024808301926020929190829003018186803b15801561053457600080fd5b600654604080517f70a08231000000000000000000000000000000000000000000000000000000008152306004820152905160009273ffffffffffffffffffffffffffffffffffffffff16916370a08231916024808301926020929190829003018186803b15801561053457600080fd5b610907610a75565b61097257604080517f08c379a000000000000000000000000000000000000000000000000000000000815260206004820181905260248201527f4f776e61626c653a2063616c6c6572206973206e6f7420746865206f776e6572604482015290519081900360640190fd5b60015460405160009173ffffffffffffffffffffffffffffffffffffffff16907f8be0079c531659141344cd1fd0a4f28419497f9722a3daafe3b4186f6b6457e0908390a3600180547fffffffffffffffffffffffff0000000000000000000000000000000000000000169055565b6109e9610a75565b610a5457604080517f08c379a000000000000000000000000000000000000000000000000000000000815260206004820181905260248201527f4f776e61626c653a2063616c6c6572206973206e6f7420746865206f776e6572604482015290519081900360640190fd5b600a55565b60015473ffffffffffffffffffffffffffffffffffffffff1690565b60015460009073ffffffffffffffffffffffffffffffffffffffff16610a99611196565b73ffffffffffffffffffffffffffffffffffffffff1614905090565b610abd610a75565b610b2857604080517f08c379a000000000000000000000000000000000000000000000000000000000815260206004820181905260248201527f4f776e61626c653a2063616c6c6572206973206e6f7420746865206f776e6572604482015290519081900360640190fd5b600955565b60075460009073ffffffffffffffffffffffffffffffffffffffff16610b555750600061047e565b6000610b5f61056b565b90506000610b7b610b6e6104bf565b839063ffffffff610f3a16565b9050600a54811015610b925760009250505061047e565b610b9b8261119a565b600754600454610bcb9173ffffffffffffffffffffffffffffffffffffffff91821691168363ffffffff6112f016565b60045460408051838152905173ffffffffffffffffffffffffffffffffffffffff909216917f9899ec0ebe3373a4dc9e4341300abb6b1069544a3b9caf0988544c5302ffdab09181900360200190a291505090565b600b5481565b600a5481565b60085460009073ffffffffffffffffffffffffffffffffffffffff16610c545750600061047e565b6000610c5e61088e565b9050600b54811015610c7457600091505061047e565b600854600654610ca49173ffffffffffffffffffffffffffffffffffffffff91821691168363ffffffff6112f016565b60065460408051838152905173ffffffffffffffffffffffffffffffffffffffff909216917f9899ec0ebe3373a4dc9e4341300abb6b1069544a3b9caf0988544c5302ffdab09181900360200190a2905090565b60075473ffffffffffffffffffffffffffffffffffffffff1681565b610d1c610a75565b610d8757604080517f08c379a000000000000000000000000000000000000000000000000000000000815260206004820181905260248201527f4f776e61626c653a2063616c6c6572206973206e6f7420746865206f776e6572604482015290519081900360640190fd5b600880547fffffffffffffffffffffffff00000000000000000000000000000000000000001673ffffffffffffffffffffffffffffffffffffffff92909216919091179055565b610dd6610a75565b610e4157604080517f08c379a000000000000000000000000000000000000000000000000000000000815260206004820181905260248201527f4f776e61626c653a2063616c6c6572206973206e6f7420746865206f776e6572604482015290519081900360640190fd5b610e4a8161137d565b50565b60008054600101808255610e618484611477565b91506000548114610ed357604080517f08c379a000000000000000000000000000000000000000000000000000000000815260206004820152601f60248201527f5265656e7472616e637947756172643a207265656e7472616e742063616c6c00604482015290519081900360640190fd5b5092915050565b73ffffffffffffffffffffffffffffffffffffffff1660009081526003602052604090205490565b60055473ffffffffffffffffffffffffffffffffffffffff1681565b60065473ffffffffffffffffffffffffffffffffffffffff1681565b600082820183811015610fae57604080517f08c379a000000000000000000000000000000000000000000000000000000000815260206004820152601b60248201527f536166654d6174683a206164646974696f6e206f766572666c6f770000000000604482015290519081900360640190fd5b9392505050565b6000610fae83836040518060400160405280601e81526020017f536166654d6174683a207375627472616374696f6e206f766572666c6f770000815250611600565b60008111611050576040517f08c379a000000000000000000000000000000000000000000000000000000000815260040180806020018281038252602c815260200180611e11602c913960400191505060405180910390fd5b60045461107b9073ffffffffffffffffffffffffffffffffffffffff1633308463ffffffff6116b116565b6110848161174c565b61108e8282611858565b60408051828152336020820152815173ffffffffffffffffffffffffffffffffffffffff8516927fb4e1304f97b5093610f51b33ddab6622388422e2dac138b0d32f93dcfbd39edf928290030190a25050565b6000826110f05750600061079f565b828202828482816110fd57fe5b0414610fae576040517f08c379a0000000000000000000000000000000000000000000000000000000008152600401808060200182810382526021815260200180611df06021913960400191505060405180910390fd5b6000610fae83836040518060400160405280601a81526020017f536166654d6174683a206469766973696f6e206279207a65726f0000000000008152506118d1565b3390565b806111a36106d0565b10156111fa576040517f08c379a0000000000000000000000000000000000000000000000000000000008152600401808060200182810382526025815260200180611da56025913960400191505060405180910390fd5b600554604080517f852a12e300000000000000000000000000000000000000000000000000000000815260048101849052905173ffffffffffffffffffffffffffffffffffffffff9092169163852a12e3916024808201926020929091908290030181600087803b15801561126e57600080fd5b505af1158015611282573d6000803e3d6000fd5b505050506040513d602081101561129857600080fd5b505115610e4a576040517f08c379a0000000000000000000000000000000000000000000000000000000008152600401808060200182810382526021815260200180611e946021913960400191505060405180910390fd5b6040805173ffffffffffffffffffffffffffffffffffffffff8416602482015260448082018490528251808303909101815260649091019091526020810180517bffffffffffffffffffffffffffffffffffffffffffffffffffffffff167fa9059cbb00000000000000000000000000000000000000000000000000000000179052610611908490611950565b73ffffffffffffffffffffffffffffffffffffffff81166113e9576040517f08c379a0000000000000000000000000000000000000000000000000000000008152600401808060200182810382526026815260200180611dca6026913960400191505060405180910390fd5b60015460405173ffffffffffffffffffffffffffffffffffffffff8084169216907f8be0079c531659141344cd1fd0a4f28419497f9722a3daafe3b4186f6b6457e090600090a3600180547fffffffffffffffffffffffff00000000000000000000000000000000000000001673ffffffffffffffffffffffffffffffffffffffff92909216919091179055565b60008082116114d1576040517f08c379a000000000000000000000000000000000000000000000000000000000815260040180806020018281038252602d815260200180611e67602d913960400191505060405180910390fd5b6114da33610eda565b821115611532576040517f08c379a000000000000000000000000000000000000000000000000000000000815260040180806020018281038252602a815260200180611e3d602a913960400191505060405180910390fd5b61153b8261119a565b6115453383611b8e565b6000611568670de0b6b3a7640000610793600954866110e190919063ffffffff16565b9050600061157c848363ffffffff610fb516565b6004549091506115a99073ffffffffffffffffffffffffffffffffffffffff16868363ffffffff6112f016565b60408051828152336020820152815173ffffffffffffffffffffffffffffffffffffffff8816927fcbcdbdf10631a43cc99c80acace8232649421c3f4f73919f16013d47c83a687a928290030190a2949350505050565b600081848411156116a9576040517f08c379a00000000000000000000000000000000000000000000000000000000081526004018080602001828103825283818151815260200191508051906020019080838360005b8381101561166e578181015183820152602001611656565b50505050905090810190601f16801561169b5780820380516001836020036101000a031916815260200191505b509250505060405180910390fd5b505050900390565b6040805173ffffffffffffffffffffffffffffffffffffffff85811660248301528416604482015260648082018490528251808303909101815260849091019091526020810180517bffffffffffffffffffffffffffffffffffffffffffffffffffffffff167f23b872dd00000000000000000000000000000000000000000000000000000000179052611746908590611950565b50505050565b600554604080517fa0712d6800000000000000000000000000000000000000000000000000000000815260048101849052905173ffffffffffffffffffffffffffffffffffffffff9092169163a0712d68916024808201926020929091908290030181600087803b1580156117c057600080fd5b505af11580156117d4573d6000803e3d6000fd5b505050506040513d60208110156117ea57600080fd5b505115610e4a57604080517f08c379a000000000000000000000000000000000000000000000000000000000815260206004820152601560248201527f434f4d504f554e443a206d696e74206661696c65640000000000000000000000604482015290519081900360640190fd5b60025461186b908263ffffffff610f3a16565b60025573ffffffffffffffffffffffffffffffffffffffff82166000908152600360205260409020546118a4908263ffffffff610f3a16565b73ffffffffffffffffffffffffffffffffffffffff90921660009081526003602052604090209190915550565b6000818361193a576040517f08c379a000000000000000000000000000000000000000000000000000000000815260206004820181815283516024840152835190928392604490910191908501908083836000831561166e578181015183820152602001611656565b50600083858161194657fe5b0495945050505050565b61196f8273ffffffffffffffffffffffffffffffffffffffff16611bda565b6119da57604080517f08c379a000000000000000000000000000000000000000000000000000000000815260206004820152601f60248201527f5361666545524332303a2063616c6c20746f206e6f6e2d636f6e747261637400604482015290519081900360640190fd5b600060608373ffffffffffffffffffffffffffffffffffffffff16836040518082805190602001908083835b60208310611a4357805182527fffffffffffffffffffffffffffffffffffffffffffffffffffffffffffffffe09092019160209182019101611a06565b6001836020036101000a0380198251168184511680821785525050505050509050019150506000604051808303816000865af19150503d8060008114611aa5576040519150601f19603f3d011682016040523d82523d6000602084013e611aaa565b606091505b509150915081611b1b57604080517f08c379a000000000000000000000000000000000000000000000000000000000815260206004820181905260248201527f5361666545524332303a206c6f772d6c6576656c2063616c6c206661696c6564604482015290519081900360640190fd5b80511561174657808060200190516020811015611b3757600080fd5b5051611746576040517f08c379a000000000000000000000000000000000000000000000000000000000815260040180806020018281038252602a815260200180611eb5602a913960400191505060405180910390fd5b600254611ba1908263ffffffff610fb516565b60025573ffffffffffffffffffffffffffffffffffffffff82166000908152600360205260409020546118a4908263ffffffff610fb516565b6000813f7fc5d2460186f7233c927e7db2dcc703c0e500b653ca82273b7bfad8045d85a4708115801590611c0e5750808214155b949350505050565b801580611cc25750604080517fdd62ed3e00000000000000000000000000000000000000000000000000000000815230600482015273ffffffffffffffffffffffffffffffffffffffff848116602483015291519185169163dd62ed3e91604480820192602092909190829003018186803b158015611c9457600080fd5b505afa158015611ca8573d6000803e3d6000fd5b505050506040513d6020811015611cbe57600080fd5b5051155b611d17576040517f08c379a0000000000000000000000000000000000000000000000000000000008152600401808060200182810382526036815260200180611edf6036913960400191505060405180910390fd5b6040805173ffffffffffffffffffffffffffffffffffffffff8416602482015260448082018490528251808303909101815260649091019091526020810180517bffffffffffffffffffffffffffffffffffffffffffffffffffffffff167f095ea7b30000000000000000000000000000000000000000000000000000000017905261061190849061195056fe434f4d504f554e443a20776974686472617720696e73756666696369656e742066756e64734f776e61626c653a206e6577206f776e657220697320746865207a65726f2061646472657373536166654d6174683a206d756c7469706c69636174696f6e206f766572666c6f774541524e494e475f504f4f4c3a206465706f736974206d7573742062652067726561746572207468616e20304541524e494e475f504f4f4c3a20776974686472617720696e73756666696369656e74207368617265734541524e494e475f504f4f4c3a207769746864726177206d7573742062652067726561746572207468616e2030434f4d504f554e443a2072656465656d556e6465726c79696e67206661696c65645361666545524332303a204552433230206f7065726174696f6e20646964206e6f7420737563636565645361666545524332303a20617070726f76652066726f6d206e6f6e2d7a65726f20746f206e6f6e2d7a65726f20616c6c6f77616e6365a265627a7a72315820e6ef5b298482db0bb080299435d087057792bfe5d1dc79efa31bc9f0f8cff76364736f6c634300051000325361666545524332303a204552433230206f7065726174696f6e20646964206e6f7420737563636565645361666545524332303a20617070726f76652066726f6d206e6f6e2d7a65726f20746f206e6f6e2d7a65726f20616c6c6f77616e6365",
  "source": "pragma solidity 0.5.16;\n\nimport \"../pools/EarningPool.sol\";\n\n/**\n * @title DAIPool\n * @dev Earning pool for DAI\n */\ncontract DAIPool is EarningPool {\n    constructor ()\n        EarningPool (\n            address(0x4F96Fe3b7A6Cf9725f59d353F723c1bDb64CA6Aa), // DAI\n            address(0x61460874a7196d6a22D1eE4922473664b3E95270), // reward token\n            address(0xF0d0EB522cfa50B716B3b1604C4F0fA6f04376AD) // compound cDAI\n        )\n        public\n    {\n    }\n}\n",
  "sourcePath": "/Users/mhe70/my-workspace/bretton-protocol/contracts/deployments/DAIPool.sol",
  "compiler": {
    "name": "solc",
    "version": "0.5.16+commit.9c3226ce.Emscripten.clang"
  },
  "schemaVersion": "3.2.3",
  "updatedAt": "2020-09-03T06:54:38.141Z",
  "devdoc": {
    "details": "Earning pool for DAI",
    "methods": {
      "balanceCompound()": {
        "details": "Get balance of COMP cToken in this pool",
        "return": "uint256 COMP cToken balance"
      },
      "balanceCompoundInUnderlying()": {
        "details": "Get balance of compound token in this pool converted to underlying",
        "return": "uint256 Underlying token balance"
      },
      "balanceInUnderlying()": {
        "details": "Get balance of underlying token in this pool     Should equal to withdraw fee unless underlyings are sent to pool",
        "return": "uint256 Underlying token balance"
      },
      "calcPoolValueInUnderlying()": {
        "details": "Calculate total underlying balance of this pool     Total balance of underlying = total provider underlying balance (deposit + interest accrued) + withdraw fee",
        "return": "uint256 Underlying token balance"
      },
      "calcUndispensedEarningInUnderlying()": {
        "details": "Calculate outstanding interest earning of underlying token in this pool     Earning = total provider underlying balance - total deposit",
        "return": "uint256 Underlying token balance"
      },
      "calcUndispensedProviderReward()": {
        "details": "Get outstanding reward token in pool",
        "return": "uint256 Reward token balance"
      },
      "deposit(address,uint256)": {
        "details": "Deposit underlying into pool",
        "params": {
          "_amount": "Amount of underlying to deposit",
          "_beneficiary": "Address to benefit from the deposit"
        }
      },
      "dispenseEarning()": {
        "details": "Transfer underlying token interest earned to recipient",
        "return": "uint256 Amount dispensed"
      },
      "dispenseReward()": {
        "details": "Transfer reward token earned to recipient",
        "return": "uint256 Amount dispensed"
      },
      "sharesOf(address)": {
        "details": "Get the share of a given account",
        "params": {
          "_account": "User for which to retrieve balance"
        },
        "return": "uint256 shares"
      },
      "totalShares()": {
        "details": "Get the total number of shares in pool",
        "return": "uint256 total shares"
      },
      "withdraw(address,uint256)": {
        "details": "Withdraw underlying from pool",
        "params": {
          "_amount": "Amount of underlying to withdraw",
          "_beneficiary": "Address to benefit from the withdraw"
        },
        "return": "uint256 Actual amount of underlying withdrawn"
      }
    },
    "title": "DAIPool"
  },
  "userdoc": {
    "methods": {
      "setWithdrawFeeFactor(uint256)": {
        "notice": "* ADMIN **"
      }
    }
  }
}