{
  "contractName": "EarningPoolFake",
  "abi": [
    {
      "inputs": [
        {
          "internalType": "address",
          "name": "_underlyingToken",
          "type": "address"
        },
        {
          "internalType": "address",
          "name": "_rewardToken",
          "type": "address"
        },
        {
          "internalType": "address",
          "name": "_compound",
          "type": "address"
        }
      ],
      "payable": false,
      "stateMutability": "nonpayable",
      "type": "constructor"
    },
    {
      "anonymous": false,
      "inputs": [
        {
          "indexed": true,
          "internalType": "address",
          "name": "beneficiary",
          "type": "address"
        },
        {
          "indexed": false,
          "internalType": "uint256",
          "name": "amount",
          "type": "uint256"
        },
        {
          "indexed": false,
          "internalType": "address",
          "name": "payer",
          "type": "address"
        }
      ],
      "name": "Deposited",
      "type": "event"
    },
    {
      "anonymous": false,
      "inputs": [
        {
          "indexed": true,
          "internalType": "address",
          "name": "token",
          "type": "address"
        },
        {
          "indexed": false,
          "internalType": "uint256",
          "name": "amount",
          "type": "uint256"
        }
      ],
      "name": "Dispensed",
      "type": "event"
    },
    {
      "anonymous": false,
      "inputs": [
        {
          "indexed": true,
          "internalType": "address",
          "name": "previousOwner",
          "type": "address"
        },
        {
          "indexed": true,
          "internalType": "address",
          "name": "newOwner",
          "type": "address"
        }
      ],
      "name": "OwnershipTransferred",
      "type": "event"
    },
    {
      "anonymous": false,
      "inputs": [
        {
          "indexed": true,
          "internalType": "address",
          "name": "beneficiary",
          "type": "address"
        },
        {
          "indexed": false,
          "internalType": "uint256",
          "name": "amount",
          "type": "uint256"
        },
        {
          "indexed": false,
          "internalType": "address",
          "name": "payer",
          "type": "address"
        }
      ],
      "name": "Withdrawn",
      "type": "event"
    },
    {
      "constant": true,
      "inputs": [],
      "name": "balanceCompound",
      "outputs": [
        {
          "internalType": "uint256",
          "name": "",
          "type": "uint256"
        }
      ],
      "payable": false,
      "stateMutability": "view",
      "type": "function"
    },
    {
      "constant": true,
      "inputs": [],
      "name": "balanceCompoundInUnderlying",
      "outputs": [
        {
          "internalType": "uint256",
          "name": "",
          "type": "uint256"
        }
      ],
      "payable": false,
      "stateMutability": "view",
      "type": "function"
    },
    {
      "constant": true,
      "inputs": [],
      "name": "balanceInUnderlying",
      "outputs": [
        {
          "internalType": "uint256",
          "name": "",
          "type": "uint256"
        }
      ],
      "payable": false,
      "stateMutability": "view",
      "type": "function"
    },
    {
      "constant": true,
      "inputs": [],
      "name": "calcPoolValueInUnderlying",
      "outputs": [
        {
          "internalType": "uint256",
          "name": "",
          "type": "uint256"
        }
      ],
      "payable": false,
      "stateMutability": "view",
      "type": "function"
    },
    {
      "constant": true,
      "inputs": [],
      "name": "calcUndispensedEarningInUnderlying",
      "outputs": [
        {
          "internalType": "uint256",
          "name": "",
          "type": "uint256"
        }
      ],
      "payable": false,
      "stateMutability": "view",
      "type": "function"
    },
    {
      "constant": true,
      "inputs": [],
      "name": "calcUndispensedProviderReward",
      "outputs": [
        {
          "internalType": "uint256",
          "name": "",
          "type": "uint256"
        }
      ],
      "payable": false,
      "stateMutability": "view",
      "type": "function"
    },
    {
      "constant": true,
      "inputs": [],
      "name": "compound",
      "outputs": [
        {
          "internalType": "address",
          "name": "",
          "type": "address"
        }
      ],
      "payable": false,
      "stateMutability": "view",
      "type": "function"
    },
    {
      "constant": false,
      "inputs": [],
      "name": "dispenseEarning",
      "outputs": [
        {
          "internalType": "uint256",
          "name": "",
          "type": "uint256"
        }
      ],
      "payable": false,
      "stateMutability": "nonpayable",
      "type": "function"
    },
    {
      "constant": false,
      "inputs": [],
      "name": "dispenseReward",
      "outputs": [
        {
          "internalType": "uint256",
          "name": "",
          "type": "uint256"
        }
      ],
      "payable": false,
      "stateMutability": "nonpayable",
      "type": "function"
    },
    {
      "constant": true,
      "inputs": [],
      "name": "earningDispenseThreshold",
      "outputs": [
        {
          "internalType": "uint256",
          "name": "",
          "type": "uint256"
        }
      ],
      "payable": false,
      "stateMutability": "view",
      "type": "function"
    },
    {
      "constant": true,
      "inputs": [],
      "name": "earningRecipient",
      "outputs": [
        {
          "internalType": "address",
          "name": "",
          "type": "address"
        }
      ],
      "payable": false,
      "stateMutability": "view",
      "type": "function"
    },
    {
      "constant": true,
      "inputs": [],
      "name": "isOwner",
      "outputs": [
        {
          "internalType": "bool",
          "name": "",
          "type": "bool"
        }
      ],
      "payable": false,
      "stateMutability": "view",
      "type": "function"
    },
    {
      "constant": true,
      "inputs": [],
      "name": "owner",
      "outputs": [
        {
          "internalType": "address",
          "name": "",
          "type": "address"
        }
      ],
      "payable": false,
      "stateMutability": "view",
      "type": "function"
    },
    {
      "constant": false,
      "inputs": [],
      "name": "renounceOwnership",
      "outputs": [],
      "payable": false,
      "stateMutability": "nonpayable",
      "type": "function"
    },
    {
      "constant": true,
      "inputs": [],
      "name": "rewardDispenseThreshold",
      "outputs": [
        {
          "internalType": "uint256",
          "name": "",
          "type": "uint256"
        }
      ],
      "payable": false,
      "stateMutability": "view",
      "type": "function"
    },
    {
      "constant": true,
      "inputs": [],
      "name": "rewardRecipient",
      "outputs": [
        {
          "internalType": "address",
          "name": "",
          "type": "address"
        }
      ],
      "payable": false,
      "stateMutability": "view",
      "type": "function"
    },
    {
      "constant": true,
      "inputs": [],
      "name": "rewardToken",
      "outputs": [
        {
          "internalType": "address",
          "name": "",
          "type": "address"
        }
      ],
      "payable": false,
      "stateMutability": "view",
      "type": "function"
    },
    {
      "constant": false,
      "inputs": [
        {
          "internalType": "uint256",
          "name": "_threshold",
          "type": "uint256"
        }
      ],
      "name": "setEarningDispenseThreshold",
      "outputs": [],
      "payable": false,
      "stateMutability": "nonpayable",
      "type": "function"
    },
    {
      "constant": false,
      "inputs": [
        {
          "internalType": "address",
          "name": "_recipient",
          "type": "address"
        }
      ],
      "name": "setEarningRecipient",
      "outputs": [],
      "payable": false,
      "stateMutability": "nonpayable",
      "type": "function"
    },
    {
      "constant": false,
      "inputs": [
        {
          "internalType": "uint256",
          "name": "_threshold",
          "type": "uint256"
        }
      ],
      "name": "setRewardDispenseThreshold",
      "outputs": [],
      "payable": false,
      "stateMutability": "nonpayable",
      "type": "function"
    },
    {
      "constant": false,
      "inputs": [
        {
          "internalType": "address",
          "name": "_recipient",
          "type": "address"
        }
      ],
      "name": "setRewardRecipient",
      "outputs": [],
      "payable": false,
      "stateMutability": "nonpayable",
      "type": "function"
    },
    {
      "constant": false,
      "inputs": [
        {
          "internalType": "uint256",
          "name": "_withdrawFeeFactorManitssa",
          "type": "uint256"
        }
      ],
      "name": "setWithdrawFeeFactor",
      "outputs": [],
      "payable": false,
      "stateMutability": "nonpayable",
      "type": "function"
    },
    {
      "constant": true,
      "inputs": [
        {
          "internalType": "address",
          "name": "_account",
          "type": "address"
        }
      ],
      "name": "sharesOf",
      "outputs": [
        {
          "internalType": "uint256",
          "name": "",
          "type": "uint256"
        }
      ],
      "payable": false,
      "stateMutability": "view",
      "type": "function"
    },
    {
      "constant": true,
      "inputs": [],
      "name": "totalShares",
      "outputs": [
        {
          "internalType": "uint256",
          "name": "",
          "type": "uint256"
        }
      ],
      "payable": false,
      "stateMutability": "view",
      "type": "function"
    },
    {
      "constant": false,
      "inputs": [
        {
          "internalType": "address",
          "name": "newOwner",
          "type": "address"
        }
      ],
      "name": "transferOwnership",
      "outputs": [],
      "payable": false,
      "stateMutability": "nonpayable",
      "type": "function"
    },
    {
      "constant": true,
      "inputs": [],
      "name": "underlyingToken",
      "outputs": [
        {
          "internalType": "address",
          "name": "",
          "type": "address"
        }
      ],
      "payable": false,
      "stateMutability": "view",
      "type": "function"
    },
    {
      "constant": true,
      "inputs": [],
      "name": "withdrawFeeFactorMantissa",
      "outputs": [
        {
          "internalType": "uint256",
          "name": "",
          "type": "uint256"
        }
      ],
      "payable": false,
      "stateMutability": "view",
      "type": "function"
    },
    {
      "constant": false,
      "inputs": [
        {
          "internalType": "address",
          "name": "_beneficiary",
          "type": "address"
        },
        {
          "internalType": "uint256",
          "name": "_amount",
          "type": "uint256"
        }
      ],
      "name": "deposit",
      "outputs": [],
      "payable": false,
      "stateMutability": "nonpayable",
      "type": "function"
    },
    {
      "constant": false,
      "inputs": [
        {
          "internalType": "address",
          "name": "_beneficiary",
          "type": "address"
        },
        {
          "internalType": "uint256",
          "name": "_amount",
          "type": "uint256"
        }
      ],
      "name": "withdraw",
      "outputs": [
        {
          "internalType": "uint256",
          "name": "",
          "type": "uint256"
        }
      ],
      "payable": false,
      "stateMutability": "nonpayable",
      "type": "function"
    }
  ],
  "bytecode": "0x60806040523480156200001157600080fd5b506040516200208138038062002081833981810160405260608110156200003757600080fd5b50805160208201516040909201516001600055909190828282620000636001600160e01b036200010b16565b600180546001600160a01b0319166001600160a01b0392831617908190556040519116906000907f8be0079c531659141344cd1fd0a4f28419497f9722a3daafe3b4186f6b6457e0908290a3600480546001600160a01b038086166001600160a01b031992831617909255600680548584169083161790556005805492841692909116919091179055620000ff6001600160e01b036200010f16565b50505050505062000474565b3390565b6005546004546200013c916001600160a01b0391821691166000196200013e602090811b620018ed17901c565b565b801580620001c8575060408051636eb1769f60e11b81523060048201526001600160a01b03848116602483015291519185169163dd62ed3e91604480820192602092909190829003018186803b1580156200019857600080fd5b505afa158015620001ad573d6000803e3d6000fd5b505050506040513d6020811015620001c457600080fd5b5051155b620002055760405162461bcd60e51b81526004018080602001828103825260368152602001806200204b6036913960400191505060405180910390fd5b604080516001600160a01b038416602482015260448082018490528251808303909101815260649091019091526020810180516001600160e01b0390811663095ea7b360e01b179091526200025d9185916200026216565b505050565b62000281826001600160a01b03166200043760201b620018b11760201c565b620002d3576040805162461bcd60e51b815260206004820152601f60248201527f5361666545524332303a2063616c6c20746f206e6f6e2d636f6e747261637400604482015290519081900360640190fd5b60006060836001600160a01b0316836040518082805190602001908083835b60208310620003135780518252601f199092019160209182019101620002f2565b6001836020036101000a0380198251168184511680821785525050505050509050019150506000604051808303816000865af19150503d806000811462000377576040519150601f19603f3d011682016040523d82523d6000602084013e6200037c565b606091505b509150915081620003d4576040805162461bcd60e51b815260206004820181905260248201527f5361666545524332303a206c6f772d6c6576656c2063616c6c206661696c6564604482015290519081900360640190fd5b8051156200043157808060200190516020811015620003f257600080fd5b5051620004315760405162461bcd60e51b815260040180806020018281038252602a81526020018062002021602a913960400191505060405180910390fd5b50505050565b6000813f7fc5d2460186f7233c927e7db2dcc703c0e500b653ca82273b7bfad8045d85a47081158015906200046c5750808214155b949350505050565b611b9d80620004846000396000f3fe608060405234801561001057600080fd5b50600436106101cf5760003560e01c8063786edace11610104578063dc00a7f2116100a2578063f3fef3a311610071578063f3fef3a3146103de578063f5eb42dc14610417578063f69e20461461044a578063f7c618c114610452576101cf565b8063dc00a7f214610368578063e336371d14610370578063e521136f14610378578063f2fde38b146103ab576101cf565b806396470b73116100de57806396470b7314610333578063add3046f14610350578063b25898d914610358578063cd822f5014610360576101cf565b8063786edace146102f25780638da5cb5b1461030f5780638f32d59b14610317576101cf565b806347e7ef241161017157806356b994591161014b57806356b99459146102bd57806361c1ec55146102da57806369e7a5e8146102e2578063715018a6146102ea576101cf565b806347e7ef241461024757806351342b041461028257806354517d87146102b5576101cf565b80632495a599116101ad5780632495a59914610227578063357ce5111461022f5780633a98ef391461023757806347ab3c5e1461023f576101cf565b806308f7844e146101d457806317f33340146101ee57806318a18cc81461021f575b600080fd5b6101dc61045a565b60408051918252519081900360200190f35b6101f6610481565b6040805173ffffffffffffffffffffffffffffffffffffffff9092168252519081900360200190f35b6101dc61049d565b6101f66104a3565b6101dc6104bf565b6101dc610565565b6101dc61056b565b6102806004803603604081101561025d57600080fd5b5073ffffffffffffffffffffffffffffffffffffffff813516906020013561058c565b005b6102806004803603602081101561029857600080fd5b503573ffffffffffffffffffffffffffffffffffffffff16610641565b6101dc6106fb565b610280600480360360208110156102d357600080fd5b50356107d0565b6101dc610848565b6101dc6108b9565b61028061092a565b6102806004803603602081101561030857600080fd5b5035610a0c565b6101f6610a84565b61031f610aa0565b604080519115158252519081900360200190f35b6102806004803603602081101561034957600080fd5b5035610ae0565b6101dc610b58565b6101dc610c4b565b6101dc610c51565b6101dc610c57565b6101f6610d23565b6102806004803603602081101561038e57600080fd5b503573ffffffffffffffffffffffffffffffffffffffff16610d3f565b610280600480360360208110156103c157600080fd5b503573ffffffffffffffffffffffffffffffffffffffff16610df9565b6101dc600480360360408110156103f457600080fd5b5073ffffffffffffffffffffffffffffffffffffffff8135169060200135610e78565b6101dc6004803603602081101561042d57600080fd5b503573ffffffffffffffffffffffffffffffffffffffff16610f30565b6101f6610f58565b6101f6610f74565b600061047b6104676104bf565b61046f6106fb565b9063ffffffff610f9016565b90505b90565b60085473ffffffffffffffffffffffffffffffffffffffff1681565b60095481565b60045473ffffffffffffffffffffffffffffffffffffffff1681565b60048054604080517f70a0823100000000000000000000000000000000000000000000000000000000815230938101939093525160009273ffffffffffffffffffffffffffffffffffffffff909216916370a08231916024808301926020929190829003018186803b15801561053457600080fd5b505afa158015610548573d6000803e3d6000fd5b505050506040513d602081101561055e57600080fd5b5051905090565b60025490565b600061047b610578610565565b6105806106fb565b9063ffffffff61100b16565b60008054600101908190556004546105c29073ffffffffffffffffffffffffffffffffffffffff1633308563ffffffff61104d16565b6105cc83836110e8565b600054811461063c57604080517f08c379a000000000000000000000000000000000000000000000000000000000815260206004820152601f60248201527f5265656e7472616e637947756172643a207265656e7472616e742063616c6c00604482015290519081900360640190fd5b505050565b610649610aa0565b6106b457604080517f08c379a000000000000000000000000000000000000000000000000000000000815260206004820181905260248201527f4f776e61626c653a2063616c6c6572206973206e6f7420746865206f776e6572604482015290519081900360640190fd5b600780547fffffffffffffffffffffffff00000000000000000000000000000000000000001673ffffffffffffffffffffffffffffffffffffffff92909216919091179055565b600080610706610848565b9050801561047b576107ca670de0b6b3a76400006107be600560009054906101000a900473ffffffffffffffffffffffffffffffffffffffff1673ffffffffffffffffffffffffffffffffffffffff1663182df0f56040518163ffffffff1660e01b815260040160206040518083038186803b15801561078557600080fd5b505afa158015610799573d6000803e3d6000fd5b505050506040513d60208110156107af57600080fd5b5051849063ffffffff61116116565b9063ffffffff6111d416565b92915050565b6107d8610aa0565b61084357604080517f08c379a000000000000000000000000000000000000000000000000000000000815260206004820181905260248201527f4f776e61626c653a2063616c6c6572206973206e6f7420746865206f776e6572604482015290519081900360640190fd5b600b55565b600554604080517f70a08231000000000000000000000000000000000000000000000000000000008152306004820152905160009273ffffffffffffffffffffffffffffffffffffffff16916370a08231916024808301926020929190829003018186803b15801561053457600080fd5b600654604080517f70a08231000000000000000000000000000000000000000000000000000000008152306004820152905160009273ffffffffffffffffffffffffffffffffffffffff16916370a08231916024808301926020929190829003018186803b15801561053457600080fd5b610932610aa0565b61099d57604080517f08c379a000000000000000000000000000000000000000000000000000000000815260206004820181905260248201527f4f776e61626c653a2063616c6c6572206973206e6f7420746865206f776e6572604482015290519081900360640190fd5b60015460405160009173ffffffffffffffffffffffffffffffffffffffff16907f8be0079c531659141344cd1fd0a4f28419497f9722a3daafe3b4186f6b6457e0908390a3600180547fffffffffffffffffffffffff0000000000000000000000000000000000000000169055565b610a14610aa0565b610a7f57604080517f08c379a000000000000000000000000000000000000000000000000000000000815260206004820181905260248201527f4f776e61626c653a2063616c6c6572206973206e6f7420746865206f776e6572604482015290519081900360640190fd5b600a55565b60015473ffffffffffffffffffffffffffffffffffffffff1690565b60015460009073ffffffffffffffffffffffffffffffffffffffff16610ac4611216565b73ffffffffffffffffffffffffffffffffffffffff1614905090565b610ae8610aa0565b610b5357604080517f08c379a000000000000000000000000000000000000000000000000000000000815260206004820181905260248201527f4f776e61626c653a2063616c6c6572206973206e6f7420746865206f776e6572604482015290519081900360640190fd5b600955565b60075460009073ffffffffffffffffffffffffffffffffffffffff16610b805750600061047e565b6000610b8a61056b565b90506000610ba6610b996104bf565b839063ffffffff610f9016565b9050600a54811015610bbd5760009250505061047e565b610bc68261121a565b600754600454610bf69173ffffffffffffffffffffffffffffffffffffffff91821691168363ffffffff61137016565b60045460408051838152905173ffffffffffffffffffffffffffffffffffffffff909216917f9899ec0ebe3373a4dc9e4341300abb6b1069544a3b9caf0988544c5302ffdab09181900360200190a291505090565b600b5481565b600a5481565b60085460009073ffffffffffffffffffffffffffffffffffffffff16610c7f5750600061047e565b6000610c896108b9565b9050600b54811015610c9f57600091505061047e565b600854600654610ccf9173ffffffffffffffffffffffffffffffffffffffff91821691168363ffffffff61137016565b60065460408051838152905173ffffffffffffffffffffffffffffffffffffffff909216917f9899ec0ebe3373a4dc9e4341300abb6b1069544a3b9caf0988544c5302ffdab09181900360200190a2905090565b60075473ffffffffffffffffffffffffffffffffffffffff1681565b610d47610aa0565b610db257604080517f08c379a000000000000000000000000000000000000000000000000000000000815260206004820181905260248201527f4f776e61626c653a2063616c6c6572206973206e6f7420746865206f776e6572604482015290519081900360640190fd5b600880547fffffffffffffffffffffffff00000000000000000000000000000000000000001673ffffffffffffffffffffffffffffffffffffffff92909216919091179055565b610e01610aa0565b610e6c57604080517f08c379a000000000000000000000000000000000000000000000000000000000815260206004820181905260248201527f4f776e61626c653a2063616c6c6572206973206e6f7420746865206f776e6572604482015290519081900360640190fd5b610e75816113fd565b50565b60008054600101808255600454610eac9073ffffffffffffffffffffffffffffffffffffffff16858563ffffffff61137016565b610eb633846114f7565b8291506000548114610f2957604080517f08c379a000000000000000000000000000000000000000000000000000000000815260206004820152601f60248201527f5265656e7472616e637947756172643a207265656e7472616e742063616c6c00604482015290519081900360640190fd5b5092915050565b73ffffffffffffffffffffffffffffffffffffffff1660009081526003602052604090205490565b60055473ffffffffffffffffffffffffffffffffffffffff1681565b60065473ffffffffffffffffffffffffffffffffffffffff1681565b60008282018381101561100457604080517f08c379a000000000000000000000000000000000000000000000000000000000815260206004820152601b60248201527f536166654d6174683a206164646974696f6e206f766572666c6f770000000000604482015290519081900360640190fd5b9392505050565b600061100483836040518060400160405280601e81526020017f536166654d6174683a207375627472616374696f6e206f766572666c6f770000815250611543565b6040805173ffffffffffffffffffffffffffffffffffffffff85811660248301528416604482015260648082018490528251808303909101815260849091019091526020810180517bffffffffffffffffffffffffffffffffffffffffffffffffffffffff167f23b872dd000000000000000000000000000000000000000000000000000000001790526110e29085906115f4565b50505050565b6002546110fb908263ffffffff610f9016565b60025573ffffffffffffffffffffffffffffffffffffffff8216600090815260036020526040902054611134908263ffffffff610f9016565b73ffffffffffffffffffffffffffffffffffffffff90921660009081526003602052604090209190915550565b600082611170575060006107ca565b8282028284828161117d57fe5b0414611004576040517f08c379a0000000000000000000000000000000000000000000000000000000008152600401808060200182810382526021815260200180611ac76021913960400191505060405180910390fd5b600061100483836040518060400160405280601a81526020017f536166654d6174683a206469766973696f6e206279207a65726f000000000000815250611832565b3390565b806112236106fb565b101561127a576040517f08c379a0000000000000000000000000000000000000000000000000000000008152600401808060200182810382526025815260200180611a7c6025913960400191505060405180910390fd5b600554604080517f852a12e300000000000000000000000000000000000000000000000000000000815260048101849052905173ffffffffffffffffffffffffffffffffffffffff9092169163852a12e3916024808201926020929091908290030181600087803b1580156112ee57600080fd5b505af1158015611302573d6000803e3d6000fd5b505050506040513d602081101561131857600080fd5b505115610e75576040517f08c379a0000000000000000000000000000000000000000000000000000000008152600401808060200182810382526021815260200180611ae86021913960400191505060405180910390fd5b6040805173ffffffffffffffffffffffffffffffffffffffff8416602482015260448082018490528251808303909101815260649091019091526020810180517bffffffffffffffffffffffffffffffffffffffffffffffffffffffff167fa9059cbb0000000000000000000000000000000000000000000000000000000017905261063c9084906115f4565b73ffffffffffffffffffffffffffffffffffffffff8116611469576040517f08c379a0000000000000000000000000000000000000000000000000000000008152600401808060200182810382526026815260200180611aa16026913960400191505060405180910390fd5b60015460405173ffffffffffffffffffffffffffffffffffffffff8084169216907f8be0079c531659141344cd1fd0a4f28419497f9722a3daafe3b4186f6b6457e090600090a3600180547fffffffffffffffffffffffff00000000000000000000000000000000000000001673ffffffffffffffffffffffffffffffffffffffff92909216919091179055565b60025461150a908263ffffffff61100b16565b60025573ffffffffffffffffffffffffffffffffffffffff8216600090815260036020526040902054611134908263ffffffff61100b16565b600081848411156115ec576040517f08c379a00000000000000000000000000000000000000000000000000000000081526004018080602001828103825283818151815260200191508051906020019080838360005b838110156115b1578181015183820152602001611599565b50505050905090810190601f1680156115de5780820380516001836020036101000a031916815260200191505b509250505060405180910390fd5b505050900390565b6116138273ffffffffffffffffffffffffffffffffffffffff166118b1565b61167e57604080517f08c379a000000000000000000000000000000000000000000000000000000000815260206004820152601f60248201527f5361666545524332303a2063616c6c20746f206e6f6e2d636f6e747261637400604482015290519081900360640190fd5b600060608373ffffffffffffffffffffffffffffffffffffffff16836040518082805190602001908083835b602083106116e757805182527fffffffffffffffffffffffffffffffffffffffffffffffffffffffffffffffe090920191602091820191016116aa565b6001836020036101000a0380198251168184511680821785525050505050509050019150506000604051808303816000865af19150503d8060008114611749576040519150601f19603f3d011682016040523d82523d6000602084013e61174e565b606091505b5091509150816117bf57604080517f08c379a000000000000000000000000000000000000000000000000000000000815260206004820181905260248201527f5361666545524332303a206c6f772d6c6576656c2063616c6c206661696c6564604482015290519081900360640190fd5b8051156110e2578080602001905160208110156117db57600080fd5b50516110e2576040517f08c379a000000000000000000000000000000000000000000000000000000000815260040180806020018281038252602a815260200180611b09602a913960400191505060405180910390fd5b6000818361189b576040517f08c379a00000000000000000000000000000000000000000000000000000000081526020600482018181528351602484015283519092839260449091019190850190808383600083156115b1578181015183820152602001611599565b5060008385816118a757fe5b0495945050505050565b6000813f7fc5d2460186f7233c927e7db2dcc703c0e500b653ca82273b7bfad8045d85a47081158015906118e55750808214155b949350505050565b8015806119995750604080517fdd62ed3e00000000000000000000000000000000000000000000000000000000815230600482015273ffffffffffffffffffffffffffffffffffffffff848116602483015291519185169163dd62ed3e91604480820192602092909190829003018186803b15801561196b57600080fd5b505afa15801561197f573d6000803e3d6000fd5b505050506040513d602081101561199557600080fd5b5051155b6119ee576040517f08c379a0000000000000000000000000000000000000000000000000000000008152600401808060200182810382526036815260200180611b336036913960400191505060405180910390fd5b6040805173ffffffffffffffffffffffffffffffffffffffff8416602482015260448082018490528251808303909101815260649091019091526020810180517bffffffffffffffffffffffffffffffffffffffffffffffffffffffff167f095ea7b30000000000000000000000000000000000000000000000000000000017905261063c9084906115f456fe434f4d504f554e443a20776974686472617720696e73756666696369656e742066756e64734f776e61626c653a206e6577206f776e657220697320746865207a65726f2061646472657373536166654d6174683a206d756c7469706c69636174696f6e206f766572666c6f77434f4d504f554e443a2072656465656d556e6465726c79696e67206661696c65645361666545524332303a204552433230206f7065726174696f6e20646964206e6f7420737563636565645361666545524332303a20617070726f76652066726f6d206e6f6e2d7a65726f20746f206e6f6e2d7a65726f20616c6c6f77616e6365a265627a7a72315820da4f00efb09eae153d2d145162146b3d0f5dc7be741ef3e4ebff04544b5406da64736f6c634300051000325361666545524332303a204552433230206f7065726174696f6e20646964206e6f7420737563636565645361666545524332303a20617070726f76652066726f6d206e6f6e2d7a65726f20746f206e6f6e2d7a65726f20616c6c6f77616e6365",
  "source": "pragma solidity 0.5.16;\n\nimport \"../pools/EarningPool.sol\";\n\n// Fake implementation of EarningPool for testing\ncontract EarningPoolFake is EarningPool {\n\n    constructor (\n        address _underlyingToken,\n        address _rewardToken,\n        address _compound\n    )\n        EarningPool(\n          _underlyingToken,\n          _rewardToken,\n          _compound\n        )\n        public\n    {\n    }\n\n    function deposit(address _beneficiary, uint256 _amount)\n        external\n        nonReentrant\n    {\n        // Transfer underlying from payer into pool\n        IERC20(underlyingToken).safeTransferFrom(msg.sender, address(this), _amount);\n\n        // increase pool shares for beneficiary\n        _increaseShares(_beneficiary, _amount);\n    }\n\n    function withdraw(address _beneficiary, uint256 _amount)\n        external\n        nonReentrant\n        returns (uint256)\n    {\n        // Transfer underlying to beneficiary\n        IERC20(underlyingToken).safeTransfer(_beneficiary, _amount);\n\n        // decrease pool shares from payer\n        _decreaseShares(msg.sender, _amount);\n\n        return _amount;\n    }\n}\n",
  "sourcePath": "/Users/mhe70/my-workspace/bretton-protocol/contracts/test/EarningPoolFake.sol",
  "compiler": {
    "name": "solc",
    "version": "0.5.16+commit.9c3226ce.Emscripten.clang"
  },
  "schemaVersion": "3.2.3",
  "updatedAt": "2020-09-03T06:54:38.367Z",
  "devdoc": {
    "methods": {
      "balanceCompound()": {
        "details": "Get balance of COMP cToken in this pool",
        "return": "uint256 COMP cToken balance"
      },
      "balanceCompoundInUnderlying()": {
        "details": "Get balance of compound token in this pool converted to underlying",
        "return": "uint256 Underlying token balance"
      },
      "balanceInUnderlying()": {
        "details": "Get balance of underlying token in this pool     Should equal to withdraw fee unless underlyings are sent to pool",
        "return": "uint256 Underlying token balance"
      },
      "calcPoolValueInUnderlying()": {
        "details": "Calculate total underlying balance of this pool     Total balance of underlying = total provider underlying balance (deposit + interest accrued) + withdraw fee",
        "return": "uint256 Underlying token balance"
      },
      "calcUndispensedEarningInUnderlying()": {
        "details": "Calculate outstanding interest earning of underlying token in this pool     Earning = total provider underlying balance - total deposit",
        "return": "uint256 Underlying token balance"
      },
      "calcUndispensedProviderReward()": {
        "details": "Get outstanding reward token in pool",
        "return": "uint256 Reward token balance"
      },
      "dispenseEarning()": {
        "details": "Transfer underlying token interest earned to recipient",
        "return": "uint256 Amount dispensed"
      },
      "dispenseReward()": {
        "details": "Transfer reward token earned to recipient",
        "return": "uint256 Amount dispensed"
      },
      "sharesOf(address)": {
        "details": "Get the share of a given account",
        "params": {
          "_account": "User for which to retrieve balance"
        },
        "return": "uint256 shares"
      },
      "totalShares()": {
        "details": "Get the total number of shares in pool",
        "return": "uint256 total shares"
      }
    }
  },
  "userdoc": {
    "methods": {
      "setWithdrawFeeFactor(uint256)": {
        "notice": "* ADMIN **"
      }
    }
  }
}