{
  "contractName": "GovernorAlpha",
  "abi": [
    {
      "inputs": [
        {
          "internalType": "address",
          "name": "timelock_",
          "type": "address"
        },
        {
          "internalType": "address",
          "name": "BRET_",
          "type": "address"
        }
      ],
      "payable": false,
      "stateMutability": "nonpayable",
      "type": "constructor"
    },
    {
      "anonymous": false,
      "inputs": [
        {
          "indexed": false,
          "internalType": "uint256",
          "name": "id",
          "type": "uint256"
        }
      ],
      "name": "ProposalCanceled",
      "type": "event"
    },
    {
      "anonymous": false,
      "inputs": [
        {
          "indexed": false,
          "internalType": "uint256",
          "name": "id",
          "type": "uint256"
        },
        {
          "indexed": false,
          "internalType": "address",
          "name": "proposer",
          "type": "address"
        },
        {
          "indexed": false,
          "internalType": "address[]",
          "name": "targets",
          "type": "address[]"
        },
        {
          "indexed": false,
          "internalType": "uint256[]",
          "name": "values",
          "type": "uint256[]"
        },
        {
          "indexed": false,
          "internalType": "string[]",
          "name": "signatures",
          "type": "string[]"
        },
        {
          "indexed": false,
          "internalType": "bytes[]",
          "name": "calldatas",
          "type": "bytes[]"
        },
        {
          "indexed": false,
          "internalType": "uint256",
          "name": "startBlock",
          "type": "uint256"
        },
        {
          "indexed": false,
          "internalType": "uint256",
          "name": "endBlock",
          "type": "uint256"
        },
        {
          "indexed": false,
          "internalType": "string",
          "name": "description",
          "type": "string"
        }
      ],
      "name": "ProposalCreated",
      "type": "event"
    },
    {
      "anonymous": false,
      "inputs": [
        {
          "indexed": false,
          "internalType": "uint256",
          "name": "id",
          "type": "uint256"
        }
      ],
      "name": "ProposalExecuted",
      "type": "event"
    },
    {
      "anonymous": false,
      "inputs": [
        {
          "indexed": false,
          "internalType": "uint256",
          "name": "id",
          "type": "uint256"
        },
        {
          "indexed": false,
          "internalType": "uint256",
          "name": "eta",
          "type": "uint256"
        }
      ],
      "name": "ProposalQueued",
      "type": "event"
    },
    {
      "anonymous": false,
      "inputs": [
        {
          "indexed": false,
          "internalType": "address",
          "name": "voter",
          "type": "address"
        },
        {
          "indexed": false,
          "internalType": "uint256",
          "name": "proposalId",
          "type": "uint256"
        },
        {
          "indexed": false,
          "internalType": "bool",
          "name": "support",
          "type": "bool"
        },
        {
          "indexed": false,
          "internalType": "uint256",
          "name": "votes",
          "type": "uint256"
        }
      ],
      "name": "VoteCast",
      "type": "event"
    },
    {
      "constant": true,
      "inputs": [],
      "name": "BALLOT_TYPEHASH",
      "outputs": [
        {
          "internalType": "bytes32",
          "name": "",
          "type": "bytes32"
        }
      ],
      "payable": false,
      "stateMutability": "view",
      "type": "function"
    },
    {
      "constant": true,
      "inputs": [],
      "name": "BRET",
      "outputs": [
        {
          "internalType": "contract BRETInterface",
          "name": "",
          "type": "address"
        }
      ],
      "payable": false,
      "stateMutability": "view",
      "type": "function"
    },
    {
      "constant": true,
      "inputs": [],
      "name": "DOMAIN_TYPEHASH",
      "outputs": [
        {
          "internalType": "bytes32",
          "name": "",
          "type": "bytes32"
        }
      ],
      "payable": false,
      "stateMutability": "view",
      "type": "function"
    },
    {
      "constant": true,
      "inputs": [],
      "name": "guardian",
      "outputs": [
        {
          "internalType": "address",
          "name": "",
          "type": "address"
        }
      ],
      "payable": false,
      "stateMutability": "view",
      "type": "function"
    },
    {
      "constant": true,
      "inputs": [
        {
          "internalType": "address",
          "name": "",
          "type": "address"
        }
      ],
      "name": "latestProposalIds",
      "outputs": [
        {
          "internalType": "uint256",
          "name": "",
          "type": "uint256"
        }
      ],
      "payable": false,
      "stateMutability": "view",
      "type": "function"
    },
    {
      "constant": true,
      "inputs": [],
      "name": "name",
      "outputs": [
        {
          "internalType": "string",
          "name": "",
          "type": "string"
        }
      ],
      "payable": false,
      "stateMutability": "view",
      "type": "function"
    },
    {
      "constant": true,
      "inputs": [],
      "name": "proposalCount",
      "outputs": [
        {
          "internalType": "uint256",
          "name": "",
          "type": "uint256"
        }
      ],
      "payable": false,
      "stateMutability": "view",
      "type": "function"
    },
    {
      "constant": true,
      "inputs": [
        {
          "internalType": "uint256",
          "name": "",
          "type": "uint256"
        }
      ],
      "name": "proposals",
      "outputs": [
        {
          "internalType": "uint256",
          "name": "id",
          "type": "uint256"
        },
        {
          "internalType": "address",
          "name": "proposer",
          "type": "address"
        },
        {
          "internalType": "uint256",
          "name": "eta",
          "type": "uint256"
        },
        {
          "internalType": "uint256",
          "name": "startBlock",
          "type": "uint256"
        },
        {
          "internalType": "uint256",
          "name": "endBlock",
          "type": "uint256"
        },
        {
          "internalType": "uint256",
          "name": "forVotes",
          "type": "uint256"
        },
        {
          "internalType": "uint256",
          "name": "againstVotes",
          "type": "uint256"
        },
        {
          "internalType": "bool",
          "name": "canceled",
          "type": "bool"
        },
        {
          "internalType": "bool",
          "name": "executed",
          "type": "bool"
        }
      ],
      "payable": false,
      "stateMutability": "view",
      "type": "function"
    },
    {
      "constant": true,
      "inputs": [],
      "name": "timelock",
      "outputs": [
        {
          "internalType": "contract TimelockInterface",
          "name": "",
          "type": "address"
        }
      ],
      "payable": false,
      "stateMutability": "view",
      "type": "function"
    },
    {
      "constant": true,
      "inputs": [],
      "name": "quorumVotes",
      "outputs": [
        {
          "internalType": "uint256",
          "name": "",
          "type": "uint256"
        }
      ],
      "payable": false,
      "stateMutability": "view",
      "type": "function"
    },
    {
      "constant": true,
      "inputs": [],
      "name": "proposalThreshold",
      "outputs": [
        {
          "internalType": "uint256",
          "name": "",
          "type": "uint256"
        }
      ],
      "payable": false,
      "stateMutability": "view",
      "type": "function"
    },
    {
      "constant": true,
      "inputs": [],
      "name": "proposalMaxOperations",
      "outputs": [
        {
          "internalType": "uint256",
          "name": "",
          "type": "uint256"
        }
      ],
      "payable": false,
      "stateMutability": "pure",
      "type": "function"
    },
    {
      "constant": true,
      "inputs": [],
      "name": "votingDelay",
      "outputs": [
        {
          "internalType": "uint256",
          "name": "",
          "type": "uint256"
        }
      ],
      "payable": false,
      "stateMutability": "pure",
      "type": "function"
    },
    {
      "constant": true,
      "inputs": [],
      "name": "votingPeriod",
      "outputs": [
        {
          "internalType": "uint256",
          "name": "",
          "type": "uint256"
        }
      ],
      "payable": false,
      "stateMutability": "pure",
      "type": "function"
    },
    {
      "constant": false,
      "inputs": [
        {
          "internalType": "address[]",
          "name": "targets",
          "type": "address[]"
        },
        {
          "internalType": "uint256[]",
          "name": "values",
          "type": "uint256[]"
        },
        {
          "internalType": "string[]",
          "name": "signatures",
          "type": "string[]"
        },
        {
          "internalType": "bytes[]",
          "name": "calldatas",
          "type": "bytes[]"
        },
        {
          "internalType": "string",
          "name": "description",
          "type": "string"
        }
      ],
      "name": "propose",
      "outputs": [
        {
          "internalType": "uint256",
          "name": "",
          "type": "uint256"
        }
      ],
      "payable": false,
      "stateMutability": "nonpayable",
      "type": "function"
    },
    {
      "constant": false,
      "inputs": [
        {
          "internalType": "uint256",
          "name": "proposalId",
          "type": "uint256"
        }
      ],
      "name": "queue",
      "outputs": [],
      "payable": false,
      "stateMutability": "nonpayable",
      "type": "function"
    },
    {
      "constant": false,
      "inputs": [
        {
          "internalType": "uint256",
          "name": "proposalId",
          "type": "uint256"
        }
      ],
      "name": "execute",
      "outputs": [],
      "payable": true,
      "stateMutability": "payable",
      "type": "function"
    },
    {
      "constant": false,
      "inputs": [
        {
          "internalType": "uint256",
          "name": "proposalId",
          "type": "uint256"
        }
      ],
      "name": "cancel",
      "outputs": [],
      "payable": false,
      "stateMutability": "nonpayable",
      "type": "function"
    },
    {
      "constant": true,
      "inputs": [
        {
          "internalType": "uint256",
          "name": "proposalId",
          "type": "uint256"
        }
      ],
      "name": "getActions",
      "outputs": [
        {
          "internalType": "address[]",
          "name": "targets",
          "type": "address[]"
        },
        {
          "internalType": "uint256[]",
          "name": "values",
          "type": "uint256[]"
        },
        {
          "internalType": "string[]",
          "name": "signatures",
          "type": "string[]"
        },
        {
          "internalType": "bytes[]",
          "name": "calldatas",
          "type": "bytes[]"
        }
      ],
      "payable": false,
      "stateMutability": "view",
      "type": "function"
    },
    {
      "constant": true,
      "inputs": [
        {
          "internalType": "uint256",
          "name": "proposalId",
          "type": "uint256"
        },
        {
          "internalType": "address",
          "name": "voter",
          "type": "address"
        }
      ],
      "name": "getReceipt",
      "outputs": [
        {
          "components": [
            {
              "internalType": "bool",
              "name": "hasVoted",
              "type": "bool"
            },
            {
              "internalType": "bool",
              "name": "support",
              "type": "bool"
            },
            {
              "internalType": "uint256",
              "name": "votes",
              "type": "uint256"
            }
          ],
          "internalType": "struct GovernorAlpha.Receipt",
          "name": "",
          "type": "tuple"
        }
      ],
      "payable": false,
      "stateMutability": "view",
      "type": "function"
    },
    {
      "constant": true,
      "inputs": [
        {
          "internalType": "uint256",
          "name": "proposalId",
          "type": "uint256"
        }
      ],
      "name": "state",
      "outputs": [
        {
          "internalType": "enum GovernorAlpha.ProposalState",
          "name": "",
          "type": "uint8"
        }
      ],
      "payable": false,
      "stateMutability": "view",
      "type": "function"
    },
    {
      "constant": false,
      "inputs": [
        {
          "internalType": "uint256",
          "name": "proposalId",
          "type": "uint256"
        },
        {
          "internalType": "bool",
          "name": "support",
          "type": "bool"
        }
      ],
      "name": "castVote",
      "outputs": [],
      "payable": false,
      "stateMutability": "nonpayable",
      "type": "function"
    },
    {
      "constant": false,
      "inputs": [
        {
          "internalType": "uint256",
          "name": "proposalId",
          "type": "uint256"
        },
        {
          "internalType": "bool",
          "name": "support",
          "type": "bool"
        },
        {
          "internalType": "uint8",
          "name": "v",
          "type": "uint8"
        },
        {
          "internalType": "bytes32",
          "name": "r",
          "type": "bytes32"
        },
        {
          "internalType": "bytes32",
          "name": "s",
          "type": "bytes32"
        }
      ],
      "name": "castVoteBySig",
      "outputs": [],
      "payable": false,
      "stateMutability": "nonpayable",
      "type": "function"
    },
    {
      "constant": false,
      "inputs": [],
      "name": "__acceptAdmin",
      "outputs": [],
      "payable": false,
      "stateMutability": "nonpayable",
      "type": "function"
    },
    {
      "constant": false,
      "inputs": [],
      "name": "__abdicate",
      "outputs": [],
      "payable": false,
      "stateMutability": "nonpayable",
      "type": "function"
    },
    {
      "constant": false,
      "inputs": [
        {
          "internalType": "address",
          "name": "newPendingAdmin",
          "type": "address"
        },
        {
          "internalType": "uint256",
          "name": "eta",
          "type": "uint256"
        }
      ],
      "name": "__queueSetTimelockPendingAdmin",
      "outputs": [],
      "payable": false,
      "stateMutability": "nonpayable",
      "type": "function"
    },
    {
      "constant": false,
      "inputs": [
        {
          "internalType": "address",
          "name": "newPendingAdmin",
          "type": "address"
        },
        {
          "internalType": "uint256",
          "name": "eta",
          "type": "uint256"
        }
      ],
      "name": "__executeSetTimelockPendingAdmin",
      "outputs": [],
      "payable": false,
      "stateMutability": "nonpayable",
      "type": "function"
    }
  ],
  "bytecode": "0x60806040523480156200001157600080fd5b506040516200424b3803806200424b833981016040819052620000349162000089565b600080546001600160a01b039384166001600160a01b0319918216179091556001805492909316918116919091179091556002805490911633179055620000f4565b80516200008381620000da565b92915050565b600080604083850312156200009d57600080fd5b6000620000ab858562000076565b9250506020620000be8582860162000076565b9150509250929050565b60006001600160a01b03821662000083565b620000e581620000c8565b8114620000f157600080fd5b50565b61414780620001046000396000f3fe6080604052600436106101ac5760003560e01c80634634c61f116100ec578063d33219b41161008a578063ddf0b00911610064578063ddf0b00914610473578063deaaa7cc14610493578063e23a9a52146104a8578063fe0d94c1146104d5576101ac565b8063d33219b414610429578063da35c6641461043e578063da95691a14610453576101ac565b806391500671116100c657806391500671146103bd5780639a271b92146103dd578063b58131b0146103ff578063b9a6196114610414576101ac565b80634634c61f14610373578063760fbc13146103935780637bdbe4d0146103a8576101ac565b806321f43e42116101595780633932abb1116101335780633932abb1146102ef5780633e4f49e61461030457806340e58ee514610331578063452a932014610351576101ac565b806321f43e421461028a57806324bc1a64146102aa578063328dd982146102bf576101ac565b806315373e3d1161018a57806315373e3d1461023357806317977c611461025557806320606b7014610275576101ac565b8063013cf08b146101b157806302a251a3146101ef57806306fdde0314610211575b600080fd5b3480156101bd57600080fd5b506101d16101cc366004612bfe565b6104e8565b6040516101e699989796959493929190613ebc565b60405180910390f35b3480156101fb57600080fd5b5061020461054e565b6040516101e69190613bf6565b34801561021d57600080fd5b50610226610555565b6040516101e69190613ca5565b34801561023f57600080fd5b5061025361024e366004612c4c565b61058e565b005b34801561026157600080fd5b50610204610270366004612a41565b61059d565b34801561028157600080fd5b506102046105af565b34801561029657600080fd5b506102536102a5366004612a67565b6105c6565b3480156102b657600080fd5b506102046106ff565b3480156102cb57600080fd5b506102df6102da366004612bfe565b6107ba565b6040516101e69493929190613ba9565b3480156102fb57600080fd5b50610204610a92565b34801561031057600080fd5b5061032461031f366004612bfe565b610a97565b6040516101e69190613c97565b34801561033d57600080fd5b5061025361034c366004612bfe565b610c59565b34801561035d57600080fd5b50610366610f48565b6040516101e69190613a6e565b34801561037f57600080fd5b5061025361038e366004612c7c565b610f64565b34801561039f57600080fd5b50610253611146565b3480156103b457600080fd5b506102046111c1565b3480156103c957600080fd5b506102536103d8366004612a67565b6111c6565b3480156103e957600080fd5b506103f26112cf565b6040516101e69190613c89565b34801561040b57600080fd5b506102046112eb565b34801561042057600080fd5b50610253611390565b34801561043557600080fd5b506103f2611462565b34801561044a57600080fd5b5061020461147e565b34801561045f57600080fd5b5061020461046e366004612aa1565b611484565b34801561047f57600080fd5b5061025361048e366004612bfe565b611992565b34801561049f57600080fd5b50610204611c85565b3480156104b457600080fd5b506104c86104c3366004612c1c565b611c91565b6040516101e69190613e06565b6102536104e3366004612bfe565b611d02565b6004602052600090815260409020805460018201546002830154600784015460088501546009860154600a870154600b90970154959673ffffffffffffffffffffffffffffffffffffffff90951695939492939192909160ff8082169161010090041689565b6143805b90565b6040518060400160405280601681526020017f42726574746f6e20476f7665726e6f7220416c7068610000000000000000000081525081565b610599338383611f36565b5050565b60056020526000908152604090205481565b6040516105bb90613a58565b604051809103902081565b60025473ffffffffffffffffffffffffffffffffffffffff163314610620576040517f08c379a000000000000000000000000000000000000000000000000000000000815260040161061790613ce6565b60405180910390fd5b6000805460405173ffffffffffffffffffffffffffffffffffffffff90911691630825f38f91839190610657908790602001613a6e565b604051602081830303815290604052856040518563ffffffff1660e01b81526004016106869493929190613a8a565b600060405180830381600087803b1580156106a057600080fd5b505af11580156106b4573d6000803e3d6000fd5b505050506040513d6000823e601f3d9081017fffffffffffffffffffffffffffffffffffffffffffffffffffffffffffffffe01682016040526106fa9190810190612bc9565b505050565b60006107b56107ae600160009054906101000a900473ffffffffffffffffffffffffffffffffffffffff1673ffffffffffffffffffffffffffffffffffffffff166318160ddd6040518163ffffffff1660e01b815260040160206040518083038186803b15801561076f57600080fd5b505afa158015610783573d6000803e3d6000fd5b505050506040513d601f19601f820116820180604052506107a79190810190612bab565b600461216f565b60646121ca565b905090565b6060806060806000600460008781526020019081526020016000209050806003018160040182600501836006018380548060200260200160405190810160405280929190818152602001828054801561084957602002820191906000526020600020905b815473ffffffffffffffffffffffffffffffffffffffff16815260019091019060200180831161081e575b505050505093508280548060200260200160405190810160405280929190818152602001828054801561089b57602002820191906000526020600020905b815481526020019060010190808311610887575b5050505050925081805480602002602001604051908101604052809291908181526020016000905b8282101561098c5760008481526020908190208301805460408051601f60027fffffffffffffffffffffffffffffffffffffffffffffffffffffffffffffffff6101006001871615020190941693909304928301859004850281018501909152818152928301828280156109785780601f1061094d57610100808354040283529160200191610978565b820191906000526020600020905b81548152906001019060200180831161095b57829003601f168201915b5050505050815260200190600101906108c3565b50505050915080805480602002602001604051908101604052809291908181526020016000905b82821015610a7c5760008481526020908190208301805460408051601f60027fffffffffffffffffffffffffffffffffffffffffffffffffffffffffffffffff610100600187161502019094169390930492830185900485028101850190915281815292830182828015610a685780601f10610a3d57610100808354040283529160200191610a68565b820191906000526020600020905b815481529060010190602001808311610a4b57829003601f168201915b5050505050815260200190600101906109b3565b5050505090509450945094509450509193509193565b600190565b60008160035410158015610aab5750600082115b610ae1576040517f08c379a000000000000000000000000000000000000000000000000000000000815260040161061790613cf6565b6000828152600460205260409020600b81015460ff1615610b06576002915050610c54565b80600701544311610b1b576000915050610c54565b80600801544311610b30576001915050610c54565b80600a01548160090154111580610b515750610b4a6106ff565b8160090154105b15610b60576003915050610c54565b6002810154610b73576004915050610c54565b600b810154610100900460ff1615610b8f576007915050610c54565b6002810154600054604080517fc1a287e20000000000000000000000000000000000000000000000000000000081529051610c3e939273ffffffffffffffffffffffffffffffffffffffff169163c1a287e2916004808301926020929190829003018186803b158015610c0157600080fd5b505afa158015610c15573d6000803e3d6000fd5b505050506040513d601f19601f82011682018060405250610c399190810190612bab565b61220c565b4210610c4e576006915050610c54565b60059150505b919050565b6000610c6482610a97565b90506007816007811115610c7457fe5b1415610cac576040517f08c379a000000000000000000000000000000000000000000000000000000000815260040161061790613dd6565b600082815260046020526040902060025473ffffffffffffffffffffffffffffffffffffffff16331480610d915750610ce36112eb565b60018054908301546040517f70a0823100000000000000000000000000000000000000000000000000000000815273ffffffffffffffffffffffffffffffffffffffff928316926370a0823192610d3f92911690600401613a6e565b60206040518083038186803b158015610d5757600080fd5b505afa158015610d6b573d6000803e3d6000fd5b505050506040513d601f19601f82011682018060405250610d8f9190810190612bab565b105b610dc7576040517f08c379a000000000000000000000000000000000000000000000000000000000815260040161061790613d76565b600b810180547fffffffffffffffffffffffffffffffffffffffffffffffffffffffffffffff0016600117905560005b6003820154811015610f0b5760005460038301805473ffffffffffffffffffffffffffffffffffffffff9092169163591fcdfe919084908110610e3657fe5b60009182526020909120015460048501805473ffffffffffffffffffffffffffffffffffffffff9092169185908110610e6b57fe5b9060005260206000200154856005018581548110610e8557fe5b90600052602060002001866006018681548110610e9e57fe5b9060005260206000200187600201546040518663ffffffff1660e01b8152600401610ecd959493929190613b68565b600060405180830381600087803b158015610ee757600080fd5b505af1158015610efb573d6000803e3d6000fd5b505060019092019150610df79050565b507f789cf55be980739dad1d0699b93b58e806b51c9d96619bfa8fe0a28abaa7b30c83604051610f3b9190613bf6565b60405180910390a1505050565b60025473ffffffffffffffffffffffffffffffffffffffff1681565b6000604051610f7290613a58565b60408051918290038220828201909152601682527f42726574746f6e20476f7665726e6f7220416c706861000000000000000000006020909201919091527ff31cd680d7e99797c980e639a0e85126c5695d6de6bb59b56c26ac42e79b815f610fd961224b565b30604051602001610fed9493929190613c04565b604051602081830303815290604052805190602001209050600060405161101390613a63565b60405190819003812061102c9189908990602001613c39565b60405160208183030381529060405280519060200120905060008282604051602001611059929190613a27565b6040516020818303038152906040528051906020012090506000600182888888604051600081526020016040526040516110969493929190613c61565b6020604051602081039080840390855afa1580156110b8573d6000803e3d6000fd5b50506040517fffffffffffffffffffffffffffffffffffffffffffffffffffffffffffffffe0015191505073ffffffffffffffffffffffffffffffffffffffff8116611130576040517f08c379a000000000000000000000000000000000000000000000000000000000815260040161061790613db6565b61113b818a8a611f36565b505050505050505050565b60025473ffffffffffffffffffffffffffffffffffffffff163314611197576040517f08c379a000000000000000000000000000000000000000000000000000000000815260040161061790613df6565b600280547fffffffffffffffffffffffff0000000000000000000000000000000000000000169055565b600a90565b60025473ffffffffffffffffffffffffffffffffffffffff163314611217576040517f08c379a000000000000000000000000000000000000000000000000000000000815260040161061790613d26565b6000805460405173ffffffffffffffffffffffffffffffffffffffff90911691633a66f9019183919061124e908790602001613a6e565b604051602081830303815290604052856040518563ffffffff1660e01b815260040161127d9493929190613a8a565b602060405180830381600087803b15801561129757600080fd5b505af11580156112ab573d6000803e3d6000fd5b505050506040513d601f19601f820116820180604052506106fa9190810190612bab565b60015473ffffffffffffffffffffffffffffffffffffffff1681565b60006107b5600160009054906101000a900473ffffffffffffffffffffffffffffffffffffffff1673ffffffffffffffffffffffffffffffffffffffff166318160ddd6040518163ffffffff1660e01b815260040160206040518083038186803b15801561135857600080fd5b505afa15801561136c573d6000803e3d6000fd5b505050506040513d601f19601f820116820180604052506107ae9190810190612bab565b60025473ffffffffffffffffffffffffffffffffffffffff1633146113e1576040517f08c379a000000000000000000000000000000000000000000000000000000000815260040161061790613cb6565b60008054604080517f0e18b681000000000000000000000000000000000000000000000000000000008152905173ffffffffffffffffffffffffffffffffffffffff90921692630e18b6819260048084019382900301818387803b15801561144857600080fd5b505af115801561145c573d6000803e3d6000fd5b50505050565b60005473ffffffffffffffffffffffffffffffffffffffff1681565b60035481565b600061148e6112eb565b6001546040517f70a0823100000000000000000000000000000000000000000000000000000000815273ffffffffffffffffffffffffffffffffffffffff909116906370a08231906114e4903390600401613a7c565b60206040518083038186803b1580156114fc57600080fd5b505afa158015611510573d6000803e3d6000fd5b505050506040513d601f19601f820116820180604052506115349190810190612bab565b1161156b576040517f08c379a000000000000000000000000000000000000000000000000000000000815260040161061790613da6565b8451865114801561157d575083518651145b801561158a575082518651145b6115c0576040517f08c379a000000000000000000000000000000000000000000000000000000000815260040161061790613d56565b85516115f8576040517f08c379a000000000000000000000000000000000000000000000000000000000815260040161061790613d96565b6116006111c1565b8651111561163a576040517f08c379a000000000000000000000000000000000000000000000000000000000815260040161061790613d36565b3360009081526005602052604090205480156116eb57600061165b82610a97565b9050600181600781111561166b57fe5b14156116a3576040517f08c379a000000000000000000000000000000000000000000000000000000000815260040161061790613dc6565b60008160078111156116b157fe5b14156116e9576040517f08c379a000000000000000000000000000000000000000000000000000000000815260040161061790613d16565b505b60006116f943610c39610a92565b9050600061170982610c3961054e565b600380546001019055905061171c61244c565b604051806101a0016040528060035481526020013373ffffffffffffffffffffffffffffffffffffffff168152602001600081526020018b81526020018a815260200189815260200188815260200184815260200183815260200160008152602001600081526020016000151581526020016000151581525090508060046000836000015181526020019081526020016000206000820151816000015560208201518160010160006101000a81548173ffffffffffffffffffffffffffffffffffffffff021916908373ffffffffffffffffffffffffffffffffffffffff1602179055506040820151816002015560608201518160030190805190602001906118269291906124ce565b5060808201518051611842916004840191602090910190612558565b5060a0820151805161185e91600584019160209091019061259f565b5060c0820151805161187a9160068401916020909101906125f8565b5060e082015181600701556101008201518160080155610120820151816009015561014082015181600a015561016082015181600b0160006101000a81548160ff02191690831515021790555061018082015181600b0160016101000a81548160ff021916908315150217905550905050806000015160056000836020015173ffffffffffffffffffffffffffffffffffffffff1673ffffffffffffffffffffffffffffffffffffffff168152602001908152602001600020819055507f7d84a6263ae0d98d3329bd7b46bb4e8d6f98cd35a7adb45c274c8b7fd5ebd5e08160000151338c8c8c8c89898e60405161197a99989796959493929190613e14565b60405180910390a15193505050505b95945050505050565b600461199d82610a97565b60078111156119a857fe5b146119df576040517f08c379a000000000000000000000000000000000000000000000000000000000815260040161061790613cc6565b6000818152600460208181526040808420845482517f6a42b8f80000000000000000000000000000000000000000000000000000000081529251919594611a5a94429473ffffffffffffffffffffffffffffffffffffffff90931693636a42b8f8938084019390829003018186803b158015610c0157600080fd5b905060005b6003830154811015611c4b57611c43836003018281548110611a7d57fe5b60009182526020909120015460048501805473ffffffffffffffffffffffffffffffffffffffff9092169184908110611ab257fe5b9060005260206000200154856005018481548110611acc57fe5b600091825260209182902001805460408051601f60027fffffffffffffffffffffffffffffffffffffffffffffffffffffffffffffffff610100600187161502019094169390930492830185900485028101850190915281815292830182828015611b785780601f10611b4d57610100808354040283529160200191611b78565b820191906000526020600020905b815481529060010190602001808311611b5b57829003601f168201915b5050505050866006018581548110611b8c57fe5b600091825260209182902001805460408051601f60027fffffffffffffffffffffffffffffffffffffffffffffffffffffffffffffffff610100600187161502019094169390930492830185900485028101850190915281815292830182828015611c385780601f10611c0d57610100808354040283529160200191611c38565b820191906000526020600020905b815481529060010190602001808311611c1b57829003601f168201915b50505050508661224f565b600101611a5f565b50600282018190556040517f9a2e42fd6722813d69113e7d0079d3d940171428df7373df9c7f7617cfda289290610f3b9085908490613f42565b6040516105bb90613a63565b611c99612651565b50600082815260046020908152604080832073ffffffffffffffffffffffffffffffffffffffff85168452600c018252918290208251606081018452815460ff808216151583526101009091041615159281019290925260010154918101919091525b92915050565b6005611d0d82610a97565b6007811115611d1857fe5b14611d4f576040517f08c379a000000000000000000000000000000000000000000000000000000000815260040161061790613cd6565b6000818152600460205260408120600b810180547fffffffffffffffffffffffffffffffffffffffffffffffffffffffffffff00ff16610100179055905b6003820154811015611efa5760005460048301805473ffffffffffffffffffffffffffffffffffffffff90921691630825f38f919084908110611dcc57fe5b9060005260206000200154846003018481548110611de657fe5b60009182526020909120015460048601805473ffffffffffffffffffffffffffffffffffffffff9092169186908110611e1b57fe5b9060005260206000200154866005018681548110611e3557fe5b90600052602060002001876006018781548110611e4e57fe5b9060005260206000200188600201546040518763ffffffff1660e01b8152600401611e7d959493929190613b68565b6000604051808303818588803b158015611e9657600080fd5b505af1158015611eaa573d6000803e3d6000fd5b50505050506040513d6000823e601f3d9081017fffffffffffffffffffffffffffffffffffffffffffffffffffffffffffffffe0168201604052611ef19190810190612bc9565b50600101611d8d565b507f712ae1383f79ac853f8d882153778e0260ef8f03b504e2866e0593e04d2b291f82604051611f2a9190613bf6565b60405180910390a15050565b6001611f4183610a97565b6007811115611f4c57fe5b14611f83576040517f08c379a000000000000000000000000000000000000000000000000000000000815260040161061790613de6565b600082815260046020908152604080832073ffffffffffffffffffffffffffffffffffffffff87168452600c8101909252909120805460ff1615611ff3576040517f08c379a000000000000000000000000000000000000000000000000000000000815260040161061790613d06565b6001546040517f70a0823100000000000000000000000000000000000000000000000000000000815260009173ffffffffffffffffffffffffffffffffffffffff16906370a082319061204a908990600401613a6e565b60206040518083038186803b15801561206257600080fd5b505afa158015612076573d6000803e3d6000fd5b505050506040513d601f19601f8201168201806040525061209a9190810190612bab565b905083156120ba576120b083600901548261220c565b60098401556120ce565b6120c883600a01548261220c565b600a8401555b815460017fffffffffffffffffffffffffffffffffffffffffffffffffffffffffffffff0090911681177fffffffffffffffffffffffffffffffffffffffffffffffffffffffffffff00ff166101008615150217835582018190556040517f877856338e13f63d0c36822ff0ef736b80934cd90574a3a5bc9262c39d217c469061215f908890889088908690613ad9565b60405180910390a1505050505050565b60008261217e57506000611cfc565b8282028284828161218b57fe5b04146121c3576040517f08c379a000000000000000000000000000000000000000000000000000000000815260040161061790613d66565b9392505050565b60006121c383836040518060400160405280601a81526020017f536166654d6174683a206469766973696f6e206279207a65726f0000000000008152506123fb565b6000828201838110156121c3576040517f08c379a000000000000000000000000000000000000000000000000000000000815260040161061790613d46565b4690565b60005460405173ffffffffffffffffffffffffffffffffffffffff9091169063f2b065379061228a9088908890889088908890602001613b0e565b604051602081830303815290604052805190602001206040518263ffffffff1660e01b81526004016122bc9190613bf6565b60206040518083038186803b1580156122d457600080fd5b505afa1580156122e8573d6000803e3d6000fd5b505050506040513d601f19601f8201168201806040525061230c9190810190612b8d565b15612343576040517f08c379a000000000000000000000000000000000000000000000000000000000815260040161061790613d86565b6000546040517f3a66f90100000000000000000000000000000000000000000000000000000000815273ffffffffffffffffffffffffffffffffffffffff90911690633a66f901906123a19088908890889088908890600401613b0e565b602060405180830381600087803b1580156123bb57600080fd5b505af11580156123cf573d6000803e3d6000fd5b505050506040513d601f19601f820116820180604052506123f39190810190612bab565b505050505050565b60008183612436576040517f08c379a00000000000000000000000000000000000000000000000000000000081526004016106179190613ca5565b50600083858161244257fe5b0495945050505050565b604051806101a0016040528060008152602001600073ffffffffffffffffffffffffffffffffffffffff1681526020016000815260200160608152602001606081526020016060815260200160608152602001600081526020016000815260200160008152602001600081526020016000151581526020016000151581525090565b828054828255906000526020600020908101928215612548579160200282015b8281111561254857825182547fffffffffffffffffffffffff00000000000000000000000000000000000000001673ffffffffffffffffffffffffffffffffffffffff9091161782556020909201916001909101906124ee565b50612554929150612671565b5090565b828054828255906000526020600020908101928215612593579160200282015b82811115612593578251825591602001919060010190612578565b506125549291506126ad565b8280548282559060005260206000209081019282156125ec579160200282015b828111156125ec57825180516125dc9184916020909101906126c7565b50916020019190600101906125bf565b50612554929150612734565b828054828255906000526020600020908101928215612645579160200282015b8281111561264557825180516126359184916020909101906126c7565b5091602001919060010190612618565b50612554929150612757565b604080516060810182526000808252602082018190529181019190915290565b61055291905b808211156125545780547fffffffffffffffffffffffff0000000000000000000000000000000000000000168155600101612677565b61055291905b8082111561255457600081556001016126b3565b828054600181600116156101000203166002900490600052602060002090601f016020900481019282601f1061270857805160ff1916838001178555612593565b828001600101855582156125935791820182811115612593578251825591602001919060010190612578565b61055291905b8082111561255457600061274e828261277a565b5060010161273a565b61055291905b80821115612554576000612771828261277a565b5060010161275d565b50805460018160011615610100020316600290046000825580601f106127a057506127be565b601f0160209004906000526020600020908101906127be91906126ad565b50565b8035611cfc816140d5565b600082601f8301126127dd57600080fd5b81356127f06127eb82613f84565b613f5d565b9150818183526020840193506020810190508385602084028201111561281557600080fd5b60005b83811015612841578161282b88826127c1565b8452506020928301929190910190600101612818565b5050505092915050565b600082601f83011261285c57600080fd5b813561286a6127eb82613f84565b81815260209384019390925082018360005b83811015612841578135860161289288826129a1565b845250602092830192919091019060010161287c565b600082601f8301126128b957600080fd5b81356128c76127eb82613f84565b81815260209384019390925082018360005b8381101561284157813586016128ef88826129a1565b84525060209283019291909101906001016128d9565b600082601f83011261291657600080fd5b81356129246127eb82613f84565b9150818183526020840193506020810190508385602084028201111561294957600080fd5b60005b83811015612841578161295f888261298b565b845250602092830192919091019060010161294c565b8035611cfc816140e9565b8051611cfc816140e9565b8035611cfc816140f2565b8051611cfc816140f2565b600082601f8301126129b257600080fd5b81356129c06127eb82613fa5565b915080825260208301602083018583830111156129dc57600080fd5b6129e783828461406b565b50505092915050565b600082601f830112612a0157600080fd5b8151612a0f6127eb82613fa5565b91508082526020830160208301858383011115612a2b57600080fd5b6129e7838284614077565b8035611cfc816140fb565b600060208284031215612a5357600080fd5b6000612a5f84846127c1565b949350505050565b60008060408385031215612a7a57600080fd5b6000612a8685856127c1565b9250506020612a978582860161298b565b9150509250929050565b600080600080600060a08688031215612ab957600080fd5b853567ffffffffffffffff811115612ad057600080fd5b612adc888289016127cc565b955050602086013567ffffffffffffffff811115612af957600080fd5b612b0588828901612905565b945050604086013567ffffffffffffffff811115612b2257600080fd5b612b2e888289016128a8565b935050606086013567ffffffffffffffff811115612b4b57600080fd5b612b578882890161284b565b925050608086013567ffffffffffffffff811115612b7457600080fd5b612b80888289016129a1565b9150509295509295909350565b600060208284031215612b9f57600080fd5b6000612a5f8484612980565b600060208284031215612bbd57600080fd5b6000612a5f8484612996565b600060208284031215612bdb57600080fd5b815167ffffffffffffffff811115612bf257600080fd5b612a5f848285016129f0565b600060208284031215612c1057600080fd5b6000612a5f848461298b565b60008060408385031215612c2f57600080fd5b6000612c3b858561298b565b9250506020612a97858286016127c1565b60008060408385031215612c5f57600080fd5b6000612c6b858561298b565b9250506020612a9785828601612975565b600080600080600060a08688031215612c9457600080fd5b6000612ca0888861298b565b9550506020612cb188828901612975565b9450506040612cc288828901612a36565b9350506060612cd38882890161298b565b9250506080612b808882890161298b565b6000612cf08383612d1f565b505060200190565b60006121c38383612ec1565b6000612cf08383612ea7565b612d1981614043565b82525050565b612d198161400a565b6000612d3382613ffd565b612d3d8185614001565b9350612d4883613feb565b8060005b83811015612d76578151612d608882612ce4565b9750612d6b83613feb565b925050600101612d4c565b509495945050505050565b6000612d8c82613ffd565b612d968185614001565b935083602082028501612da885613feb565b8060005b85811015612de25784840389528151612dc58582612cf8565b9450612dd083613feb565b60209a909a0199925050600101612dac565b5091979650505050505050565b6000612dfa82613ffd565b612e048185614001565b935083602082028501612e1685613feb565b8060005b85811015612de25784840389528151612e338582612cf8565b9450612e3e83613feb565b60209a909a0199925050600101612e1a565b6000612e5b82613ffd565b612e658185614001565b9350612e7083613feb565b8060005b83811015612d76578151612e888882612d04565b9750612e9383613feb565b925050600101612e74565b612d1981614015565b612d1981610552565b612d19612ebc82610552565b610552565b6000612ecc82613ffd565b612ed68185614001565b9350612ee6818560208601614077565b612eef816140a3565b9093019392505050565b600081546001811660008114612f165760018114612f5a57612f99565b607f6002830416612f278187614001565b7fffffffffffffffffffffffffffffffffffffffffffffffffffffffffffffff0084168152955050602085019250612f99565b60028204612f688187614001565b9550612f7385613ff1565b60005b82811015612f9257815488820152600190910190602001612f76565b8701945050505b505092915050565b612d198161404a565b612d1981614055565b612d1981614060565b6000612fc9603983614001565b7f476f7665726e6f72416c7068613a3a5f5f61636365707441646d696e3a20736581527f6e646572206d75737420626520676f7620677561726469616e00000000000000602082015260400192915050565b6000613028604483614001565b7f476f7665726e6f72416c7068613a3a71756575653a2070726f706f73616c206381527f616e206f6e6c792062652071756575656420696620697420697320737563636560208201527f6564656400000000000000000000000000000000000000000000000000000000604082015260600192915050565b60006130ad604583614001565b7f476f7665726e6f72416c7068613a3a657865637574653a2070726f706f73616c81527f2063616e206f6e6c79206265206578656375746564206966206974206973207160208201527f7565756564000000000000000000000000000000000000000000000000000000604082015260600192915050565b6000613132600283610c54565b7f1901000000000000000000000000000000000000000000000000000000000000815260020192915050565b600061316b604c83614001565b7f476f7665726e6f72416c7068613a3a5f5f6578656375746553657454696d656c81527f6f636b50656e64696e6741646d696e3a2073656e646572206d7573742062652060208201527f676f7620677561726469616e0000000000000000000000000000000000000000604082015260600192915050565b60006131f0601883614001565b7f73657450656e64696e6741646d696e2861646472657373290000000000000000815260200192915050565b6000613229602983614001565b7f476f7665726e6f72416c7068613a3a73746174653a20696e76616c696420707281527f6f706f73616c2069640000000000000000000000000000000000000000000000602082015260400192915050565b6000613288602d83614001565b7f476f7665726e6f72416c7068613a3a5f63617374566f74653a20766f7465722081527f616c726561647920766f74656400000000000000000000000000000000000000602082015260400192915050565b60006132e7605983614001565b7f476f7665726e6f72416c7068613a3a70726f706f73653a206f6e65206c69766581527f2070726f706f73616c207065722070726f706f7365722c20666f756e6420616e60208201527f20616c72656164792070656e64696e672070726f706f73616c00000000000000604082015260600192915050565b600061336c604a83614001565b7f476f7665726e6f72416c7068613a3a5f5f717565756553657454696d656c6f6381527f6b50656e64696e6741646d696e3a2073656e646572206d75737420626520676f60208201527f7620677561726469616e00000000000000000000000000000000000000000000604082015260600192915050565b60006133f1602883614001565b7f476f7665726e6f72416c7068613a3a70726f706f73653a20746f6f206d616e7981527f20616374696f6e73000000000000000000000000000000000000000000000000602082015260400192915050565b6000613450601183614001565b7f6164646974696f6e206f766572666c6f77000000000000000000000000000000815260200192915050565b6000613489604383610c54565b7f454950373132446f6d61696e28737472696e67206e616d652c75696e7432353681527f20636861696e49642c6164647265737320766572696679696e67436f6e74726160208201527f6374290000000000000000000000000000000000000000000000000000000000604082015260430192915050565b600061350e602783610c54565b7f42616c6c6f742875696e743235362070726f706f73616c49642c626f6f6c207381527f7570706f72742900000000000000000000000000000000000000000000000000602082015260270192915050565b600061356d604483614001565b7f476f7665726e6f72416c7068613a3a70726f706f73653a2070726f706f73616c81527f2066756e6374696f6e20696e666f726d6174696f6e206172697479206d69736d60208201527f6174636800000000000000000000000000000000000000000000000000000000604082015260600192915050565b60006135f2602183614001565b7f536166654d6174683a206d756c7469706c69636174696f6e206f766572666c6f81527f7700000000000000000000000000000000000000000000000000000000000000602082015260400192915050565b6000613651602f83614001565b7f476f7665726e6f72416c7068613a3a63616e63656c3a2070726f706f7365722081527f61626f7665207468726573686f6c640000000000000000000000000000000000602082015260400192915050565b60006136b0604483614001565b7f476f7665726e6f72416c7068613a3a5f71756575654f725265766572743a207081527f726f706f73616c20616374696f6e20616c72656164792071756575656420617460208201527f2065746100000000000000000000000000000000000000000000000000000000604082015260600192915050565b6000613735602c83614001565b7f476f7665726e6f72416c7068613a3a70726f706f73653a206d7573742070726f81527f7669646520616374696f6e730000000000000000000000000000000000000000602082015260400192915050565b6000613794603f83614001565b7f476f7665726e6f72416c7068613a3a70726f706f73653a2070726f706f73657281527f20766f7465732062656c6f772070726f706f73616c207468726573686f6c6400602082015260400192915050565b60006137f3602f83614001565b7f476f7665726e6f72416c7068613a3a63617374566f746542795369673a20696e81527f76616c6964207369676e61747572650000000000000000000000000000000000602082015260400192915050565b6000613852605883614001565b7f476f7665726e6f72416c7068613a3a70726f706f73653a206f6e65206c69766581527f2070726f706f73616c207065722070726f706f7365722c20666f756e6420616e60208201527f20616c7265616479206163746976652070726f706f73616c0000000000000000604082015260600192915050565b60006138d7603683614001565b7f476f7665726e6f72416c7068613a3a63616e63656c3a2063616e6e6f7420636181527f6e63656c2065786563757465642070726f706f73616c00000000000000000000602082015260400192915050565b6000613936602a83614001565b7f476f7665726e6f72416c7068613a3a5f63617374566f74653a20766f74696e6781527f20697320636c6f73656400000000000000000000000000000000000000000000602082015260400192915050565b6000613995603683614001565b7f476f7665726e6f72416c7068613a3a5f5f61626469636174653a2073656e646581527f72206d75737420626520676f7620677561726469616e00000000000000000000602082015260400192915050565b805160608301906139f88482612e9e565b506020820151613a0b6020850182612e9e565b50604082015161145c6040850182612ea7565b612d198161403d565b6000613a3282613125565b9150613a3e8285612eb0565b602082019150613a4e8284612eb0565b5060200192915050565b6000611cfc8261347c565b6000611cfc82613501565b60208101611cfc8284612d1f565b60208101611cfc8284612d10565b60a08101613a988287612d1f565b613aa56020830186612fb3565b8181036040830152613ab6816131e3565b90508181036060830152613aca8185612ec1565b90506119896080830184612ea7565b60808101613ae78287612d1f565b613af46020830186612ea7565b613b016040830185612e9e565b6119896060830184612ea7565b60a08101613b1c8288612d1f565b613b296020830187612ea7565b8181036040830152613b3b8186612ec1565b90508181036060830152613b4f8185612ec1565b9050613b5e6080830184612ea7565b9695505050505050565b60a08101613b768288612d1f565b613b836020830187612ea7565b8181036040830152613b958186612ef9565b90508181036060830152613b4f8185612ef9565b60808082528101613bba8187612d28565b90508181036020830152613bce8186612e50565b90508181036040830152613be28185612def565b90508181036060830152613b5e8184612d81565b60208101611cfc8284612ea7565b60808101613c128287612ea7565b613c1f6020830186612ea7565b613c2c6040830185612ea7565b6119896060830184612d1f565b60608101613c478286612ea7565b613c546020830185612ea7565b612a5f6040830184612e9e565b60808101613c6f8287612ea7565b613c7c6020830186613a1e565b613b016040830185612ea7565b60208101611cfc8284612fa1565b60208101611cfc8284612faa565b602080825281016121c38184612ec1565b60208082528101611cfc81612fbc565b60208082528101611cfc8161301b565b60208082528101611cfc816130a0565b60208082528101611cfc8161315e565b60208082528101611cfc8161321c565b60208082528101611cfc8161327b565b60208082528101611cfc816132da565b60208082528101611cfc8161335f565b60208082528101611cfc816133e4565b60208082528101611cfc81613443565b60208082528101611cfc81613560565b60208082528101611cfc816135e5565b60208082528101611cfc81613644565b60208082528101611cfc816136a3565b60208082528101611cfc81613728565b60208082528101611cfc81613787565b60208082528101611cfc816137e6565b60208082528101611cfc81613845565b60208082528101611cfc816138ca565b60208082528101611cfc81613929565b60208082528101611cfc81613988565b60608101611cfc82846139e7565b6101208101613e23828c612ea7565b613e30602083018b612d10565b8181036040830152613e42818a612d28565b90508181036060830152613e568189612e50565b90508181036080830152613e6a8188612def565b905081810360a0830152613e7e8187612d81565b9050613e8d60c0830186612ea7565b613e9a60e0830185612ea7565b818103610100830152613ead8184612ec1565b9b9a5050505050505050505050565b6101208101613ecb828c612ea7565b613ed8602083018b612d1f565b613ee5604083018a612ea7565b613ef26060830189612ea7565b613eff6080830188612ea7565b613f0c60a0830187612ea7565b613f1960c0830186612ea7565b613f2660e0830185612e9e565b613f34610100830184612e9e565b9a9950505050505050505050565b60408101613f508285612ea7565b6121c36020830184612ea7565b60405181810167ffffffffffffffff81118282101715613f7c57600080fd5b604052919050565b600067ffffffffffffffff821115613f9b57600080fd5b5060209081020190565b600067ffffffffffffffff821115613fbc57600080fd5b506020601f919091017fffffffffffffffffffffffffffffffffffffffffffffffffffffffffffffffe0160190565b60200190565b60009081526020902090565b5190565b90815260200190565b6000611cfc82614024565b151590565b80610c54816140cb565b73ffffffffffffffffffffffffffffffffffffffff1690565b60ff1690565b6000611cfc825b6000611cfc8261400a565b6000611cfc8261401a565b6000611cfc82610552565b82818337506000910152565b60005b8381101561409257818101518382015260200161407a565b8381111561145c5750506000910152565b601f017fffffffffffffffffffffffffffffffffffffffffffffffffffffffffffffffe01690565b600881106127be57fe5b6140de8161400a565b81146127be57600080fd5b6140de81614015565b6140de81610552565b6140de8161403d56fea365627a7a723158203e8a9de0f9e9b939b7425155bd3e26d3b6e93cd5dfb20beed84f3c4f6f97392a6c6578706572696d656e74616cf564736f6c63430005100040",
  "source": "// Original work from Compound: https://github.com/compound-finance/compound-protocol/blob/master/contracts/Governance/GovernorAlpha.sol\n\n// Original audit: https://blog.openzeppelin.com/compound-alpha-governance-system-audit/\n// Overview:\n//    No Critical\n//    High:\n//      Issue:\n//        Approved proposal may be impossible to queue, cancel or execute\n//        Fixed with `proposalMaxOperations`\n//      Issue:\n//        Queued proposal with repeated actions cannot be executed\n//        Fixed by explicitly disallow proposals with repeated actions to be queued in the Timelock contract.\n//\n\npragma solidity 0.5.16;\npragma experimental ABIEncoderV2;\n\nimport \"../externals/SafeMath.sol\";\n\ncontract GovernorAlpha {\n    /// @notice The name of this contract\n    string public constant name = \"Bretton Governor Alpha\";\n\n    /// @notice The number of votes in support of a proposal required in order for a quorum to be reached and for a vote to succeed\n    function quorumVotes() public view returns (uint256) { return SafeMath.div(SafeMath.mul(BRET.totalSupply(), 4), 100); } // 4% of Bretton\n\n    /// @notice The number of votes required in order for a voter to become a proposer\n    function proposalThreshold() public view returns (uint256) { return SafeMath.div(BRET.totalSupply(), 100); } // 1% of Bretton\n\n    /// @notice The maximum number of actions that can be included in a proposal\n    function proposalMaxOperations() public pure returns (uint256) { return 10; } // 10 actions\n\n    /// @notice The delay before voting on a proposal may take place, once proposed\n    function votingDelay() public pure returns (uint256) { return 1; } // 1 block\n\n    /// @notice The duration of voting on a proposal, in blocks\n    function votingPeriod() public pure returns (uint256) { return 17280; } // ~3 days in blocks (assuming 15s blocks)\n\n    /// @notice The address of the Compound Protocol Timelock\n    TimelockInterface public timelock;\n\n    /// @notice The address of the Compound governance token\n    BRETInterface public BRET;\n\n    /// @notice The address of the Governor Guardian\n    address public guardian;\n\n    /// @notice The total number of proposals\n    uint256 public proposalCount;\n\n    struct Proposal {\n        /// @notice Unique id for looking up a proposal\n        uint256 id;\n\n        /// @notice Creator of the proposal\n        address proposer;\n\n        /// @notice The timestamp that the proposal will be available for execution, set once the vote succeeds\n        uint256 eta;\n\n        /// @notice the ordered list of target addresses for calls to be made\n        address[] targets;\n\n        /// @notice The ordered list of values (i.e. msg.value) to be passed to the calls to be made\n        uint[] values;\n\n        /// @notice The ordered list of function signatures to be called\n        string[] signatures;\n\n        /// @notice The ordered list of calldata to be passed to each call\n        bytes[] calldatas;\n\n        /// @notice The block at which voting begins: holders must delegate their votes prior to this block\n        uint256 startBlock;\n\n        /// @notice The block at which voting ends: votes must be cast prior to this block\n        uint256 endBlock;\n\n        /// @notice Current number of votes in favor of this proposal\n        uint256 forVotes;\n\n        /// @notice Current number of votes in opposition to this proposal\n        uint256 againstVotes;\n\n        /// @notice Flag marking whether the proposal has been canceled\n        bool canceled;\n\n        /// @notice Flag marking whether the proposal has been executed\n        bool executed;\n\n        /// @notice Receipts of ballots for the entire set of voters\n        mapping (address => Receipt) receipts;\n    }\n\n    /// @notice Ballot receipt record for a voter\n    struct Receipt {\n        /// @notice Whether or not a vote has been cast\n        bool hasVoted;\n\n        /// @notice Whether or not the voter supports the proposal\n        bool support;\n\n        /// @notice The number of votes the voter had, which were cast\n        uint256 votes;\n    }\n\n    /// @notice Possible states that a proposal may be in\n    enum ProposalState {\n        Pending,\n        Active,\n        Canceled,\n        Defeated,\n        Succeeded,\n        Queued,\n        Expired,\n        Executed\n    }\n\n    /// @notice The official record of all proposals ever proposed\n    mapping (uint256 => Proposal) public proposals;\n\n    /// @notice The latest proposal for each proposer\n    mapping (address => uint256) public latestProposalIds;\n\n    /// @notice The EIP-712 typehash for the contract's domain\n    bytes32 public constant DOMAIN_TYPEHASH = keccak256(\"EIP712Domain(string name,uint256 chainId,address verifyingContract)\");\n\n    /// @notice The EIP-712 typehash for the ballot struct used by the contract\n    bytes32 public constant BALLOT_TYPEHASH = keccak256(\"Ballot(uint256 proposalId,bool support)\");\n\n    /// @notice An event emitted when a new proposal is created\n    event ProposalCreated(uint256 id, address proposer, address[] targets, uint[] values, string[] signatures, bytes[] calldatas, uint256 startBlock, uint256 endBlock, string description);\n\n    /// @notice An event emitted when a vote has been cast on a proposal\n    event VoteCast(address voter, uint256 proposalId, bool support, uint256 votes);\n\n    /// @notice An event emitted when a proposal has been canceled\n    event ProposalCanceled(uint256 id);\n\n    /// @notice An event emitted when a proposal has been queued in the Timelock\n    event ProposalQueued(uint256 id, uint256 eta);\n\n    /// @notice An event emitted when a proposal has been executed in the Timelock\n    event ProposalExecuted(uint256 id);\n\n    constructor(address timelock_, address BRET_) public {\n        timelock = TimelockInterface(timelock_);\n        BRET = BRETInterface(BRET_);\n        guardian = msg.sender;\n    }\n\n    function propose(\n        address[] memory targets,\n        uint[] memory values,\n        string[] memory signatures,\n        bytes[] memory calldatas,\n        string memory description\n    )\n        public\n        returns (uint256)\n    {\n        require(BRET.balanceOf(msg.sender) > proposalThreshold(), \"GovernorAlpha::propose: proposer votes below proposal threshold\");\n        require(targets.length == values.length && targets.length == signatures.length && targets.length == calldatas.length, \"GovernorAlpha::propose: proposal function information arity mismatch\");\n        require(targets.length != 0, \"GovernorAlpha::propose: must provide actions\");\n        require(targets.length <= proposalMaxOperations(), \"GovernorAlpha::propose: too many actions\");\n\n        uint256 latestProposalId = latestProposalIds[msg.sender];\n        if (latestProposalId != 0) {\n          ProposalState proposersLatestProposalState = state(latestProposalId);\n          require(proposersLatestProposalState != ProposalState.Active, \"GovernorAlpha::propose: one live proposal per proposer, found an already active proposal\");\n          require(proposersLatestProposalState != ProposalState.Pending, \"GovernorAlpha::propose: one live proposal per proposer, found an already pending proposal\");\n        }\n\n        uint256 startBlock = add256(block.number, votingDelay());\n        uint256 endBlock = add256(startBlock, votingPeriod());\n\n        proposalCount++;\n        Proposal memory newProposal = Proposal({\n            id: proposalCount,\n            proposer: msg.sender,\n            eta: 0,\n            targets: targets,\n            values: values,\n            signatures: signatures,\n            calldatas: calldatas,\n            startBlock: startBlock,\n            endBlock: endBlock,\n            forVotes: 0,\n            againstVotes: 0,\n            canceled: false,\n            executed: false\n        });\n\n        proposals[newProposal.id] = newProposal;\n        latestProposalIds[newProposal.proposer] = newProposal.id;\n\n        emit ProposalCreated(\n            newProposal.id,\n            msg.sender,\n            targets,\n            values,\n            signatures,\n            calldatas,\n            startBlock,\n            endBlock,\n            description\n        );\n        return newProposal.id;\n    }\n\n    function queue(uint256 proposalId)\n        public\n    {\n        require(state(proposalId) == ProposalState.Succeeded, \"GovernorAlpha::queue: proposal can only be queued if it is succeeded\");\n        Proposal storage proposal = proposals[proposalId];\n        uint256 eta = add256(block.timestamp, timelock.delay());\n        for (uint256 i = 0; i < proposal.targets.length; i++) {\n            _queueOrRevert(\n                proposal.targets[i],\n                proposal.values[i],\n                proposal.signatures[i],\n                proposal.calldatas[i],\n                eta\n            );\n        }\n        proposal.eta = eta;\n        emit ProposalQueued(proposalId, eta);\n    }\n\n    function _queueOrRevert(\n        address target,\n        uint256 value,\n        string memory signature,\n        bytes memory data,\n        uint256 eta\n    )\n        internal\n    {\n        require(!timelock.queuedTransactions(\n              keccak256(\n                  abi.encode(\n                      target,\n                      value,\n                      signature,\n                      data,\n                      eta\n                  )\n              )\n          ),\n          \"GovernorAlpha::_queueOrRevert: proposal action already queued at eta\"\n        );\n\n        timelock.queueTransaction(target, value, signature, data, eta);\n    }\n\n    function execute(uint256 proposalId)\n        public\n        payable\n    {\n        require(state(proposalId) == ProposalState.Queued, \"GovernorAlpha::execute: proposal can only be executed if it is queued\");\n        Proposal storage proposal = proposals[proposalId];\n        proposal.executed = true;\n        for (uint256 i = 0; i < proposal.targets.length; i++) {\n            timelock.executeTransaction.value(proposal.values[i])(proposal.targets[i], proposal.values[i], proposal.signatures[i], proposal.calldatas[i], proposal.eta);\n        }\n        emit ProposalExecuted(proposalId);\n    }\n\n    function cancel(uint256 proposalId)\n        public\n    {\n        ProposalState state = state(proposalId);\n        require(state != ProposalState.Executed, \"GovernorAlpha::cancel: cannot cancel executed proposal\");\n\n        Proposal storage proposal = proposals[proposalId];\n        require(msg.sender == guardian || BRET.balanceOf(proposal.proposer) < proposalThreshold(), \"GovernorAlpha::cancel: proposer above threshold\");\n\n        proposal.canceled = true;\n        for (uint256 i = 0; i < proposal.targets.length; i++) {\n            timelock.cancelTransaction(proposal.targets[i], proposal.values[i], proposal.signatures[i], proposal.calldatas[i], proposal.eta);\n        }\n\n        emit ProposalCanceled(proposalId);\n    }\n\n    function getActions(uint256 proposalId)\n        public\n        view\n        returns (\n            address[] memory targets,\n            uint[] memory values,\n            string[] memory signatures,\n            bytes[] memory calldatas\n        )\n    {\n        Proposal storage p = proposals[proposalId];\n        return (p.targets, p.values, p.signatures, p.calldatas);\n    }\n\n    function getReceipt(uint256 proposalId, address voter)\n        public\n        view\n        returns (Receipt memory)\n    {\n        return proposals[proposalId].receipts[voter];\n    }\n\n    function state(uint256 proposalId)\n        public\n        view\n        returns (ProposalState)\n    {\n        require(proposalCount >= proposalId && proposalId > 0, \"GovernorAlpha::state: invalid proposal id\");\n        Proposal storage proposal = proposals[proposalId];\n        if (proposal.canceled) {\n            return ProposalState.Canceled;\n        } else if (block.number <= proposal.startBlock) {\n            return ProposalState.Pending;\n        } else if (block.number <= proposal.endBlock) {\n            return ProposalState.Active;\n        } else if (proposal.forVotes <= proposal.againstVotes || proposal.forVotes < quorumVotes()) {\n            return ProposalState.Defeated;\n        } else if (proposal.eta == 0) {\n            return ProposalState.Succeeded;\n        } else if (proposal.executed) {\n            return ProposalState.Executed;\n        } else if (block.timestamp >= add256(proposal.eta, timelock.GRACE_PERIOD())) {\n            return ProposalState.Expired;\n        } else {\n            return ProposalState.Queued;\n        }\n    }\n\n    function castVote(uint256 proposalId, bool support)\n        public\n    {\n        return _castVote(msg.sender, proposalId, support);\n    }\n\n    function castVoteBySig(\n        uint256 proposalId,\n        bool support,\n        uint8 v,\n        bytes32 r,\n        bytes32 s\n    )\n        public\n    {\n        bytes32 domainSeparator = keccak256(\n            abi.encode(\n                DOMAIN_TYPEHASH,\n                keccak256(bytes(name)),\n                getChainId(),\n                address(this)\n            )\n        );\n\n        bytes32 structHash = keccak256(\n            abi.encode(\n                BALLOT_TYPEHASH,\n                proposalId,\n                support\n            )\n        );\n\n        bytes32 digest = keccak256(\n            abi.encodePacked(\n                \"\\x19\\x01\",\n                domainSeparator,\n                structHash\n            )\n        );\n\n        address signatory = ecrecover(digest, v, r, s);\n        require(signatory != address(0), \"GovernorAlpha::castVoteBySig: invalid signature\");\n        return _castVote(signatory, proposalId, support);\n    }\n\n    function _castVote(\n        address voter,\n        uint256 proposalId,\n        bool support\n    )\n        internal\n    {\n        require(state(proposalId) == ProposalState.Active, \"GovernorAlpha::_castVote: voting is closed\");\n        Proposal storage proposal = proposals[proposalId];\n        Receipt storage receipt = proposal.receipts[voter];\n        require(receipt.hasVoted == false, \"GovernorAlpha::_castVote: voter already voted\");\n        uint256 votes = BRET.balanceOf(voter);\n\n        if (support) {\n            proposal.forVotes = add256(proposal.forVotes, votes);\n        } else {\n            proposal.againstVotes = add256(proposal.againstVotes, votes);\n        }\n\n        receipt.hasVoted = true;\n        receipt.support = support;\n        receipt.votes = votes;\n\n        emit VoteCast(voter, proposalId, support, votes);\n    }\n\n    function __acceptAdmin()\n        public\n    {\n        require(msg.sender == guardian, \"GovernorAlpha::__acceptAdmin: sender must be gov guardian\");\n        timelock.acceptAdmin();\n    }\n\n    function __abdicate()\n        public\n    {\n        require(msg.sender == guardian, \"GovernorAlpha::__abdicate: sender must be gov guardian\");\n        guardian = address(0);\n    }\n\n    function __queueSetTimelockPendingAdmin(\n        address newPendingAdmin,\n        uint256 eta\n    )\n        public\n    {\n        require(msg.sender == guardian, \"GovernorAlpha::__queueSetTimelockPendingAdmin: sender must be gov guardian\");\n        timelock.queueTransaction(address(timelock), 0, \"setPendingAdmin(address)\", abi.encode(newPendingAdmin), eta);\n    }\n\n    function __executeSetTimelockPendingAdmin(\n        address newPendingAdmin,\n        uint256 eta\n    )\n        public\n    {\n        require(msg.sender == guardian, \"GovernorAlpha::__executeSetTimelockPendingAdmin: sender must be gov guardian\");\n        timelock.executeTransaction(address(timelock), 0, \"setPendingAdmin(address)\", abi.encode(newPendingAdmin), eta);\n    }\n\n    function add256(uint256 a, uint256 b) internal pure returns (uint256) {\n        uint256 c = a + b;\n        require(c >= a, \"addition overflow\");\n        return c;\n    }\n\n    function sub256(uint256 a, uint256 b) internal pure returns (uint256) {\n        require(b <= a, \"subtraction underflow\");\n        return a - b;\n    }\n\n    function getChainId() internal pure returns (uint256) {\n        uint256 chainId;\n        assembly { chainId := chainid() }\n        return chainId;\n    }\n}\n\ninterface TimelockInterface {\n    function delay() external view returns (uint256);\n    function GRACE_PERIOD() external view returns (uint256);\n    function acceptAdmin() external;\n    function queuedTransactions(bytes32 hash) external view returns (bool);\n    function queueTransaction(address target, uint256 value, string calldata signature, bytes calldata data, uint256 eta) external returns (bytes32);\n    function cancelTransaction(address target, uint256 value, string calldata signature, bytes calldata data, uint256 eta) external;\n    function executeTransaction(address target, uint256 value, string calldata signature, bytes calldata data, uint256 eta) external payable returns (bytes memory);\n}\n\ninterface BRETInterface {\n    function balanceOf(address account) external view returns (uint256);\n    function totalSupply() external view returns (uint256);\n}\n",
  "sourcePath": "/Users/mhe70/my-workspace/bretton-protocol/contracts/governance/GovernorAlpha.sol",
  "compiler": {
    "name": "solc",
    "version": "0.5.16+commit.9c3226ce.Emscripten.clang"
  },
  "schemaVersion": "3.2.3",
  "updatedAt": "2020-09-03T06:54:38.272Z",
  "devdoc": {
    "methods": {}
  },
  "userdoc": {
    "methods": {
      "proposalMaxOperations()": {
        "notice": "The maximum number of actions that can be included in a proposal"
      },
      "proposalThreshold()": {
        "notice": "The number of votes required in order for a voter to become a proposer"
      },
      "quorumVotes()": {
        "notice": "The number of votes in support of a proposal required in order for a quorum to be reached and for a vote to succeed"
      },
      "votingDelay()": {
        "notice": "The delay before voting on a proposal may take place, once proposed"
      },
      "votingPeriod()": {
        "notice": "The duration of voting on a proposal, in blocks"
      }
    }
  }
}