{
  "contractName": "LiquidityRewardPoolWithBonus",
  "abi": [
    {
      "inputs": [
        {
          "internalType": "address",
          "name": "_BRET",
          "type": "address"
        },
        {
          "internalType": "address",
          "name": "_rewardReferral",
          "type": "address"
        },
        {
          "internalType": "address",
          "name": "_lpt",
          "type": "address"
        },
        {
          "internalType": "uint256",
          "name": "_initiReward",
          "type": "uint256"
        },
        {
          "internalType": "uint256",
          "name": "_starttime",
          "type": "uint256"
        },
        {
          "internalType": "address",
          "name": "_devAddr",
          "type": "address"
        }
      ],
      "payable": false,
      "stateMutability": "nonpayable",
      "type": "constructor"
    },
    {
      "anonymous": false,
      "inputs": [
        {
          "indexed": false,
          "internalType": "uint256",
          "name": "reward",
          "type": "uint256"
        }
      ],
      "name": "Burned",
      "type": "event"
    },
    {
      "anonymous": false,
      "inputs": [
        {
          "indexed": true,
          "internalType": "address",
          "name": "previousOwner",
          "type": "address"
        },
        {
          "indexed": true,
          "internalType": "address",
          "name": "newOwner",
          "type": "address"
        }
      ],
      "name": "OwnershipTransferred",
      "type": "event"
    },
    {
      "anonymous": false,
      "inputs": [
        {
          "indexed": false,
          "internalType": "uint256",
          "name": "reward",
          "type": "uint256"
        }
      ],
      "name": "RewardAdded",
      "type": "event"
    },
    {
      "anonymous": false,
      "inputs": [
        {
          "indexed": true,
          "internalType": "address",
          "name": "user",
          "type": "address"
        },
        {
          "indexed": false,
          "internalType": "uint256",
          "name": "reward",
          "type": "uint256"
        }
      ],
      "name": "RewardPaid",
      "type": "event"
    },
    {
      "anonymous": false,
      "inputs": [
        {
          "indexed": true,
          "internalType": "address",
          "name": "user",
          "type": "address"
        },
        {
          "indexed": false,
          "internalType": "uint256",
          "name": "amount",
          "type": "uint256"
        }
      ],
      "name": "Staked",
      "type": "event"
    },
    {
      "anonymous": false,
      "inputs": [
        {
          "indexed": true,
          "internalType": "address",
          "name": "user",
          "type": "address"
        },
        {
          "indexed": false,
          "internalType": "uint256",
          "name": "amount",
          "type": "uint256"
        }
      ],
      "name": "Withdrawn",
      "type": "event"
    },
    {
      "constant": true,
      "inputs": [],
      "name": "BONUS_MULTIPLIER",
      "outputs": [
        {
          "internalType": "uint256",
          "name": "",
          "type": "uint256"
        }
      ],
      "payable": false,
      "stateMutability": "view",
      "type": "function"
    },
    {
      "constant": true,
      "inputs": [],
      "name": "BRET",
      "outputs": [
        {
          "internalType": "contract IERC20",
          "name": "",
          "type": "address"
        }
      ],
      "payable": false,
      "stateMutability": "view",
      "type": "function"
    },
    {
      "constant": true,
      "inputs": [],
      "name": "DURATION",
      "outputs": [
        {
          "internalType": "uint256",
          "name": "",
          "type": "uint256"
        }
      ],
      "payable": false,
      "stateMutability": "view",
      "type": "function"
    },
    {
      "constant": true,
      "inputs": [],
      "name": "REFERRAL_COMMISSION_PERCENT",
      "outputs": [
        {
          "internalType": "uint256",
          "name": "",
          "type": "uint256"
        }
      ],
      "payable": false,
      "stateMutability": "view",
      "type": "function"
    },
    {
      "constant": true,
      "inputs": [
        {
          "internalType": "address",
          "name": "account",
          "type": "address"
        }
      ],
      "name": "balanceOf",
      "outputs": [
        {
          "internalType": "uint256",
          "name": "",
          "type": "uint256"
        }
      ],
      "payable": false,
      "stateMutability": "view",
      "type": "function"
    },
    {
      "constant": true,
      "inputs": [],
      "name": "devAddr",
      "outputs": [
        {
          "internalType": "address",
          "name": "",
          "type": "address"
        }
      ],
      "payable": false,
      "stateMutability": "view",
      "type": "function"
    },
    {
      "constant": true,
      "inputs": [],
      "name": "initreward",
      "outputs": [
        {
          "internalType": "uint256",
          "name": "",
          "type": "uint256"
        }
      ],
      "payable": false,
      "stateMutability": "view",
      "type": "function"
    },
    {
      "constant": true,
      "inputs": [],
      "name": "isOwner",
      "outputs": [
        {
          "internalType": "bool",
          "name": "",
          "type": "bool"
        }
      ],
      "payable": false,
      "stateMutability": "view",
      "type": "function"
    },
    {
      "constant": true,
      "inputs": [],
      "name": "lastUpdateTime",
      "outputs": [
        {
          "internalType": "uint256",
          "name": "",
          "type": "uint256"
        }
      ],
      "payable": false,
      "stateMutability": "view",
      "type": "function"
    },
    {
      "constant": true,
      "inputs": [],
      "name": "lpt",
      "outputs": [
        {
          "internalType": "contract IERC20",
          "name": "",
          "type": "address"
        }
      ],
      "payable": false,
      "stateMutability": "view",
      "type": "function"
    },
    {
      "constant": true,
      "inputs": [],
      "name": "owner",
      "outputs": [
        {
          "internalType": "address",
          "name": "",
          "type": "address"
        }
      ],
      "payable": false,
      "stateMutability": "view",
      "type": "function"
    },
    {
      "constant": true,
      "inputs": [],
      "name": "periodFinish",
      "outputs": [
        {
          "internalType": "uint256",
          "name": "",
          "type": "uint256"
        }
      ],
      "payable": false,
      "stateMutability": "view",
      "type": "function"
    },
    {
      "constant": false,
      "inputs": [],
      "name": "renounceOwnership",
      "outputs": [],
      "payable": false,
      "stateMutability": "nonpayable",
      "type": "function"
    },
    {
      "constant": true,
      "inputs": [],
      "name": "rewardPerTokenStored",
      "outputs": [
        {
          "internalType": "uint256",
          "name": "",
          "type": "uint256"
        }
      ],
      "payable": false,
      "stateMutability": "view",
      "type": "function"
    },
    {
      "constant": true,
      "inputs": [],
      "name": "rewardRate",
      "outputs": [
        {
          "internalType": "uint256",
          "name": "",
          "type": "uint256"
        }
      ],
      "payable": false,
      "stateMutability": "view",
      "type": "function"
    },
    {
      "constant": true,
      "inputs": [],
      "name": "rewardReferral",
      "outputs": [
        {
          "internalType": "address",
          "name": "",
          "type": "address"
        }
      ],
      "payable": false,
      "stateMutability": "view",
      "type": "function"
    },
    {
      "constant": true,
      "inputs": [
        {
          "internalType": "address",
          "name": "",
          "type": "address"
        }
      ],
      "name": "rewards",
      "outputs": [
        {
          "internalType": "uint256",
          "name": "",
          "type": "uint256"
        }
      ],
      "payable": false,
      "stateMutability": "view",
      "type": "function"
    },
    {
      "constant": false,
      "inputs": [
        {
          "internalType": "address",
          "name": "_rewardDistribution",
          "type": "address"
        }
      ],
      "name": "setRewardDistribution",
      "outputs": [],
      "payable": false,
      "stateMutability": "nonpayable",
      "type": "function"
    },
    {
      "constant": false,
      "inputs": [
        {
          "internalType": "address",
          "name": "_rewardReferral",
          "type": "address"
        }
      ],
      "name": "setRewardReferral",
      "outputs": [],
      "payable": false,
      "stateMutability": "nonpayable",
      "type": "function"
    },
    {
      "constant": true,
      "inputs": [],
      "name": "starttime",
      "outputs": [
        {
          "internalType": "uint256",
          "name": "",
          "type": "uint256"
        }
      ],
      "payable": false,
      "stateMutability": "view",
      "type": "function"
    },
    {
      "constant": true,
      "inputs": [],
      "name": "totalSupply",
      "outputs": [
        {
          "internalType": "uint256",
          "name": "",
          "type": "uint256"
        }
      ],
      "payable": false,
      "stateMutability": "view",
      "type": "function"
    },
    {
      "constant": false,
      "inputs": [
        {
          "internalType": "address",
          "name": "newOwner",
          "type": "address"
        }
      ],
      "name": "transferOwnership",
      "outputs": [],
      "payable": false,
      "stateMutability": "nonpayable",
      "type": "function"
    },
    {
      "constant": true,
      "inputs": [
        {
          "internalType": "address",
          "name": "",
          "type": "address"
        }
      ],
      "name": "userRewardPerTokenPaid",
      "outputs": [
        {
          "internalType": "uint256",
          "name": "",
          "type": "uint256"
        }
      ],
      "payable": false,
      "stateMutability": "view",
      "type": "function"
    },
    {
      "constant": true,
      "inputs": [],
      "name": "lastTimeRewardApplicable",
      "outputs": [
        {
          "internalType": "uint256",
          "name": "",
          "type": "uint256"
        }
      ],
      "payable": false,
      "stateMutability": "view",
      "type": "function"
    },
    {
      "constant": true,
      "inputs": [],
      "name": "rewardPerToken",
      "outputs": [
        {
          "internalType": "uint256",
          "name": "",
          "type": "uint256"
        }
      ],
      "payable": false,
      "stateMutability": "view",
      "type": "function"
    },
    {
      "constant": true,
      "inputs": [
        {
          "internalType": "address",
          "name": "account",
          "type": "address"
        }
      ],
      "name": "earned",
      "outputs": [
        {
          "internalType": "uint256",
          "name": "",
          "type": "uint256"
        }
      ],
      "payable": false,
      "stateMutability": "view",
      "type": "function"
    },
    {
      "constant": false,
      "inputs": [
        {
          "internalType": "uint256",
          "name": "amount",
          "type": "uint256"
        },
        {
          "internalType": "address",
          "name": "referrer",
          "type": "address"
        }
      ],
      "name": "stake",
      "outputs": [],
      "payable": false,
      "stateMutability": "nonpayable",
      "type": "function"
    },
    {
      "constant": false,
      "inputs": [
        {
          "internalType": "uint256",
          "name": "amount",
          "type": "uint256"
        }
      ],
      "name": "stake",
      "outputs": [],
      "payable": false,
      "stateMutability": "nonpayable",
      "type": "function"
    },
    {
      "constant": false,
      "inputs": [
        {
          "internalType": "uint256",
          "name": "amount",
          "type": "uint256"
        }
      ],
      "name": "withdraw",
      "outputs": [],
      "payable": false,
      "stateMutability": "nonpayable",
      "type": "function"
    },
    {
      "constant": false,
      "inputs": [],
      "name": "exit",
      "outputs": [],
      "payable": false,
      "stateMutability": "nonpayable",
      "type": "function"
    },
    {
      "constant": false,
      "inputs": [],
      "name": "getReward",
      "outputs": [],
      "payable": false,
      "stateMutability": "nonpayable",
      "type": "function"
    },
    {
      "constant": false,
      "inputs": [
        {
          "internalType": "uint256",
          "name": "reward",
          "type": "uint256"
        }
      ],
      "name": "notifyRewardAmount",
      "outputs": [],
      "payable": false,
      "stateMutability": "nonpayable",
      "type": "function"
    },
    {
      "constant": false,
      "inputs": [
        {
          "internalType": "contract IERC20",
          "name": "_token",
          "type": "address"
        },
        {
          "internalType": "uint256",
          "name": "amount",
          "type": "uint256"
        },
        {
          "internalType": "address",
          "name": "to",
          "type": "address"
        }
      ],
      "name": "governanceRecoverUnsupported",
      "outputs": [],
      "payable": false,
      "stateMutability": "nonpayable",
      "type": "function"
    },
    {
      "constant": false,
      "inputs": [
        {
          "internalType": "address",
          "name": "_devAddr",
          "type": "address"
        }
      ],
      "name": "dev",
      "outputs": [],
      "payable": false,
      "stateMutability": "nonpayable",
      "type": "function"
    }
  ],
  "bytecode": "0x60806040526000600a556000600b5534801561001a57600080fd5b506040516200296138038062002961833981810160405260c081101561003f57600080fd5b508051602082015160408301516060840151608085015160a09095015193949293919290916100756001600160e01b0361012716565b600380546001600160a01b0319166001600160a01b0392831617908190556040519116906000907f8be0079c531659141344cd1fd0a4f28419497f9722a3daafe3b4186f6b6457e0908290a3600680546001600160a01b039788166001600160a01b03199182161790915560008054958816958216959095179094556005805495871695851695909517909455600480548416331790556007919091556008556009805492909316911617905561012b565b3390565b612826806200013b6000396000f3fe608060405234801561001057600080fd5b50600436106102245760003560e01c80638aa285501161012a578063a694fc3a116100bd578063da09c72c1161008c578063e9fad8ee11610071578063e9fad8ee1461054a578063ebe2b12b14610552578063f2fde38b1461055a57610224565b8063da09c72c1461053a578063df136d651461054257610224565b8063a694fc3a14610505578063c8f33c9114610522578063cd3daf9d1461052a578063ce5fc8d01461053257610224565b80638da5cb5b116100f95780638da5cb5b146104d15780638f32d59b146104d95780639a271b92146104f55780639c907b58146104fd57610224565b80638aa285501461045b5780638b876347146104635780638d88a90e146104965780638da58897146104c957610224565b80633c6b16ab116101bd57806370a082311161018c5780637acb7757116101715780637acb7757146104125780637b0a47ee1461044b57806380faa57d1461045357610224565b806370a08231146103d7578063715018a61461040a57610224565b80633c6b16ab146103675780633d18b9121461038457806353220a421461038c57806354575af41461039457610224565b80630d68b761116101f95780630d68b7611461030757806318160ddd1461033a5780631be05289146103425780632e1a7d4d1461034a57610224565b80622dcfb9146102295780628cc2621461025e5780630700037d146102a35780630cdb43c4146102d6575b600080fd5b61025c6004803603602081101561023f57600080fd5b503573ffffffffffffffffffffffffffffffffffffffff1661058d565b005b6102916004803603602081101561027457600080fd5b503573ffffffffffffffffffffffffffffffffffffffff16610647565b60408051918252519081900360200190f35b610291600480360360208110156102b957600080fd5b503573ffffffffffffffffffffffffffffffffffffffff16610794565b6102de6107a6565b6040805173ffffffffffffffffffffffffffffffffffffffff9092168252519081900360200190f35b61025c6004803603602081101561031d57600080fd5b503573ffffffffffffffffffffffffffffffffffffffff166107c2565b61029161087c565b610291610883565b61025c6004803603602081101561036057600080fd5b503561088a565b61025c6004803603602081101561037d57600080fd5b5035610a22565b61025c610eea565b6102916114ce565b61025c600480360360608110156103aa57600080fd5b5073ffffffffffffffffffffffffffffffffffffffff8135811691602081013591604090910135166114d3565b610291600480360360208110156103ed57600080fd5b503573ffffffffffffffffffffffffffffffffffffffff166116b4565b61025c6116dc565b61025c6004803603604081101561042857600080fd5b508035906020013573ffffffffffffffffffffffffffffffffffffffff166117be565b610291611c6f565b610291611c75565b610291611c88565b6102916004803603602081101561047957600080fd5b503573ffffffffffffffffffffffffffffffffffffffff16611c8d565b61025c600480360360208110156104ac57600080fd5b503573ffffffffffffffffffffffffffffffffffffffff16611c9f565b610291611d6c565b6102de611d72565b6104e1611d8e565b604080519115158252519081900360200190f35b6102de611dce565b610291611dea565b61025c6004803603602081101561051b57600080fd5b5035611df0565b610291611e62565b610291611e68565b6102de611ebc565b6102de611ed8565b610291611ef4565b61025c611efa565b610291611f15565b61025c6004803603602081101561057057600080fd5b503573ffffffffffffffffffffffffffffffffffffffff16611f1b565b610595611d8e565b61060057604080517f08c379a000000000000000000000000000000000000000000000000000000000815260206004820181905260248201527f4f776e61626c653a2063616c6c6572206973206e6f7420746865206f776e6572604482015290519081900360640190fd5b600580547fffffffffffffffffffffffff00000000000000000000000000000000000000001673ffffffffffffffffffffffffffffffffffffffff92909216919091179055565b73ffffffffffffffffffffffffffffffffffffffff81166000908152600f6020908152604080832054600e90925282205482916106d5916106c990670de0b6b3a7640000906106bd906106a89061069c611e68565b9063ffffffff611f9716565b6106b1896116b4565b9063ffffffff611fe216565b9063ffffffff61205516565b9063ffffffff61209716565b600654604080517f70a08231000000000000000000000000000000000000000000000000000000008152306004820152905192935060009273ffffffffffffffffffffffffffffffffffffffff909216916370a0823191602480820192602092909190829003018186803b15801561074c57600080fd5b505afa158015610760573d6000803e3d6000fd5b505050506040513d602081101561077657600080fd5b505190508082111561078b57915061078f9050565b5090505b919050565b600f6020526000908152604090205481565b60055473ffffffffffffffffffffffffffffffffffffffff1681565b6107ca611d8e565b61083557604080517f08c379a000000000000000000000000000000000000000000000000000000000815260206004820181905260248201527f4f776e61626c653a2063616c6c6572206973206e6f7420746865206f776e6572604482015290519081900360640190fd5b600480547fffffffffffffffffffffffff00000000000000000000000000000000000000001673ffffffffffffffffffffffffffffffffffffffff92909216919091179055565b6001545b90565b6212750081565b33610893611e68565b600d5561089e611c75565b600c5573ffffffffffffffffffffffffffffffffffffffff8116156108ff576108c681610647565b73ffffffffffffffffffffffffffffffffffffffff82166000908152600f6020908152604080832093909355600d54600e909152919020555b60085442101561097057604080517f08c379a000000000000000000000000000000000000000000000000000000000815260206004820152600960248201527f6e6f742073746172740000000000000000000000000000000000000000000000604482015290519081900360640190fd5b600082116109df57604080517f08c379a000000000000000000000000000000000000000000000000000000000815260206004820152601160248201527f43616e6e6f742077697468647261772030000000000000000000000000000000604482015290519081900360640190fd5b6109e88261210b565b60408051838152905133917f7084f5476618d8e60b11ef0d7d3f06914655adb8793e28ff7f018d4c76d505d5919081900360200190a25050565b60045473ffffffffffffffffffffffffffffffffffffffff16610a43612179565b73ffffffffffffffffffffffffffffffffffffffff1614610aaf576040517f08c379a00000000000000000000000000000000000000000000000000000000081526004018080602001828103825260218152602001806127a76021913960400191505060405180910390fd5b6000610ab9611e68565b600d55610ac4611c75565b600c5573ffffffffffffffffffffffffffffffffffffffff811615610b2557610aec81610647565b73ffffffffffffffffffffffffffffffffffffffff82166000908152600f6020908152604080832093909355600d54600e909152919020555b600854421115610bf557600a544210610b5357610b4b826212750063ffffffff61205516565b600b55610ba1565b600a54600090610b69904263ffffffff611f9716565b90506000610b82600b5483611fe290919063ffffffff16565b9050610b9b621275006106bd868463ffffffff61209716565b600b5550505b42600c819055610bba906212750063ffffffff61209716565b600a556040805183815290517fde88a922e0d3b88b24e9623efeb464919c6bf9f66857a65e2bfcf2ce87a9433d9181900360200190a1610ee6565b600654604080517f70a08231000000000000000000000000000000000000000000000000000000008152306004820152905173ffffffffffffffffffffffffffffffffffffffff909216916370a0823191602480820192602092909190829003018186803b158015610c6657600080fd5b505afa158015610c7a573d6000803e3d6000fd5b505050506040513d6020811015610c9057600080fd5b505115610cfe57604080517f08c379a000000000000000000000000000000000000000000000000000000000815260206004820152601360248201527f616c726561647920696e697469616c697a656400000000000000000000000000604482015290519081900360640190fd5b60065460075473ffffffffffffffffffffffffffffffffffffffff909116906340c10f19903090610d3690600a63ffffffff611fe216565b6040518363ffffffff1660e01b8152600401808373ffffffffffffffffffffffffffffffffffffffff1673ffffffffffffffffffffffffffffffffffffffff16815260200182815260200192505050600060405180830381600087803b158015610d9f57600080fd5b505af1158015610db3573d6000803e3d6000fd5b505060065460095460075473ffffffffffffffffffffffffffffffffffffffff92831694506340c10f199350911690610df990600a906106bd908263ffffffff611fe216565b6040518363ffffffff1660e01b8152600401808373ffffffffffffffffffffffffffffffffffffffff1673ffffffffffffffffffffffffffffffffffffffff16815260200182815260200192505050600060405180830381600087803b158015610e6257600080fd5b505af1158015610e76573d6000803e3d6000fd5b5050600754610e91925090506212750063ffffffff61205516565b600b55600854600c819055610eaf906212750063ffffffff61209716565b600a556040805183815290517fde88a922e0d3b88b24e9623efeb464919c6bf9f66857a65e2bfcf2ce87a9433d9181900360200190a15b5050565b33610ef3611e68565b600d55610efe611c75565b600c5573ffffffffffffffffffffffffffffffffffffffff811615610f5f57610f2681610647565b73ffffffffffffffffffffffffffffffffffffffff82166000908152600f6020908152604080832093909355600d54600e909152919020555b600a54421061111f57600654600754604080517f40c10f1900000000000000000000000000000000000000000000000000000000815230600482015260248101929092525173ffffffffffffffffffffffffffffffffffffffff909216916340c10f199160448082019260009290919082900301818387803b158015610fe457600080fd5b505af1158015610ff8573d6000803e3d6000fd5b505060065460095460075473ffffffffffffffffffffffffffffffffffffffff92831694506340c10f19935091169061103890600a63ffffffff61205516565b6040518363ffffffff1660e01b8152600401808373ffffffffffffffffffffffffffffffffffffffff1673ffffffffffffffffffffffffffffffffffffffff16815260200182815260200192505050600060405180830381600087803b1580156110a157600080fd5b505af11580156110b5573d6000803e3d6000fd5b50506007546110d0925090506212750063ffffffff61205516565b600b556110e6426212750063ffffffff61209716565b600a5560075460408051918252517fde88a922e0d3b88b24e9623efeb464919c6bf9f66857a65e2bfcf2ce87a9433d9181900360200190a15b60085442101561119057604080517f08c379a000000000000000000000000000000000000000000000000000000000815260206004820152600960248201527f6e6f742073746172740000000000000000000000000000000000000000000000604482015290519081900360640190fd5b600061119b33610647565b90508015610ee657336000908152600f602052604081208190556111cb60646106bd84606363ffffffff611fe216565b600654909150818303906111fc9073ffffffffffffffffffffffffffffffffffffffff16338463ffffffff61217d16565b60408051838152905133917fe2403640ba68fed3a2f88b7557551d1993f84b99bb10ff833f0cf8db0c5e0486919081900360200190a260055460009073ffffffffffffffffffffffffffffffffffffffff16156112f357600554604080517f4a9fefc7000000000000000000000000000000000000000000000000000000008152336004820152905173ffffffffffffffffffffffffffffffffffffffff90921691634a9fefc791602480820192602092909190829003018186803b1580156112c457600080fd5b505afa1580156112d8573d6000803e3d6000fd5b505050506040513d60208110156112ee57600080fd5b505190505b73ffffffffffffffffffffffffffffffffffffffff811615611407576006546113399073ffffffffffffffffffffffffffffffffffffffff16828463ffffffff61217d16565b600554604080517fe6796aaa00000000000000000000000000000000000000000000000000000000815273ffffffffffffffffffffffffffffffffffffffff8481166004830152602482018690529151919092169163e6796aaa91604480830192600092919082900301818387803b1580156113b457600080fd5b505af11580156113c8573d6000803e3d6000fd5b50506040805185815290513393507fe2403640ba68fed3a2f88b7557551d1993f84b99bb10ff833f0cf8db0c5e048692509081900360200190a26114c7565b600654604080517f42966c6800000000000000000000000000000000000000000000000000000000815260048101859052905173ffffffffffffffffffffffffffffffffffffffff909216916342966c689160248082019260009290919082900301818387803b15801561147a57600080fd5b505af115801561148e573d6000803e3d6000fd5b50506040805185815290517fd83c63197e8e676d80ab0122beba9a9d20f3828839e9a1d6fe81d242e9cd7e6e9350908190036020019150a15b5050505050565b600181565b6114db611d72565b73ffffffffffffffffffffffffffffffffffffffff163373ffffffffffffffffffffffffffffffffffffffff161461157457604080517f08c379a000000000000000000000000000000000000000000000000000000000815260206004820152600b60248201527f21676f7665726e616e6365000000000000000000000000000000000000000000604482015290519081900360640190fd5b60005473ffffffffffffffffffffffffffffffffffffffff848116911614156115fe57604080517f08c379a000000000000000000000000000000000000000000000000000000000815260206004820152601260248201527f43616e6e6f74207265636f766572206c70740000000000000000000000000000604482015290519081900360640190fd5b60065473ffffffffffffffffffffffffffffffffffffffff8481169116141561168857604080517f08c379a000000000000000000000000000000000000000000000000000000000815260206004820152601360248201527f43616e6e6f74207265636f766572204252455400000000000000000000000000604482015290519081900360640190fd5b6116af73ffffffffffffffffffffffffffffffffffffffff8416828463ffffffff61217d16565b505050565b73ffffffffffffffffffffffffffffffffffffffff1660009081526002602052604090205490565b6116e4611d8e565b61174f57604080517f08c379a000000000000000000000000000000000000000000000000000000000815260206004820181905260248201527f4f776e61626c653a2063616c6c6572206973206e6f7420746865206f776e6572604482015290519081900360640190fd5b60035460405160009173ffffffffffffffffffffffffffffffffffffffff16907f8be0079c531659141344cd1fd0a4f28419497f9722a3daafe3b4186f6b6457e0908390a3600380547fffffffffffffffffffffffff0000000000000000000000000000000000000000169055565b336117c7611e68565b600d556117d2611c75565b600c5573ffffffffffffffffffffffffffffffffffffffff811615611833576117fa81610647565b73ffffffffffffffffffffffffffffffffffffffff82166000908152600f6020908152604080832093909355600d54600e909152919020555b600a5442106119f357600654600754604080517f40c10f1900000000000000000000000000000000000000000000000000000000815230600482015260248101929092525173ffffffffffffffffffffffffffffffffffffffff909216916340c10f199160448082019260009290919082900301818387803b1580156118b857600080fd5b505af11580156118cc573d6000803e3d6000fd5b505060065460095460075473ffffffffffffffffffffffffffffffffffffffff92831694506340c10f19935091169061190c90600a63ffffffff61205516565b6040518363ffffffff1660e01b8152600401808373ffffffffffffffffffffffffffffffffffffffff1673ffffffffffffffffffffffffffffffffffffffff16815260200182815260200192505050600060405180830381600087803b15801561197557600080fd5b505af1158015611989573d6000803e3d6000fd5b50506007546119a4925090506212750063ffffffff61205516565b600b556119ba426212750063ffffffff61209716565b600a5560075460408051918252517fde88a922e0d3b88b24e9623efeb464919c6bf9f66857a65e2bfcf2ce87a9433d9181900360200190a15b600854421015611a6457604080517f08c379a000000000000000000000000000000000000000000000000000000000815260206004820152600960248201527f6e6f742073746172740000000000000000000000000000000000000000000000604482015290519081900360640190fd5b60008311611ad357604080517f08c379a000000000000000000000000000000000000000000000000000000000815260206004820152600e60248201527f43616e6e6f74207374616b652030000000000000000000000000000000000000604482015290519081900360640190fd5b73ffffffffffffffffffffffffffffffffffffffff8216331415611b5857604080517f08c379a000000000000000000000000000000000000000000000000000000000815260206004820152601960248201527f596f752063616e6e6f7420726566657220796f757273656c6600000000000000604482015290519081900360640190fd5b611b6183611df0565b60408051848152905133917f9e71bc8eea02a63969f509818f2dafb9254532904319f9dbda79b67bd34a5f3d919081900360200190a260055473ffffffffffffffffffffffffffffffffffffffff1615801590611bd3575073ffffffffffffffffffffffffffffffffffffffff821615155b156116af57600554604080517fbbddaca300000000000000000000000000000000000000000000000000000000815233600482015273ffffffffffffffffffffffffffffffffffffffff85811660248301529151919092169163bbddaca391604480830192600092919082900301818387803b158015611c5257600080fd5b505af1158015611c66573d6000803e3d6000fd5b50505050505050565b600b5481565b6000611c8342600a5461220a565b905090565b600a81565b600e6020526000908152604090205481565b60095473ffffffffffffffffffffffffffffffffffffffff163314611d2557604080517f08c379a000000000000000000000000000000000000000000000000000000000815260206004820152600960248201527f6465763a207775743f0000000000000000000000000000000000000000000000604482015290519081900360640190fd5b600980547fffffffffffffffffffffffff00000000000000000000000000000000000000001673ffffffffffffffffffffffffffffffffffffffff92909216919091179055565b60085481565b60035473ffffffffffffffffffffffffffffffffffffffff1690565b60035460009073ffffffffffffffffffffffffffffffffffffffff16611db2612179565b73ffffffffffffffffffffffffffffffffffffffff1614905090565b60065473ffffffffffffffffffffffffffffffffffffffff1681565b60075481565b600154611e03908263ffffffff61209716565b60015533600090815260026020526040902054611e26908263ffffffff61209716565b336000818152600260205260408120929092559054611e5f9173ffffffffffffffffffffffffffffffffffffffff909116903084612220565b50565b600c5481565b6000611e7261087c565b611e7f5750600d54610880565b611c83611ead611e8d61087c565b6106bd670de0b6b3a76400006106b1600b546106b1600c5461069c611c75565b600d549063ffffffff61209716565b60005473ffffffffffffffffffffffffffffffffffffffff1681565b60095473ffffffffffffffffffffffffffffffffffffffff1681565b600d5481565b611f0b611f06336116b4565b61088a565b611f13610eea565b565b600a5481565b611f23611d8e565b611f8e57604080517f08c379a000000000000000000000000000000000000000000000000000000000815260206004820181905260248201527f4f776e61626c653a2063616c6c6572206973206e6f7420746865206f776e6572604482015290519081900360640190fd5b611e5f816122bb565b6000611fd983836040518060400160405280601e81526020017f536166654d6174683a207375627472616374696f6e206f766572666c6f7700008152506123b5565b90505b92915050565b600082611ff157506000611fdc565b82820282848281611ffe57fe5b0414611fd9576040517f08c379a00000000000000000000000000000000000000000000000000000000081526004018080602001828103825260218152602001806127866021913960400191505060405180910390fd5b6000611fd983836040518060400160405280601a81526020017f536166654d6174683a206469766973696f6e206279207a65726f000000000000815250612466565b600082820183811015611fd957604080517f08c379a000000000000000000000000000000000000000000000000000000000815260206004820152601b60248201527f536166654d6174683a206164646974696f6e206f766572666c6f770000000000604482015290519081900360640190fd5b60015461211e908263ffffffff611f9716565b60015533600090815260026020526040902054612141908263ffffffff611f9716565b336000818152600260205260408120929092559054611e5f9173ffffffffffffffffffffffffffffffffffffffff909116908361217d565b3390565b6040805173ffffffffffffffffffffffffffffffffffffffff8416602482015260448082018490528251808303909101815260649091019091526020810180517bffffffffffffffffffffffffffffffffffffffffffffffffffffffff167fa9059cbb000000000000000000000000000000000000000000000000000000001790526116af9084906124e5565b60008183106122195781611fd9565b5090919050565b6040805173ffffffffffffffffffffffffffffffffffffffff85811660248301528416604482015260648082018490528251808303909101815260849091019091526020810180517bffffffffffffffffffffffffffffffffffffffffffffffffffffffff167f23b872dd000000000000000000000000000000000000000000000000000000001790526122b59085906124e5565b50505050565b73ffffffffffffffffffffffffffffffffffffffff8116612327576040517f08c379a00000000000000000000000000000000000000000000000000000000081526004018080602001828103825260268152602001806127606026913960400191505060405180910390fd5b60035460405173ffffffffffffffffffffffffffffffffffffffff8084169216907f8be0079c531659141344cd1fd0a4f28419497f9722a3daafe3b4186f6b6457e090600090a3600380547fffffffffffffffffffffffff00000000000000000000000000000000000000001673ffffffffffffffffffffffffffffffffffffffff92909216919091179055565b6000818484111561245e576040517f08c379a00000000000000000000000000000000000000000000000000000000081526004018080602001828103825283818151815260200191508051906020019080838360005b8381101561242357818101518382015260200161240b565b50505050905090810190601f1680156124505780820380516001836020036101000a031916815260200191505b509250505060405180910390fd5b505050900390565b600081836124cf576040517f08c379a000000000000000000000000000000000000000000000000000000000815260206004820181815283516024840152835190928392604490910191908501908083836000831561242357818101518382015260200161240b565b5060008385816124db57fe5b0495945050505050565b6125048273ffffffffffffffffffffffffffffffffffffffff16612723565b61256f57604080517f08c379a000000000000000000000000000000000000000000000000000000000815260206004820152601f60248201527f5361666545524332303a2063616c6c20746f206e6f6e2d636f6e747261637400604482015290519081900360640190fd5b600060608373ffffffffffffffffffffffffffffffffffffffff16836040518082805190602001908083835b602083106125d857805182527fffffffffffffffffffffffffffffffffffffffffffffffffffffffffffffffe0909201916020918201910161259b565b6001836020036101000a0380198251168184511680821785525050505050509050019150506000604051808303816000865af19150503d806000811461263a576040519150601f19603f3d011682016040523d82523d6000602084013e61263f565b606091505b5091509150816126b057604080517f08c379a000000000000000000000000000000000000000000000000000000000815260206004820181905260248201527f5361666545524332303a206c6f772d6c6576656c2063616c6c206661696c6564604482015290519081900360640190fd5b8051156122b5578080602001905160208110156126cc57600080fd5b50516122b5576040517f08c379a000000000000000000000000000000000000000000000000000000000815260040180806020018281038252602a8152602001806127c8602a913960400191505060405180910390fd5b6000813f7fc5d2460186f7233c927e7db2dcc703c0e500b653ca82273b7bfad8045d85a47081158015906127575750808214155b94935050505056fe4f776e61626c653a206e6577206f776e657220697320746865207a65726f2061646472657373536166654d6174683a206d756c7469706c69636174696f6e206f766572666c6f7743616c6c6572206973206e6f742072657761726420646973747269627574696f6e5361666545524332303a204552433230206f7065726174696f6e20646964206e6f742073756363656564a265627a7a72315820fa2b5231ee075ca6bf3278dd6ea951dd26d6f439ad6a7f1bcd6b8bdf5bf90c8c64736f6c63430005100032",
  "source": "/**\n *Submitted for verification at Etherscan.io on 2020-07-27\n*/\n\n/**\n *Submitted for verification at Etherscan.io on 2020-07-26\n*/\n\n/**\n *Submitted for verification at Etherscan.io on 2020-07-17\n*/\n\n/*\n   ____            __   __        __   _\n  / __/__ __ ___  / /_ / /  ___  / /_ (_)__ __\n _\\ \\ / // // _ \\/ __// _ \\/ -_)/ __// / \\ \\ /\n/___/ \\_, //_//_/\\__//_//_/\\__/ \\__//_/ /_\\_\\\n     /___/\n\n* Synthetix: YAMIncentives.sol\n*\n* Docs: https://docs.synthetix.io/\n*\n*\n* MIT License\n* ===========\n*\n* Copyright (c) 2020 Synthetix\n*\n* Permission is hereby granted, free of charge, to any person obtaining a copy\n* of this software and associated documentation files (the \"Software\"), to deal\n* in the Software without restriction, including without limitation the rights\n* to use, copy, modify, merge, publish, distribute, sublicense, and/or sell\n* copies of the Software, and to permit persons to whom the Software is\n* furnished to do so, subject to the following conditions:\n*\n* The above copyright notice and this permission notice shall be included in all\n* copies or substantial portions of the Software.\n*\n* THE SOFTWARE IS PROVIDED \"AS IS\", WITHOUT WARRANTY OF ANY KIND, EXPRESS OR\n* IMPLIED, INCLUDING BUT NOT LIMITED TO THE WARRANTIES OF MERCHANTABILITY,\n* FITNESS FOR A PARTICULAR PURPOSE AND NONINFRINGEMENT. IN NO EVENT SHALL THE\n* AUTHORS OR COPYRIGHT HOLDERS BE LIABLE FOR ANY CLAIM, DAMAGES OR OTHER\n* LIABILITY, WHETHER IN AN ACTION OF CONTRACT, TORT OR OTHERWISE, ARISING FROM,\n* OUT OF OR IN CONNECTION WITH THE SOFTWARE OR THE USE OR OTHER DEALINGS IN THE\n*/\n\n// File: @openzeppelin/contracts/math/Math.sol\n\npragma solidity ^0.5.0;\n\n/**\n * @dev Standard math utilities missing in the Solidity language.\n */\nlibrary Math {\n    /**\n     * @dev Returns the largest of two numbers.\n     */\n    function max(uint256 a, uint256 b) internal pure returns (uint256) {\n        return a >= b ? a : b;\n    }\n\n    /**\n     * @dev Returns the smallest of two numbers.\n     */\n    function min(uint256 a, uint256 b) internal pure returns (uint256) {\n        return a < b ? a : b;\n    }\n\n    /**\n     * @dev Returns the average of two numbers. The result is rounded towards\n     * zero.\n     */\n    function average(uint256 a, uint256 b) internal pure returns (uint256) {\n        // (a + b) / 2 can overflow, so we distribute\n        return (a / 2) + (b / 2) + ((a % 2 + b % 2) / 2);\n    }\n}\n\n// File: @openzeppelin/contracts/math/SafeMath.sol\n\npragma solidity ^0.5.0;\n\n/**\n * @dev Wrappers over Solidity's arithmetic operations with added overflow\n * checks.\n *\n * Arithmetic operations in Solidity wrap on overflow. This can easily result\n * in bugs, because programmers usually assume that an overflow raises an\n * error, which is the standard behavior in high level programming languages.\n * `SafeMath` restores this intuition by reverting the transaction when an\n * operation overflows.\n *\n * Using this library instead of the unchecked operations eliminates an entire\n * class of bugs, so it's recommended to use it always.\n */\nlibrary SafeMath {\n    /**\n     * @dev Returns the addition of two unsigned integers, reverting on\n     * overflow.\n     *\n     * Counterpart to Solidity's `+` operator.\n     *\n     * Requirements:\n     * - Addition cannot overflow.\n     */\n    function add(uint256 a, uint256 b) internal pure returns (uint256) {\n        uint256 c = a + b;\n        require(c >= a, \"SafeMath: addition overflow\");\n\n        return c;\n    }\n\n    /**\n     * @dev Returns the subtraction of two unsigned integers, reverting on\n     * overflow (when the result is negative).\n     *\n     * Counterpart to Solidity's `-` operator.\n     *\n     * Requirements:\n     * - Subtraction cannot overflow.\n     */\n    function sub(uint256 a, uint256 b) internal pure returns (uint256) {\n        return sub(a, b, \"SafeMath: subtraction overflow\");\n    }\n\n    /**\n     * @dev Returns the subtraction of two unsigned integers, reverting with custom message on\n     * overflow (when the result is negative).\n     *\n     * Counterpart to Solidity's `-` operator.\n     *\n     * Requirements:\n     * - Subtraction cannot overflow.\n     *\n     * _Available since v2.4.0._\n     */\n    function sub(uint256 a, uint256 b, string memory errorMessage) internal pure returns (uint256) {\n        require(b <= a, errorMessage);\n        uint256 c = a - b;\n\n        return c;\n    }\n\n    /**\n     * @dev Returns the multiplication of two unsigned integers, reverting on\n     * overflow.\n     *\n     * Counterpart to Solidity's `*` operator.\n     *\n     * Requirements:\n     * - Multiplication cannot overflow.\n     */\n    function mul(uint256 a, uint256 b) internal pure returns (uint256) {\n        // Gas optimization: this is cheaper than requiring 'a' not being zero, but the\n        // benefit is lost if 'b' is also tested.\n        // See: https://github.com/OpenZeppelin/openzeppelin-contracts/pull/522\n        if (a == 0) {\n            return 0;\n        }\n\n        uint256 c = a * b;\n        require(c / a == b, \"SafeMath: multiplication overflow\");\n\n        return c;\n    }\n\n    /**\n     * @dev Returns the integer division of two unsigned integers. Reverts on\n     * division by zero. The result is rounded towards zero.\n     *\n     * Counterpart to Solidity's `/` operator. Note: this function uses a\n     * `revert` opcode (which leaves remaining gas untouched) while Solidity\n     * uses an invalid opcode to revert (consuming all remaining gas).\n     *\n     * Requirements:\n     * - The divisor cannot be zero.\n     */\n    function div(uint256 a, uint256 b) internal pure returns (uint256) {\n        return div(a, b, \"SafeMath: division by zero\");\n    }\n\n    /**\n     * @dev Returns the integer division of two unsigned integers. Reverts with custom message on\n     * division by zero. The result is rounded towards zero.\n     *\n     * Counterpart to Solidity's `/` operator. Note: this function uses a\n     * `revert` opcode (which leaves remaining gas untouched) while Solidity\n     * uses an invalid opcode to revert (consuming all remaining gas).\n     *\n     * Requirements:\n     * - The divisor cannot be zero.\n     *\n     * _Available since v2.4.0._\n     */\n    function div(uint256 a, uint256 b, string memory errorMessage) internal pure returns (uint256) {\n        // Solidity only automatically asserts when dividing by 0\n        require(b > 0, errorMessage);\n        uint256 c = a / b;\n        // assert(a == b * c + a % b); // There is no case in which this doesn't hold\n\n        return c;\n    }\n\n    /**\n     * @dev Returns the remainder of dividing two unsigned integers. (unsigned integer modulo),\n     * Reverts when dividing by zero.\n     *\n     * Counterpart to Solidity's `%` operator. This function uses a `revert`\n     * opcode (which leaves remaining gas untouched) while Solidity uses an\n     * invalid opcode to revert (consuming all remaining gas).\n     *\n     * Requirements:\n     * - The divisor cannot be zero.\n     */\n    function mod(uint256 a, uint256 b) internal pure returns (uint256) {\n        return mod(a, b, \"SafeMath: modulo by zero\");\n    }\n\n    /**\n     * @dev Returns the remainder of dividing two unsigned integers. (unsigned integer modulo),\n     * Reverts with custom message when dividing by zero.\n     *\n     * Counterpart to Solidity's `%` operator. This function uses a `revert`\n     * opcode (which leaves remaining gas untouched) while Solidity uses an\n     * invalid opcode to revert (consuming all remaining gas).\n     *\n     * Requirements:\n     * - The divisor cannot be zero.\n     *\n     * _Available since v2.4.0._\n     */\n    function mod(uint256 a, uint256 b, string memory errorMessage) internal pure returns (uint256) {\n        require(b != 0, errorMessage);\n        return a % b;\n    }\n}\n\n// File: @openzeppelin/contracts/GSN/Context.sol\n\npragma solidity ^0.5.0;\n\n/*\n * @dev Provides information about the current execution context, including the\n * sender of the transaction and its data. While these are generally available\n * via msg.sender and msg.data, they should not be accessed in such a direct\n * manner, since when dealing with GSN meta-transactions the account sending and\n * paying for execution may not be the actual sender (as far as an application\n * is concerned).\n *\n * This contract is only required for intermediate, library-like contracts.\n */\ncontract Context {\n    // Empty internal constructor, to prevent people from mistakenly deploying\n    // an instance of this contract, which should be used via inheritance.\n    constructor () internal { }\n    // solhint-disable-previous-line no-empty-blocks\n\n    function _msgSender() internal view returns (address payable) {\n        return msg.sender;\n    }\n\n    function _msgData() internal view returns (bytes memory) {\n        this; // silence state mutability warning without generating bytecode - see https://github.com/ethereum/solidity/issues/2691\n        return msg.data;\n    }\n}\n\n// File: @openzeppelin/contracts/ownership/Ownable.sol\n\npragma solidity ^0.5.0;\n\n/**\n * @dev Contract module which provides a basic access control mechanism, where\n * there is an account (an owner) that can be granted exclusive access to\n * specific functions.\n *\n * This module is used through inheritance. It will make available the modifier\n * `onlyOwner`, which can be applied to your functions to restrict their use to\n * the owner.\n */\ncontract Ownable is Context {\n    address private _owner;\n\n    event OwnershipTransferred(address indexed previousOwner, address indexed newOwner);\n\n    /**\n     * @dev Initializes the contract setting the deployer as the initial owner.\n     */\n    constructor () internal {\n        _owner = _msgSender();\n        emit OwnershipTransferred(address(0), _owner);\n    }\n\n    /**\n     * @dev Returns the address of the current owner.\n     */\n    function owner() public view returns (address) {\n        return _owner;\n    }\n\n    /**\n     * @dev Throws if called by any account other than the owner.\n     */\n    modifier onlyOwner() {\n        require(isOwner(), \"Ownable: caller is not the owner\");\n        _;\n    }\n\n    /**\n     * @dev Returns true if the caller is the current owner.\n     */\n    function isOwner() public view returns (bool) {\n        return _msgSender() == _owner;\n    }\n\n    /**\n     * @dev Leaves the contract without owner. It will not be possible to call\n     * `onlyOwner` functions anymore. Can only be called by the current owner.\n     *\n     * NOTE: Renouncing ownership will leave the contract without an owner,\n     * thereby removing any functionality that is only available to the owner.\n     */\n    function renounceOwnership() public onlyOwner {\n        emit OwnershipTransferred(_owner, address(0));\n        _owner = address(0);\n    }\n\n    /**\n     * @dev Transfers ownership of the contract to a new account (`newOwner`).\n     * Can only be called by the current owner.\n     */\n    function transferOwnership(address newOwner) public onlyOwner {\n        _transferOwnership(newOwner);\n    }\n\n    /**\n     * @dev Transfers ownership of the contract to a new account (`newOwner`).\n     */\n    function _transferOwnership(address newOwner) internal {\n        require(newOwner != address(0), \"Ownable: new owner is the zero address\");\n        emit OwnershipTransferred(_owner, newOwner);\n        _owner = newOwner;\n    }\n}\n\n// File: @openzeppelin/contracts/token/ERC20/IERC20.sol\n\npragma solidity ^0.5.0;\n\n/**\n * @dev Interface of the ERC20 standard as defined in the EIP. Does not include\n * the optional functions; to access them see {ERC20Detailed}.\n */\ninterface IERC20 {\n    /**\n     * @dev Returns the amount of tokens in existence.\n     */\n    function totalSupply() external view returns (uint256);\n\n    /**\n     * @dev Returns the amount of tokens owned by `account`.\n     */\n    function balanceOf(address account) external view returns (uint256);\n\n    /**\n     * @dev Moves `amount` tokens from the caller's account to `recipient`.\n     *\n     * Returns a boolean value indicating whether the operation succeeded.\n     *\n     * Emits a {Transfer} event.\n     */\n    function transfer(address recipient, uint256 amount) external returns (bool);\n\n    function mint(address account, uint amount) external;\n\n    function burn(uint amount) external;\n\n    /**\n     * @dev Returns the remaining number of tokens that `spender` will be\n     * allowed to spend on behalf of `owner` through {transferFrom}. This is\n     * zero by default.\n     *\n     * This value changes when {approve} or {transferFrom} are called.\n     */\n    function allowance(address owner, address spender) external view returns (uint256);\n\n    /**\n     * @dev Sets `amount` as the allowance of `spender` over the caller's tokens.\n     *\n     * Returns a boolean value indicating whether the operation succeeded.\n     *\n     * IMPORTANT: Beware that changing an allowance with this method brings the risk\n     * that someone may use both the old and the new allowance by unfortunate\n     * transaction ordering. One possible solution to mitigate this race\n     * condition is to first reduce the spender's allowance to 0 and set the\n     * desired value afterwards:\n     * https://github.com/ethereum/EIPs/issues/20#issuecomment-263524729\n     *\n     * Emits an {Approval} event.\n     */\n    function approve(address spender, uint256 amount) external returns (bool);\n\n    /**\n     * @dev Moves `amount` tokens from `sender` to `recipient` using the\n     * allowance mechanism. `amount` is then deducted from the caller's\n     * allowance.\n     *\n     * Returns a boolean value indicating whether the operation succeeded.\n     *\n     * Emits a {Transfer} event.\n     */\n    function transferFrom(address sender, address recipient, uint256 amount) external returns (bool);\n\n    /**\n     * @dev Emitted when `value` tokens are moved from one account (`from`) to\n     * another (`to`).\n     *\n     * Note that `value` may be zero.\n     */\n    event Transfer(address indexed from, address indexed to, uint256 value);\n\n    /**\n     * @dev Emitted when the allowance of a `spender` for an `owner` is set by\n     * a call to {approve}. `value` is the new allowance.\n     */\n    event Approval(address indexed owner, address indexed spender, uint256 value);\n}\n\n// File: @openzeppelin/contracts/utils/Address.sol\n\npragma solidity ^0.5.5;\n\n/**\n * @dev Collection of functions related to the address type\n */\nlibrary Address {\n    /**\n     * @dev Returns true if `account` is a contract.\n     *\n     * This test is non-exhaustive, and there may be false-negatives: during the\n     * execution of a contract's constructor, its address will be reported as\n     * not containing a contract.\n     *\n     * IMPORTANT: It is unsafe to assume that an address for which this\n     * function returns false is an externally-owned account (EOA) and not a\n     * contract.\n     */\n    function isContract(address account) internal view returns (bool) {\n        // This method relies in extcodesize, which returns 0 for contracts in\n        // construction, since the code is only stored at the end of the\n        // constructor execution.\n\n        // According to EIP-1052, 0x0 is the value returned for not-yet created accounts\n        // and 0xc5d2460186f7233c927e7db2dcc703c0e500b653ca82273b7bfad8045d85a470 is returned\n        // for accounts without code, i.e. `keccak256('')`\n        bytes32 codehash;\n        bytes32 accountHash = 0xc5d2460186f7233c927e7db2dcc703c0e500b653ca82273b7bfad8045d85a470;\n        // solhint-disable-next-line no-inline-assembly\n        assembly { codehash := extcodehash(account) }\n        return (codehash != 0x0 && codehash != accountHash);\n    }\n\n    /**\n     * @dev Converts an `address` into `address payable`. Note that this is\n     * simply a type cast: the actual underlying value is not changed.\n     *\n     * _Available since v2.4.0._\n     */\n    function toPayable(address account) internal pure returns (address payable) {\n        return address(uint160(account));\n    }\n\n    /**\n     * @dev Replacement for Solidity's `transfer`: sends `amount` wei to\n     * `recipient`, forwarding all available gas and reverting on errors.\n     *\n     * https://eips.ethereum.org/EIPS/eip-1884[EIP1884] increases the gas cost\n     * of certain opcodes, possibly making contracts go over the 2300 gas limit\n     * imposed by `transfer`, making them unable to receive funds via\n     * `transfer`. {sendValue} removes this limitation.\n     *\n     * https://diligence.consensys.net/posts/2019/09/stop-using-soliditys-transfer-now/[Learn more].\n     *\n     * IMPORTANT: because control is transferred to `recipient`, care must be\n     * taken to not create reentrancy vulnerabilities. Consider using\n     * {ReentrancyGuard} or the\n     * https://solidity.readthedocs.io/en/v0.5.11/security-considerations.html#use-the-checks-effects-interactions-pattern[checks-effects-interactions pattern].\n     *\n     * _Available since v2.4.0._\n     */\n    function sendValue(address payable recipient, uint256 amount) internal {\n        require(address(this).balance >= amount, \"Address: insufficient balance\");\n\n        // solhint-disable-next-line avoid-call-value\n        (bool success, ) = recipient.call.value(amount)(\"\");\n        require(success, \"Address: unable to send value, recipient may have reverted\");\n    }\n}\n\n// File: @openzeppelin/contracts/token/ERC20/SafeERC20.sol\n\npragma solidity ^0.5.0;\n\n\n\n\n/**\n * @title SafeERC20\n * @dev Wrappers around ERC20 operations that throw on failure (when the token\n * contract returns false). Tokens that return no value (and instead revert or\n * throw on failure) are also supported, non-reverting calls are assumed to be\n * successful.\n * To use this library you can add a `using SafeERC20 for ERC20;` statement to your contract,\n * which allows you to call the safe operations as `token.safeTransfer(...)`, etc.\n */\nlibrary SafeERC20 {\n    using SafeMath for uint256;\n    using Address for address;\n\n    function safeTransfer(IERC20 token, address to, uint256 value) internal {\n        callOptionalReturn(token, abi.encodeWithSelector(token.transfer.selector, to, value));\n    }\n\n    function safeTransferFrom(IERC20 token, address from, address to, uint256 value) internal {\n        callOptionalReturn(token, abi.encodeWithSelector(token.transferFrom.selector, from, to, value));\n    }\n\n    function safeApprove(IERC20 token, address spender, uint256 value) internal {\n        // safeApprove should only be called when setting an initial allowance,\n        // or when resetting it to zero. To increase and decrease it, use\n        // 'safeIncreaseAllowance' and 'safeDecreaseAllowance'\n        // solhint-disable-next-line max-line-length\n        require((value == 0) || (token.allowance(address(this), spender) == 0),\n            \"SafeERC20: approve from non-zero to non-zero allowance\"\n        );\n        callOptionalReturn(token, abi.encodeWithSelector(token.approve.selector, spender, value));\n    }\n\n    function safeIncreaseAllowance(IERC20 token, address spender, uint256 value) internal {\n        uint256 newAllowance = token.allowance(address(this), spender).add(value);\n        callOptionalReturn(token, abi.encodeWithSelector(token.approve.selector, spender, newAllowance));\n    }\n\n    function safeDecreaseAllowance(IERC20 token, address spender, uint256 value) internal {\n        uint256 newAllowance = token.allowance(address(this), spender).sub(value, \"SafeERC20: decreased allowance below zero\");\n        callOptionalReturn(token, abi.encodeWithSelector(token.approve.selector, spender, newAllowance));\n    }\n\n    /**\n     * @dev Imitates a Solidity high-level call (i.e. a regular function call to a contract), relaxing the requirement\n     * on the return value: the return value is optional (but if data is returned, it must not be false).\n     * @param token The token targeted by the call.\n     * @param data The call data (encoded using abi.encode or one of its variants).\n     */\n    function callOptionalReturn(IERC20 token, bytes memory data) private {\n        // We need to perform a low level call here, to bypass Solidity's return data size checking mechanism, since\n        // we're implementing it ourselves.\n\n        // A Solidity high level call has three parts:\n        //  1. The target address is checked to verify it contains contract code\n        //  2. The call itself is made, and success asserted\n        //  3. The return value is decoded, which in turn checks the size of the returned data.\n        // solhint-disable-next-line max-line-length\n        require(address(token).isContract(), \"SafeERC20: call to non-contract\");\n\n        // solhint-disable-next-line avoid-low-level-calls\n        (bool success, bytes memory returndata) = address(token).call(data);\n        require(success, \"SafeERC20: low-level call failed\");\n\n        if (returndata.length > 0) { // Return data is optional\n            // solhint-disable-next-line max-line-length\n            require(abi.decode(returndata, (bool)), \"SafeERC20: ERC20 operation did not succeed\");\n        }\n    }\n}\n\n// File: contracts/IRewardDistributionRecipient.sol\n\npragma solidity ^0.5.0;\n\ncontract IRewardDistributionRecipient is Ownable {\n    address rewardDistribution;\n    address public rewardReferral;\n\n    function notifyRewardAmount(uint256 reward) external;\n\n    modifier onlyRewardDistribution() {\n        require(_msgSender() == rewardDistribution, \"Caller is not reward distribution\");\n        _;\n    }\n\n    function setRewardDistribution(address _rewardDistribution)\n        external\n        onlyOwner\n    {\n        rewardDistribution = _rewardDistribution;\n    }\n\n    function setRewardReferral(address _rewardReferral) external onlyOwner {\n        rewardReferral = _rewardReferral;\n    }\n}\n\n// File: contracts/CurveRewards.sol\n\npragma solidity ^0.5.0;\n\ncontract LPTokenWrapper {\n    using SafeMath for uint256;\n    using SafeERC20 for IERC20;\n\n    IERC20 public lpt;\n\n    uint256 private _totalSupply;\n\n    mapping(address => uint256) private _balances;\n\n    function totalSupply() public view returns (uint256) {\n        return _totalSupply;\n    }\n\n    function balanceOf(address account) public view returns (uint256) {\n        return _balances[account];\n    }\n\n    function stake(uint256 amount) public {\n        _totalSupply = _totalSupply.add(amount);\n        _balances[msg.sender] = _balances[msg.sender].add(amount);\n        lpt.safeTransferFrom(msg.sender, address(this), amount);\n    }\n\n    function withdraw(uint256 amount) public {\n        _totalSupply = _totalSupply.sub(amount);\n        _balances[msg.sender] = _balances[msg.sender].sub(amount);\n        lpt.safeTransfer(msg.sender, amount);\n    }\n}\n\ninterface IReferral {\n    function setReferrer(address farmer, address referrer) external;\n    function getReferrer(address farmer) external view returns (address);\n    function addEarning(address referrer, uint256 earning) external;\n}\n\ncontract LiquidityRewardPoolWithBonus is LPTokenWrapper, IRewardDistributionRecipient {\n    IERC20 public BRET;\n\n    uint256 public constant DURATION = 1209600; // 14 days\n    uint256 public initreward;\n    uint256 public starttime;\n    address public devAddr;\n\n    uint256 public constant REFERRAL_COMMISSION_PERCENT = 1;\n    uint256 public constant BONUS_MULTIPLIER = 10;\n\n    uint256 public periodFinish = 0;\n    uint256 public rewardRate = 0;\n    uint256 public lastUpdateTime;\n    uint256 public rewardPerTokenStored;\n    mapping(address => uint256) public userRewardPerTokenPaid;\n    mapping(address => uint256) public rewards;\n\n\n    event RewardAdded(uint256 reward);\n    event Burned(uint256 reward);\n    event Staked(address indexed user, uint256 amount);\n    event Withdrawn(address indexed user, uint256 amount);\n    event RewardPaid(address indexed user, uint256 reward);\n\n    constructor(\n        address _BRET,\n        address _rewardReferral,\n        address _lpt,\n        uint256 _initiReward,\n        uint256 _starttime,\n        address _devAddr)\n        public\n    {\n        BRET = IERC20(_BRET);\n        lpt = IERC20(_lpt);\n        rewardReferral = _rewardReferral;\n        rewardDistribution = msg.sender;\n        initreward = _initiReward;\n        starttime = _starttime;\n        devAddr = _devAddr;\n    }\n\n    modifier updateReward(address account) {\n        rewardPerTokenStored = rewardPerToken();\n        lastUpdateTime = lastTimeRewardApplicable();\n        if (account != address(0)) {\n            rewards[account] = earned(account);\n            userRewardPerTokenPaid[account] = rewardPerTokenStored;\n        }\n        _;\n    }\n\n    function lastTimeRewardApplicable() public view returns (uint256) {\n        return Math.min(block.timestamp, periodFinish);\n    }\n\n    function rewardPerToken() public view returns (uint256) {\n        if (totalSupply() == 0) {\n            return rewardPerTokenStored;\n        }\n        return\n            rewardPerTokenStored.add(\n                lastTimeRewardApplicable()\n                    .sub(lastUpdateTime)\n                    .mul(rewardRate)\n                    .mul(1e18)\n                    .div(totalSupply())\n            );\n    }\n\n    function earned(address account) public view returns (uint256) {\n        uint256 calculatedEarned = balanceOf(account)\n                .mul(rewardPerToken().sub(userRewardPerTokenPaid[account]))\n                .div(1e18)\n                .add(rewards[account]);\n        uint256 poolBalance = BRET.balanceOf(address(this));\n        // some rare case the reward can be slightly bigger than real number, we need to check against how much we have left in pool\n        if (calculatedEarned > poolBalance) return poolBalance;\n        return calculatedEarned;\n    }\n\n    // stake visibility is public as overriding LPTokenWrapper's stake() function\n    function stake(uint256 amount, address referrer) public updateReward(msg.sender) checkNextRound checkStart {\n        require(amount > 0, \"Cannot stake 0\");\n        require(referrer != msg.sender, \"You cannot refer yourself\");\n        super.stake(amount);\n        emit Staked(msg.sender, amount);\n        if (rewardReferral != address(0) && referrer != address(0)) {\n            IReferral(rewardReferral).setReferrer(msg.sender, referrer);\n        }\n    }\n\n    function withdraw(uint256 amount) public updateReward(msg.sender) checkStart {\n        require(amount > 0, \"Cannot withdraw 0\");\n        super.withdraw(amount);\n        emit Withdrawn(msg.sender, amount);\n    }\n\n    function exit() external {\n        withdraw(balanceOf(msg.sender));\n        getReward();\n    }\n\n    function getReward() public updateReward(msg.sender) checkNextRound checkStart {\n        uint256 reward = earned(msg.sender);\n        if (reward > 0) {\n            rewards[msg.sender] = 0;\n\n            uint256 actualPaid = reward.mul(100 - REFERRAL_COMMISSION_PERCENT).div(100); // 99%\n            uint256 commission = reward - actualPaid; // 1%\n\n            BRET.safeTransfer(msg.sender, actualPaid);\n            emit RewardPaid(msg.sender, actualPaid);\n\n            address referrer = address(0);\n            if (rewardReferral != address(0)) {\n                referrer = IReferral(rewardReferral).getReferrer(msg.sender);\n            }\n            if (referrer != address(0)) { // send commission to referrer\n                BRET.safeTransfer(referrer, commission);\n                IReferral(rewardReferral).addEarning(referrer, commission);\n                emit RewardPaid(msg.sender, commission);\n            } else {// or burn\n                BRET.burn(commission);\n                emit Burned(commission);\n            }\n        }\n    }\n\n    modifier checkNextRound() {\n        if (block.timestamp >= periodFinish) {\n            BRET.mint(address(this), initreward);\n            BRET.mint(devAddr, initreward.div(10));\n            rewardRate = initreward.div(DURATION);\n            periodFinish = block.timestamp.add(DURATION);\n            emit RewardAdded(initreward);\n        }\n        _;\n    }\n\n    modifier checkStart(){\n        require(block.timestamp >= starttime,\"not start\");\n        _;\n    }\n\n\n    function notifyRewardAmount(uint256 reward)\n        external\n        onlyRewardDistribution\n        updateReward(address(0))\n    {\n        if (block.timestamp > starttime) {\n          if (block.timestamp >= periodFinish) {\n              rewardRate = reward.div(DURATION);\n          } else {\n              uint256 remaining = periodFinish.sub(block.timestamp);\n              uint256 leftover = remaining.mul(rewardRate);\n              rewardRate = reward.add(leftover).div(DURATION);\n          }\n          lastUpdateTime = block.timestamp;\n          periodFinish = block.timestamp.add(DURATION);\n          emit RewardAdded(reward);\n        } else {\n          require(BRET.balanceOf(address(this)) == 0, \"already initialized\");\n          BRET.mint(address(this), initreward.mul(BONUS_MULTIPLIER));\n          BRET.mint(devAddr, initreward.mul(BONUS_MULTIPLIER).div(10));\n          rewardRate = initreward.div(DURATION);\n          lastUpdateTime = starttime;\n          periodFinish = starttime.add(DURATION);\n          emit RewardAdded(reward);\n        }\n    }\n\n\n    // This function allows governance to take unsupported tokens out of the\n    // contract, since this one exists longer than the other pools.\n    // This is in an effort to make someone whole, should they seriously\n    // mess up. There is no guarantee governance will vote to return these.\n    // It also allows for removal of airdropped tokens.\n    function governanceRecoverUnsupported(IERC20 _token, uint256 amount, address to)\n        external\n    {\n        // only gov\n        require(msg.sender == owner(), \"!governance\");\n        // cant take staked asset\n        require(_token != lpt, \"Cannot recover lpt\");\n        // cant take reward asset\n        require(_token != BRET, \"Cannot recover BRET\");\n\n        // transfer to\n        _token.safeTransfer(to, amount);\n    }\n\n    // Update dev address by the previous dev.\n    function dev(address _devAddr) public {\n        require(msg.sender == devAddr, \"dev: wut?\");\n        devAddr = _devAddr;\n    }\n}\n",
  "sourcePath": "/Users/mhe70/my-workspace/bretton-protocol/contracts/pools/LiquidityRewardPoolWithBonus.sol",
  "compiler": {
    "name": "solc",
    "version": "0.5.16+commit.9c3226ce.Emscripten.clang"
  },
  "schemaVersion": "3.2.3",
  "updatedAt": "2020-09-03T06:53:18.188Z",
  "devdoc": {
    "methods": {
      "isOwner()": {
        "details": "Returns true if the caller is the current owner."
      },
      "owner()": {
        "details": "Returns the address of the current owner."
      },
      "renounceOwnership()": {
        "details": "Leaves the contract without owner. It will not be possible to call `onlyOwner` functions anymore. Can only be called by the current owner.     * NOTE: Renouncing ownership will leave the contract without an owner, thereby removing any functionality that is only available to the owner."
      },
      "transferOwnership(address)": {
        "details": "Transfers ownership of the contract to a new account (`newOwner`). Can only be called by the current owner."
      }
    }
  },
  "userdoc": {
    "methods": {}
  }
}