{
  "contractName": "nToken",
  "abi": [
    {
      "inputs": [
        {
          "internalType": "string",
          "name": "_name",
          "type": "string"
        },
        {
          "internalType": "string",
          "name": "_symbol",
          "type": "string"
        },
        {
          "internalType": "uint8",
          "name": "_decimals",
          "type": "uint8"
        },
        {
          "internalType": "address[]",
          "name": "_earningPools",
          "type": "address[]"
        },
        {
          "internalType": "address",
          "name": "_managedRewardPool",
          "type": "address"
        }
      ],
      "payable": false,
      "stateMutability": "nonpayable",
      "type": "constructor"
    },
    {
      "anonymous": false,
      "inputs": [
        {
          "indexed": true,
          "internalType": "address",
          "name": "owner",
          "type": "address"
        },
        {
          "indexed": true,
          "internalType": "address",
          "name": "spender",
          "type": "address"
        },
        {
          "indexed": false,
          "internalType": "uint256",
          "name": "value",
          "type": "uint256"
        }
      ],
      "name": "Approval",
      "type": "event"
    },
    {
      "anonymous": false,
      "inputs": [
        {
          "indexed": true,
          "internalType": "address",
          "name": "earningPool",
          "type": "address"
        },
        {
          "indexed": true,
          "internalType": "address",
          "name": "underlying",
          "type": "address"
        }
      ],
      "name": "EarningPoolAdded",
      "type": "event"
    },
    {
      "anonymous": false,
      "inputs": [
        {
          "indexed": true,
          "internalType": "address",
          "name": "beneficiary",
          "type": "address"
        },
        {
          "indexed": true,
          "internalType": "address",
          "name": "underlying",
          "type": "address"
        },
        {
          "indexed": false,
          "internalType": "uint256",
          "name": "amount",
          "type": "uint256"
        },
        {
          "indexed": false,
          "internalType": "address",
          "name": "payer",
          "type": "address"
        }
      ],
      "name": "Minted",
      "type": "event"
    },
    {
      "anonymous": false,
      "inputs": [
        {
          "indexed": true,
          "internalType": "address",
          "name": "previousOwner",
          "type": "address"
        },
        {
          "indexed": true,
          "internalType": "address",
          "name": "newOwner",
          "type": "address"
        }
      ],
      "name": "OwnershipTransferred",
      "type": "event"
    },
    {
      "anonymous": false,
      "inputs": [
        {
          "indexed": true,
          "internalType": "address",
          "name": "underlying",
          "type": "address"
        }
      ],
      "name": "Pause",
      "type": "event"
    },
    {
      "anonymous": false,
      "inputs": [
        {
          "indexed": true,
          "internalType": "address",
          "name": "beneficiary",
          "type": "address"
        },
        {
          "indexed": true,
          "internalType": "address",
          "name": "underlying",
          "type": "address"
        },
        {
          "indexed": false,
          "internalType": "uint256",
          "name": "amount",
          "type": "uint256"
        },
        {
          "indexed": false,
          "internalType": "address",
          "name": "payer",
          "type": "address"
        }
      ],
      "name": "Redeemed",
      "type": "event"
    },
    {
      "anonymous": false,
      "inputs": [
        {
          "indexed": true,
          "internalType": "address",
          "name": "beneficiary",
          "type": "address"
        },
        {
          "indexed": true,
          "internalType": "address",
          "name": "underlyingFrom",
          "type": "address"
        },
        {
          "indexed": false,
          "internalType": "uint256",
          "name": "amountFrom",
          "type": "uint256"
        },
        {
          "indexed": true,
          "internalType": "address",
          "name": "underlyingTo",
          "type": "address"
        },
        {
          "indexed": false,
          "internalType": "uint256",
          "name": "amountTo",
          "type": "uint256"
        },
        {
          "indexed": false,
          "internalType": "address",
          "name": "payer",
          "type": "address"
        }
      ],
      "name": "Swapped",
      "type": "event"
    },
    {
      "anonymous": false,
      "inputs": [
        {
          "indexed": true,
          "internalType": "address",
          "name": "from",
          "type": "address"
        },
        {
          "indexed": true,
          "internalType": "address",
          "name": "to",
          "type": "address"
        },
        {
          "indexed": false,
          "internalType": "uint256",
          "name": "value",
          "type": "uint256"
        }
      ],
      "name": "Transfer",
      "type": "event"
    },
    {
      "anonymous": false,
      "inputs": [
        {
          "indexed": true,
          "internalType": "address",
          "name": "underlying",
          "type": "address"
        }
      ],
      "name": "Unpause",
      "type": "event"
    },
    {
      "constant": true,
      "inputs": [
        {
          "internalType": "address",
          "name": "owner",
          "type": "address"
        },
        {
          "internalType": "address",
          "name": "spender",
          "type": "address"
        }
      ],
      "name": "allowance",
      "outputs": [
        {
          "internalType": "uint256",
          "name": "",
          "type": "uint256"
        }
      ],
      "payable": false,
      "stateMutability": "view",
      "type": "function"
    },
    {
      "constant": false,
      "inputs": [
        {
          "internalType": "address",
          "name": "spender",
          "type": "address"
        },
        {
          "internalType": "uint256",
          "name": "amount",
          "type": "uint256"
        }
      ],
      "name": "approve",
      "outputs": [
        {
          "internalType": "bool",
          "name": "",
          "type": "bool"
        }
      ],
      "payable": false,
      "stateMutability": "nonpayable",
      "type": "function"
    },
    {
      "constant": true,
      "inputs": [
        {
          "internalType": "address",
          "name": "account",
          "type": "address"
        }
      ],
      "name": "balanceOf",
      "outputs": [
        {
          "internalType": "uint256",
          "name": "",
          "type": "uint256"
        }
      ],
      "payable": false,
      "stateMutability": "view",
      "type": "function"
    },
    {
      "constant": true,
      "inputs": [],
      "name": "decimals",
      "outputs": [
        {
          "internalType": "uint8",
          "name": "",
          "type": "uint8"
        }
      ],
      "payable": false,
      "stateMutability": "view",
      "type": "function"
    },
    {
      "constant": false,
      "inputs": [
        {
          "internalType": "address",
          "name": "spender",
          "type": "address"
        },
        {
          "internalType": "uint256",
          "name": "subtractedValue",
          "type": "uint256"
        }
      ],
      "name": "decreaseAllowance",
      "outputs": [
        {
          "internalType": "bool",
          "name": "",
          "type": "bool"
        }
      ],
      "payable": false,
      "stateMutability": "nonpayable",
      "type": "function"
    },
    {
      "constant": false,
      "inputs": [
        {
          "internalType": "address",
          "name": "spender",
          "type": "address"
        },
        {
          "internalType": "uint256",
          "name": "addedValue",
          "type": "uint256"
        }
      ],
      "name": "increaseAllowance",
      "outputs": [
        {
          "internalType": "bool",
          "name": "",
          "type": "bool"
        }
      ],
      "payable": false,
      "stateMutability": "nonpayable",
      "type": "function"
    },
    {
      "constant": true,
      "inputs": [],
      "name": "isOwner",
      "outputs": [
        {
          "internalType": "bool",
          "name": "",
          "type": "bool"
        }
      ],
      "payable": false,
      "stateMutability": "view",
      "type": "function"
    },
    {
      "constant": true,
      "inputs": [],
      "name": "managedRewardPool",
      "outputs": [
        {
          "internalType": "contract ManagedRewardPoolInterface",
          "name": "",
          "type": "address"
        }
      ],
      "payable": false,
      "stateMutability": "view",
      "type": "function"
    },
    {
      "constant": true,
      "inputs": [],
      "name": "name",
      "outputs": [
        {
          "internalType": "string",
          "name": "",
          "type": "string"
        }
      ],
      "payable": false,
      "stateMutability": "view",
      "type": "function"
    },
    {
      "constant": true,
      "inputs": [],
      "name": "owner",
      "outputs": [
        {
          "internalType": "address",
          "name": "",
          "type": "address"
        }
      ],
      "payable": false,
      "stateMutability": "view",
      "type": "function"
    },
    {
      "constant": true,
      "inputs": [
        {
          "internalType": "address",
          "name": "",
          "type": "address"
        }
      ],
      "name": "paused",
      "outputs": [
        {
          "internalType": "bool",
          "name": "",
          "type": "bool"
        }
      ],
      "payable": false,
      "stateMutability": "view",
      "type": "function"
    },
    {
      "constant": false,
      "inputs": [],
      "name": "renounceOwnership",
      "outputs": [],
      "payable": false,
      "stateMutability": "nonpayable",
      "type": "function"
    },
    {
      "constant": true,
      "inputs": [
        {
          "internalType": "uint256",
          "name": "",
          "type": "uint256"
        }
      ],
      "name": "supportedUnderlyings",
      "outputs": [
        {
          "internalType": "address",
          "name": "",
          "type": "address"
        }
      ],
      "payable": false,
      "stateMutability": "view",
      "type": "function"
    },
    {
      "constant": true,
      "inputs": [],
      "name": "symbol",
      "outputs": [
        {
          "internalType": "string",
          "name": "",
          "type": "string"
        }
      ],
      "payable": false,
      "stateMutability": "view",
      "type": "function"
    },
    {
      "constant": true,
      "inputs": [],
      "name": "totalSupply",
      "outputs": [
        {
          "internalType": "uint256",
          "name": "",
          "type": "uint256"
        }
      ],
      "payable": false,
      "stateMutability": "view",
      "type": "function"
    },
    {
      "constant": false,
      "inputs": [
        {
          "internalType": "address",
          "name": "recipient",
          "type": "address"
        },
        {
          "internalType": "uint256",
          "name": "amount",
          "type": "uint256"
        }
      ],
      "name": "transfer",
      "outputs": [
        {
          "internalType": "bool",
          "name": "",
          "type": "bool"
        }
      ],
      "payable": false,
      "stateMutability": "nonpayable",
      "type": "function"
    },
    {
      "constant": false,
      "inputs": [
        {
          "internalType": "address",
          "name": "sender",
          "type": "address"
        },
        {
          "internalType": "address",
          "name": "recipient",
          "type": "address"
        },
        {
          "internalType": "uint256",
          "name": "amount",
          "type": "uint256"
        }
      ],
      "name": "transferFrom",
      "outputs": [
        {
          "internalType": "bool",
          "name": "",
          "type": "bool"
        }
      ],
      "payable": false,
      "stateMutability": "nonpayable",
      "type": "function"
    },
    {
      "constant": false,
      "inputs": [
        {
          "internalType": "address",
          "name": "newOwner",
          "type": "address"
        }
      ],
      "name": "transferOwnership",
      "outputs": [],
      "payable": false,
      "stateMutability": "nonpayable",
      "type": "function"
    },
    {
      "constant": true,
      "inputs": [
        {
          "internalType": "address",
          "name": "",
          "type": "address"
        }
      ],
      "name": "underlyingToEarningPoolMap",
      "outputs": [
        {
          "internalType": "address",
          "name": "",
          "type": "address"
        }
      ],
      "payable": false,
      "stateMutability": "view",
      "type": "function"
    },
    {
      "constant": false,
      "inputs": [
        {
          "internalType": "address",
          "name": "_beneficiary",
          "type": "address"
        },
        {
          "internalType": "address",
          "name": "_underlying",
          "type": "address"
        },
        {
          "internalType": "uint256",
          "name": "_underlyingAmount",
          "type": "uint256"
        }
      ],
      "name": "mint",
      "outputs": [],
      "payable": false,
      "stateMutability": "nonpayable",
      "type": "function"
    },
    {
      "constant": false,
      "inputs": [
        {
          "internalType": "address",
          "name": "_beneficiary",
          "type": "address"
        },
        {
          "internalType": "address",
          "name": "_underlying",
          "type": "address"
        },
        {
          "internalType": "uint256",
          "name": "_underlyingAmount",
          "type": "uint256"
        }
      ],
      "name": "redeem",
      "outputs": [],
      "payable": false,
      "stateMutability": "nonpayable",
      "type": "function"
    },
    {
      "constant": false,
      "inputs": [
        {
          "internalType": "address",
          "name": "_beneficiary",
          "type": "address"
        },
        {
          "internalType": "address",
          "name": "_underlyingFrom",
          "type": "address"
        },
        {
          "internalType": "uint256",
          "name": "_amountFrom",
          "type": "uint256"
        },
        {
          "internalType": "address",
          "name": "_underlyingTo",
          "type": "address"
        }
      ],
      "name": "swap",
      "outputs": [],
      "payable": false,
      "stateMutability": "nonpayable",
      "type": "function"
    },
    {
      "constant": true,
      "inputs": [
        {
          "internalType": "address",
          "name": "_underlying",
          "type": "address"
        }
      ],
      "name": "isUnderlyingSupported",
      "outputs": [
        {
          "internalType": "bool",
          "name": "",
          "type": "bool"
        }
      ],
      "payable": false,
      "stateMutability": "view",
      "type": "function"
    },
    {
      "constant": true,
      "inputs": [
        {
          "internalType": "address",
          "name": "_underlying",
          "type": "address"
        }
      ],
      "name": "getUnderlyingEarningPool",
      "outputs": [
        {
          "internalType": "address",
          "name": "",
          "type": "address"
        }
      ],
      "payable": false,
      "stateMutability": "view",
      "type": "function"
    },
    {
      "constant": true,
      "inputs": [],
      "name": "getAllSupportedUnderlyings",
      "outputs": [
        {
          "internalType": "address[]",
          "name": "",
          "type": "address[]"
        }
      ],
      "payable": false,
      "stateMutability": "view",
      "type": "function"
    },
    {
      "constant": false,
      "inputs": [
        {
          "internalType": "address",
          "name": "_earningPool",
          "type": "address"
        }
      ],
      "name": "addEarningPool",
      "outputs": [],
      "payable": false,
      "stateMutability": "nonpayable",
      "type": "function"
    },
    {
      "constant": false,
      "inputs": [
        {
          "internalType": "address",
          "name": "_underlying",
          "type": "address"
        }
      ],
      "name": "pause",
      "outputs": [],
      "payable": false,
      "stateMutability": "nonpayable",
      "type": "function"
    },
    {
      "constant": false,
      "inputs": [
        {
          "internalType": "address",
          "name": "_underlying",
          "type": "address"
        }
      ],
      "name": "unpause",
      "outputs": [],
      "payable": false,
      "stateMutability": "nonpayable",
      "type": "function"
    },
    {
      "constant": false,
      "inputs": [
        {
          "internalType": "string",
          "name": "_name",
          "type": "string"
        }
      ],
      "name": "setName",
      "outputs": [],
      "payable": false,
      "stateMutability": "nonpayable",
      "type": "function"
    },
    {
      "constant": false,
      "inputs": [
        {
          "internalType": "string",
          "name": "_symbol",
          "type": "string"
        }
      ],
      "name": "setSymbol",
      "outputs": [],
      "payable": false,
      "stateMutability": "nonpayable",
      "type": "function"
    }
  ],
  "bytecode": "0x60806040523480156200001157600080fd5b50604051620041fd380380620041fd833981810160405260a08110156200003757600080fd5b81019080805160405193929190846401000000008211156200005857600080fd5b9083019060208201858111156200006e57600080fd5b82516401000000008111828201881017156200008957600080fd5b82525081516020918201929091019080838360005b83811015620000b85781810151838201526020016200009e565b50505050905090810190601f168015620000e65780820380516001836020036101000a031916815260200191505b50604052602001805160405193929190846401000000008211156200010a57600080fd5b9083019060208201858111156200012057600080fd5b82516401000000008111828201881017156200013b57600080fd5b82525081516020918201929091019080838360005b838110156200016a57818101518382015260200162000150565b50505050905090810190601f168015620001985780820380516001836020036101000a031916815260200191505b50604081815260208301519201805192949193919284640100000000821115620001c157600080fd5b908301906020820185811115620001d757600080fd5b8251866020820283011164010000000082111715620001f557600080fd5b82525081516020918201928201910280838360005b83811015620002245781810151838201526020016200020a565b50505050919091016040525060209081015187519093508792508691869162000254916003919086019062000940565b5081516200026a90600490602085019062000940565b506005805460ff191660ff92909216919091179055505060016006556200029062000385565b600780546001600160a01b0319166001600160a01b0392831617908190556040519116906000907f8be0079c531659141344cd1fd0a4f28419497f9722a3daafe3b4186f6b6457e0908290a36001600160a01b038116620003235760405162461bcd60e51b815260040180806020018281038252602a81526020018062004173602a913960400191505060405180910390fd5b600a80546001600160a01b0319166001600160a01b03831617905560005b82518110156200037957620003708382815181106200035c57fe5b60200260200101516200038a60201b60201c565b60010162000341565b505050505050620009e2565b335b90565b60008190508160086000836001600160a01b0316632495a5996040518163ffffffff1660e01b815260040160206040518083038186803b158015620003ce57600080fd5b505afa158015620003e3573d6000803e3d6000fd5b505050506040513d6020811015620003fa57600080fd5b50516001600160a01b039081168252602080830193909352604091820160002080546001600160a01b031916948216949094179093558051632495a59960e01b81529051600993851692632495a5999260048082019391829003018186803b1580156200046657600080fd5b505afa1580156200047b573d6000803e3d6000fd5b505050506040513d60208110156200049257600080fd5b5051815460018101835560009283526020928390200180546001600160a01b0319166001600160a01b0392831617905560408051632495a59960e01b815290516200053b9392851692632495a5999260048082019391829003018186803b158015620004fd57600080fd5b505afa15801562000512573d6000803e3d6000fd5b505050506040513d60208110156200052957600080fd5b5051836001600160e01b03620005df16565b806001600160a01b0316632495a5996040518163ffffffff1660e01b815260040160206040518083038186803b1580156200057557600080fd5b505afa1580156200058a573d6000803e3d6000fd5b505050506040513d6020811015620005a157600080fd5b50516040516001600160a01b03918216918416907f51ccf578d8ed6b5b076d9794aee3e411e6c101fac9ee7dece8add66830fd9f6190600090a35050565b6200060681600019846001600160a01b03166200060a60201b620031d5179092919060201c565b5050565b80158062000694575060408051636eb1769f60e11b81523060048201526001600160a01b03848116602483015291519185169163dd62ed3e91604480820192602092909190829003018186803b1580156200066457600080fd5b505afa15801562000679573d6000803e3d6000fd5b505050506040513d60208110156200069057600080fd5b5051155b620006d15760405162461bcd60e51b8152600401808060200182810382526036815260200180620041c76036913960400191505060405180910390fd5b604080516001600160a01b038416602482015260448082018490528251808303909101815260649091019091526020810180516001600160e01b0390811663095ea7b360e01b17909152620007299185916200072e16565b505050565b6200074d826001600160a01b03166200090360201b620031991760201c565b6200079f576040805162461bcd60e51b815260206004820152601f60248201527f5361666545524332303a2063616c6c20746f206e6f6e2d636f6e747261637400604482015290519081900360640190fd5b60006060836001600160a01b0316836040518082805190602001908083835b60208310620007df5780518252601f199092019160209182019101620007be565b6001836020036101000a0380198251168184511680821785525050505050509050019150506000604051808303816000865af19150503d806000811462000843576040519150601f19603f3d011682016040523d82523d6000602084013e62000848565b606091505b509150915081620008a0576040805162461bcd60e51b815260206004820181905260248201527f5361666545524332303a206c6f772d6c6576656c2063616c6c206661696c6564604482015290519081900360640190fd5b805115620008fd57808060200190516020811015620008be57600080fd5b5051620008fd5760405162461bcd60e51b815260040180806020018281038252602a8152602001806200419d602a913960400191505060405180910390fd5b50505050565b6000813f7fc5d2460186f7233c927e7db2dcc703c0e500b653ca82273b7bfad8045d85a4708115801590620009385750808214155b949350505050565b828054600181600116156101000203166002900490600052602060002090601f016020900481019282601f106200098357805160ff1916838001178555620009b3565b82800160010185558215620009b3579182015b82811115620009b357825182559160200191906001019062000996565b50620009c1929150620009c5565b5090565b6200038791905b80821115620009c15760008155600101620009cc565b61378180620009f26000396000f3fe608060405234801561001057600080fd5b50600436106101da5760003560e01c80638f32d59b11610104578063c47f0027116100a2578063db106e4911610071578063db106e4914610778578063dd62ed3e146107ab578063ec098c34146107e6578063f2fde38b14610819576101da565b8063c47f002714610665578063c6c3bbe6146106d5578063cad1885a14610718578063d35fa81114610770576101da565b8063a9059cbb116100de578063a9059cbb1461056c578063b84c8246146105a5578063bdceffe314610615578063bebc6bb614610648576101da565b80638f32d59b1461052357806395d89b411461052b578063a457c2d714610533576101da565b8063395093511161017c57806370a082311161014b57806370a0823114610484578063715018a6146104b757806376a67a51146104bf5780638da5cb5b146104f2576101da565b8063395093511461039c5780633c5fe0a1146103d557806357b001f9146104085780636e81221c1461043b576101da565b806318160ddd116101b857806318160ddd146102ee57806323b872dd146103085780632e48152c1461034b578063313ce5671461037e576101da565b806306fdde03146101df578063095ea7b31461025c5780630e6dfcd5146102a9575b600080fd5b6101e761084c565b6040805160208082528351818301528351919283929083019185019080838360005b83811015610221578181015183820152602001610209565b50505050905090810190601f16801561024e5780820380516001836020036101000a031916815260200191505b509250505060405180910390f35b6102956004803603604081101561027257600080fd5b5073ffffffffffffffffffffffffffffffffffffffff81351690602001356108f8565b604080519115158252519081900360200190f35b6102ec600480360360608110156102bf57600080fd5b5073ffffffffffffffffffffffffffffffffffffffff813581169160208101359091169060400135610916565b005b6102f66109a2565b60408051918252519081900360200190f35b6102956004803603606081101561031e57600080fd5b5073ffffffffffffffffffffffffffffffffffffffff8135811691602081013590911690604001356109a9565b6102956004803603602081101561036157600080fd5b503573ffffffffffffffffffffffffffffffffffffffff16610a50565b610386610a65565b6040805160ff9092168252519081900360200190f35b610295600480360360408110156103b257600080fd5b5073ffffffffffffffffffffffffffffffffffffffff8135169060200135610a6e565b610295600480360360208110156103eb57600080fd5b503573ffffffffffffffffffffffffffffffffffffffff16610acf565b6102ec6004803603602081101561041e57600080fd5b503573ffffffffffffffffffffffffffffffffffffffff16610afc565b6102ec6004803603608081101561045157600080fd5b5073ffffffffffffffffffffffffffffffffffffffff813581169160208101358216916040820135916060013516610c7a565b6102f66004803603602081101561049a57600080fd5b503573ffffffffffffffffffffffffffffffffffffffff166111a5565b6102ec6111cd565b6102ec600480360360208110156104d557600080fd5b503573ffffffffffffffffffffffffffffffffffffffff166112af565b6104fa611431565b6040805173ffffffffffffffffffffffffffffffffffffffff9092168252519081900360200190f35b61029561144d565b6101e761148d565b6102956004803603604081101561054957600080fd5b5073ffffffffffffffffffffffffffffffffffffffff8135169060200135611506565b6102956004803603604081101561058257600080fd5b5073ffffffffffffffffffffffffffffffffffffffff8135169060200135611581565b6102ec600480360360208110156105bb57600080fd5b8101906020810181356401000000008111156105d657600080fd5b8201836020820111156105e857600080fd5b8035906020019184600183028401116401000000008311171561060a57600080fd5b509092509050611595565b6104fa6004803603602081101561062b57600080fd5b503573ffffffffffffffffffffffffffffffffffffffff16611619565b6104fa6004803603602081101561065e57600080fd5b5035611644565b6102ec6004803603602081101561067b57600080fd5b81019060208101813564010000000081111561069657600080fd5b8201836020820111156106a857600080fd5b803590602001918460018302840111640100000000831117156106ca57600080fd5b509092509050611678565b6102ec600480360360608110156106eb57600080fd5b5073ffffffffffffffffffffffffffffffffffffffff8135811691602081013590911690604001356116f7565b610720611815565b60408051602080825283518183015283519192839290830191858101910280838360005b8381101561075c578181015183820152602001610744565b505050509050019250505060405180910390f35b6104fa611884565b6102ec6004803603602081101561078e57600080fd5b503573ffffffffffffffffffffffffffffffffffffffff166118a0565b6102f6600480360360408110156107c157600080fd5b5073ffffffffffffffffffffffffffffffffffffffff8135811691602001351661191f565b6104fa600480360360208110156107fc57600080fd5b503573ffffffffffffffffffffffffffffffffffffffff16611957565b6102ec6004803603602081101561082f57600080fd5b503573ffffffffffffffffffffffffffffffffffffffff1661197f565b6003805460408051602060026001851615610100027fffffffffffffffffffffffffffffffffffffffffffffffffffffffffffffffff0190941693909304601f810184900484028201840190925281815292918301828280156108f05780601f106108c5576101008083540402835291602001916108f0565b820191906000526020600020905b8154815290600101906020018083116108d357829003601f168201915b505050505081565b600061090c6109056119fb565b84846119ff565b5060015b92915050565b600680546001019081905561092c848484611b46565b600654811461099c57604080517f08c379a000000000000000000000000000000000000000000000000000000000815260206004820152601f60248201527f5265656e7472616e637947756172643a207265656e7472616e742063616c6c00604482015290519081900360640190fd5b50505050565b6002545b90565b60006109b6848484611de0565b610a46846109c26119fb565b610a418560405180606001604052806028815260200161353d6028913973ffffffffffffffffffffffffffffffffffffffff8a16600090815260016020526040812090610a0d6119fb565b73ffffffffffffffffffffffffffffffffffffffff168152602081019190915260400160002054919063ffffffff611f1116565b6119ff565b5060019392505050565b600b6020526000908152604090205460ff1681565b60055460ff1681565b600061090c610a7b6119fb565b84610a418560016000610a8c6119fb565b73ffffffffffffffffffffffffffffffffffffffff908116825260208083019390935260409182016000908120918c16815292529020549063ffffffff611fc216565b73ffffffffffffffffffffffffffffffffffffffff90811660009081526008602052604090205416151590565b610b0461144d565b610b6f57604080517f08c379a000000000000000000000000000000000000000000000000000000000815260206004820181905260248201527f4f776e61626c653a2063616c6c6572206973206e6f7420746865206f776e6572604482015290519081900360640190fd5b73ffffffffffffffffffffffffffffffffffffffff81166000908152600b6020526040902054819060ff16610c0557604080517f08c379a000000000000000000000000000000000000000000000000000000000815260206004820181905260248201527f4e544f4b454e3a20756e6465726c79696e67206973206e6f7420706175736564604482015290519081900360640190fd5b73ffffffffffffffffffffffffffffffffffffffff82166000818152600b602052604080822080547fffffffffffffffffffffffffffffffffffffffffffffffffffffffffffffff00169055517faeb196d352664784d1900b0e7414a8face7d29f4dae8c4b0cf68ed477423bbf49190a25050565b600680546001019081905573ffffffffffffffffffffffffffffffffffffffff84166000908152600b6020526040902054849060ff1615610d1c57604080517f08c379a000000000000000000000000000000000000000000000000000000000815260206004820152601c60248201527f4e544f4b454e3a20756e6465726c79696e672069732070617573656400000000604482015290519081900360640190fd5b60008411610d75576040517f08c379a000000000000000000000000000000000000000000000000000000000815260040180806020018281038252602e815260200180613644602e913960400191505060405180910390fd5b610d7e85610acf565b610dd3576040517f08c379a000000000000000000000000000000000000000000000000000000000815260040180806020018281038252602c8152602001806136c6602c913960400191505060405180910390fd5b610ddc83610acf565b610e31576040517f08c379a000000000000000000000000000000000000000000000000000000000815260040180806020018281038252602a8152602001806135f6602a913960400191505060405180910390fd5b73ffffffffffffffffffffffffffffffffffffffff80841660009081526008602052604081205490911690610e6787878761203d565b9050808273ffffffffffffffffffffffffffffffffffffffff166308f7844e6040518163ffffffff1660e01b815260040160206040518083038186803b158015610eb057600080fd5b505afa158015610ec4573d6000803e3d6000fd5b505050506040513d6020811015610eda57600080fd5b50511015610f33576040517f08c379a000000000000000000000000000000000000000000000000000000000815260040180806020018281038252602a815260200180613672602a913960400191505060405180910390fd5b73ffffffffffffffffffffffffffffffffffffffff80881660008181526008602052604090205490911690610f709033308a63ffffffff6121c816565b604080517f47e7ef2400000000000000000000000000000000000000000000000000000000815230600482015260248101899052905173ffffffffffffffffffffffffffffffffffffffff8316916347e7ef2491604480830192600092919082900301818387803b158015610fe457600080fd5b505af1158015610ff8573d6000803e3d6000fd5b5050604080517ff3fef3a30000000000000000000000000000000000000000000000000000000081523060048201526024810186905290516000935073ffffffffffffffffffffffffffffffffffffffff8716925063f3fef3a39160448082019260209290919082900301818787803b15801561107457600080fd5b505af1158015611088573d6000803e3d6000fd5b505050506040513d602081101561109e57600080fd5b505190506110c973ffffffffffffffffffffffffffffffffffffffff88168b8363ffffffff61225d16565b60408051898152602081018390523381830152905173ffffffffffffffffffffffffffffffffffffffff808a16928c821692918e16917f6135b536e33070976edb6dc1ecd6f9235b0d3a24970b028cd9dc6994bd0d5ec09181900360600190a45050505050600654811461119e57604080517f08c379a000000000000000000000000000000000000000000000000000000000815260206004820152601f60248201527f5265656e7472616e637947756172643a207265656e7472616e742063616c6c00604482015290519081900360640190fd5b5050505050565b73ffffffffffffffffffffffffffffffffffffffff1660009081526020819052604090205490565b6111d561144d565b61124057604080517f08c379a000000000000000000000000000000000000000000000000000000000815260206004820181905260248201527f4f776e61626c653a2063616c6c6572206973206e6f7420746865206f776e6572604482015290519081900360640190fd5b60075460405160009173ffffffffffffffffffffffffffffffffffffffff16907f8be0079c531659141344cd1fd0a4f28419497f9722a3daafe3b4186f6b6457e0908390a3600780547fffffffffffffffffffffffff0000000000000000000000000000000000000000169055565b6112b761144d565b61132257604080517f08c379a000000000000000000000000000000000000000000000000000000000815260206004820181905260248201527f4f776e61626c653a2063616c6c6572206973206e6f7420746865206f776e6572604482015290519081900360640190fd5b73ffffffffffffffffffffffffffffffffffffffff81166000908152600b6020526040902054819060ff16156113b957604080517f08c379a000000000000000000000000000000000000000000000000000000000815260206004820152601c60248201527f4e544f4b454e3a20756e6465726c79696e672069732070617573656400000000604482015290519081900360640190fd5b73ffffffffffffffffffffffffffffffffffffffff82166000818152600b602052604080822080547fffffffffffffffffffffffffffffffffffffffffffffffffffffffffffffff00166001179055517f5ee71a369c8672edded508e624ffc9257fa1ae6886ef32905c18e60196bca3999190a25050565b60075473ffffffffffffffffffffffffffffffffffffffff1690565b60075460009073ffffffffffffffffffffffffffffffffffffffff166114716119fb565b73ffffffffffffffffffffffffffffffffffffffff1614905090565b6004805460408051602060026001851615610100027fffffffffffffffffffffffffffffffffffffffffffffffffffffffffffffffff0190941693909304601f810184900484028201840190925281815292918301828280156108f05780601f106108c5576101008083540402835291602001916108f0565b600061090c6115136119fb565b84610a4185604051806060016040528060258152602001613728602591396001600061153d6119fb565b73ffffffffffffffffffffffffffffffffffffffff908116825260208083019390935260409182016000908120918d1681529252902054919063ffffffff611f1116565b600061090c61158e6119fb565b8484611de0565b61159d61144d565b61160857604080517f08c379a000000000000000000000000000000000000000000000000000000000815260206004820181905260248201527f4f776e61626c653a2063616c6c6572206973206e6f7420746865206f776e6572604482015290519081900360640190fd5b61161460048383613363565b505050565b73ffffffffffffffffffffffffffffffffffffffff9081166000908152600860205260409020541690565b6009818154811061165157fe5b60009182526020909120015473ffffffffffffffffffffffffffffffffffffffff16905081565b61168061144d565b6116eb57604080517f08c379a000000000000000000000000000000000000000000000000000000000815260206004820181905260248201527f4f776e61626c653a2063616c6c6572206973206e6f7420746865206f776e6572604482015290519081900360640190fd5b61161460038383613363565b600680546001019081905573ffffffffffffffffffffffffffffffffffffffff83166000908152600b6020526040902054839060ff161561179957604080517f08c379a000000000000000000000000000000000000000000000000000000000815260206004820152601c60248201527f4e544f4b454e3a20756e6465726c79696e672069732070617573656400000000604482015290519081900360640190fd5b6117a48585856122ea565b50600654811461099c57604080517f08c379a000000000000000000000000000000000000000000000000000000000815260206004820152601f60248201527f5265656e7472616e637947756172643a207265656e7472616e742063616c6c00604482015290519081900360640190fd5b6060600980548060200260200160405190810160405280929190818152602001828054801561187a57602002820191906000526020600020905b815473ffffffffffffffffffffffffffffffffffffffff16815260019091019060200180831161184f575b5050505050905090565b600a5473ffffffffffffffffffffffffffffffffffffffff1681565b6118a861144d565b61191357604080517f08c379a000000000000000000000000000000000000000000000000000000000815260206004820181905260248201527f4f776e61626c653a2063616c6c6572206973206e6f7420746865206f776e6572604482015290519081900360640190fd5b61191c81612573565b50565b73ffffffffffffffffffffffffffffffffffffffff918216600090815260016020908152604080832093909416825291909152205490565b60086020526000908152604090205473ffffffffffffffffffffffffffffffffffffffff1681565b61198761144d565b6119f257604080517f08c379a000000000000000000000000000000000000000000000000000000000815260206004820181905260248201527f4f776e61626c653a2063616c6c6572206973206e6f7420746865206f776e6572604482015290519081900360640190fd5b61191c81612854565b3390565b73ffffffffffffffffffffffffffffffffffffffff8316611a6b576040517f08c379a00000000000000000000000000000000000000000000000000000000081526004018080602001828103825260248152602001806136206024913960400191505060405180910390fd5b73ffffffffffffffffffffffffffffffffffffffff8216611ad7576040517f08c379a00000000000000000000000000000000000000000000000000000000081526004018080602001828103825260228152602001806134856022913960400191505060405180910390fd5b73ffffffffffffffffffffffffffffffffffffffff808416600081815260016020908152604080832094871680845294825291829020859055815185815291517f8c5be1e5ebec7d5bd14f71427d1e84f3dd0314c0f7b2291e5b200ac8c7c3b9259281900390910190a3505050565b60008111611b9f576040517f08c379a00000000000000000000000000000000000000000000000000000000081526004018080602001828103825260258152602001806134f76025913960400191505060405180910390fd5b611ba882610acf565b611bfd576040517f08c379a000000000000000000000000000000000000000000000000000000000815260040180806020018281038252602a8152602001806134a7602a913960400191505060405180910390fd5b6000611c0a83833061203d565b9050611c16338261294e565b600a54604080517fee7a7c0400000000000000000000000000000000000000000000000000000000815233600482015260248101849052905173ffffffffffffffffffffffffffffffffffffffff9092169163ee7a7c049160448082019260009290919082900301818387803b158015611c8f57600080fd5b505af1158015611ca3573d6000803e3d6000fd5b5050505073ffffffffffffffffffffffffffffffffffffffff83811660009081526008602090815260408083205481517ff3fef3a3000000000000000000000000000000000000000000000000000000008152306004820152602481018890529151941693849263f3fef3a3926044808201939182900301818787803b158015611d2c57600080fd5b505af1158015611d40573d6000803e3d6000fd5b505050506040513d6020811015611d5657600080fd5b50519050611d8173ffffffffffffffffffffffffffffffffffffffff8616878363ffffffff61225d16565b60408051828152336020820152815173ffffffffffffffffffffffffffffffffffffffff80891693908a16927fed1d8826c33cc644346b94068a5b33325eb558bbbee7114b26079ed12f945189929081900390910190a3505050505050565b600a54604080517fee7a7c0400000000000000000000000000000000000000000000000000000000815273ffffffffffffffffffffffffffffffffffffffff8681166004830152602482018590529151919092169163ee7a7c0491604480830192600092919082900301818387803b158015611e5b57600080fd5b505af1158015611e6f573d6000803e3d6000fd5b5050600a54604080517f528c198a00000000000000000000000000000000000000000000000000000000815273ffffffffffffffffffffffffffffffffffffffff878116600483015260248201879052915191909216935063528c198a9250604480830192600092919082900301818387803b158015611eee57600080fd5b505af1158015611f02573d6000803e3d6000fd5b50505050611614838383612a98565b60008184841115611fba576040517f08c379a00000000000000000000000000000000000000000000000000000000081526004018080602001828103825283818151815260200191508051906020019080838360005b83811015611f7f578181015183820152602001611f67565b50505050905090810190601f168015611fac5780820380516001836020036101000a031916815260200191505b509250505060405180910390fd5b505050900390565b60008282018381101561203657604080517f08c379a000000000000000000000000000000000000000000000000000000000815260206004820152601b60248201527f536166654d6174683a206164646974696f6e206f766572666c6f770000000000604482015290519081900360640190fd5b9392505050565b6000808473ffffffffffffffffffffffffffffffffffffffff1663313ce5676040518163ffffffff1660e01b815260040160206040518083038186803b15801561208657600080fd5b505afa15801561209a573d6000803e3d6000fd5b505050506040513d60208110156120b057600080fd5b5051604080517f313ce567000000000000000000000000000000000000000000000000000000008152905160ff909216925060009173ffffffffffffffffffffffffffffffffffffffff86169163313ce567916004808301926020929190829003018186803b15801561212257600080fd5b505afa158015612136573d6000803e3d6000fd5b505050506040513d602081101561214c57600080fd5b505160ff1690506000808284111561218b5761216e848463ffffffff612c6916565b905061218487600a83900a63ffffffff612cab16565b91506121bd565b838311156121b9576121a3838563ffffffff612c6916565b905061218487600a83900a63ffffffff612ced16565b8691505b509695505050505050565b6040805173ffffffffffffffffffffffffffffffffffffffff85811660248301528416604482015260648082018490528251808303909101815260849091019091526020810180517bffffffffffffffffffffffffffffffffffffffffffffffffffffffff167f23b872dd0000000000000000000000000000000000000000000000000000000017905261099c908590612d60565b6040805173ffffffffffffffffffffffffffffffffffffffff8416602482015260448082018490528251808303909101815260649091019091526020810180517bffffffffffffffffffffffffffffffffffffffffffffffffffffffff167fa9059cbb00000000000000000000000000000000000000000000000000000000179052611614908490612d60565b60008111612343576040517f08c379a000000000000000000000000000000000000000000000000000000000815260040180806020018281038252602381526020018061358d6023913960400191505060405180910390fd5b61234c82610acf565b6123a1576040517f08c379a00000000000000000000000000000000000000000000000000000000081526004018080602001828103825260288152602001806135656028913960400191505060405180910390fd5b73ffffffffffffffffffffffffffffffffffffffff808316600081815260086020526040902054909116906123de9033308563ffffffff6121c816565b604080517f47e7ef2400000000000000000000000000000000000000000000000000000000815230600482015260248101849052905173ffffffffffffffffffffffffffffffffffffffff8316916347e7ef2491604480830192600092919082900301818387803b15801561245257600080fd5b505af1158015612466573d6000803e3d6000fd5b50505050600061247784843061203d565b90506124838582612f9e565b600a54604080517f528c198a00000000000000000000000000000000000000000000000000000000815273ffffffffffffffffffffffffffffffffffffffff8881166004830152602482018590529151919092169163528c198a91604480830192600092919082900301818387803b1580156124fe57600080fd5b505af1158015612512573d6000803e3d6000fd5b505060408051868152336020820152815173ffffffffffffffffffffffffffffffffffffffff808a1695508a1693507f5de08df36cd02b2b914551ee03ceb2ecd7d416bcca1f09bdf6a0592c276c0eba929181900390910190a35050505050565b600081905081600860008373ffffffffffffffffffffffffffffffffffffffff16632495a5996040518163ffffffff1660e01b815260040160206040518083038186803b1580156125c357600080fd5b505afa1580156125d7573d6000803e3d6000fd5b505050506040513d60208110156125ed57600080fd5b505173ffffffffffffffffffffffffffffffffffffffff9081168252602080830193909352604091820160002080547fffffffffffffffffffffffff0000000000000000000000000000000000000000169482169490941790935580517f2495a5990000000000000000000000000000000000000000000000000000000081529051600993851692632495a5999260048082019391829003018186803b15801561269657600080fd5b505afa1580156126aa573d6000803e3d6000fd5b505050506040513d60208110156126c057600080fd5b5051815460018101835560009283526020928390200180547fffffffffffffffffffffffff00000000000000000000000000000000000000001673ffffffffffffffffffffffffffffffffffffffff928316179055604080517f2495a59900000000000000000000000000000000000000000000000000000000815290516127999392851692632495a5999260048082019391829003018186803b15801561276757600080fd5b505afa15801561277b573d6000803e3d6000fd5b505050506040513d602081101561279157600080fd5b5051836130cf565b8073ffffffffffffffffffffffffffffffffffffffff16632495a5996040518163ffffffff1660e01b815260040160206040518083038186803b1580156127df57600080fd5b505afa1580156127f3573d6000803e3d6000fd5b505050506040513d602081101561280957600080fd5b505160405173ffffffffffffffffffffffffffffffffffffffff918216918416907f51ccf578d8ed6b5b076d9794aee3e411e6c101fac9ee7dece8add66830fd9f6190600090a35050565b73ffffffffffffffffffffffffffffffffffffffff81166128c0576040517f08c379a000000000000000000000000000000000000000000000000000000000815260040180806020018281038252602681526020018061345f6026913960400191505060405180910390fd5b60075460405173ffffffffffffffffffffffffffffffffffffffff8084169216907f8be0079c531659141344cd1fd0a4f28419497f9722a3daafe3b4186f6b6457e090600090a3600780547fffffffffffffffffffffffff00000000000000000000000000000000000000001673ffffffffffffffffffffffffffffffffffffffff92909216919091179055565b73ffffffffffffffffffffffffffffffffffffffff82166129ba576040517f08c379a00000000000000000000000000000000000000000000000000000000081526004018080602001828103825260218152602001806135b06021913960400191505060405180910390fd5b612a0a8160405180606001604052806022815260200161343d6022913973ffffffffffffffffffffffffffffffffffffffff8516600090815260208190526040902054919063ffffffff611f1116565b73ffffffffffffffffffffffffffffffffffffffff8316600090815260208190526040902055600254612a43908263ffffffff612c6916565b60025560408051828152905160009173ffffffffffffffffffffffffffffffffffffffff8516917fddf252ad1be2c89b69c2b068fc378daa952ba7f163c4a11628f55a4df523b3ef9181900360200190a35050565b73ffffffffffffffffffffffffffffffffffffffff8316612b04576040517f08c379a00000000000000000000000000000000000000000000000000000000081526004018080602001828103825260258152602001806135d16025913960400191505060405180910390fd5b73ffffffffffffffffffffffffffffffffffffffff8216612b70576040517f08c379a000000000000000000000000000000000000000000000000000000000815260040180806020018281038252602381526020018061341a6023913960400191505060405180910390fd5b612bc0816040518060600160405280602681526020016134d16026913973ffffffffffffffffffffffffffffffffffffffff8616600090815260208190526040902054919063ffffffff611f1116565b73ffffffffffffffffffffffffffffffffffffffff8085166000908152602081905260408082209390935590841681522054612c02908263ffffffff611fc216565b73ffffffffffffffffffffffffffffffffffffffff8084166000818152602081815260409182902094909455805185815290519193928716927fddf252ad1be2c89b69c2b068fc378daa952ba7f163c4a11628f55a4df523b3ef92918290030190a3505050565b600061203683836040518060400160405280601e81526020017f536166654d6174683a207375627472616374696f6e206f766572666c6f770000815250611f11565b600061203683836040518060400160405280601a81526020017f536166654d6174683a206469766973696f6e206279207a65726f00000000000081525061311a565b600082612cfc57506000610910565b82820282848281612d0957fe5b0414612036576040517f08c379a000000000000000000000000000000000000000000000000000000000815260040180806020018281038252602181526020018061351c6021913960400191505060405180910390fd5b612d7f8273ffffffffffffffffffffffffffffffffffffffff16613199565b612dea57604080517f08c379a000000000000000000000000000000000000000000000000000000000815260206004820152601f60248201527f5361666545524332303a2063616c6c20746f206e6f6e2d636f6e747261637400604482015290519081900360640190fd5b600060608373ffffffffffffffffffffffffffffffffffffffff16836040518082805190602001908083835b60208310612e5357805182527fffffffffffffffffffffffffffffffffffffffffffffffffffffffffffffffe09092019160209182019101612e16565b6001836020036101000a0380198251168184511680821785525050505050509050019150506000604051808303816000865af19150503d8060008114612eb5576040519150601f19603f3d011682016040523d82523d6000602084013e612eba565b606091505b509150915081612f2b57604080517f08c379a000000000000000000000000000000000000000000000000000000000815260206004820181905260248201527f5361666545524332303a206c6f772d6c6576656c2063616c6c206661696c6564604482015290519081900360640190fd5b80511561099c57808060200190516020811015612f4757600080fd5b505161099c576040517f08c379a000000000000000000000000000000000000000000000000000000000815260040180806020018281038252602a81526020018061369c602a913960400191505060405180910390fd5b73ffffffffffffffffffffffffffffffffffffffff821661302057604080517f08c379a000000000000000000000000000000000000000000000000000000000815260206004820152601f60248201527f45524332303a206d696e7420746f20746865207a65726f206164647265737300604482015290519081900360640190fd5b600254613033908263ffffffff611fc216565b60025573ffffffffffffffffffffffffffffffffffffffff821660009081526020819052604090205461306c908263ffffffff611fc216565b73ffffffffffffffffffffffffffffffffffffffff83166000818152602081815260408083209490945583518581529351929391927fddf252ad1be2c89b69c2b068fc378daa952ba7f163c4a11628f55a4df523b3ef9281900390910190a35050565b61311673ffffffffffffffffffffffffffffffffffffffff8316827fffffffffffffffffffffffffffffffffffffffffffffffffffffffffffffffff63ffffffff6131d516565b5050565b60008183613183576040517f08c379a0000000000000000000000000000000000000000000000000000000008152602060048201818152835160248401528351909283926044909101919085019080838360008315611f7f578181015183820152602001611f67565b50600083858161318f57fe5b0495945050505050565b6000813f7fc5d2460186f7233c927e7db2dcc703c0e500b653ca82273b7bfad8045d85a47081158015906131cd5750808214155b949350505050565b8015806132815750604080517fdd62ed3e00000000000000000000000000000000000000000000000000000000815230600482015273ffffffffffffffffffffffffffffffffffffffff848116602483015291519185169163dd62ed3e91604480820192602092909190829003018186803b15801561325357600080fd5b505afa158015613267573d6000803e3d6000fd5b505050506040513d602081101561327d57600080fd5b5051155b6132d6576040517f08c379a00000000000000000000000000000000000000000000000000000000081526004018080602001828103825260368152602001806136f26036913960400191505060405180910390fd5b6040805173ffffffffffffffffffffffffffffffffffffffff8416602482015260448082018490528251808303909101815260649091019091526020810180517bffffffffffffffffffffffffffffffffffffffffffffffffffffffff167f095ea7b300000000000000000000000000000000000000000000000000000000179052611614908490612d60565b828054600181600116156101000203166002900490600052602060002090601f016020900481019282601f106133c2578280017fffffffffffffffffffffffffffffffffffffffffffffffffffffffffffffff008235161785556133ef565b828001600101855582156133ef579182015b828111156133ef5782358255916020019190600101906133d4565b506133fb9291506133ff565b5090565b6109a691905b808211156133fb576000815560010161340556fe45524332303a207472616e7366657220746f20746865207a65726f206164647265737345524332303a206275726e20616d6f756e7420657863656564732062616c616e63654f776e61626c653a206e6577206f776e657220697320746865207a65726f206164647265737345524332303a20617070726f766520746f20746865207a65726f20616464726573734e544f4b454e3a2072656465656d20756e6465726c79696e67206973206e6f7420737570706f7274656445524332303a207472616e7366657220616d6f756e7420657863656564732062616c616e63654e544f4b454e3a2072656465656d206d7573742062652067726561746572207468616e2030536166654d6174683a206d756c7469706c69636174696f6e206f766572666c6f7745524332303a207472616e7366657220616d6f756e74206578636565647320616c6c6f77616e63654e544f4b454e3a206d696e7420756e6465726c79696e67206973206e6f7420737570706f727465644e544f4b454e3a206d696e74206d7573742062652067726561746572207468616e203045524332303a206275726e2066726f6d20746865207a65726f206164647265737345524332303a207472616e736665722066726f6d20746865207a65726f20616464726573734e544f4b454e3a207377617020756e6465726c79696e67546f206973206e6f7420737570706f7274656445524332303a20617070726f76652066726f6d20746865207a65726f20616464726573734e544f4b454e3a207377617020616d6f756e7446726f6d206d7573742062652067726561746572207468616e20304e544f4b454e3a20696e73756666696369656e7420756e6465726c79696e67546f20666f7220737761705361666545524332303a204552433230206f7065726174696f6e20646964206e6f7420737563636565644e544f4b454e3a207377617020756e6465726c79696e6746726f6d206973206e6f7420737570706f727465645361666545524332303a20617070726f76652066726f6d206e6f6e2d7a65726f20746f206e6f6e2d7a65726f20616c6c6f77616e636545524332303a2064656372656173656420616c6c6f77616e63652062656c6f77207a65726fa265627a7a72315820ffa8d5284c981af392b66c3cb4b024c7d9f538dbe06ad7e5020d1f93ec8d57c664736f6c634300051000324e544f4b454e3a2072657761726420706f6f6c20616464726573732063616e6e6f74206265207a65726f5361666545524332303a204552433230206f7065726174696f6e20646964206e6f7420737563636565645361666545524332303a20617070726f76652066726f6d206e6f6e2d7a65726f20746f206e6f6e2d7a65726f20616c6c6f77616e6365",
  "source": "pragma solidity 0.5.16;\n\nimport \"../externals/SafeMath.sol\";\nimport \"../externals/SafeERC20.sol\";\nimport \"../externals/ReentrancyGuard.sol\";\nimport \"../externals/Ownable.sol\";\nimport \"../externals/IERC20.sol\";\nimport \"../externals/ERC20.sol\";\nimport \"../externals/ERC20Detailed.sol\";\n\nimport \"../interfaces/EarningPoolInterface.sol\";\nimport \"../interfaces/ManagedRewardPoolInterface.sol\";\n\n/**\n * @title nToken\n * @dev nToken are collateralized assets pegged to a specific value.\n *      Collaterals are EarningPool shares\n */\ncontract nToken is ERC20, ERC20Detailed, ReentrancyGuard, Ownable {\n    using SafeERC20 for IERC20;\n    using SafeMath for uint256;\n\n    mapping(address => address) public underlyingToEarningPoolMap;\n    address[] public supportedUnderlyings;\n\n    ManagedRewardPoolInterface public managedRewardPool;\n\n    // mapping between underlying token and its paused state\n    // pause is used for mint and swap\n    mapping(address => bool) public paused;\n\n    event Minted(address indexed beneficiary, address indexed underlying, uint256 amount, address payer);\n    event Redeemed(address indexed beneficiary, address indexed underlying, uint256 amount, address payer);\n    event Swapped(address indexed beneficiary, address indexed underlyingFrom, uint256 amountFrom, address indexed underlyingTo, uint256 amountTo, address payer);\n    event EarningPoolAdded(address indexed earningPool, address indexed underlying);\n    event Pause(address indexed underlying);\n    event Unpause(address indexed underlying);\n\n    /**\n     * @dev nToken constructor\n     * @param _name Name of nToken\n     * @param _symbol Symbol of nToken\n     * @param _decimals Decimal place of nToken\n     * @param _earningPools List of earning pools to supply underlying token to\n     */\n    constructor (\n        string memory _name,\n        string memory _symbol,\n        uint8 _decimals,\n        address[] memory _earningPools,\n        address _managedRewardPool\n    )\n        ERC20Detailed(_name, _symbol, _decimals)\n        public\n    {\n        require(_managedRewardPool != address(0), \"NTOKEN: reward pool address cannot be zero\");\n        managedRewardPool = ManagedRewardPoolInterface(_managedRewardPool);\n\n        for (uint i=0; i<_earningPools.length; i++) {\n            _addEarningPool(_earningPools[i]);\n        }\n    }\n\n    /**\n     * @dev Modifier to make a function callable only when the underlying is not paused.\n     */\n    modifier whenNotPaused(address _underlying) {\n      require(!paused[_underlying], \"NTOKEN: underlying is paused\");\n      _;\n    }\n\n    /**\n     * @dev Modifier to make a function callable only when the contract is paused.\n     */\n    modifier whenPaused(address _underlying) {\n      require(paused[_underlying], \"NTOKEN: underlying is not paused\");\n      _;\n    }\n\n    /*** PUBLIC ***/\n\n    /**\n     * @dev Mint nToken using underlying\n     * @param _beneficiary Address of beneficiary\n     * @param _underlying Token supplied for minting\n     * @param _underlyingAmount Amount of _underlying\n     */\n    function mint(\n        address _beneficiary,\n        address _underlying,\n        uint _underlyingAmount\n    )\n        external\n        nonReentrant\n        whenNotPaused(_underlying)\n    {\n        _mintInternal(_beneficiary, _underlying, _underlyingAmount);\n    }\n\n    /**\n     * @dev Redeem nToken to underlying\n     * @param _beneficiary Address of beneficiary\n     * @param _underlying Token withdrawn for redeeming\n     * @param _underlyingAmount Amount of _underlying\n     */\n    function redeem(\n        address _beneficiary,\n        address _underlying,\n        uint _underlyingAmount\n    )\n        external\n        nonReentrant\n    {\n        _redeemInternal(_beneficiary, _underlying, _underlyingAmount);\n    }\n\n    /**\n     * @dev Swap from one underlying to another\n     * @param _beneficiary Address of beneficiary\n     * @param _underlyingFrom Token to swap from\n     * @param _amountFrom Amount of _underlyingFrom\n     * @param _underlyingTo Token to swap to\n     */\n    function swap(\n        address _beneficiary,\n        address _underlyingFrom,\n        uint _amountFrom,\n        address _underlyingTo\n    )\n        external\n        nonReentrant\n        whenNotPaused(_underlyingFrom)\n    {\n        require(_amountFrom > 0, \"NTOKEN: swap amountFrom must be greater than 0\");\n        require(isUnderlyingSupported(_underlyingFrom), \"NTOKEN: swap underlyingFrom is not supported\");\n        require(isUnderlyingSupported(_underlyingTo), \"NTOKEN: swap underlyingTo is not supported\");\n\n        // check if there is sufficient underlyingTo to swap\n        // currently there are no exchange rate between underlyings as only stable coins are supported\n        EarningPoolInterface underlyingToPool = EarningPoolInterface(underlyingToEarningPoolMap[_underlyingTo]);\n        uint amountTo = _scaleTokenAmount(_underlyingFrom, _amountFrom, _underlyingTo);\n        require(underlyingToPool.calcPoolValueInUnderlying() >= amountTo, \"NTOKEN: insufficient underlyingTo for swap\");\n\n        // transfer underlyingFrom from msg.sender and deposit into earnin pool\n        EarningPoolInterface underlyingFromPool = EarningPoolInterface(underlyingToEarningPoolMap[_underlyingFrom]);\n        IERC20(_underlyingFrom).safeTransferFrom(msg.sender, address(this), _amountFrom);\n        underlyingFromPool.deposit(address(this), _amountFrom);\n\n        // withdraw underlyingTo from earning pool to _beneficiary\n        uint256 actualAmountTo = underlyingToPool.withdraw(address(this), amountTo);\n        IERC20(_underlyingTo).safeTransfer(_beneficiary, actualAmountTo);\n\n        emit Swapped(_beneficiary, _underlyingFrom, _amountFrom, _underlyingTo, actualAmountTo, msg.sender);\n    }\n\n    /*** VIEW ***/\n\n    /**\n     * @dev Check if an underlying is supported\n     * @param _underlying Address of underlying token\n     */\n    function isUnderlyingSupported(address _underlying) public view returns (bool) {\n        return underlyingToEarningPoolMap[_underlying] != address(0);\n    }\n\n    /**\n     * @dev Get corresponding earning pool address of underlying\n     * @param _underlying Address of underlying token\n     */\n    function getUnderlyingEarningPool(address _underlying) public view returns (address) {\n        return underlyingToEarningPoolMap[_underlying];\n    }\n\n    /**\n     * @dev Get all supported underlyings\n     * @return address[] List of address of supported underlying token\n     */\n    function getAllSupportedUnderlyings() public view returns (address[] memory) {\n        return supportedUnderlyings;\n    }\n\n    /*** ADMIN ***/\n\n    /**\n     * @dev Add earning pool to nToken\n     * @param _earningPool Address of earning pool\n     */\n    function addEarningPool(address _earningPool)\n        external\n        onlyOwner\n    {\n        _addEarningPool(_earningPool);\n    }\n\n    /**\n     * @dev called by the owner to pause, triggers stopped state\n     */\n    function pause(address _underlying)\n        public\n        onlyOwner\n        whenNotPaused(_underlying)\n    {\n        paused[_underlying] = true;\n        emit Pause(_underlying);\n    }\n\n    /**\n     * @dev called by the owner to unpause, returns to normal state\n     */\n    function unpause(address _underlying)\n        public\n        onlyOwner\n        whenPaused(_underlying)\n    {\n        paused[_underlying] = false;\n        emit Unpause(_underlying);\n    }\n\n    /**\n     * @dev Set the name of token\n     * @param _name Name of token\n     */\n    function setName(string calldata _name)\n        external\n        onlyOwner\n    {\n        name = _name;\n    }\n\n    /**\n     * @dev Set the symbol of token\n     * @param _symbol Symbol of token\n     */\n    function setSymbol(string calldata _symbol)\n        external\n        onlyOwner\n    {\n        symbol = _symbol;\n    }\n\n    /*** INTERNAL ***/\n\n    function _mintInternal(address _beneficiary, address _underlying, uint _underlyingAmount) internal {\n        require(_underlyingAmount > 0, \"NTOKEN: mint must be greater than 0\");\n        require(isUnderlyingSupported(_underlying), \"NTOKEN: mint underlying is not supported\");\n\n        // transfer underlying from msg.sender into nToken and deposit into earning pool\n        EarningPoolInterface pool = EarningPoolInterface(underlyingToEarningPoolMap[_underlying]);\n        IERC20(_underlying).safeTransferFrom(msg.sender, address(this), _underlyingAmount);\n        pool.deposit(address(this), _underlyingAmount);\n\n        // mint nToken for _beneficiary\n        uint nTokenAmount = _scaleTokenAmount(_underlying, _underlyingAmount, address(this));\n        _mint(_beneficiary, nTokenAmount);\n\n        // mint shares in managedRewardPool for _beneficiary\n        managedRewardPool.mintShares(_beneficiary, nTokenAmount);\n\n        emit Minted(_beneficiary, _underlying, _underlyingAmount, msg.sender);\n    }\n\n    function _redeemInternal(address _beneficiary, address _underlying, uint _underlyingAmount) internal {\n        require(_underlyingAmount > 0, \"NTOKEN: redeem must be greater than 0\");\n        require(isUnderlyingSupported(_underlying), \"NTOKEN: redeem underlying is not supported\");\n\n        // burn msg.sender nToken\n        uint nTokenAmount = _scaleTokenAmount(_underlying, _underlyingAmount, address(this));\n        _burn(msg.sender, nTokenAmount);\n\n        // burn msg.sender shares from managedRewardPool\n        managedRewardPool.burnShares(msg.sender, nTokenAmount);\n\n        // withdraw underlying from earning pool and transfer to _beneficiary\n        EarningPoolInterface pool = EarningPoolInterface(underlyingToEarningPoolMap[_underlying]);\n        uint256 actualWithdrawnAmount = pool.withdraw(address(this), _underlyingAmount);\n        IERC20(_underlying).safeTransfer(_beneficiary, actualWithdrawnAmount);\n\n        emit Redeemed(_beneficiary, _underlying, actualWithdrawnAmount, msg.sender);\n    }\n\n    /**\n     * @dev Approve underlyings to earning pool\n     * @param _underlying Address of underlying token\n     * @param _pool Address of earning pool\n     */\n    function _approveUnderlyingToEarningPool(address _underlying, address _pool) internal {\n        IERC20(_underlying).safeApprove(_pool, uint(-1));\n    }\n\n    /**\n     * @dev Scale token amount from one decimal precision to another\n     * @param _from Address of token to convert from\n     * @param _fromAmount Amount of _from token\n     * @param _to Address of token to convert to\n     */\n    function _scaleTokenAmount(address _from, uint _fromAmount, address _to) internal view returns (uint) {\n        uint fromTokenDecimalPlace = uint(ERC20Detailed(_from).decimals());\n        uint toTokenDecimalPlace = uint(ERC20Detailed(_to).decimals());\n        uint toTokenAmount;\n        uint scaleFactor;\n        if (fromTokenDecimalPlace > toTokenDecimalPlace) {\n            scaleFactor = fromTokenDecimalPlace.sub(toTokenDecimalPlace);\n            toTokenAmount = _fromAmount.div(uint(10**scaleFactor)); // expect precision loss\n        } else if (toTokenDecimalPlace > fromTokenDecimalPlace) {\n            scaleFactor = toTokenDecimalPlace.sub(fromTokenDecimalPlace);\n            toTokenAmount = _fromAmount.mul(uint(10**(scaleFactor)));\n        } else {\n            toTokenAmount = _fromAmount;\n        }\n        return toTokenAmount;\n    }\n\n    /**\n     * @dev Add earning pool to nToken\n     * @param _earningPool Address of earning pool\n     */\n    function _addEarningPool(address _earningPool)\n        internal\n    {\n        EarningPoolInterface pool = EarningPoolInterface(_earningPool);\n\n        underlyingToEarningPoolMap[pool.underlyingToken()] = _earningPool;\n        supportedUnderlyings.push(pool.underlyingToken());\n        _approveUnderlyingToEarningPool(pool.underlyingToken(), _earningPool);\n\n        emit EarningPoolAdded(_earningPool, pool.underlyingToken());\n    }\n\n    /**\n     * @dev Overrides parent ERC20 _transfer function to update reward for sender and recipient\n     * @param _sender Sender of transfer\n     * @param _recipient Address to recieve transfer\n     * @param _amount Amount to transfer\n     * @return bool Is transfer successful\n     */\n    function _transfer(address _sender, address _recipient, uint256 _amount)\n        internal\n    {\n        managedRewardPool.burnShares(_sender, _amount);\n        managedRewardPool.mintShares(_recipient, _amount);\n        super._transfer(_sender, _recipient, _amount);\n    }\n}\n",
  "sourcePath": "/Users/mhe70/my-workspace/bretton-protocol/contracts/tokens/nToken.sol",
  "compiler": {
    "name": "solc",
    "version": "0.5.16+commit.9c3226ce.Emscripten.clang"
  },
  "schemaVersion": "3.2.3",
  "updatedAt": "2020-08-22T23:35:22.703Z",
  "devdoc": {
    "details": "nToken are collateralized assets pegged to a specific value.     Collaterals are EarningPool shares",
    "methods": {
      "addEarningPool(address)": {
        "details": "Add earning pool to nToken",
        "params": {
          "_earningPool": "Address of earning pool"
        }
      },
      "constructor": {
        "details": "nToken constructor",
        "params": {
          "_decimals": "Decimal place of nToken",
          "_earningPools": "List of earning pools to supply underlying token to",
          "_name": "Name of nToken",
          "_symbol": "Symbol of nToken"
        }
      },
      "getAllSupportedUnderlyings()": {
        "details": "Get all supported underlyings",
        "return": "address[] List of address of supported underlying token"
      },
      "getUnderlyingEarningPool(address)": {
        "details": "Get corresponding earning pool address of underlying",
        "params": {
          "_underlying": "Address of underlying token"
        }
      },
      "isUnderlyingSupported(address)": {
        "details": "Check if an underlying is supported",
        "params": {
          "_underlying": "Address of underlying token"
        }
      },
      "mint(address,address,uint256)": {
        "details": "Mint nToken using underlying",
        "params": {
          "_beneficiary": "Address of beneficiary",
          "_underlying": "Token supplied for minting",
          "_underlyingAmount": "Amount of _underlying"
        }
      },
      "pause(address)": {
        "details": "called by the owner to pause, triggers stopped state"
      },
      "redeem(address,address,uint256)": {
        "details": "Redeem nToken to underlying",
        "params": {
          "_beneficiary": "Address of beneficiary",
          "_underlying": "Token withdrawn for redeeming",
          "_underlyingAmount": "Amount of _underlying"
        }
      },
      "setName(string)": {
        "details": "Set the name of token",
        "params": {
          "_name": "Name of token"
        }
      },
      "setSymbol(string)": {
        "details": "Set the symbol of token",
        "params": {
          "_symbol": "Symbol of token"
        }
      },
      "swap(address,address,uint256,address)": {
        "details": "Swap from one underlying to another",
        "params": {
          "_amountFrom": "Amount of _underlyingFrom",
          "_beneficiary": "Address of beneficiary",
          "_underlyingFrom": "Token to swap from",
          "_underlyingTo": "Token to swap to"
        }
      },
      "unpause(address)": {
        "details": "called by the owner to unpause, returns to normal state"
      }
    },
    "title": "nToken"
  },
  "userdoc": {
    "methods": {}
  }
}