{
  "contractName": "nUSDMintRewardPool",
  "abi": [
    {
      "inputs": [
        {
          "internalType": "address",
          "name": "_bretToken",
          "type": "address"
        }
      ],
      "payable": false,
      "stateMutability": "nonpayable",
      "type": "constructor"
    },
    {
      "anonymous": false,
      "inputs": [
        {
          "indexed": true,
          "internalType": "address",
          "name": "manager",
          "type": "address"
        }
      ],
      "name": "Demoted",
      "type": "event"
    },
    {
      "anonymous": false,
      "inputs": [
        {
          "indexed": true,
          "internalType": "address",
          "name": "previousOwner",
          "type": "address"
        },
        {
          "indexed": true,
          "internalType": "address",
          "name": "newOwner",
          "type": "address"
        }
      ],
      "name": "OwnershipTransferred",
      "type": "event"
    },
    {
      "anonymous": false,
      "inputs": [
        {
          "indexed": true,
          "internalType": "address",
          "name": "manager",
          "type": "address"
        }
      ],
      "name": "Promoted",
      "type": "event"
    },
    {
      "anonymous": false,
      "inputs": [
        {
          "indexed": false,
          "internalType": "uint256",
          "name": "amount",
          "type": "uint256"
        }
      ],
      "name": "RewardAdded",
      "type": "event"
    },
    {
      "anonymous": false,
      "inputs": [
        {
          "indexed": true,
          "internalType": "address",
          "name": "user",
          "type": "address"
        },
        {
          "indexed": false,
          "internalType": "uint256",
          "name": "amount",
          "type": "uint256"
        }
      ],
      "name": "RewardPaid",
      "type": "event"
    },
    {
      "constant": true,
      "inputs": [],
      "name": "DURATION",
      "outputs": [
        {
          "internalType": "uint256",
          "name": "",
          "type": "uint256"
        }
      ],
      "payable": false,
      "stateMutability": "view",
      "type": "function"
    },
    {
      "constant": false,
      "inputs": [
        {
          "internalType": "address",
          "name": "_account",
          "type": "address"
        },
        {
          "internalType": "uint256",
          "name": "_amount",
          "type": "uint256"
        }
      ],
      "name": "burnShares",
      "outputs": [],
      "payable": false,
      "stateMutability": "nonpayable",
      "type": "function"
    },
    {
      "constant": false,
      "inputs": [],
      "name": "claim",
      "outputs": [],
      "payable": false,
      "stateMutability": "nonpayable",
      "type": "function"
    },
    {
      "constant": false,
      "inputs": [
        {
          "internalType": "address",
          "name": "_address",
          "type": "address"
        }
      ],
      "name": "demote",
      "outputs": [],
      "payable": false,
      "stateMutability": "nonpayable",
      "type": "function"
    },
    {
      "constant": true,
      "inputs": [
        {
          "internalType": "address",
          "name": "_account",
          "type": "address"
        }
      ],
      "name": "earned",
      "outputs": [
        {
          "internalType": "uint256",
          "name": "",
          "type": "uint256"
        }
      ],
      "payable": false,
      "stateMutability": "view",
      "type": "function"
    },
    {
      "constant": true,
      "inputs": [],
      "name": "getCurrentTimestamp",
      "outputs": [
        {
          "internalType": "uint256",
          "name": "",
          "type": "uint256"
        }
      ],
      "payable": false,
      "stateMutability": "view",
      "type": "function"
    },
    {
      "constant": true,
      "inputs": [
        {
          "internalType": "address",
          "name": "_account",
          "type": "address"
        }
      ],
      "name": "isManager",
      "outputs": [
        {
          "internalType": "bool",
          "name": "",
          "type": "bool"
        }
      ],
      "payable": false,
      "stateMutability": "view",
      "type": "function"
    },
    {
      "constant": true,
      "inputs": [],
      "name": "isOwner",
      "outputs": [
        {
          "internalType": "bool",
          "name": "",
          "type": "bool"
        }
      ],
      "payable": false,
      "stateMutability": "view",
      "type": "function"
    },
    {
      "constant": true,
      "inputs": [],
      "name": "lastTimeRewardApplicable",
      "outputs": [
        {
          "internalType": "uint256",
          "name": "",
          "type": "uint256"
        }
      ],
      "payable": false,
      "stateMutability": "view",
      "type": "function"
    },
    {
      "constant": true,
      "inputs": [],
      "name": "lastUpdateTime",
      "outputs": [
        {
          "internalType": "uint256",
          "name": "",
          "type": "uint256"
        }
      ],
      "payable": false,
      "stateMutability": "view",
      "type": "function"
    },
    {
      "constant": true,
      "inputs": [
        {
          "internalType": "address",
          "name": "",
          "type": "address"
        }
      ],
      "name": "managers",
      "outputs": [
        {
          "internalType": "bool",
          "name": "",
          "type": "bool"
        }
      ],
      "payable": false,
      "stateMutability": "view",
      "type": "function"
    },
    {
      "constant": false,
      "inputs": [
        {
          "internalType": "address",
          "name": "_account",
          "type": "address"
        },
        {
          "internalType": "uint256",
          "name": "_amount",
          "type": "uint256"
        }
      ],
      "name": "mintShares",
      "outputs": [],
      "payable": false,
      "stateMutability": "nonpayable",
      "type": "function"
    },
    {
      "constant": false,
      "inputs": [
        {
          "internalType": "uint256",
          "name": "_reward",
          "type": "uint256"
        }
      ],
      "name": "notifyRewardAmount",
      "outputs": [],
      "payable": false,
      "stateMutability": "nonpayable",
      "type": "function"
    },
    {
      "constant": true,
      "inputs": [],
      "name": "owner",
      "outputs": [
        {
          "internalType": "address",
          "name": "",
          "type": "address"
        }
      ],
      "payable": false,
      "stateMutability": "view",
      "type": "function"
    },
    {
      "constant": true,
      "inputs": [],
      "name": "periodFinish",
      "outputs": [
        {
          "internalType": "uint256",
          "name": "",
          "type": "uint256"
        }
      ],
      "payable": false,
      "stateMutability": "view",
      "type": "function"
    },
    {
      "constant": false,
      "inputs": [
        {
          "internalType": "address",
          "name": "_address",
          "type": "address"
        }
      ],
      "name": "promote",
      "outputs": [],
      "payable": false,
      "stateMutability": "nonpayable",
      "type": "function"
    },
    {
      "constant": false,
      "inputs": [],
      "name": "renounceOwnership",
      "outputs": [],
      "payable": false,
      "stateMutability": "nonpayable",
      "type": "function"
    },
    {
      "constant": true,
      "inputs": [],
      "name": "rewardDistributor",
      "outputs": [
        {
          "internalType": "address",
          "name": "",
          "type": "address"
        }
      ],
      "payable": false,
      "stateMutability": "view",
      "type": "function"
    },
    {
      "constant": true,
      "inputs": [],
      "name": "rewardPerSecond",
      "outputs": [
        {
          "internalType": "uint256",
          "name": "",
          "type": "uint256"
        }
      ],
      "payable": false,
      "stateMutability": "view",
      "type": "function"
    },
    {
      "constant": true,
      "inputs": [],
      "name": "rewardPerShare",
      "outputs": [
        {
          "internalType": "uint256",
          "name": "",
          "type": "uint256"
        }
      ],
      "payable": false,
      "stateMutability": "view",
      "type": "function"
    },
    {
      "constant": true,
      "inputs": [],
      "name": "rewardPerShareStored",
      "outputs": [
        {
          "internalType": "uint256",
          "name": "",
          "type": "uint256"
        }
      ],
      "payable": false,
      "stateMutability": "view",
      "type": "function"
    },
    {
      "constant": true,
      "inputs": [],
      "name": "rewardToken",
      "outputs": [
        {
          "internalType": "contract IERC20",
          "name": "",
          "type": "address"
        }
      ],
      "payable": false,
      "stateMutability": "view",
      "type": "function"
    },
    {
      "constant": true,
      "inputs": [
        {
          "internalType": "address",
          "name": "",
          "type": "address"
        }
      ],
      "name": "rewards",
      "outputs": [
        {
          "internalType": "uint256",
          "name": "",
          "type": "uint256"
        }
      ],
      "payable": false,
      "stateMutability": "view",
      "type": "function"
    },
    {
      "constant": false,
      "inputs": [
        {
          "internalType": "address",
          "name": "_rewardDistributor",
          "type": "address"
        }
      ],
      "name": "setRewardDistributor",
      "outputs": [],
      "payable": false,
      "stateMutability": "nonpayable",
      "type": "function"
    },
    {
      "constant": true,
      "inputs": [
        {
          "internalType": "address",
          "name": "_account",
          "type": "address"
        }
      ],
      "name": "sharesOf",
      "outputs": [
        {
          "internalType": "uint256",
          "name": "",
          "type": "uint256"
        }
      ],
      "payable": false,
      "stateMutability": "view",
      "type": "function"
    },
    {
      "constant": true,
      "inputs": [],
      "name": "totalShares",
      "outputs": [
        {
          "internalType": "uint256",
          "name": "",
          "type": "uint256"
        }
      ],
      "payable": false,
      "stateMutability": "view",
      "type": "function"
    },
    {
      "constant": false,
      "inputs": [
        {
          "internalType": "address",
          "name": "newOwner",
          "type": "address"
        }
      ],
      "name": "transferOwnership",
      "outputs": [],
      "payable": false,
      "stateMutability": "nonpayable",
      "type": "function"
    },
    {
      "constant": true,
      "inputs": [
        {
          "internalType": "address",
          "name": "",
          "type": "address"
        }
      ],
      "name": "userRewardPerSharePaid",
      "outputs": [
        {
          "internalType": "uint256",
          "name": "",
          "type": "uint256"
        }
      ],
      "payable": false,
      "stateMutability": "view",
      "type": "function"
    }
  ],
  "bytecode": "0x60806040526000600655600060075534801561001a57600080fd5b506040516117b93803806117b98339818101604052602081101561003d57600080fd5b50516202a300818181336100586001600160e01b036100de16565b600280546001600160a01b0319166001600160a01b0392831617908190556040519116906000907f8be0079c531659141344cd1fd0a4f28419497f9722a3daafe3b4186f6b6457e0908290a3600380546001600160a01b03199081166001600160a01b0393841617909155600593909355600480549093169116179055506100e2915050565b3390565b6116c8806100f16000396000f3fe608060405234801561001057600080fd5b50600436106101c35760003560e01c80638da5cb5b116100f9578063ebe2b12b11610097578063f3ae241511610071578063f3ae24151461047d578063f5eb42dc146104b0578063f7c618c1146104e3578063fdff9b4d146104eb576101c3565b8063ebe2b12b14610409578063ee7a7c0414610411578063f2fde38b1461044a576101c3565b8063a1809b95116100d3578063a1809b9514610393578063acc2166a146103c6578063c8f33c91146103ce578063d0e0813a146103d6576101c3565b80638da5cb5b1461033e5780638f10369a1461036f5780638f32d59b14610377576101c3565b80634e71d92d116101665780636c9230db116101405780636c9230db146102f3578063715018a6146102fb57806380faa57d14610303578063818ae1ce1461030b576101c3565b80634e71d92d1461027f578063528c198a146102875780635c3d005d146102c0576101c3565b80631be05289116101a25780631be05289146102485780633a98ef39146102505780633c6b16ab14610258578063446a2ec814610277576101c3565b80628cc262146101c85780630700037d1461020d5780630ab747f014610240575b600080fd5b6101fb600480360360208110156101de57600080fd5b503573ffffffffffffffffffffffffffffffffffffffff1661051e565b60408051918252519081900360200190f35b6101fb6004803603602081101561022357600080fd5b503573ffffffffffffffffffffffffffffffffffffffff166105b1565b6101fb6105c3565b6101fb6105c9565b6101fb6105cf565b6102756004803603602081101561026e57600080fd5b50356105d6565b005b6101fb6107cb565b610275610824565b6102756004803603604081101561029d57600080fd5b5073ffffffffffffffffffffffffffffffffffffffff81351690602001356109a6565b610275600480360360208110156102d657600080fd5b503573ffffffffffffffffffffffffffffffffffffffff16610a12565b6101fb610af9565b610275610afd565b6101fb610bdf565b6101fb6004803603602081101561032157600080fd5b503573ffffffffffffffffffffffffffffffffffffffff16610bf4565b610346610c06565b6040805173ffffffffffffffffffffffffffffffffffffffff9092168252519081900360200190f35b6101fb610c22565b61037f610c28565b604080519115158252519081900360200190f35b610275600480360360208110156103a957600080fd5b503573ffffffffffffffffffffffffffffffffffffffff16610c68565b610346610d22565b6101fb610d3e565b610275600480360360208110156103ec57600080fd5b503573ffffffffffffffffffffffffffffffffffffffff16610d44565b6101fb610e2e565b6102756004803603604081101561042757600080fd5b5073ffffffffffffffffffffffffffffffffffffffff8135169060200135610e34565b6102756004803603602081101561046057600080fd5b503573ffffffffffffffffffffffffffffffffffffffff16610e9c565b61037f6004803603602081101561049357600080fd5b503573ffffffffffffffffffffffffffffffffffffffff16610f1b565b6101fb600480360360208110156104c657600080fd5b503573ffffffffffffffffffffffffffffffffffffffff16610f46565b610346610f6e565b61037f6004803603602081101561050157600080fd5b503573ffffffffffffffffffffffffffffffffffffffff16610f8a565b73ffffffffffffffffffffffffffffffffffffffff81166000908152600b6020908152604080832054600a9092528220546105ab919061059f90670de0b6b3a7640000906105939061057e906105726107cb565b9063ffffffff610f9f16565b61058788610f46565b9063ffffffff610fe816565b9063ffffffff61105b16565b9063ffffffff61109d16565b92915050565b600b6020526000908152604090205481565b60095481565b60055481565b6000545b90565b60035473ffffffffffffffffffffffffffffffffffffffff166105f7611111565b73ffffffffffffffffffffffffffffffffffffffff161461067957604080517f08c379a000000000000000000000000000000000000000000000000000000000815260206004820181905260248201527f43616c6c6572206973206e6f7420726577617264206469737472696275746f72604482015290519081900360640190fd5b6000806106846107cb565b905080156106f6576009819055610699610bdf565b60085573ffffffffffffffffffffffffffffffffffffffff8216156106f6576106c18261051e565b73ffffffffffffffffffffffffffffffffffffffff83166000908152600b6020908152604080832093909355600a9052208190555b6000610700610af9565b905060065481106107275760055461071f90859063ffffffff61105b16565b600755610776565b60065460009061073d908363ffffffff610f9f16565b9050600061075660075483610fe890919063ffffffff16565b60055490915061077090610593888463ffffffff61109d16565b60075550505b600881905560055461078f90829063ffffffff61109d16565b6006556040805185815290517fde88a922e0d3b88b24e9623efeb464919c6bf9f66857a65e2bfcf2ce87a9433d9181900360200190a150505050565b60006107d56105cf565b6107e257506009546105d3565b61081f6108106107f06105cf565b610593670de0b6b3a7640000610587600754610587600854610572610bdf565b6009549063ffffffff61109d16565b905090565b33600061082f6107cb565b905080156108a1576009819055610844610bdf565b60085573ffffffffffffffffffffffffffffffffffffffff8216156108a15761086c8261051e565b73ffffffffffffffffffffffffffffffffffffffff83166000908152600b6020908152604080832093909355600a9052208190555b60006108ac3361051e565b905080156109a157336000818152600b602090815260408083208390556004805482517fa9059cbb0000000000000000000000000000000000000000000000000000000081529182019590955260248101869052905173ffffffffffffffffffffffffffffffffffffffff9094169363a9059cbb93604480840194938390030190829087803b15801561093e57600080fd5b505af1158015610952573d6000803e3d6000fd5b505050506040513d602081101561096857600080fd5b505060408051828152905133917fe2403640ba68fed3a2f88b7557551d1993f84b99bb10ff833f0cf8db0c5e0486919081900360200190a25b505050565b6109af33610f1b565b610a04576040517f08c379a000000000000000000000000000000000000000000000000000000000815260040180806020018281038252602c815260200180611605602c913960400191505060405180910390fd5b610a0e8282611115565b5050565b610a1a610c28565b610a8557604080517f08c379a000000000000000000000000000000000000000000000000000000000815260206004820181905260248201527f4f776e61626c653a2063616c6c6572206973206e6f7420746865206f776e6572604482015290519081900360640190fd5b73ffffffffffffffffffffffffffffffffffffffff81166000818152600c602052604080822080547fffffffffffffffffffffffffffffffffffffffffffffffffffffffffffffff00169055517f9ad5a3d4fade8144e68319f3f33d56e1573ce12483999bda175b5e13f8f085069190a250565b4290565b610b05610c28565b610b7057604080517f08c379a000000000000000000000000000000000000000000000000000000000815260206004820181905260248201527f4f776e61626c653a2063616c6c6572206973206e6f7420746865206f776e6572604482015290519081900360640190fd5b60025460405160009173ffffffffffffffffffffffffffffffffffffffff16907f8be0079c531659141344cd1fd0a4f28419497f9722a3daafe3b4186f6b6457e0908390a3600280547fffffffffffffffffffffffff0000000000000000000000000000000000000000169055565b600061081f610bec610af9565b6006546111fb565b600a6020526000908152604090205481565b60025473ffffffffffffffffffffffffffffffffffffffff1690565b60075481565b60025460009073ffffffffffffffffffffffffffffffffffffffff16610c4c611111565b73ffffffffffffffffffffffffffffffffffffffff1614905090565b610c70610c28565b610cdb57604080517f08c379a000000000000000000000000000000000000000000000000000000000815260206004820181905260248201527f4f776e61626c653a2063616c6c6572206973206e6f7420746865206f776e6572604482015290519081900360640190fd5b600380547fffffffffffffffffffffffff00000000000000000000000000000000000000001673ffffffffffffffffffffffffffffffffffffffff92909216919091179055565b60035473ffffffffffffffffffffffffffffffffffffffff1681565b60085481565b610d4c610c28565b610db757604080517f08c379a000000000000000000000000000000000000000000000000000000000815260206004820181905260248201527f4f776e61626c653a2063616c6c6572206973206e6f7420746865206f776e6572604482015290519081900360640190fd5b73ffffffffffffffffffffffffffffffffffffffff81166000818152600c602052604080822080547fffffffffffffffffffffffffffffffffffffffffffffffffffffffffffffff00166001179055517fff989cf38d294f8526041e2d7a53f4ef5b6811b12c748ea1d3b4f9d3f989efb99190a250565b60065481565b610e3d33610f1b565b610e92576040517f08c379a000000000000000000000000000000000000000000000000000000000815260040180806020018281038252602c815260200180611605602c913960400191505060405180910390fd5b610a0e8282611211565b610ea4610c28565b610f0f57604080517f08c379a000000000000000000000000000000000000000000000000000000000815260206004820181905260248201527f4f776e61626c653a2063616c6c6572206973206e6f7420746865206f776e6572604482015290519081900360640190fd5b610f18816112f1565b50565b73ffffffffffffffffffffffffffffffffffffffff166000908152600c602052604090205460ff1690565b73ffffffffffffffffffffffffffffffffffffffff1660009081526001602052604090205490565b60045473ffffffffffffffffffffffffffffffffffffffff1681565b600c6020526000908152604090205460ff1681565b6000610fe183836040518060400160405280601e81526020017f536166654d6174683a207375627472616374696f6e206f766572666c6f7700008152506113eb565b9392505050565b600082610ff7575060006105ab565b8282028284828161100457fe5b0414610fe1576040517f08c379a00000000000000000000000000000000000000000000000000000000081526004018080602001828103825260218152602001806116316021913960400191505060405180910390fd5b6000610fe183836040518060400160405280601a81526020017f536166654d6174683a206469766973696f6e206279207a65726f00000000000081525061149c565b600082820183811015610fe157604080517f08c379a000000000000000000000000000000000000000000000000000000000815260206004820152601b60248201527f536166654d6174683a206164646974696f6e206f766572666c6f770000000000604482015290519081900360640190fd5b3390565b8160006111206107cb565b90508015611192576009819055611135610bdf565b60085573ffffffffffffffffffffffffffffffffffffffff8216156111925761115d8261051e565b73ffffffffffffffffffffffffffffffffffffffff83166000908152600b6020908152604080832093909355600a9052208190555b600083116111eb576040517f08c379a00000000000000000000000000000000000000000000000000000000081526004018080602001828103825260218152602001806116526021913960400191505060405180910390fd5b6111f5848461151b565b50505050565b600081831061120a5781610fe1565b5090919050565b81600061121c6107cb565b9050801561128e576009819055611231610bdf565b60085573ffffffffffffffffffffffffffffffffffffffff82161561128e576112598261051e565b73ffffffffffffffffffffffffffffffffffffffff83166000908152600b6020908152604080832093909355600a9052208190555b600083116112e7576040517f08c379a00000000000000000000000000000000000000000000000000000000081526004018080602001828103825260218152602001806116736021913960400191505060405180910390fd5b6111f58484611593565b73ffffffffffffffffffffffffffffffffffffffff811661135d576040517f08c379a00000000000000000000000000000000000000000000000000000000081526004018080602001828103825260268152602001806115df6026913960400191505060405180910390fd5b60025460405173ffffffffffffffffffffffffffffffffffffffff8084169216907f8be0079c531659141344cd1fd0a4f28419497f9722a3daafe3b4186f6b6457e090600090a3600280547fffffffffffffffffffffffff00000000000000000000000000000000000000001673ffffffffffffffffffffffffffffffffffffffff92909216919091179055565b60008184841115611494576040517f08c379a00000000000000000000000000000000000000000000000000000000081526004018080602001828103825283818151815260200191508051906020019080838360005b83811015611459578181015183820152602001611441565b50505050905090810190601f1680156114865780820380516001836020036101000a031916815260200191505b509250505060405180910390fd5b505050900390565b60008183611505576040517f08c379a0000000000000000000000000000000000000000000000000000000008152602060048201818152835160248401528351909283926044909101919085019080838360008315611459578181015183820152602001611441565b50600083858161151157fe5b0495945050505050565b60005461152e908263ffffffff61109d16565b600090815573ffffffffffffffffffffffffffffffffffffffff8316815260016020526040902054611566908263ffffffff61109d16565b73ffffffffffffffffffffffffffffffffffffffff90921660009081526001602052604090209190915550565b6000546115a6908263ffffffff610f9f16565b600090815573ffffffffffffffffffffffffffffffffffffffff8316815260016020526040902054611566908263ffffffff610f9f1656fe4f776e61626c653a206e6577206f776e657220697320746865207a65726f20616464726573734d414e414745445f5245574152445f504f4f4c3a2063616c6c6572206973206e6f742061206d616e61676572536166654d6174683a206d756c7469706c69636174696f6e206f766572666c6f775245574152445f504f4f4c3a2063616e6e6f74206d696e742030207368617265735245574152445f504f4f4c3a2063616e6e6f74206275726e203020736861726573a265627a7a723158204a7db5294dfe3a3f1196ba5c312bf96fdf9adc91ce7b0629091858cc843e389164736f6c63430005100032",
  "source": "pragma solidity 0.5.16;\n\nimport \"../pools/ManagedRewardPool.sol\";\n\n/**\n * @title nUSDMintRewardPool\n * @dev Reward pool to issue BRET for minting nUSD\n */\ncontract nUSDMintRewardPool is ManagedRewardPool {\n    constructor (address _bretToken)\n        ManagedRewardPool (\n            172800, // 2 days\n            _bretToken\n        )\n        public\n    {\n    }\n}\n",
  "sourcePath": "/Users/mhe70/my-workspace/bretton-protocol/contracts/deployments/nUSDMintRewardPool.sol",
  "compiler": {
    "name": "solc",
    "version": "0.5.16+commit.9c3226ce.Emscripten.clang"
  },
  "schemaVersion": "3.2.3",
  "updatedAt": "2020-09-01T04:40:32.080Z",
  "devdoc": {
    "details": "Reward pool to issue BRET for minting nUSD",
    "methods": {
      "claim()": {
        "details": "Claim outstanding rewards for sender",
        "return": "uint256 amount claimed"
      },
      "earned(address)": {
        "details": "Calculates the amount of rewards earned for a given account",
        "params": {
          "_account": "User for which calculate earned rewards for"
        },
        "return": "uint256 Earned rewards"
      },
      "getCurrentTimestamp()": {
        "details": "Get current block timestamp. For easy mocking in test"
      },
      "lastTimeRewardApplicable()": {
        "details": "Gets the last applicable timestamp for this reward period"
      },
      "notifyRewardAmount(uint256)": {
        "details": "Notifies the contract that new rewards have been added. Calculates an updated rewardPerSecond based on the rewards in period.",
        "params": {
          "_reward": "Units of RewardToken that have been added to the pool"
        }
      },
      "rewardPerShare()": {
        "details": "Calculate rewardsPerShare",
        "return": "uint256 rewardsPerShare"
      },
      "sharesOf(address)": {
        "details": "Get the share of a given account",
        "params": {
          "_account": "User for which to retrieve balance"
        },
        "return": "uint256 shares"
      },
      "totalShares()": {
        "details": "Get the total number of shares in pool",
        "return": "uint256 total shares"
      }
    },
    "title": "nUSDMintRewardPool"
  },
  "userdoc": {
    "methods": {
      "mintShares(address,uint256)": {
        "notice": "* PUBLIC **"
      },
      "promote(address)": {
        "notice": "* ADMIN **"
      }
    }
  }
}