{
  "contractName": "nUSD_BRET_Pool",
  "abi": [
    {
      "inputs": [
        {
          "internalType": "address",
          "name": "_BRET",
          "type": "address"
        },
        {
          "internalType": "address",
          "name": "_rewardReferral",
          "type": "address"
        },
        {
          "internalType": "uint256",
          "name": "_DURATION",
          "type": "uint256"
        },
        {
          "internalType": "uint256",
          "name": "_BONUS_ENDTIME",
          "type": "uint256"
        },
        {
          "internalType": "uint256",
          "name": "_initiReward",
          "type": "uint256"
        },
        {
          "internalType": "uint256",
          "name": "_starttime",
          "type": "uint256"
        },
        {
          "internalType": "address",
          "name": "_devAddr",
          "type": "address"
        }
      ],
      "payable": false,
      "stateMutability": "nonpayable",
      "type": "constructor"
    },
    {
      "anonymous": false,
      "inputs": [
        {
          "indexed": false,
          "internalType": "uint256",
          "name": "reward",
          "type": "uint256"
        }
      ],
      "name": "Burned",
      "type": "event"
    },
    {
      "anonymous": false,
      "inputs": [
        {
          "indexed": true,
          "internalType": "address",
          "name": "previousOwner",
          "type": "address"
        },
        {
          "indexed": true,
          "internalType": "address",
          "name": "newOwner",
          "type": "address"
        }
      ],
      "name": "OwnershipTransferred",
      "type": "event"
    },
    {
      "anonymous": false,
      "inputs": [
        {
          "indexed": false,
          "internalType": "uint256",
          "name": "reward",
          "type": "uint256"
        }
      ],
      "name": "RewardAdded",
      "type": "event"
    },
    {
      "anonymous": false,
      "inputs": [
        {
          "indexed": true,
          "internalType": "address",
          "name": "user",
          "type": "address"
        },
        {
          "indexed": false,
          "internalType": "uint256",
          "name": "reward",
          "type": "uint256"
        }
      ],
      "name": "RewardPaid",
      "type": "event"
    },
    {
      "anonymous": false,
      "inputs": [
        {
          "indexed": true,
          "internalType": "address",
          "name": "user",
          "type": "address"
        },
        {
          "indexed": false,
          "internalType": "uint256",
          "name": "amount",
          "type": "uint256"
        }
      ],
      "name": "Staked",
      "type": "event"
    },
    {
      "anonymous": false,
      "inputs": [
        {
          "indexed": true,
          "internalType": "address",
          "name": "user",
          "type": "address"
        },
        {
          "indexed": false,
          "internalType": "uint256",
          "name": "amount",
          "type": "uint256"
        }
      ],
      "name": "Withdrawn",
      "type": "event"
    },
    {
      "constant": true,
      "inputs": [],
      "name": "BONUS_MULTIPLIER",
      "outputs": [
        {
          "internalType": "uint256",
          "name": "",
          "type": "uint256"
        }
      ],
      "payable": false,
      "stateMutability": "view",
      "type": "function"
    },
    {
      "constant": true,
      "inputs": [],
      "name": "BRET",
      "outputs": [
        {
          "internalType": "contract IERC20",
          "name": "",
          "type": "address"
        }
      ],
      "payable": false,
      "stateMutability": "view",
      "type": "function"
    },
    {
      "constant": true,
      "inputs": [],
      "name": "DURATION",
      "outputs": [
        {
          "internalType": "uint256",
          "name": "",
          "type": "uint256"
        }
      ],
      "payable": false,
      "stateMutability": "view",
      "type": "function"
    },
    {
      "constant": true,
      "inputs": [],
      "name": "REFERRAL_COMMISSION_PERCENT",
      "outputs": [
        {
          "internalType": "uint256",
          "name": "",
          "type": "uint256"
        }
      ],
      "payable": false,
      "stateMutability": "view",
      "type": "function"
    },
    {
      "constant": true,
      "inputs": [
        {
          "internalType": "address",
          "name": "account",
          "type": "address"
        }
      ],
      "name": "balanceOf",
      "outputs": [
        {
          "internalType": "uint256",
          "name": "",
          "type": "uint256"
        }
      ],
      "payable": false,
      "stateMutability": "view",
      "type": "function"
    },
    {
      "constant": false,
      "inputs": [
        {
          "internalType": "address",
          "name": "_devAddr",
          "type": "address"
        }
      ],
      "name": "dev",
      "outputs": [],
      "payable": false,
      "stateMutability": "nonpayable",
      "type": "function"
    },
    {
      "constant": true,
      "inputs": [],
      "name": "devAddr",
      "outputs": [
        {
          "internalType": "address",
          "name": "",
          "type": "address"
        }
      ],
      "payable": false,
      "stateMutability": "view",
      "type": "function"
    },
    {
      "constant": true,
      "inputs": [
        {
          "internalType": "address",
          "name": "account",
          "type": "address"
        }
      ],
      "name": "earned",
      "outputs": [
        {
          "internalType": "uint256",
          "name": "",
          "type": "uint256"
        }
      ],
      "payable": false,
      "stateMutability": "view",
      "type": "function"
    },
    {
      "constant": false,
      "inputs": [],
      "name": "exit",
      "outputs": [],
      "payable": false,
      "stateMutability": "nonpayable",
      "type": "function"
    },
    {
      "constant": false,
      "inputs": [],
      "name": "getReward",
      "outputs": [],
      "payable": false,
      "stateMutability": "nonpayable",
      "type": "function"
    },
    {
      "constant": false,
      "inputs": [
        {
          "internalType": "contract IERC20",
          "name": "_token",
          "type": "address"
        },
        {
          "internalType": "uint256",
          "name": "amount",
          "type": "uint256"
        },
        {
          "internalType": "address",
          "name": "to",
          "type": "address"
        }
      ],
      "name": "governanceRecoverUnsupported",
      "outputs": [],
      "payable": false,
      "stateMutability": "nonpayable",
      "type": "function"
    },
    {
      "constant": true,
      "inputs": [],
      "name": "initreward",
      "outputs": [
        {
          "internalType": "uint256",
          "name": "",
          "type": "uint256"
        }
      ],
      "payable": false,
      "stateMutability": "view",
      "type": "function"
    },
    {
      "constant": true,
      "inputs": [],
      "name": "isOwner",
      "outputs": [
        {
          "internalType": "bool",
          "name": "",
          "type": "bool"
        }
      ],
      "payable": false,
      "stateMutability": "view",
      "type": "function"
    },
    {
      "constant": true,
      "inputs": [],
      "name": "lastTimeRewardApplicable",
      "outputs": [
        {
          "internalType": "uint256",
          "name": "",
          "type": "uint256"
        }
      ],
      "payable": false,
      "stateMutability": "view",
      "type": "function"
    },
    {
      "constant": true,
      "inputs": [],
      "name": "lastUpdateTime",
      "outputs": [
        {
          "internalType": "uint256",
          "name": "",
          "type": "uint256"
        }
      ],
      "payable": false,
      "stateMutability": "view",
      "type": "function"
    },
    {
      "constant": true,
      "inputs": [],
      "name": "lpt",
      "outputs": [
        {
          "internalType": "contract IERC20",
          "name": "",
          "type": "address"
        }
      ],
      "payable": false,
      "stateMutability": "view",
      "type": "function"
    },
    {
      "constant": false,
      "inputs": [
        {
          "internalType": "uint256",
          "name": "reward",
          "type": "uint256"
        }
      ],
      "name": "notifyRewardAmount",
      "outputs": [],
      "payable": false,
      "stateMutability": "nonpayable",
      "type": "function"
    },
    {
      "constant": true,
      "inputs": [],
      "name": "owner",
      "outputs": [
        {
          "internalType": "address",
          "name": "",
          "type": "address"
        }
      ],
      "payable": false,
      "stateMutability": "view",
      "type": "function"
    },
    {
      "constant": true,
      "inputs": [],
      "name": "periodFinish",
      "outputs": [
        {
          "internalType": "uint256",
          "name": "",
          "type": "uint256"
        }
      ],
      "payable": false,
      "stateMutability": "view",
      "type": "function"
    },
    {
      "constant": false,
      "inputs": [],
      "name": "renounceOwnership",
      "outputs": [],
      "payable": false,
      "stateMutability": "nonpayable",
      "type": "function"
    },
    {
      "constant": true,
      "inputs": [],
      "name": "rewardPerToken",
      "outputs": [
        {
          "internalType": "uint256",
          "name": "",
          "type": "uint256"
        }
      ],
      "payable": false,
      "stateMutability": "view",
      "type": "function"
    },
    {
      "constant": true,
      "inputs": [],
      "name": "rewardPerTokenStored",
      "outputs": [
        {
          "internalType": "uint256",
          "name": "",
          "type": "uint256"
        }
      ],
      "payable": false,
      "stateMutability": "view",
      "type": "function"
    },
    {
      "constant": true,
      "inputs": [],
      "name": "rewardRate",
      "outputs": [
        {
          "internalType": "uint256",
          "name": "",
          "type": "uint256"
        }
      ],
      "payable": false,
      "stateMutability": "view",
      "type": "function"
    },
    {
      "constant": true,
      "inputs": [],
      "name": "rewardReferral",
      "outputs": [
        {
          "internalType": "address",
          "name": "",
          "type": "address"
        }
      ],
      "payable": false,
      "stateMutability": "view",
      "type": "function"
    },
    {
      "constant": true,
      "inputs": [
        {
          "internalType": "address",
          "name": "",
          "type": "address"
        }
      ],
      "name": "rewards",
      "outputs": [
        {
          "internalType": "uint256",
          "name": "",
          "type": "uint256"
        }
      ],
      "payable": false,
      "stateMutability": "view",
      "type": "function"
    },
    {
      "constant": false,
      "inputs": [
        {
          "internalType": "address",
          "name": "_rewardDistribution",
          "type": "address"
        }
      ],
      "name": "setRewardDistribution",
      "outputs": [],
      "payable": false,
      "stateMutability": "nonpayable",
      "type": "function"
    },
    {
      "constant": false,
      "inputs": [
        {
          "internalType": "address",
          "name": "_rewardReferral",
          "type": "address"
        }
      ],
      "name": "setRewardReferral",
      "outputs": [],
      "payable": false,
      "stateMutability": "nonpayable",
      "type": "function"
    },
    {
      "constant": false,
      "inputs": [
        {
          "internalType": "uint256",
          "name": "amount",
          "type": "uint256"
        },
        {
          "internalType": "address",
          "name": "referrer",
          "type": "address"
        }
      ],
      "name": "stake",
      "outputs": [],
      "payable": false,
      "stateMutability": "nonpayable",
      "type": "function"
    },
    {
      "constant": false,
      "inputs": [
        {
          "internalType": "uint256",
          "name": "amount",
          "type": "uint256"
        }
      ],
      "name": "stake",
      "outputs": [],
      "payable": false,
      "stateMutability": "nonpayable",
      "type": "function"
    },
    {
      "constant": true,
      "inputs": [],
      "name": "starttime",
      "outputs": [
        {
          "internalType": "uint256",
          "name": "",
          "type": "uint256"
        }
      ],
      "payable": false,
      "stateMutability": "view",
      "type": "function"
    },
    {
      "constant": true,
      "inputs": [],
      "name": "totalSupply",
      "outputs": [
        {
          "internalType": "uint256",
          "name": "",
          "type": "uint256"
        }
      ],
      "payable": false,
      "stateMutability": "view",
      "type": "function"
    },
    {
      "constant": false,
      "inputs": [
        {
          "internalType": "address",
          "name": "newOwner",
          "type": "address"
        }
      ],
      "name": "transferOwnership",
      "outputs": [],
      "payable": false,
      "stateMutability": "nonpayable",
      "type": "function"
    },
    {
      "constant": true,
      "inputs": [
        {
          "internalType": "address",
          "name": "",
          "type": "address"
        }
      ],
      "name": "userRewardPerTokenPaid",
      "outputs": [
        {
          "internalType": "uint256",
          "name": "",
          "type": "uint256"
        }
      ],
      "payable": false,
      "stateMutability": "view",
      "type": "function"
    },
    {
      "constant": false,
      "inputs": [
        {
          "internalType": "uint256",
          "name": "amount",
          "type": "uint256"
        }
      ],
      "name": "withdraw",
      "outputs": [],
      "payable": false,
      "stateMutability": "nonpayable",
      "type": "function"
    }
  ],
  "bytecode": "0x60806040526000600a556000600b5534801561001a57600080fd5b506040516200297838038062002978833981810160405260e081101561003f57600080fd5b508051602082015160408301516060840151608085015160a086015160c0909601519495939492939192909190868660008585856100846001600160e01b0361013e16565b600380546001600160a01b0319166001600160a01b0392831617908190556040519116906000907f8be0079c531659141344cd1fd0a4f28419497f9722a3daafe3b4186f6b6457e0908290a3600680546001600160a01b039788166001600160a01b0319918216179091556000805495881695821695909517909455600580549587169585169590951790945560048054841633179055600791909155600855600980549290931691161790555061014295505050505050565b3390565b61282680620001526000396000f3fe608060405234801561001057600080fd5b50600436106102245760003560e01c80638aa285501161012a578063a694fc3a116100bd578063da09c72c1161008c578063e9fad8ee11610071578063e9fad8ee1461054a578063ebe2b12b14610552578063f2fde38b1461055a57610224565b8063da09c72c1461053a578063df136d651461054257610224565b8063a694fc3a14610505578063c8f33c9114610522578063cd3daf9d1461052a578063ce5fc8d01461053257610224565b80638da5cb5b116100f95780638da5cb5b146104d15780638f32d59b146104d95780639a271b92146104f55780639c907b58146104fd57610224565b80638aa285501461045b5780638b876347146104635780638d88a90e146104965780638da58897146104c957610224565b80633c6b16ab116101bd57806370a082311161018c5780637acb7757116101715780637acb7757146104125780637b0a47ee1461044b57806380faa57d1461045357610224565b806370a08231146103d7578063715018a61461040a57610224565b80633c6b16ab146103675780633d18b9121461038457806353220a421461038c57806354575af41461039457610224565b80630d68b761116101f95780630d68b7611461030757806318160ddd1461033a5780631be05289146103425780632e1a7d4d1461034a57610224565b80622dcfb9146102295780628cc2621461025e5780630700037d146102a35780630cdb43c4146102d6575b600080fd5b61025c6004803603602081101561023f57600080fd5b503573ffffffffffffffffffffffffffffffffffffffff1661058d565b005b6102916004803603602081101561027457600080fd5b503573ffffffffffffffffffffffffffffffffffffffff16610647565b60408051918252519081900360200190f35b610291600480360360208110156102b957600080fd5b503573ffffffffffffffffffffffffffffffffffffffff16610794565b6102de6107a6565b6040805173ffffffffffffffffffffffffffffffffffffffff9092168252519081900360200190f35b61025c6004803603602081101561031d57600080fd5b503573ffffffffffffffffffffffffffffffffffffffff166107c2565b61029161087c565b610291610883565b61025c6004803603602081101561036057600080fd5b503561088a565b61025c6004803603602081101561037d57600080fd5b5035610a22565b61025c610eea565b6102916114ce565b61025c600480360360608110156103aa57600080fd5b5073ffffffffffffffffffffffffffffffffffffffff8135811691602081013591604090910135166114d3565b610291600480360360208110156103ed57600080fd5b503573ffffffffffffffffffffffffffffffffffffffff166116b4565b61025c6116dc565b61025c6004803603604081101561042857600080fd5b508035906020013573ffffffffffffffffffffffffffffffffffffffff166117be565b610291611c6f565b610291611c75565b610291611c88565b6102916004803603602081101561047957600080fd5b503573ffffffffffffffffffffffffffffffffffffffff16611c8d565b61025c600480360360208110156104ac57600080fd5b503573ffffffffffffffffffffffffffffffffffffffff16611c9f565b610291611d6c565b6102de611d72565b6104e1611d8e565b604080519115158252519081900360200190f35b6102de611dce565b610291611dea565b61025c6004803603602081101561051b57600080fd5b5035611df0565b610291611e62565b610291611e68565b6102de611ebc565b6102de611ed8565b610291611ef4565b61025c611efa565b610291611f15565b61025c6004803603602081101561057057600080fd5b503573ffffffffffffffffffffffffffffffffffffffff16611f1b565b610595611d8e565b61060057604080517f08c379a000000000000000000000000000000000000000000000000000000000815260206004820181905260248201527f4f776e61626c653a2063616c6c6572206973206e6f7420746865206f776e6572604482015290519081900360640190fd5b600580547fffffffffffffffffffffffff00000000000000000000000000000000000000001673ffffffffffffffffffffffffffffffffffffffff92909216919091179055565b73ffffffffffffffffffffffffffffffffffffffff81166000908152600f6020908152604080832054600e90925282205482916106d5916106c990670de0b6b3a7640000906106bd906106a89061069c611e68565b9063ffffffff611f9716565b6106b1896116b4565b9063ffffffff611fe216565b9063ffffffff61205516565b9063ffffffff61209716565b600654604080517f70a08231000000000000000000000000000000000000000000000000000000008152306004820152905192935060009273ffffffffffffffffffffffffffffffffffffffff909216916370a0823191602480820192602092909190829003018186803b15801561074c57600080fd5b505afa158015610760573d6000803e3d6000fd5b505050506040513d602081101561077657600080fd5b505190508082111561078b57915061078f9050565b5090505b919050565b600f6020526000908152604090205481565b60055473ffffffffffffffffffffffffffffffffffffffff1681565b6107ca611d8e565b61083557604080517f08c379a000000000000000000000000000000000000000000000000000000000815260206004820181905260248201527f4f776e61626c653a2063616c6c6572206973206e6f7420746865206f776e6572604482015290519081900360640190fd5b600480547fffffffffffffffffffffffff00000000000000000000000000000000000000001673ffffffffffffffffffffffffffffffffffffffff92909216919091179055565b6001545b90565b6212750081565b33610893611e68565b600d5561089e611c75565b600c5573ffffffffffffffffffffffffffffffffffffffff8116156108ff576108c681610647565b73ffffffffffffffffffffffffffffffffffffffff82166000908152600f6020908152604080832093909355600d54600e909152919020555b60085442101561097057604080517f08c379a000000000000000000000000000000000000000000000000000000000815260206004820152600960248201527f6e6f742073746172740000000000000000000000000000000000000000000000604482015290519081900360640190fd5b600082116109df57604080517f08c379a000000000000000000000000000000000000000000000000000000000815260206004820152601160248201527f43616e6e6f742077697468647261772030000000000000000000000000000000604482015290519081900360640190fd5b6109e88261210b565b60408051838152905133917f7084f5476618d8e60b11ef0d7d3f06914655adb8793e28ff7f018d4c76d505d5919081900360200190a25050565b60045473ffffffffffffffffffffffffffffffffffffffff16610a43612179565b73ffffffffffffffffffffffffffffffffffffffff1614610aaf576040517f08c379a00000000000000000000000000000000000000000000000000000000081526004018080602001828103825260218152602001806127a76021913960400191505060405180910390fd5b6000610ab9611e68565b600d55610ac4611c75565b600c5573ffffffffffffffffffffffffffffffffffffffff811615610b2557610aec81610647565b73ffffffffffffffffffffffffffffffffffffffff82166000908152600f6020908152604080832093909355600d54600e909152919020555b600854421115610bf557600a544210610b5357610b4b826212750063ffffffff61205516565b600b55610ba1565b600a54600090610b69904263ffffffff611f9716565b90506000610b82600b5483611fe290919063ffffffff16565b9050610b9b621275006106bd868463ffffffff61209716565b600b5550505b42600c819055610bba906212750063ffffffff61209716565b600a556040805183815290517fde88a922e0d3b88b24e9623efeb464919c6bf9f66857a65e2bfcf2ce87a9433d9181900360200190a1610ee6565b600654604080517f70a08231000000000000000000000000000000000000000000000000000000008152306004820152905173ffffffffffffffffffffffffffffffffffffffff909216916370a0823191602480820192602092909190829003018186803b158015610c6657600080fd5b505afa158015610c7a573d6000803e3d6000fd5b505050506040513d6020811015610c9057600080fd5b505115610cfe57604080517f08c379a000000000000000000000000000000000000000000000000000000000815260206004820152601360248201527f616c726561647920696e697469616c697a656400000000000000000000000000604482015290519081900360640190fd5b60065460075473ffffffffffffffffffffffffffffffffffffffff909116906340c10f19903090610d3690600a63ffffffff611fe216565b6040518363ffffffff1660e01b8152600401808373ffffffffffffffffffffffffffffffffffffffff1673ffffffffffffffffffffffffffffffffffffffff16815260200182815260200192505050600060405180830381600087803b158015610d9f57600080fd5b505af1158015610db3573d6000803e3d6000fd5b505060065460095460075473ffffffffffffffffffffffffffffffffffffffff92831694506340c10f199350911690610df990600a906106bd908263ffffffff611fe216565b6040518363ffffffff1660e01b8152600401808373ffffffffffffffffffffffffffffffffffffffff1673ffffffffffffffffffffffffffffffffffffffff16815260200182815260200192505050600060405180830381600087803b158015610e6257600080fd5b505af1158015610e76573d6000803e3d6000fd5b5050600754610e91925090506212750063ffffffff61205516565b600b55600854600c819055610eaf906212750063ffffffff61209716565b600a556040805183815290517fde88a922e0d3b88b24e9623efeb464919c6bf9f66857a65e2bfcf2ce87a9433d9181900360200190a15b5050565b33610ef3611e68565b600d55610efe611c75565b600c5573ffffffffffffffffffffffffffffffffffffffff811615610f5f57610f2681610647565b73ffffffffffffffffffffffffffffffffffffffff82166000908152600f6020908152604080832093909355600d54600e909152919020555b600a54421061111f57600654600754604080517f40c10f1900000000000000000000000000000000000000000000000000000000815230600482015260248101929092525173ffffffffffffffffffffffffffffffffffffffff909216916340c10f199160448082019260009290919082900301818387803b158015610fe457600080fd5b505af1158015610ff8573d6000803e3d6000fd5b505060065460095460075473ffffffffffffffffffffffffffffffffffffffff92831694506340c10f19935091169061103890600a63ffffffff61205516565b6040518363ffffffff1660e01b8152600401808373ffffffffffffffffffffffffffffffffffffffff1673ffffffffffffffffffffffffffffffffffffffff16815260200182815260200192505050600060405180830381600087803b1580156110a157600080fd5b505af11580156110b5573d6000803e3d6000fd5b50506007546110d0925090506212750063ffffffff61205516565b600b556110e6426212750063ffffffff61209716565b600a5560075460408051918252517fde88a922e0d3b88b24e9623efeb464919c6bf9f66857a65e2bfcf2ce87a9433d9181900360200190a15b60085442101561119057604080517f08c379a000000000000000000000000000000000000000000000000000000000815260206004820152600960248201527f6e6f742073746172740000000000000000000000000000000000000000000000604482015290519081900360640190fd5b600061119b33610647565b90508015610ee657336000908152600f602052604081208190556111cb60646106bd84606363ffffffff611fe216565b600654909150818303906111fc9073ffffffffffffffffffffffffffffffffffffffff16338463ffffffff61217d16565b60408051838152905133917fe2403640ba68fed3a2f88b7557551d1993f84b99bb10ff833f0cf8db0c5e0486919081900360200190a260055460009073ffffffffffffffffffffffffffffffffffffffff16156112f357600554604080517f4a9fefc7000000000000000000000000000000000000000000000000000000008152336004820152905173ffffffffffffffffffffffffffffffffffffffff90921691634a9fefc791602480820192602092909190829003018186803b1580156112c457600080fd5b505afa1580156112d8573d6000803e3d6000fd5b505050506040513d60208110156112ee57600080fd5b505190505b73ffffffffffffffffffffffffffffffffffffffff811615611407576006546113399073ffffffffffffffffffffffffffffffffffffffff16828463ffffffff61217d16565b600554604080517fe6796aaa00000000000000000000000000000000000000000000000000000000815273ffffffffffffffffffffffffffffffffffffffff8481166004830152602482018690529151919092169163e6796aaa91604480830192600092919082900301818387803b1580156113b457600080fd5b505af11580156113c8573d6000803e3d6000fd5b50506040805185815290513393507fe2403640ba68fed3a2f88b7557551d1993f84b99bb10ff833f0cf8db0c5e048692509081900360200190a26114c7565b600654604080517f42966c6800000000000000000000000000000000000000000000000000000000815260048101859052905173ffffffffffffffffffffffffffffffffffffffff909216916342966c689160248082019260009290919082900301818387803b15801561147a57600080fd5b505af115801561148e573d6000803e3d6000fd5b50506040805185815290517fd83c63197e8e676d80ab0122beba9a9d20f3828839e9a1d6fe81d242e9cd7e6e9350908190036020019150a15b5050505050565b600181565b6114db611d72565b73ffffffffffffffffffffffffffffffffffffffff163373ffffffffffffffffffffffffffffffffffffffff161461157457604080517f08c379a000000000000000000000000000000000000000000000000000000000815260206004820152600b60248201527f21676f7665726e616e6365000000000000000000000000000000000000000000604482015290519081900360640190fd5b60005473ffffffffffffffffffffffffffffffffffffffff848116911614156115fe57604080517f08c379a000000000000000000000000000000000000000000000000000000000815260206004820152601260248201527f43616e6e6f74207265636f766572206c70740000000000000000000000000000604482015290519081900360640190fd5b60065473ffffffffffffffffffffffffffffffffffffffff8481169116141561168857604080517f08c379a000000000000000000000000000000000000000000000000000000000815260206004820152601360248201527f43616e6e6f74207265636f766572204252455400000000000000000000000000604482015290519081900360640190fd5b6116af73ffffffffffffffffffffffffffffffffffffffff8416828463ffffffff61217d16565b505050565b73ffffffffffffffffffffffffffffffffffffffff1660009081526002602052604090205490565b6116e4611d8e565b61174f57604080517f08c379a000000000000000000000000000000000000000000000000000000000815260206004820181905260248201527f4f776e61626c653a2063616c6c6572206973206e6f7420746865206f776e6572604482015290519081900360640190fd5b60035460405160009173ffffffffffffffffffffffffffffffffffffffff16907f8be0079c531659141344cd1fd0a4f28419497f9722a3daafe3b4186f6b6457e0908390a3600380547fffffffffffffffffffffffff0000000000000000000000000000000000000000169055565b336117c7611e68565b600d556117d2611c75565b600c5573ffffffffffffffffffffffffffffffffffffffff811615611833576117fa81610647565b73ffffffffffffffffffffffffffffffffffffffff82166000908152600f6020908152604080832093909355600d54600e909152919020555b600a5442106119f357600654600754604080517f40c10f1900000000000000000000000000000000000000000000000000000000815230600482015260248101929092525173ffffffffffffffffffffffffffffffffffffffff909216916340c10f199160448082019260009290919082900301818387803b1580156118b857600080fd5b505af11580156118cc573d6000803e3d6000fd5b505060065460095460075473ffffffffffffffffffffffffffffffffffffffff92831694506340c10f19935091169061190c90600a63ffffffff61205516565b6040518363ffffffff1660e01b8152600401808373ffffffffffffffffffffffffffffffffffffffff1673ffffffffffffffffffffffffffffffffffffffff16815260200182815260200192505050600060405180830381600087803b15801561197557600080fd5b505af1158015611989573d6000803e3d6000fd5b50506007546119a4925090506212750063ffffffff61205516565b600b556119ba426212750063ffffffff61209716565b600a5560075460408051918252517fde88a922e0d3b88b24e9623efeb464919c6bf9f66857a65e2bfcf2ce87a9433d9181900360200190a15b600854421015611a6457604080517f08c379a000000000000000000000000000000000000000000000000000000000815260206004820152600960248201527f6e6f742073746172740000000000000000000000000000000000000000000000604482015290519081900360640190fd5b60008311611ad357604080517f08c379a000000000000000000000000000000000000000000000000000000000815260206004820152600e60248201527f43616e6e6f74207374616b652030000000000000000000000000000000000000604482015290519081900360640190fd5b73ffffffffffffffffffffffffffffffffffffffff8216331415611b5857604080517f08c379a000000000000000000000000000000000000000000000000000000000815260206004820152601960248201527f596f752063616e6e6f7420726566657220796f757273656c6600000000000000604482015290519081900360640190fd5b611b6183611df0565b60408051848152905133917f9e71bc8eea02a63969f509818f2dafb9254532904319f9dbda79b67bd34a5f3d919081900360200190a260055473ffffffffffffffffffffffffffffffffffffffff1615801590611bd3575073ffffffffffffffffffffffffffffffffffffffff821615155b156116af57600554604080517fbbddaca300000000000000000000000000000000000000000000000000000000815233600482015273ffffffffffffffffffffffffffffffffffffffff85811660248301529151919092169163bbddaca391604480830192600092919082900301818387803b158015611c5257600080fd5b505af1158015611c66573d6000803e3d6000fd5b50505050505050565b600b5481565b6000611c8342600a5461220a565b905090565b600a81565b600e6020526000908152604090205481565b60095473ffffffffffffffffffffffffffffffffffffffff163314611d2557604080517f08c379a000000000000000000000000000000000000000000000000000000000815260206004820152600960248201527f6465763a207775743f0000000000000000000000000000000000000000000000604482015290519081900360640190fd5b600980547fffffffffffffffffffffffff00000000000000000000000000000000000000001673ffffffffffffffffffffffffffffffffffffffff92909216919091179055565b60085481565b60035473ffffffffffffffffffffffffffffffffffffffff1690565b60035460009073ffffffffffffffffffffffffffffffffffffffff16611db2612179565b73ffffffffffffffffffffffffffffffffffffffff1614905090565b60065473ffffffffffffffffffffffffffffffffffffffff1681565b60075481565b600154611e03908263ffffffff61209716565b60015533600090815260026020526040902054611e26908263ffffffff61209716565b336000818152600260205260408120929092559054611e5f9173ffffffffffffffffffffffffffffffffffffffff909116903084612220565b50565b600c5481565b6000611e7261087c565b611e7f5750600d54610880565b611c83611ead611e8d61087c565b6106bd670de0b6b3a76400006106b1600b546106b1600c5461069c611c75565b600d549063ffffffff61209716565b60005473ffffffffffffffffffffffffffffffffffffffff1681565b60095473ffffffffffffffffffffffffffffffffffffffff1681565b600d5481565b611f0b611f06336116b4565b61088a565b611f13610eea565b565b600a5481565b611f23611d8e565b611f8e57604080517f08c379a000000000000000000000000000000000000000000000000000000000815260206004820181905260248201527f4f776e61626c653a2063616c6c6572206973206e6f7420746865206f776e6572604482015290519081900360640190fd5b611e5f816122bb565b6000611fd983836040518060400160405280601e81526020017f536166654d6174683a207375627472616374696f6e206f766572666c6f7700008152506123b5565b90505b92915050565b600082611ff157506000611fdc565b82820282848281611ffe57fe5b0414611fd9576040517f08c379a00000000000000000000000000000000000000000000000000000000081526004018080602001828103825260218152602001806127866021913960400191505060405180910390fd5b6000611fd983836040518060400160405280601a81526020017f536166654d6174683a206469766973696f6e206279207a65726f000000000000815250612466565b600082820183811015611fd957604080517f08c379a000000000000000000000000000000000000000000000000000000000815260206004820152601b60248201527f536166654d6174683a206164646974696f6e206f766572666c6f770000000000604482015290519081900360640190fd5b60015461211e908263ffffffff611f9716565b60015533600090815260026020526040902054612141908263ffffffff611f9716565b336000818152600260205260408120929092559054611e5f9173ffffffffffffffffffffffffffffffffffffffff909116908361217d565b3390565b6040805173ffffffffffffffffffffffffffffffffffffffff8416602482015260448082018490528251808303909101815260649091019091526020810180517bffffffffffffffffffffffffffffffffffffffffffffffffffffffff167fa9059cbb000000000000000000000000000000000000000000000000000000001790526116af9084906124e5565b60008183106122195781611fd9565b5090919050565b6040805173ffffffffffffffffffffffffffffffffffffffff85811660248301528416604482015260648082018490528251808303909101815260849091019091526020810180517bffffffffffffffffffffffffffffffffffffffffffffffffffffffff167f23b872dd000000000000000000000000000000000000000000000000000000001790526122b59085906124e5565b50505050565b73ffffffffffffffffffffffffffffffffffffffff8116612327576040517f08c379a00000000000000000000000000000000000000000000000000000000081526004018080602001828103825260268152602001806127606026913960400191505060405180910390fd5b60035460405173ffffffffffffffffffffffffffffffffffffffff8084169216907f8be0079c531659141344cd1fd0a4f28419497f9722a3daafe3b4186f6b6457e090600090a3600380547fffffffffffffffffffffffff00000000000000000000000000000000000000001673ffffffffffffffffffffffffffffffffffffffff92909216919091179055565b6000818484111561245e576040517f08c379a00000000000000000000000000000000000000000000000000000000081526004018080602001828103825283818151815260200191508051906020019080838360005b8381101561242357818101518382015260200161240b565b50505050905090810190601f1680156124505780820380516001836020036101000a031916815260200191505b509250505060405180910390fd5b505050900390565b600081836124cf576040517f08c379a000000000000000000000000000000000000000000000000000000000815260206004820181815283516024840152835190928392604490910191908501908083836000831561242357818101518382015260200161240b565b5060008385816124db57fe5b0495945050505050565b6125048273ffffffffffffffffffffffffffffffffffffffff16612723565b61256f57604080517f08c379a000000000000000000000000000000000000000000000000000000000815260206004820152601f60248201527f5361666545524332303a2063616c6c20746f206e6f6e2d636f6e747261637400604482015290519081900360640190fd5b600060608373ffffffffffffffffffffffffffffffffffffffff16836040518082805190602001908083835b602083106125d857805182527fffffffffffffffffffffffffffffffffffffffffffffffffffffffffffffffe0909201916020918201910161259b565b6001836020036101000a0380198251168184511680821785525050505050509050019150506000604051808303816000865af19150503d806000811461263a576040519150601f19603f3d011682016040523d82523d6000602084013e61263f565b606091505b5091509150816126b057604080517f08c379a000000000000000000000000000000000000000000000000000000000815260206004820181905260248201527f5361666545524332303a206c6f772d6c6576656c2063616c6c206661696c6564604482015290519081900360640190fd5b8051156122b5578080602001905160208110156126cc57600080fd5b50516122b5576040517f08c379a000000000000000000000000000000000000000000000000000000000815260040180806020018281038252602a8152602001806127c8602a913960400191505060405180910390fd5b6000813f7fc5d2460186f7233c927e7db2dcc703c0e500b653ca82273b7bfad8045d85a47081158015906127575750808214155b94935050505056fe4f776e61626c653a206e6577206f776e657220697320746865207a65726f2061646472657373536166654d6174683a206d756c7469706c69636174696f6e206f766572666c6f7743616c6c6572206973206e6f742072657761726420646973747269627574696f6e5361666545524332303a204552433230206f7065726174696f6e20646964206e6f742073756363656564a265627a7a7231582064b8a653b959c1428adc5c228d2a35d7f850bc67680035163f8ea68a3ea8cdbb64736f6c63430005100032",
  "source": "pragma solidity 0.5.16;\n\nimport \"../../pools/LiquidityRewardPoolWithBonus.sol\";\n\ncontract nUSD_BRET_Pool is LiquidityRewardPoolWithBonus {\n    constructor (\n        address _BRET,\n        address _rewardReferral,\n        uint256 _DURATION,\n        uint256 _BONUS_ENDTIME,\n        uint256 _initiReward,\n        uint256 _starttime,\n        address _devAddr\n    )\n        LiquidityRewardPoolWithBonus (\n            _BRET,\n            _rewardReferral,\n            address(0), // nUSD-BRET BPT\n            _initiReward,\n            _starttime,\n            _devAddr\n        )\n        public\n    {\n    }\n}\n",
  "sourcePath": "/Users/mhe70/my-workspace/bretton-protocol/contracts/deployments/LPPools/nUSD_BRET_Pool.sol",
  "compiler": {
    "name": "solc",
    "version": "0.5.16+commit.9c3226ce.Emscripten.clang"
  },
  "schemaVersion": "3.2.3",
  "updatedAt": "2020-09-03T06:53:17.873Z",
  "devdoc": {
    "methods": {
      "isOwner()": {
        "details": "Returns true if the caller is the current owner."
      },
      "owner()": {
        "details": "Returns the address of the current owner."
      },
      "renounceOwnership()": {
        "details": "Leaves the contract without owner. It will not be possible to call `onlyOwner` functions anymore. Can only be called by the current owner.     * NOTE: Renouncing ownership will leave the contract without an owner, thereby removing any functionality that is only available to the owner."
      },
      "transferOwnership(address)": {
        "details": "Transfers ownership of the contract to a new account (`newOwner`). Can only be called by the current owner."
      }
    }
  },
  "userdoc": {
    "methods": {}
  }
}