{
  "contractName": "Referral",
  "abi": [
    {
      "inputs": [],
      "payable": false,
      "stateMutability": "nonpayable",
      "type": "constructor"
    },
    {
      "anonymous": false,
      "inputs": [
        {
          "indexed": false,
          "internalType": "address",
          "name": "token",
          "type": "address"
        },
        {
          "indexed": false,
          "internalType": "address",
          "name": "owner",
          "type": "address"
        },
        {
          "indexed": false,
          "internalType": "uint256",
          "name": "amount",
          "type": "uint256"
        }
      ],
      "name": "EmergencyERC20Drain",
      "type": "event"
    },
    {
      "anonymous": false,
      "inputs": [
        {
          "indexed": true,
          "internalType": "address",
          "name": "referrer",
          "type": "address"
        },
        {
          "indexed": true,
          "internalType": "address",
          "name": "farmer",
          "type": "address"
        }
      ],
      "name": "NewReferral",
      "type": "event"
    },
    {
      "constant": true,
      "inputs": [
        {
          "internalType": "address",
          "name": "",
          "type": "address"
        }
      ],
      "name": "isAdmin",
      "outputs": [
        {
          "internalType": "bool",
          "name": "",
          "type": "bool"
        }
      ],
      "payable": false,
      "stateMutability": "view",
      "type": "function"
    },
    {
      "constant": true,
      "inputs": [],
      "name": "owner",
      "outputs": [
        {
          "internalType": "address",
          "name": "",
          "type": "address"
        }
      ],
      "payable": false,
      "stateMutability": "view",
      "type": "function"
    },
    {
      "constant": true,
      "inputs": [
        {
          "internalType": "address",
          "name": "",
          "type": "address"
        }
      ],
      "name": "referredCount",
      "outputs": [
        {
          "internalType": "uint256",
          "name": "",
          "type": "uint256"
        }
      ],
      "payable": false,
      "stateMutability": "view",
      "type": "function"
    },
    {
      "constant": true,
      "inputs": [
        {
          "internalType": "address",
          "name": "",
          "type": "address"
        },
        {
          "internalType": "uint256",
          "name": "",
          "type": "uint256"
        }
      ],
      "name": "referredList",
      "outputs": [
        {
          "internalType": "address",
          "name": "",
          "type": "address"
        }
      ],
      "payable": false,
      "stateMutability": "view",
      "type": "function"
    },
    {
      "constant": true,
      "inputs": [
        {
          "internalType": "address",
          "name": "",
          "type": "address"
        }
      ],
      "name": "referrerEarning",
      "outputs": [
        {
          "internalType": "uint256",
          "name": "",
          "type": "uint256"
        }
      ],
      "payable": false,
      "stateMutability": "view",
      "type": "function"
    },
    {
      "constant": true,
      "inputs": [
        {
          "internalType": "address",
          "name": "",
          "type": "address"
        }
      ],
      "name": "referrers",
      "outputs": [
        {
          "internalType": "address",
          "name": "",
          "type": "address"
        }
      ],
      "payable": false,
      "stateMutability": "view",
      "type": "function"
    },
    {
      "constant": false,
      "inputs": [
        {
          "internalType": "address",
          "name": "_nextOwner",
          "type": "address"
        }
      ],
      "name": "approveNextOwner",
      "outputs": [],
      "payable": false,
      "stateMutability": "nonpayable",
      "type": "function"
    },
    {
      "constant": false,
      "inputs": [],
      "name": "acceptNextOwner",
      "outputs": [],
      "payable": false,
      "stateMutability": "nonpayable",
      "type": "function"
    },
    {
      "constant": false,
      "inputs": [
        {
          "internalType": "address",
          "name": "farmer",
          "type": "address"
        },
        {
          "internalType": "address",
          "name": "referrer",
          "type": "address"
        }
      ],
      "name": "setReferrer",
      "outputs": [],
      "payable": false,
      "stateMutability": "nonpayable",
      "type": "function"
    },
    {
      "constant": false,
      "inputs": [
        {
          "internalType": "address",
          "name": "referrer",
          "type": "address"
        },
        {
          "internalType": "uint256",
          "name": "earning",
          "type": "uint256"
        }
      ],
      "name": "addEarning",
      "outputs": [],
      "payable": false,
      "stateMutability": "nonpayable",
      "type": "function"
    },
    {
      "constant": true,
      "inputs": [
        {
          "internalType": "address",
          "name": "farmer",
          "type": "address"
        }
      ],
      "name": "getReferrer",
      "outputs": [
        {
          "internalType": "address",
          "name": "",
          "type": "address"
        }
      ],
      "payable": false,
      "stateMutability": "view",
      "type": "function"
    },
    {
      "constant": false,
      "inputs": [
        {
          "internalType": "address",
          "name": "_admin",
          "type": "address"
        },
        {
          "internalType": "bool",
          "name": "_status",
          "type": "bool"
        }
      ],
      "name": "setAdminStatus",
      "outputs": [],
      "payable": false,
      "stateMutability": "nonpayable",
      "type": "function"
    },
    {
      "constant": false,
      "inputs": [
        {
          "internalType": "contract IERC20",
          "name": "token",
          "type": "address"
        },
        {
          "internalType": "uint256",
          "name": "amount",
          "type": "uint256"
        }
      ],
      "name": "emergencyERC20Drain",
      "outputs": [],
      "payable": false,
      "stateMutability": "nonpayable",
      "type": "function"
    }
  ],
  "bytecode": "0x608060405234801561001057600080fd5b50600480546001600160a01b03191633179055610b7e806100326000396000f3fe608060405234801561001057600080fd5b50600436106100df5760003560e01c80638da5cb5b1161008c578063d06c54fb11610066578063d06c54fb146102eb578063d579fd44146102f3578063db0e16f114610326578063e6796aaa1461035f576100df565b80638da5cb5b1461026f57806391e5c52014610277578063bbddaca3146102b0576100df565b80634a3b68cc116100bd5780634a3b68cc146101a35780634a9fefc7146101ff5780634f5bee4414610232576100df565b8063184eee5c146100e457806324d7806c146101295780633f7b06d814610170575b600080fd5b610117600480360360208110156100fa57600080fd5b503573ffffffffffffffffffffffffffffffffffffffff16610398565b60408051918252519081900360200190f35b61015c6004803603602081101561013f57600080fd5b503573ffffffffffffffffffffffffffffffffffffffff166103aa565b604080519115158252519081900360200190f35b6101176004803603602081101561018657600080fd5b503573ffffffffffffffffffffffffffffffffffffffff166103bf565b6101d6600480360360208110156101b957600080fd5b503573ffffffffffffffffffffffffffffffffffffffff166103d1565b6040805173ffffffffffffffffffffffffffffffffffffffff9092168252519081900360200190f35b6101d66004803603602081101561021557600080fd5b503573ffffffffffffffffffffffffffffffffffffffff166103f9565b61026d6004803603604081101561024857600080fd5b5073ffffffffffffffffffffffffffffffffffffffff81351690602001351515610424565b005b6101d66104ea565b6101d66004803603604081101561028d57600080fd5b5073ffffffffffffffffffffffffffffffffffffffff8135169060200135610506565b61026d600480360360408110156102c657600080fd5b5073ffffffffffffffffffffffffffffffffffffffff81358116916020013516610548565b61026d6106b3565b61026d6004803603602081101561030957600080fd5b503573ffffffffffffffffffffffffffffffffffffffff1661076c565b61026d6004803603604081101561033c57600080fd5b5073ffffffffffffffffffffffffffffffffffffffff81351690602001356108ad565b61026d6004803603604081101561037557600080fd5b5073ffffffffffffffffffffffffffffffffffffffff8135169060200135610a24565b60036020526000908152604090205481565b60066020526000908152604090205460ff1681565b60016020526000908152604090205481565b60006020819052908152604090205473ffffffffffffffffffffffffffffffffffffffff1681565b73ffffffffffffffffffffffffffffffffffffffff9081166000908152602081905260409020541690565b60045473ffffffffffffffffffffffffffffffffffffffff163314610494576040517f08c379a0000000000000000000000000000000000000000000000000000000008152600401808060200182810382526026815260200180610b246026913960400191505060405180910390fd5b73ffffffffffffffffffffffffffffffffffffffff91909116600090815260066020526040902080547fffffffffffffffffffffffffffffffffffffffffffffffffffffffffffffff0016911515919091179055565b60045473ffffffffffffffffffffffffffffffffffffffff1681565b6002602052816000526040600020818154811061051f57fe5b60009182526020909120015473ffffffffffffffffffffffffffffffffffffffff169150829050565b3360009081526006602052604090205460ff166105b0576040517f08c379a0000000000000000000000000000000000000000000000000000000008152600401808060200182810382526026815260200180610ad86026913960400191505060405180910390fd5b73ffffffffffffffffffffffffffffffffffffffff828116600090815260208190526040902054161580156105fa575073ffffffffffffffffffffffffffffffffffffffff811615155b156106af5773ffffffffffffffffffffffffffffffffffffffff80831660008181526020818152604080832080549587167fffffffffffffffffffffffff000000000000000000000000000000000000000096871681179091558084526001808452828520805482019055600284528285208054918201815585529284209092018054909516841790945592519192917f965e581fd2224ce85185c5f48cfbcc00e17fa216f970b274fc724888f6b8994a9190a35b5050565b60055473ffffffffffffffffffffffffffffffffffffffff163314610723576040517f08c379a0000000000000000000000000000000000000000000000000000000008152600401808060200182810382526026815260200180610afe6026913960400191505060405180910390fd5b600554600480547fffffffffffffffffffffffff00000000000000000000000000000000000000001673ffffffffffffffffffffffffffffffffffffffff909216919091179055565b60045473ffffffffffffffffffffffffffffffffffffffff1633146107dc576040517f08c379a0000000000000000000000000000000000000000000000000000000008152600401808060200182810382526026815260200180610b246026913960400191505060405180910390fd5b60045473ffffffffffffffffffffffffffffffffffffffff8281169116141561086657604080517f08c379a000000000000000000000000000000000000000000000000000000000815260206004820152601d60248201527f43616e6e6f7420617070726f76652063757272656e74206f776e65722e000000604482015290519081900360640190fd5b600580547fffffffffffffffffffffffff00000000000000000000000000000000000000001673ffffffffffffffffffffffffffffffffffffffff92909216919091179055565b60045473ffffffffffffffffffffffffffffffffffffffff16331461091d576040517f08c379a0000000000000000000000000000000000000000000000000000000008152600401808060200182810382526026815260200180610b246026913960400191505060405180910390fd5b6004546040805173ffffffffffffffffffffffffffffffffffffffff80861682529092166020830152818101839052517fd5f5d3947cee2c1f346ba9359a003af3d6202e5bc2e987685ab0cf0e73f5ac3b9181900360600190a160048054604080517fa9059cbb00000000000000000000000000000000000000000000000000000000815273ffffffffffffffffffffffffffffffffffffffff9283169381019390935260248301849052519084169163a9059cbb9160448083019260209291908290030181600087803b1580156109f457600080fd5b505af1158015610a08573d6000803e3d6000fd5b505050506040513d6020811015610a1e57600080fd5b50505050565b3360009081526006602052604090205460ff16610a8c576040517f08c379a0000000000000000000000000000000000000000000000000000000008152600401808060200182810382526026815260200180610ad86026913960400191505060405180910390fd5b73ffffffffffffffffffffffffffffffffffffffff8216156106af5773ffffffffffffffffffffffffffffffffffffffff82166000908152600360205260409020805482019055505056fe4f6e6c7941646d696e206d6574686f64732063616c6c6564206279206e6f6e2d61646d696e2e43616e206f6e6c792061636365707420707265617070726f766564206e6577206f776e65722e4f6e6c794f776e6572206d6574686f64732063616c6c6564206279206e6f6e2d6f776e65722ea265627a7a72315820ba976d02b31256f820bcda899a8086e755017cf4edb12463dd541257851d633964736f6c63430005100032",
  "source": "pragma solidity ^0.5.0;\n\nimport \"../externals/IERC20.sol\";\n\n/**\n * Forked from YFV, original audit at https://github.com/yfv-finance/audit\n */\n\ncontract Referral {\n    mapping(address => address) public referrers; // account_address -> referrer_address\n    mapping(address => uint256) public referredCount; // referrer_address -> num_of_referred\n    mapping(address => address[]) public referredList; // referrer_address -> referee_addresses\n    mapping(address => uint256) public referrerEarning; // referrer_address -> total earning from referral\n\n    event NewReferral(address indexed referrer, address indexed farmer);\n\n    // Standard contract ownership transfer.\n    address public owner;\n    address private nextOwner;\n\n    mapping(address => bool) public isAdmin;\n\n    constructor () public {\n        owner = msg.sender;\n    }\n\n    // Standard modifier on methods invokable only by contract owner.\n    modifier onlyOwner {\n        require(msg.sender == owner, \"OnlyOwner methods called by non-owner.\");\n        _;\n    }\n\n    modifier onlyAdmin {\n        require(isAdmin[msg.sender], \"OnlyAdmin methods called by non-admin.\");\n        _;\n    }\n\n    // Standard contract ownership transfer implementation,\n    function approveNextOwner(address _nextOwner) external onlyOwner {\n        require(_nextOwner != owner, \"Cannot approve current owner.\");\n        nextOwner = _nextOwner;\n    }\n\n    function acceptNextOwner() external {\n        require(msg.sender == nextOwner, \"Can only accept preapproved new owner.\");\n        owner = nextOwner;\n    }\n\n    function setReferrer(address farmer, address referrer) public onlyAdmin {\n        if (referrers[farmer] == address(0) && referrer != address(0)) {\n            referrers[farmer] = referrer;\n            referredCount[referrer] += 1;\n            referredList[referrer].push(farmer);\n            emit NewReferral(referrer, farmer);\n        }\n    }\n\n    function addEarning(address referrer, uint256 earning) public onlyAdmin {\n        if (referrer != address(0)) {\n            referrerEarning[referrer] += earning;\n        }\n    }\n\n    function getReferrer(address farmer) public view returns (address) {\n        return referrers[farmer];\n    }\n\n    // Set admin status.\n    function setAdminStatus(address _admin, bool _status) external onlyOwner {\n        isAdmin[_admin] = _status;\n    }\n\n    event EmergencyERC20Drain(address token, address owner, uint256 amount);\n\n    // owner can drain tokens that are sent here by mistake\n    function emergencyERC20Drain(IERC20 token, uint amount) external onlyOwner {\n        emit EmergencyERC20Drain(address(token), owner, amount);\n        token.transfer(owner, amount);\n    }\n}\n",
  "sourcePath": "/Users/mhe70/my-workspace/bretton-protocol/contracts/referral/Referral.sol",
  "compiler": {
    "name": "solc",
    "version": "0.5.16+commit.9c3226ce.Emscripten.clang"
  },
  "schemaVersion": "3.2.3",
  "updatedAt": "2020-09-03T06:54:38.351Z",
  "devdoc": {
    "methods": {}
  },
  "userdoc": {
    "methods": {},
    "notice": "Forked from YFV, original audit at https://github.com/yfv-finance/audit"
  }
}