{
  "contractName": "RewardPoolFake",
  "abi": [
    {
      "inputs": [
        {
          "internalType": "uint256",
          "name": "_DURATION",
          "type": "uint256"
        },
        {
          "internalType": "address",
          "name": "_rewardToken",
          "type": "address"
        }
      ],
      "payable": false,
      "stateMutability": "nonpayable",
      "type": "constructor"
    },
    {
      "anonymous": false,
      "inputs": [
        {
          "indexed": true,
          "internalType": "address",
          "name": "previousOwner",
          "type": "address"
        },
        {
          "indexed": true,
          "internalType": "address",
          "name": "newOwner",
          "type": "address"
        }
      ],
      "name": "OwnershipTransferred",
      "type": "event"
    },
    {
      "anonymous": false,
      "inputs": [
        {
          "indexed": false,
          "internalType": "uint256",
          "name": "amount",
          "type": "uint256"
        }
      ],
      "name": "RewardAdded",
      "type": "event"
    },
    {
      "anonymous": false,
      "inputs": [
        {
          "indexed": true,
          "internalType": "address",
          "name": "user",
          "type": "address"
        },
        {
          "indexed": false,
          "internalType": "uint256",
          "name": "amount",
          "type": "uint256"
        }
      ],
      "name": "RewardPaid",
      "type": "event"
    },
    {
      "constant": true,
      "inputs": [],
      "name": "DURATION",
      "outputs": [
        {
          "internalType": "uint256",
          "name": "",
          "type": "uint256"
        }
      ],
      "payable": false,
      "stateMutability": "view",
      "type": "function"
    },
    {
      "constant": false,
      "inputs": [],
      "name": "claim",
      "outputs": [],
      "payable": false,
      "stateMutability": "nonpayable",
      "type": "function"
    },
    {
      "constant": true,
      "inputs": [
        {
          "internalType": "address",
          "name": "_account",
          "type": "address"
        }
      ],
      "name": "earned",
      "outputs": [
        {
          "internalType": "uint256",
          "name": "",
          "type": "uint256"
        }
      ],
      "payable": false,
      "stateMutability": "view",
      "type": "function"
    },
    {
      "constant": true,
      "inputs": [],
      "name": "isOwner",
      "outputs": [
        {
          "internalType": "bool",
          "name": "",
          "type": "bool"
        }
      ],
      "payable": false,
      "stateMutability": "view",
      "type": "function"
    },
    {
      "constant": true,
      "inputs": [],
      "name": "lastTimeRewardApplicable",
      "outputs": [
        {
          "internalType": "uint256",
          "name": "",
          "type": "uint256"
        }
      ],
      "payable": false,
      "stateMutability": "view",
      "type": "function"
    },
    {
      "constant": true,
      "inputs": [],
      "name": "lastUpdateTime",
      "outputs": [
        {
          "internalType": "uint256",
          "name": "",
          "type": "uint256"
        }
      ],
      "payable": false,
      "stateMutability": "view",
      "type": "function"
    },
    {
      "constant": false,
      "inputs": [
        {
          "internalType": "uint256",
          "name": "_reward",
          "type": "uint256"
        }
      ],
      "name": "notifyRewardAmount",
      "outputs": [],
      "payable": false,
      "stateMutability": "nonpayable",
      "type": "function"
    },
    {
      "constant": true,
      "inputs": [],
      "name": "owner",
      "outputs": [
        {
          "internalType": "address",
          "name": "",
          "type": "address"
        }
      ],
      "payable": false,
      "stateMutability": "view",
      "type": "function"
    },
    {
      "constant": true,
      "inputs": [],
      "name": "periodFinish",
      "outputs": [
        {
          "internalType": "uint256",
          "name": "",
          "type": "uint256"
        }
      ],
      "payable": false,
      "stateMutability": "view",
      "type": "function"
    },
    {
      "constant": false,
      "inputs": [],
      "name": "renounceOwnership",
      "outputs": [],
      "payable": false,
      "stateMutability": "nonpayable",
      "type": "function"
    },
    {
      "constant": true,
      "inputs": [],
      "name": "rewardDistributor",
      "outputs": [
        {
          "internalType": "address",
          "name": "",
          "type": "address"
        }
      ],
      "payable": false,
      "stateMutability": "view",
      "type": "function"
    },
    {
      "constant": true,
      "inputs": [],
      "name": "rewardPerSecond",
      "outputs": [
        {
          "internalType": "uint256",
          "name": "",
          "type": "uint256"
        }
      ],
      "payable": false,
      "stateMutability": "view",
      "type": "function"
    },
    {
      "constant": true,
      "inputs": [],
      "name": "rewardPerShare",
      "outputs": [
        {
          "internalType": "uint256",
          "name": "",
          "type": "uint256"
        }
      ],
      "payable": false,
      "stateMutability": "view",
      "type": "function"
    },
    {
      "constant": true,
      "inputs": [],
      "name": "rewardPerShareStored",
      "outputs": [
        {
          "internalType": "uint256",
          "name": "",
          "type": "uint256"
        }
      ],
      "payable": false,
      "stateMutability": "view",
      "type": "function"
    },
    {
      "constant": true,
      "inputs": [],
      "name": "rewardToken",
      "outputs": [
        {
          "internalType": "contract IERC20",
          "name": "",
          "type": "address"
        }
      ],
      "payable": false,
      "stateMutability": "view",
      "type": "function"
    },
    {
      "constant": true,
      "inputs": [
        {
          "internalType": "address",
          "name": "",
          "type": "address"
        }
      ],
      "name": "rewards",
      "outputs": [
        {
          "internalType": "uint256",
          "name": "",
          "type": "uint256"
        }
      ],
      "payable": false,
      "stateMutability": "view",
      "type": "function"
    },
    {
      "constant": false,
      "inputs": [
        {
          "internalType": "address",
          "name": "_rewardDistributor",
          "type": "address"
        }
      ],
      "name": "setRewardDistributor",
      "outputs": [],
      "payable": false,
      "stateMutability": "nonpayable",
      "type": "function"
    },
    {
      "constant": true,
      "inputs": [
        {
          "internalType": "address",
          "name": "_account",
          "type": "address"
        }
      ],
      "name": "sharesOf",
      "outputs": [
        {
          "internalType": "uint256",
          "name": "",
          "type": "uint256"
        }
      ],
      "payable": false,
      "stateMutability": "view",
      "type": "function"
    },
    {
      "constant": true,
      "inputs": [],
      "name": "totalShares",
      "outputs": [
        {
          "internalType": "uint256",
          "name": "",
          "type": "uint256"
        }
      ],
      "payable": false,
      "stateMutability": "view",
      "type": "function"
    },
    {
      "constant": false,
      "inputs": [
        {
          "internalType": "address",
          "name": "newOwner",
          "type": "address"
        }
      ],
      "name": "transferOwnership",
      "outputs": [],
      "payable": false,
      "stateMutability": "nonpayable",
      "type": "function"
    },
    {
      "constant": true,
      "inputs": [
        {
          "internalType": "address",
          "name": "",
          "type": "address"
        }
      ],
      "name": "userRewardPerSharePaid",
      "outputs": [
        {
          "internalType": "uint256",
          "name": "",
          "type": "uint256"
        }
      ],
      "payable": false,
      "stateMutability": "view",
      "type": "function"
    },
    {
      "constant": false,
      "inputs": [
        {
          "internalType": "address",
          "name": "_account",
          "type": "address"
        },
        {
          "internalType": "uint256",
          "name": "_amount",
          "type": "uint256"
        }
      ],
      "name": "increaseShares",
      "outputs": [],
      "payable": false,
      "stateMutability": "nonpayable",
      "type": "function"
    },
    {
      "constant": false,
      "inputs": [
        {
          "internalType": "address",
          "name": "_account",
          "type": "address"
        },
        {
          "internalType": "uint256",
          "name": "_amount",
          "type": "uint256"
        }
      ],
      "name": "decreaseShares",
      "outputs": [],
      "payable": false,
      "stateMutability": "nonpayable",
      "type": "function"
    },
    {
      "constant": false,
      "inputs": [
        {
          "internalType": "uint256",
          "name": "_seconds",
          "type": "uint256"
        }
      ],
      "name": "increaseCurrentTime",
      "outputs": [],
      "payable": false,
      "stateMutability": "nonpayable",
      "type": "function"
    },
    {
      "constant": true,
      "inputs": [],
      "name": "getCurrentTimestamp",
      "outputs": [
        {
          "internalType": "uint256",
          "name": "",
          "type": "uint256"
        }
      ],
      "payable": false,
      "stateMutability": "view",
      "type": "function"
    }
  ],
  "bytecode": "0x60806040526000600655600060075534801561001a57600080fd5b506040516113fe3803806113fe8339818101604052604081101561003d57600080fd5b50805160209091015181813361005a6001600160e01b036100df16565b600280546001600160a01b0319166001600160a01b0392831617908190556040519116906000907f8be0079c531659141344cd1fd0a4f28419497f9722a3daafe3b4186f6b6457e0908290a3600380546001600160a01b03199081166001600160a01b0393841617909155600593909355600480549093169116179055506100e39050565b3390565b61130c806100f26000396000f3fe608060405234801561001057600080fd5b50600436106101a25760003560e01c8063818ae1ce116100ee578063a1809b9511610097578063ebe2b12b11610071578063ebe2b12b146103d8578063f2fde38b146103e0578063f5eb42dc14610413578063f7c618c114610446576101a2565b8063a1809b9514610395578063acc2166a146103c8578063c8f33c91146103d0576101a2565b80638da5cb5b116100c85780638da5cb5b146103405780638f10369a146103715780638f32d59b14610379576101a2565b8063818ae1ce1461029b57806386c011db146102ce57806387983d1314610307576101a2565b80633c6b16ab116101505780636c9230db1161012a5780636c9230db14610283578063715018a61461028b57806380faa57d14610293576101a2565b80633c6b16ab14610256578063446a2ec8146102735780634e71d92d1461027b576101a2565b806316d0e6ef1161018157806316d0e6ef146102275780631be05289146102465780633a98ef391461024e576101a2565b80628cc262146101a75780630700037d146101ec5780630ab747f01461021f575b600080fd5b6101da600480360360208110156101bd57600080fd5b503573ffffffffffffffffffffffffffffffffffffffff1661044e565b60408051918252519081900360200190f35b6101da6004803603602081101561020257600080fd5b503573ffffffffffffffffffffffffffffffffffffffff166104e1565b6101da6104f3565b6102446004803603602081101561023d57600080fd5b50356104f9565b005b6101da610504565b6101da61050a565b6102446004803603602081101561026c57600080fd5b5035610511565b6101da610706565b61024461075f565b6101da6108e1565b6102446108e7565b6101da6109c9565b6101da600480360360208110156102b157600080fd5b503573ffffffffffffffffffffffffffffffffffffffff166109de565b610244600480360360408110156102e457600080fd5b5073ffffffffffffffffffffffffffffffffffffffff81351690602001356109f0565b6102446004803603604081101561031d57600080fd5b5073ffffffffffffffffffffffffffffffffffffffff81351690602001356109fe565b610348610a08565b6040805173ffffffffffffffffffffffffffffffffffffffff9092168252519081900360200190f35b6101da610a24565b610381610a2a565b604080519115158252519081900360200190f35b610244600480360360208110156103ab57600080fd5b503573ffffffffffffffffffffffffffffffffffffffff16610a6a565b610348610b24565b6101da610b40565b6101da610b46565b610244600480360360208110156103f657600080fd5b503573ffffffffffffffffffffffffffffffffffffffff16610b4c565b6101da6004803603602081101561042957600080fd5b503573ffffffffffffffffffffffffffffffffffffffff16610bcb565b610348610bf3565b73ffffffffffffffffffffffffffffffffffffffff81166000908152600b6020908152604080832054600a9092528220546104db91906104cf90670de0b6b3a7640000906104c3906104ae906104a2610706565b9063ffffffff610c0f16565b6104b788610bcb565b9063ffffffff610c5816565b9063ffffffff610ccb16565b9063ffffffff610d0d16565b92915050565b600b6020526000908152604090205481565b60095481565b600c80549091019055565b60055481565b6000545b90565b60035473ffffffffffffffffffffffffffffffffffffffff16610532610d81565b73ffffffffffffffffffffffffffffffffffffffff16146105b457604080517f08c379a000000000000000000000000000000000000000000000000000000000815260206004820181905260248201527f43616c6c6572206973206e6f7420726577617264206469737472696275746f72604482015290519081900360640190fd5b6000806105bf610706565b905080156106315760098190556105d46109c9565b60085573ffffffffffffffffffffffffffffffffffffffff821615610631576105fc8261044e565b73ffffffffffffffffffffffffffffffffffffffff83166000908152600b6020908152604080832093909355600a9052208190555b600061063b6108e1565b905060065481106106625760055461065a90859063ffffffff610ccb16565b6007556106b1565b600654600090610678908363ffffffff610c0f16565b9050600061069160075483610c5890919063ffffffff16565b6005549091506106ab906104c3888463ffffffff610d0d16565b60075550505b60088190556005546106ca90829063ffffffff610d0d16565b6006556040805185815290517fde88a922e0d3b88b24e9623efeb464919c6bf9f66857a65e2bfcf2ce87a9433d9181900360200190a150505050565b600061071061050a565b61071d575060095461050e565b61075a61074b61072b61050a565b6104c3670de0b6b3a76400006104b76007546104b76008546104a26109c9565b6009549063ffffffff610d0d16565b905090565b33600061076a610706565b905080156107dc57600981905561077f6109c9565b60085573ffffffffffffffffffffffffffffffffffffffff8216156107dc576107a78261044e565b73ffffffffffffffffffffffffffffffffffffffff83166000908152600b6020908152604080832093909355600a9052208190555b60006107e73361044e565b905080156108dc57336000818152600b602090815260408083208390556004805482517fa9059cbb0000000000000000000000000000000000000000000000000000000081529182019590955260248101869052905173ffffffffffffffffffffffffffffffffffffffff9094169363a9059cbb93604480840194938390030190829087803b15801561087957600080fd5b505af115801561088d573d6000803e3d6000fd5b505050506040513d60208110156108a357600080fd5b505060408051828152905133917fe2403640ba68fed3a2f88b7557551d1993f84b99bb10ff833f0cf8db0c5e0486919081900360200190a25b505050565b600c5490565b6108ef610a2a565b61095a57604080517f08c379a000000000000000000000000000000000000000000000000000000000815260206004820181905260248201527f4f776e61626c653a2063616c6c6572206973206e6f7420746865206f776e6572604482015290519081900360640190fd5b60025460405160009173ffffffffffffffffffffffffffffffffffffffff16907f8be0079c531659141344cd1fd0a4f28419497f9722a3daafe3b4186f6b6457e0908390a3600280547fffffffffffffffffffffffff0000000000000000000000000000000000000000169055565b600061075a6109d66108e1565b600654610d85565b600a6020526000908152604090205481565b6109fa8282610d9b565b5050565b6109fa8282610e81565b60025473ffffffffffffffffffffffffffffffffffffffff1690565b60075481565b60025460009073ffffffffffffffffffffffffffffffffffffffff16610a4e610d81565b73ffffffffffffffffffffffffffffffffffffffff1614905090565b610a72610a2a565b610add57604080517f08c379a000000000000000000000000000000000000000000000000000000000815260206004820181905260248201527f4f776e61626c653a2063616c6c6572206973206e6f7420746865206f776e6572604482015290519081900360640190fd5b600380547fffffffffffffffffffffffff00000000000000000000000000000000000000001673ffffffffffffffffffffffffffffffffffffffff92909216919091179055565b60035473ffffffffffffffffffffffffffffffffffffffff1681565b60085481565b60065481565b610b54610a2a565b610bbf57604080517f08c379a000000000000000000000000000000000000000000000000000000000815260206004820181905260248201527f4f776e61626c653a2063616c6c6572206973206e6f7420746865206f776e6572604482015290519081900360640190fd5b610bc881610f61565b50565b73ffffffffffffffffffffffffffffffffffffffff1660009081526001602052604090205490565b60045473ffffffffffffffffffffffffffffffffffffffff1681565b6000610c5183836040518060400160405280601e81526020017f536166654d6174683a207375627472616374696f6e206f766572666c6f77000081525061105b565b9392505050565b600082610c67575060006104db565b82820282848281610c7457fe5b0414610c51576040517f08c379a00000000000000000000000000000000000000000000000000000000081526004018080602001828103825260218152602001806112756021913960400191505060405180910390fd5b6000610c5183836040518060400160405280601a81526020017f536166654d6174683a206469766973696f6e206279207a65726f00000000000081525061110c565b600082820183811015610c5157604080517f08c379a000000000000000000000000000000000000000000000000000000000815260206004820152601b60248201527f536166654d6174683a206164646974696f6e206f766572666c6f770000000000604482015290519081900360640190fd5b3390565b6000818310610d945781610c51565b5090919050565b816000610da6610706565b90508015610e18576009819055610dbb6109c9565b60085573ffffffffffffffffffffffffffffffffffffffff821615610e1857610de38261044e565b73ffffffffffffffffffffffffffffffffffffffff83166000908152600b6020908152604080832093909355600a9052208190555b60008311610e71576040517f08c379a00000000000000000000000000000000000000000000000000000000081526004018080602001828103825260218152602001806112966021913960400191505060405180910390fd5b610e7b848461118b565b50505050565b816000610e8c610706565b90508015610efe576009819055610ea16109c9565b60085573ffffffffffffffffffffffffffffffffffffffff821615610efe57610ec98261044e565b73ffffffffffffffffffffffffffffffffffffffff83166000908152600b6020908152604080832093909355600a9052208190555b60008311610f57576040517f08c379a00000000000000000000000000000000000000000000000000000000081526004018080602001828103825260218152602001806112b76021913960400191505060405180910390fd5b610e7b8484611203565b73ffffffffffffffffffffffffffffffffffffffff8116610fcd576040517f08c379a000000000000000000000000000000000000000000000000000000000815260040180806020018281038252602681526020018061124f6026913960400191505060405180910390fd5b60025460405173ffffffffffffffffffffffffffffffffffffffff8084169216907f8be0079c531659141344cd1fd0a4f28419497f9722a3daafe3b4186f6b6457e090600090a3600280547fffffffffffffffffffffffff00000000000000000000000000000000000000001673ffffffffffffffffffffffffffffffffffffffff92909216919091179055565b60008184841115611104576040517f08c379a00000000000000000000000000000000000000000000000000000000081526004018080602001828103825283818151815260200191508051906020019080838360005b838110156110c95781810151838201526020016110b1565b50505050905090810190601f1680156110f65780820380516001836020036101000a031916815260200191505b509250505060405180910390fd5b505050900390565b60008183611175576040517f08c379a00000000000000000000000000000000000000000000000000000000081526020600482018181528351602484015283519092839260449091019190850190808383600083156110c95781810151838201526020016110b1565b50600083858161118157fe5b0495945050505050565b60005461119e908263ffffffff610d0d16565b600090815573ffffffffffffffffffffffffffffffffffffffff83168152600160205260409020546111d6908263ffffffff610d0d16565b73ffffffffffffffffffffffffffffffffffffffff90921660009081526001602052604090209190915550565b600054611216908263ffffffff610c0f16565b600090815573ffffffffffffffffffffffffffffffffffffffff83168152600160205260409020546111d6908263ffffffff610c0f1656fe4f776e61626c653a206e6577206f776e657220697320746865207a65726f2061646472657373536166654d6174683a206d756c7469706c69636174696f6e206f766572666c6f775245574152445f504f4f4c3a2063616e6e6f74206d696e742030207368617265735245574152445f504f4f4c3a2063616e6e6f74206275726e203020736861726573a265627a7a723158200ec1fe5a88c051dd9881c303a77b76b6ea471b8390f113dae4baf4f25a30624964736f6c63430005100032",
  "source": "pragma solidity 0.5.16;\n\nimport \"../pools/abstract/RewardPool.sol\";\n\n// Fake RewardPool with adjustable shares\ncontract RewardPoolFake is RewardPool {\n    uint256 fakeTimestamp;\n\n    constructor(\n        uint256 _DURATION,\n        address _rewardToken\n    )\n        RewardPool (\n            _DURATION,\n            _rewardToken\n        )\n        public\n    {\n    }\n\n    function increaseShares(address _account, uint256 _amount) public {\n        _mintShares(_account, _amount);\n    }\n\n    function decreaseShares(address _account, uint256 _amount) public {\n        _burnShares(_account, _amount);\n    }\n\n    function increaseCurrentTime(uint256 _seconds) public {\n        fakeTimestamp += _seconds;\n    }\n\n    function getCurrentTimestamp() public view returns (uint256){\n        return fakeTimestamp;\n    }\n}\n",
  "sourcePath": "/Users/mhe70/my-workspace/bretton-protocol/contracts/test/RewardPoolFake.sol",
  "compiler": {
    "name": "solc",
    "version": "0.5.16+commit.9c3226ce.Emscripten.clang"
  },
  "schemaVersion": "3.2.3",
  "updatedAt": "2020-09-01T04:40:32.217Z",
  "devdoc": {
    "methods": {
      "claim()": {
        "details": "Claim outstanding rewards for sender",
        "return": "uint256 amount claimed"
      },
      "earned(address)": {
        "details": "Calculates the amount of rewards earned for a given account",
        "params": {
          "_account": "User for which calculate earned rewards for"
        },
        "return": "uint256 Earned rewards"
      },
      "lastTimeRewardApplicable()": {
        "details": "Gets the last applicable timestamp for this reward period"
      },
      "notifyRewardAmount(uint256)": {
        "details": "Notifies the contract that new rewards have been added. Calculates an updated rewardPerSecond based on the rewards in period.",
        "params": {
          "_reward": "Units of RewardToken that have been added to the pool"
        }
      },
      "rewardPerShare()": {
        "details": "Calculate rewardsPerShare",
        "return": "uint256 rewardsPerShare"
      },
      "sharesOf(address)": {
        "details": "Get the share of a given account",
        "params": {
          "_account": "User for which to retrieve balance"
        },
        "return": "uint256 shares"
      },
      "totalShares()": {
        "details": "Get the total number of shares in pool",
        "return": "uint256 total shares"
      }
    }
  },
  "userdoc": {
    "methods": {}
  }
}