{
  "contractName": "StakedRewardPool",
  "abi": [
    {
      "inputs": [
        {
          "internalType": "address",
          "name": "_stakingToken",
          "type": "address"
        },
        {
          "internalType": "uint256",
          "name": "_DURATION",
          "type": "uint256"
        },
        {
          "internalType": "address",
          "name": "_rewardToken",
          "type": "address"
        }
      ],
      "payable": false,
      "stateMutability": "nonpayable",
      "type": "constructor"
    },
    {
      "anonymous": false,
      "inputs": [
        {
          "indexed": true,
          "internalType": "address",
          "name": "previousOwner",
          "type": "address"
        },
        {
          "indexed": true,
          "internalType": "address",
          "name": "newOwner",
          "type": "address"
        }
      ],
      "name": "OwnershipTransferred",
      "type": "event"
    },
    {
      "anonymous": false,
      "inputs": [
        {
          "indexed": false,
          "internalType": "uint256",
          "name": "amount",
          "type": "uint256"
        }
      ],
      "name": "RewardAdded",
      "type": "event"
    },
    {
      "anonymous": false,
      "inputs": [
        {
          "indexed": true,
          "internalType": "address",
          "name": "user",
          "type": "address"
        },
        {
          "indexed": false,
          "internalType": "uint256",
          "name": "amount",
          "type": "uint256"
        }
      ],
      "name": "RewardPaid",
      "type": "event"
    },
    {
      "anonymous": false,
      "inputs": [
        {
          "indexed": true,
          "internalType": "address",
          "name": "beneficiary",
          "type": "address"
        },
        {
          "indexed": false,
          "internalType": "uint256",
          "name": "amount",
          "type": "uint256"
        },
        {
          "indexed": false,
          "internalType": "address",
          "name": "payer",
          "type": "address"
        }
      ],
      "name": "Staked",
      "type": "event"
    },
    {
      "anonymous": false,
      "inputs": [
        {
          "indexed": true,
          "internalType": "address",
          "name": "beneficiary",
          "type": "address"
        },
        {
          "indexed": false,
          "internalType": "uint256",
          "name": "amount",
          "type": "uint256"
        },
        {
          "indexed": false,
          "internalType": "address",
          "name": "payer",
          "type": "address"
        }
      ],
      "name": "Withdrawn",
      "type": "event"
    },
    {
      "constant": true,
      "inputs": [],
      "name": "DURATION",
      "outputs": [
        {
          "internalType": "uint256",
          "name": "",
          "type": "uint256"
        }
      ],
      "payable": false,
      "stateMutability": "view",
      "type": "function"
    },
    {
      "constant": false,
      "inputs": [],
      "name": "claim",
      "outputs": [],
      "payable": false,
      "stateMutability": "nonpayable",
      "type": "function"
    },
    {
      "constant": true,
      "inputs": [
        {
          "internalType": "address",
          "name": "_account",
          "type": "address"
        }
      ],
      "name": "earned",
      "outputs": [
        {
          "internalType": "uint256",
          "name": "",
          "type": "uint256"
        }
      ],
      "payable": false,
      "stateMutability": "view",
      "type": "function"
    },
    {
      "constant": true,
      "inputs": [],
      "name": "getCurrentTimestamp",
      "outputs": [
        {
          "internalType": "uint256",
          "name": "",
          "type": "uint256"
        }
      ],
      "payable": false,
      "stateMutability": "view",
      "type": "function"
    },
    {
      "constant": true,
      "inputs": [],
      "name": "isOwner",
      "outputs": [
        {
          "internalType": "bool",
          "name": "",
          "type": "bool"
        }
      ],
      "payable": false,
      "stateMutability": "view",
      "type": "function"
    },
    {
      "constant": true,
      "inputs": [],
      "name": "lastTimeRewardApplicable",
      "outputs": [
        {
          "internalType": "uint256",
          "name": "",
          "type": "uint256"
        }
      ],
      "payable": false,
      "stateMutability": "view",
      "type": "function"
    },
    {
      "constant": true,
      "inputs": [],
      "name": "lastUpdateTime",
      "outputs": [
        {
          "internalType": "uint256",
          "name": "",
          "type": "uint256"
        }
      ],
      "payable": false,
      "stateMutability": "view",
      "type": "function"
    },
    {
      "constant": false,
      "inputs": [
        {
          "internalType": "uint256",
          "name": "_reward",
          "type": "uint256"
        }
      ],
      "name": "notifyRewardAmount",
      "outputs": [],
      "payable": false,
      "stateMutability": "nonpayable",
      "type": "function"
    },
    {
      "constant": true,
      "inputs": [],
      "name": "owner",
      "outputs": [
        {
          "internalType": "address",
          "name": "",
          "type": "address"
        }
      ],
      "payable": false,
      "stateMutability": "view",
      "type": "function"
    },
    {
      "constant": true,
      "inputs": [],
      "name": "periodFinish",
      "outputs": [
        {
          "internalType": "uint256",
          "name": "",
          "type": "uint256"
        }
      ],
      "payable": false,
      "stateMutability": "view",
      "type": "function"
    },
    {
      "constant": false,
      "inputs": [],
      "name": "renounceOwnership",
      "outputs": [],
      "payable": false,
      "stateMutability": "nonpayable",
      "type": "function"
    },
    {
      "constant": true,
      "inputs": [],
      "name": "rewardDistributor",
      "outputs": [
        {
          "internalType": "address",
          "name": "",
          "type": "address"
        }
      ],
      "payable": false,
      "stateMutability": "view",
      "type": "function"
    },
    {
      "constant": true,
      "inputs": [],
      "name": "rewardPerSecond",
      "outputs": [
        {
          "internalType": "uint256",
          "name": "",
          "type": "uint256"
        }
      ],
      "payable": false,
      "stateMutability": "view",
      "type": "function"
    },
    {
      "constant": true,
      "inputs": [],
      "name": "rewardPerShare",
      "outputs": [
        {
          "internalType": "uint256",
          "name": "",
          "type": "uint256"
        }
      ],
      "payable": false,
      "stateMutability": "view",
      "type": "function"
    },
    {
      "constant": true,
      "inputs": [],
      "name": "rewardPerShareStored",
      "outputs": [
        {
          "internalType": "uint256",
          "name": "",
          "type": "uint256"
        }
      ],
      "payable": false,
      "stateMutability": "view",
      "type": "function"
    },
    {
      "constant": true,
      "inputs": [],
      "name": "rewardToken",
      "outputs": [
        {
          "internalType": "contract IERC20",
          "name": "",
          "type": "address"
        }
      ],
      "payable": false,
      "stateMutability": "view",
      "type": "function"
    },
    {
      "constant": true,
      "inputs": [
        {
          "internalType": "address",
          "name": "",
          "type": "address"
        }
      ],
      "name": "rewards",
      "outputs": [
        {
          "internalType": "uint256",
          "name": "",
          "type": "uint256"
        }
      ],
      "payable": false,
      "stateMutability": "view",
      "type": "function"
    },
    {
      "constant": false,
      "inputs": [
        {
          "internalType": "address",
          "name": "_rewardDistributor",
          "type": "address"
        }
      ],
      "name": "setRewardDistributor",
      "outputs": [],
      "payable": false,
      "stateMutability": "nonpayable",
      "type": "function"
    },
    {
      "constant": true,
      "inputs": [
        {
          "internalType": "address",
          "name": "_account",
          "type": "address"
        }
      ],
      "name": "sharesOf",
      "outputs": [
        {
          "internalType": "uint256",
          "name": "",
          "type": "uint256"
        }
      ],
      "payable": false,
      "stateMutability": "view",
      "type": "function"
    },
    {
      "constant": true,
      "inputs": [],
      "name": "stakingToken",
      "outputs": [
        {
          "internalType": "contract IERC20",
          "name": "",
          "type": "address"
        }
      ],
      "payable": false,
      "stateMutability": "view",
      "type": "function"
    },
    {
      "constant": true,
      "inputs": [],
      "name": "totalShares",
      "outputs": [
        {
          "internalType": "uint256",
          "name": "",
          "type": "uint256"
        }
      ],
      "payable": false,
      "stateMutability": "view",
      "type": "function"
    },
    {
      "constant": false,
      "inputs": [
        {
          "internalType": "address",
          "name": "newOwner",
          "type": "address"
        }
      ],
      "name": "transferOwnership",
      "outputs": [],
      "payable": false,
      "stateMutability": "nonpayable",
      "type": "function"
    },
    {
      "constant": true,
      "inputs": [
        {
          "internalType": "address",
          "name": "",
          "type": "address"
        }
      ],
      "name": "userRewardPerSharePaid",
      "outputs": [
        {
          "internalType": "uint256",
          "name": "",
          "type": "uint256"
        }
      ],
      "payable": false,
      "stateMutability": "view",
      "type": "function"
    },
    {
      "constant": false,
      "inputs": [
        {
          "internalType": "address",
          "name": "_beneficiary",
          "type": "address"
        },
        {
          "internalType": "uint256",
          "name": "_amount",
          "type": "uint256"
        }
      ],
      "name": "stake",
      "outputs": [],
      "payable": false,
      "stateMutability": "nonpayable",
      "type": "function"
    },
    {
      "constant": false,
      "inputs": [
        {
          "internalType": "address",
          "name": "_beneficiary",
          "type": "address"
        },
        {
          "internalType": "uint256",
          "name": "_amount",
          "type": "uint256"
        }
      ],
      "name": "withdraw",
      "outputs": [],
      "payable": false,
      "stateMutability": "nonpayable",
      "type": "function"
    },
    {
      "constant": false,
      "inputs": [],
      "name": "exit",
      "outputs": [],
      "payable": false,
      "stateMutability": "nonpayable",
      "type": "function"
    }
  ],
  "bytecode": "0x60806040526000600655600060075534801561001a57600080fd5b506040516119903803806119908339818101604052606081101561003d57600080fd5b50805160208201516040909201519091908181336100626001600160e01b036100fb16565b600280546001600160a01b0319166001600160a01b0392831617908190556040519116906000907f8be0079c531659141344cd1fd0a4f28419497f9722a3daafe3b4186f6b6457e0908290a3600380546001600160a01b03199081166001600160a01b039384161790915560059390935560048054841692821692909217909155600c8054909216941693909317909255506100ff9050565b3390565b6118828061010e6000396000f3fe608060405234801561001057600080fd5b50600436106101ad5760003560e01c80638da5cb5b116100ee578063c8f33c9111610097578063f2fde38b11610071578063f2fde38b146103a5578063f3fef3a3146103d8578063f5eb42dc14610411578063f7c618c114610444576101ad565b8063c8f33c911461038d578063e9fad8ee14610395578063ebe2b12b1461039d576101ad565b8063a1809b95116100c8578063a1809b9514610319578063acc2166a1461034c578063adc9772e14610354576101ad565b80638da5cb5b146102ed5780638f10369a146102f55780638f32d59b146102fd576101ad565b8063446a2ec81161015b578063715018a611610135578063715018a61461027957806372f702f31461028157806380faa57d146102b2578063818ae1ce146102ba576101ad565b8063446a2ec8146102615780634e71d92d146102695780636c9230db14610271576101ad565b80631be052891161018c5780631be05289146102325780633a98ef391461023a5780633c6b16ab14610242576101ad565b80628cc262146101b25780630700037d146101f75780630ab747f01461022a575b600080fd5b6101e5600480360360208110156101c857600080fd5b503573ffffffffffffffffffffffffffffffffffffffff1661044c565b60408051918252519081900360200190f35b6101e56004803603602081101561020d57600080fd5b503573ffffffffffffffffffffffffffffffffffffffff166104df565b6101e56104f1565b6101e56104f7565b6101e56104fd565b61025f6004803603602081101561025857600080fd5b5035610504565b005b6101e56106f9565b61025f610752565b6101e56108d4565b61025f6108d8565b6102896109ba565b6040805173ffffffffffffffffffffffffffffffffffffffff9092168252519081900360200190f35b6101e56109d6565b6101e5600480360360208110156102d057600080fd5b503573ffffffffffffffffffffffffffffffffffffffff166109eb565b6102896109fd565b6101e5610a19565b610305610a1f565b604080519115158252519081900360200190f35b61025f6004803603602081101561032f57600080fd5b503573ffffffffffffffffffffffffffffffffffffffff16610a5f565b610289610b19565b61025f6004803603604081101561036a57600080fd5b5073ffffffffffffffffffffffffffffffffffffffff8135169060200135610b35565b6101e5610bbd565b61025f610bc3565b6101e5610bdf565b61025f600480360360208110156103bb57600080fd5b503573ffffffffffffffffffffffffffffffffffffffff16610be5565b61025f600480360360408110156103ee57600080fd5b5073ffffffffffffffffffffffffffffffffffffffff8135169060200135610c64565b6101e56004803603602081101561042757600080fd5b503573ffffffffffffffffffffffffffffffffffffffff16610d4c565b610289610d74565b73ffffffffffffffffffffffffffffffffffffffff81166000908152600b6020908152604080832054600a9092528220546104d991906104cd90670de0b6b3a7640000906104c1906104ac906104a06106f9565b9063ffffffff610d9016565b6104b588610d4c565b9063ffffffff610dd916565b9063ffffffff610e4c16565b9063ffffffff610e8e16565b92915050565b600b6020526000908152604090205481565b60095481565b60055481565b6000545b90565b60035473ffffffffffffffffffffffffffffffffffffffff16610525610f02565b73ffffffffffffffffffffffffffffffffffffffff16146105a757604080517f08c379a000000000000000000000000000000000000000000000000000000000815260206004820181905260248201527f43616c6c6572206973206e6f7420726577617264206469737472696275746f72604482015290519081900360640190fd5b6000806105b26106f9565b905080156106245760098190556105c76109d6565b60085573ffffffffffffffffffffffffffffffffffffffff821615610624576105ef8261044c565b73ffffffffffffffffffffffffffffffffffffffff83166000908152600b6020908152604080832093909355600a9052208190555b600061062e6108d4565b905060065481106106555760055461064d90859063ffffffff610e4c16565b6007556106a4565b60065460009061066b908363ffffffff610d9016565b9050600061068460075483610dd990919063ffffffff16565b60055490915061069e906104c1888463ffffffff610e8e16565b60075550505b60088190556005546106bd90829063ffffffff610e8e16565b6006556040805185815290517fde88a922e0d3b88b24e9623efeb464919c6bf9f66857a65e2bfcf2ce87a9433d9181900360200190a150505050565b60006107036104fd565b6107105750600954610501565b61074d61073e61071e6104fd565b6104c1670de0b6b3a76400006104b56007546104b56008546104a06109d6565b6009549063ffffffff610e8e16565b905090565b33600061075d6106f9565b905080156107cf5760098190556107726109d6565b60085573ffffffffffffffffffffffffffffffffffffffff8216156107cf5761079a8261044c565b73ffffffffffffffffffffffffffffffffffffffff83166000908152600b6020908152604080832093909355600a9052208190555b60006107da3361044c565b905080156108cf57336000818152600b602090815260408083208390556004805482517fa9059cbb0000000000000000000000000000000000000000000000000000000081529182019590955260248101869052905173ffffffffffffffffffffffffffffffffffffffff9094169363a9059cbb93604480840194938390030190829087803b15801561086c57600080fd5b505af1158015610880573d6000803e3d6000fd5b505050506040513d602081101561089657600080fd5b505060408051828152905133917fe2403640ba68fed3a2f88b7557551d1993f84b99bb10ff833f0cf8db0c5e0486919081900360200190a25b505050565b4290565b6108e0610a1f565b61094b57604080517f08c379a000000000000000000000000000000000000000000000000000000000815260206004820181905260248201527f4f776e61626c653a2063616c6c6572206973206e6f7420746865206f776e6572604482015290519081900360640190fd5b60025460405160009173ffffffffffffffffffffffffffffffffffffffff16907f8be0079c531659141344cd1fd0a4f28419497f9722a3daafe3b4186f6b6457e0908390a3600280547fffffffffffffffffffffffff0000000000000000000000000000000000000000169055565b600c5473ffffffffffffffffffffffffffffffffffffffff1681565b600061074d6109e36108d4565b600654610f06565b600a6020526000908152604090205481565b60025473ffffffffffffffffffffffffffffffffffffffff1690565b60075481565b60025460009073ffffffffffffffffffffffffffffffffffffffff16610a43610f02565b73ffffffffffffffffffffffffffffffffffffffff1614905090565b610a67610a1f565b610ad257604080517f08c379a000000000000000000000000000000000000000000000000000000000815260206004820181905260248201527f4f776e61626c653a2063616c6c6572206973206e6f7420746865206f776e6572604482015290519081900360640190fd5b600380547fffffffffffffffffffffffff00000000000000000000000000000000000000001673ffffffffffffffffffffffffffffffffffffffff92909216919091179055565b60035473ffffffffffffffffffffffffffffffffffffffff1681565b600c54610b609073ffffffffffffffffffffffffffffffffffffffff1633308463ffffffff610f1c16565b610b6a8282610fb7565b60408051828152336020820152815173ffffffffffffffffffffffffffffffffffffffff8516927f9f9e4044c5742cca66ca090b21552bac14645e68bad7a92364a9d9ff18111a1c928290030190a25050565b60085481565b610bd533610bd033610d4c565b610c64565b610bdd610752565b565b60065481565b610bed610a1f565b610c5857604080517f08c379a000000000000000000000000000000000000000000000000000000000815260206004820181905260248201527f4f776e61626c653a2063616c6c6572206973206e6f7420746865206f776e6572604482015290519081900360640190fd5b610c6181611097565b50565b80610c6e33610d4c565b1015610cc5576040517f08c379a000000000000000000000000000000000000000000000000000000000815260040180806020018281038252602f815260200180611792602f913960400191505060405180910390fd5b610ccf3382611191565b600c54610cf99073ffffffffffffffffffffffffffffffffffffffff16838363ffffffff61127116565b60408051828152336020820152815173ffffffffffffffffffffffffffffffffffffffff8516927fcbcdbdf10631a43cc99c80acace8232649421c3f4f73919f16013d47c83a687a928290030190a25050565b73ffffffffffffffffffffffffffffffffffffffff1660009081526001602052604090205490565b60045473ffffffffffffffffffffffffffffffffffffffff1681565b6000610dd283836040518060400160405280601e81526020017f536166654d6174683a207375627472616374696f6e206f766572666c6f7700008152506112fe565b9392505050565b600082610de8575060006104d9565b82820282848281610df557fe5b0414610dd2576040517f08c379a00000000000000000000000000000000000000000000000000000000081526004018080602001828103825260218152602001806117c16021913960400191505060405180910390fd5b6000610dd283836040518060400160405280601a81526020017f536166654d6174683a206469766973696f6e206279207a65726f0000000000008152506113af565b600082820183811015610dd257604080517f08c379a000000000000000000000000000000000000000000000000000000000815260206004820152601b60248201527f536166654d6174683a206164646974696f6e206f766572666c6f770000000000604482015290519081900360640190fd5b3390565b6000818310610f155781610dd2565b5090919050565b6040805173ffffffffffffffffffffffffffffffffffffffff85811660248301528416604482015260648082018490528251808303909101815260849091019091526020810180517bffffffffffffffffffffffffffffffffffffffffffffffffffffffff167f23b872dd00000000000000000000000000000000000000000000000000000000179052610fb190859061142e565b50505050565b816000610fc26106f9565b90508015611034576009819055610fd76109d6565b60085573ffffffffffffffffffffffffffffffffffffffff82161561103457610fff8261044c565b73ffffffffffffffffffffffffffffffffffffffff83166000908152600b6020908152604080832093909355600a9052208190555b6000831161108d576040517f08c379a00000000000000000000000000000000000000000000000000000000081526004018080602001828103825260218152602001806117e26021913960400191505060405180910390fd5b610fb1848461166c565b73ffffffffffffffffffffffffffffffffffffffff8116611103576040517f08c379a000000000000000000000000000000000000000000000000000000000815260040180806020018281038252602681526020018061176c6026913960400191505060405180910390fd5b60025460405173ffffffffffffffffffffffffffffffffffffffff8084169216907f8be0079c531659141344cd1fd0a4f28419497f9722a3daafe3b4186f6b6457e090600090a3600280547fffffffffffffffffffffffff00000000000000000000000000000000000000001673ffffffffffffffffffffffffffffffffffffffff92909216919091179055565b81600061119c6106f9565b9050801561120e5760098190556111b16109d6565b60085573ffffffffffffffffffffffffffffffffffffffff82161561120e576111d98261044c565b73ffffffffffffffffffffffffffffffffffffffff83166000908152600b6020908152604080832093909355600a9052208190555b60008311611267576040517f08c379a000000000000000000000000000000000000000000000000000000000815260040180806020018281038252602181526020018061182d6021913960400191505060405180910390fd5b610fb184846116e4565b6040805173ffffffffffffffffffffffffffffffffffffffff8416602482015260448082018490528251808303909101815260649091019091526020810180517bffffffffffffffffffffffffffffffffffffffffffffffffffffffff167fa9059cbb000000000000000000000000000000000000000000000000000000001790526108cf90849061142e565b600081848411156113a7576040517f08c379a00000000000000000000000000000000000000000000000000000000081526004018080602001828103825283818151815260200191508051906020019080838360005b8381101561136c578181015183820152602001611354565b50505050905090810190601f1680156113995780820380516001836020036101000a031916815260200191505b509250505060405180910390fd5b505050900390565b60008183611418576040517f08c379a000000000000000000000000000000000000000000000000000000000815260206004820181815283516024840152835190928392604490910191908501908083836000831561136c578181015183820152602001611354565b50600083858161142457fe5b0495945050505050565b61144d8273ffffffffffffffffffffffffffffffffffffffff1661172f565b6114b857604080517f08c379a000000000000000000000000000000000000000000000000000000000815260206004820152601f60248201527f5361666545524332303a2063616c6c20746f206e6f6e2d636f6e747261637400604482015290519081900360640190fd5b600060608373ffffffffffffffffffffffffffffffffffffffff16836040518082805190602001908083835b6020831061152157805182527fffffffffffffffffffffffffffffffffffffffffffffffffffffffffffffffe090920191602091820191016114e4565b6001836020036101000a0380198251168184511680821785525050505050509050019150506000604051808303816000865af19150503d8060008114611583576040519150601f19603f3d011682016040523d82523d6000602084013e611588565b606091505b5091509150816115f957604080517f08c379a000000000000000000000000000000000000000000000000000000000815260206004820181905260248201527f5361666545524332303a206c6f772d6c6576656c2063616c6c206661696c6564604482015290519081900360640190fd5b805115610fb15780806020019051602081101561161557600080fd5b5051610fb1576040517f08c379a000000000000000000000000000000000000000000000000000000000815260040180806020018281038252602a815260200180611803602a913960400191505060405180910390fd5b60005461167f908263ffffffff610e8e16565b600090815573ffffffffffffffffffffffffffffffffffffffff83168152600160205260409020546116b7908263ffffffff610e8e16565b73ffffffffffffffffffffffffffffffffffffffff90921660009081526001602052604090209190915550565b6000546116f7908263ffffffff610d9016565b600090815573ffffffffffffffffffffffffffffffffffffffff83168152600160205260409020546116b7908263ffffffff610d9016565b6000813f7fc5d2460186f7233c927e7db2dcc703c0e500b653ca82273b7bfad8045d85a47081158015906117635750808214155b94935050505056fe4f776e61626c653a206e6577206f776e657220697320746865207a65726f20616464726573735354414b45445f5245574152445f504f4f4c3a20776974686472617720696e73756666696369656e74207374616b65536166654d6174683a206d756c7469706c69636174696f6e206f766572666c6f775245574152445f504f4f4c3a2063616e6e6f74206d696e742030207368617265735361666545524332303a204552433230206f7065726174696f6e20646964206e6f7420737563636565645245574152445f504f4f4c3a2063616e6e6f74206275726e203020736861726573a265627a7a72315820323306094961b32ff459b053f7ab57486ae557bf13617a4a52db2401874fbcec64736f6c63430005100032",
  "source": "pragma solidity 0.5.16;\n\nimport \"../externals/SafeERC20.sol\";\nimport \"../externals/IERC20.sol\";\n\nimport \"./abstract/RewardPool.sol\";\n\n/**\n * @title  StakedRewardPool\n * @notice RewardPool that track shares based on staking of a stakingToken\n */\ncontract StakedRewardPool is RewardPool {\n    using SafeERC20 for IERC20;\n\n    IERC20 public stakingToken;\n\n    event Staked(address indexed beneficiary, uint256 amount, address payer);\n    event Withdrawn(address indexed beneficiary, uint256 amount, address payer);\n\n    /**\n     * @dev StakedRewardPool constructor\n     * @param _stakingToken Token to be staked\n     */\n    constructor(\n        address _stakingToken,\n        uint256 _DURATION,\n        address _rewardToken\n    )\n        RewardPool (\n            _DURATION,\n            _rewardToken\n        )\n        public\n    {\n        stakingToken = IERC20(_stakingToken);\n    }\n\n    /*** PUBLIC ***/\n\n    /**\n     * @dev Deposits a given amount of StakingToken from sender, increase beneficiary shares\n     * @param _beneficiary Account to stake for\n     * @param _amount Units of shares\n     */\n    function stake(address _beneficiary, uint256 _amount)\n        public\n    {\n        stakingToken.safeTransferFrom(msg.sender, address(this), _amount);\n        _mintShares(_beneficiary, _amount);\n\n        emit Staked(_beneficiary, _amount, msg.sender);\n    }\n\n    /**\n     * @dev Remove a given amount of shares from sender, decrease msg.sender shares\n     * @param _beneficiary Account to withdraw to\n     * @param _amount Units of shares\n     */\n    function withdraw(address _beneficiary, uint256 _amount)\n        public\n    {\n        require(sharesOf(msg.sender) >= _amount, \"STAKED_REWARD_POOL: withdraw insufficient stake\");\n        _burnShares(msg.sender, _amount);\n        stakingToken.safeTransfer(_beneficiary, _amount);\n\n        emit Withdrawn(_beneficiary, _amount, msg.sender);\n    }\n\n    /**\n     * @dev Withdraws stake from pool and claims any rewards\n     */\n    function exit()\n        external\n    {\n        withdraw(msg.sender, sharesOf(msg.sender));\n        claim();\n    }\n}\n",
  "sourcePath": "/Users/mhe70/my-workspace/bretton-protocol/contracts/pools/StakedRewardPool.sol",
  "compiler": {
    "name": "solc",
    "version": "0.5.16+commit.9c3226ce.Emscripten.clang"
  },
  "schemaVersion": "3.2.3",
  "updatedAt": "2020-09-01T04:33:13.921Z",
  "devdoc": {
    "methods": {
      "claim()": {
        "details": "Claim outstanding rewards for sender",
        "return": "uint256 amount claimed"
      },
      "constructor": {
        "details": "StakedRewardPool constructor",
        "params": {
          "_stakingToken": "Token to be staked"
        }
      },
      "earned(address)": {
        "details": "Calculates the amount of rewards earned for a given account",
        "params": {
          "_account": "User for which calculate earned rewards for"
        },
        "return": "uint256 Earned rewards"
      },
      "exit()": {
        "details": "Withdraws stake from pool and claims any rewards"
      },
      "getCurrentTimestamp()": {
        "details": "Get current block timestamp. For easy mocking in test"
      },
      "lastTimeRewardApplicable()": {
        "details": "Gets the last applicable timestamp for this reward period"
      },
      "notifyRewardAmount(uint256)": {
        "details": "Notifies the contract that new rewards have been added. Calculates an updated rewardPerSecond based on the rewards in period.",
        "params": {
          "_reward": "Units of RewardToken that have been added to the pool"
        }
      },
      "rewardPerShare()": {
        "details": "Calculate rewardsPerShare",
        "return": "uint256 rewardsPerShare"
      },
      "sharesOf(address)": {
        "details": "Get the share of a given account",
        "params": {
          "_account": "User for which to retrieve balance"
        },
        "return": "uint256 shares"
      },
      "stake(address,uint256)": {
        "details": "Deposits a given amount of StakingToken from sender, increase beneficiary shares",
        "params": {
          "_amount": "Units of shares",
          "_beneficiary": "Account to stake for"
        }
      },
      "totalShares()": {
        "details": "Get the total number of shares in pool",
        "return": "uint256 total shares"
      },
      "withdraw(address,uint256)": {
        "details": "Remove a given amount of shares from sender, decrease msg.sender shares",
        "params": {
          "_amount": "Units of shares",
          "_beneficiary": "Account to withdraw to"
        }
      }
    },
    "title": "StakedRewardPool"
  },
  "userdoc": {
    "methods": {},
    "notice": "RewardPool that track shares based on staking of a stakingToken"
  }
}